{
	"contracts/Swap.sol": {
		"Swap": {
			"abi": [
				{
					"inputs": [
						{
							"internalType": "address",
							"name": "_courseTokenAddress",
							"type": "address"
						}
					],
					"stateMutability": "nonpayable",
					"type": "constructor"
				},
				{
					"anonymous": false,
					"inputs": [
						{
							"indexed": false,
							"internalType": "uint256",
							"name": "orderId",
							"type": "uint256"
						},
						{
							"indexed": true,
							"internalType": "address",
							"name": "student",
							"type": "address"
						}
					],
					"name": "OrderCancelled",
					"type": "event"
				},
				{
					"anonymous": false,
					"inputs": [
						{
							"indexed": false,
							"internalType": "uint256",
							"name": "orderId",
							"type": "uint256"
						},
						{
							"indexed": true,
							"internalType": "address",
							"name": "student",
							"type": "address"
						},
						{
							"indexed": false,
							"internalType": "uint256",
							"name": "offeredTokenId",
							"type": "uint256"
						},
						{
							"indexed": false,
							"internalType": "string",
							"name": "requestedCourseID",
							"type": "string"
						}
					],
					"name": "OrderSubmitted",
					"type": "event"
				},
				{
					"anonymous": false,
					"inputs": [
						{
							"indexed": true,
							"internalType": "address",
							"name": "previousOwner",
							"type": "address"
						},
						{
							"indexed": true,
							"internalType": "address",
							"name": "newOwner",
							"type": "address"
						}
					],
					"name": "OwnershipTransferred",
					"type": "event"
				},
				{
					"anonymous": false,
					"inputs": [
						{
							"indexed": false,
							"internalType": "uint256",
							"name": "orderId1",
							"type": "uint256"
						},
						{
							"indexed": false,
							"internalType": "uint256",
							"name": "orderId2",
							"type": "uint256"
						},
						{
							"indexed": false,
							"internalType": "uint256",
							"name": "tokenId1",
							"type": "uint256"
						},
						{
							"indexed": false,
							"internalType": "uint256",
							"name": "tokenId2",
							"type": "uint256"
						}
					],
					"name": "SwapExecuted",
					"type": "event"
				},
				{
					"anonymous": false,
					"inputs": [
						{
							"indexed": false,
							"internalType": "uint256",
							"name": "orderId1",
							"type": "uint256"
						},
						{
							"indexed": false,
							"internalType": "address",
							"name": "student1",
							"type": "address"
						},
						{
							"indexed": false,
							"internalType": "string",
							"name": "courseID1",
							"type": "string"
						},
						{
							"indexed": false,
							"internalType": "string",
							"name": "preceptID1",
							"type": "string"
						},
						{
							"indexed": false,
							"internalType": "uint256",
							"name": "orderId2",
							"type": "uint256"
						},
						{
							"indexed": false,
							"internalType": "address",
							"name": "student2",
							"type": "address"
						},
						{
							"indexed": false,
							"internalType": "string",
							"name": "courseID2",
							"type": "string"
						},
						{
							"indexed": false,
							"internalType": "string",
							"name": "preceptID2",
							"type": "string"
						}
					],
					"name": "SwapExecutedVerbose",
					"type": "event"
				},
				{
					"inputs": [],
					"name": "cancelAllOrders",
					"outputs": [],
					"stateMutability": "nonpayable",
					"type": "function"
				},
				{
					"inputs": [
						{
							"internalType": "uint256",
							"name": "orderId",
							"type": "uint256"
						}
					],
					"name": "cancelOrder",
					"outputs": [],
					"stateMutability": "nonpayable",
					"type": "function"
				},
				{
					"inputs": [],
					"name": "courseToken",
					"outputs": [
						{
							"internalType": "contract ICourseTokenEnumerable",
							"name": "",
							"type": "address"
						}
					],
					"stateMutability": "view",
					"type": "function"
				},
				{
					"inputs": [],
					"name": "executeSwaps",
					"outputs": [],
					"stateMutability": "nonpayable",
					"type": "function"
				},
				{
					"inputs": [],
					"name": "getActiveOrdersWithMetadata",
					"outputs": [
						{
							"components": [
								{
									"internalType": "uint256",
									"name": "orderId",
									"type": "uint256"
								},
								{
									"internalType": "address",
									"name": "student",
									"type": "address"
								},
								{
									"internalType": "uint256",
									"name": "offeredTokenId",
									"type": "uint256"
								},
								{
									"internalType": "string",
									"name": "requestedCourseID",
									"type": "string"
								},
								{
									"internalType": "string",
									"name": "courseID",
									"type": "string"
								},
								{
									"internalType": "string",
									"name": "preceptID",
									"type": "string"
								},
								{
									"internalType": "string",
									"name": "timing",
									"type": "string"
								},
								{
									"internalType": "string",
									"name": "coursePageURL",
									"type": "string"
								}
							],
							"internalType": "struct Swap.OrderWithMetadata[]",
							"name": "",
							"type": "tuple[]"
						}
					],
					"stateMutability": "view",
					"type": "function"
				},
				{
					"inputs": [],
					"name": "orderCounter",
					"outputs": [
						{
							"internalType": "uint256",
							"name": "",
							"type": "uint256"
						}
					],
					"stateMutability": "view",
					"type": "function"
				},
				{
					"inputs": [
						{
							"internalType": "uint256",
							"name": "",
							"type": "uint256"
						}
					],
					"name": "orderIds",
					"outputs": [
						{
							"internalType": "uint256",
							"name": "",
							"type": "uint256"
						}
					],
					"stateMutability": "view",
					"type": "function"
				},
				{
					"inputs": [
						{
							"internalType": "uint256",
							"name": "",
							"type": "uint256"
						}
					],
					"name": "orders",
					"outputs": [
						{
							"internalType": "uint256",
							"name": "orderId",
							"type": "uint256"
						},
						{
							"internalType": "address",
							"name": "student",
							"type": "address"
						},
						{
							"internalType": "uint256",
							"name": "offeredTokenId",
							"type": "uint256"
						},
						{
							"internalType": "string",
							"name": "requestedCourseID",
							"type": "string"
						},
						{
							"internalType": "bool",
							"name": "active",
							"type": "bool"
						}
					],
					"stateMutability": "view",
					"type": "function"
				},
				{
					"inputs": [],
					"name": "owner",
					"outputs": [
						{
							"internalType": "address",
							"name": "",
							"type": "address"
						}
					],
					"stateMutability": "view",
					"type": "function"
				},
				{
					"inputs": [],
					"name": "renounceOwnership",
					"outputs": [],
					"stateMutability": "nonpayable",
					"type": "function"
				},
				{
					"inputs": [
						{
							"internalType": "uint256",
							"name": "offeredTokenId",
							"type": "uint256"
						},
						{
							"internalType": "string",
							"name": "requestedCourseID",
							"type": "string"
						}
					],
					"name": "submitOrder",
					"outputs": [],
					"stateMutability": "nonpayable",
					"type": "function"
				},
				{
					"inputs": [
						{
							"internalType": "address",
							"name": "newOwner",
							"type": "address"
						}
					],
					"name": "transferOwnership",
					"outputs": [],
					"stateMutability": "nonpayable",
					"type": "function"
				}
			],
			"devdoc": {
				"kind": "dev",
				"methods": {
					"owner()": {
						"details": "Returns the address of the current owner."
					},
					"renounceOwnership()": {
						"details": "Leaves the contract without owner. It will not be possible to call `onlyOwner` functions anymore. Can only be called by the current owner. NOTE: Renouncing ownership will leave the contract without an owner, thereby removing any functionality that is only available to the owner."
					},
					"transferOwnership(address)": {
						"details": "Transfers ownership of the contract to a new account (`newOwner`). Can only be called by the current owner."
					}
				},
				"version": 1
			},
			"evm": {
				"assembly": "    /* \"contracts/Swap.sol\":840:9089  contract Swap is Ownable {... */\n  mstore(0x40, 0x80)\n    /* \"contracts/Swap.sol\":2020:2147  constructor(address _courseTokenAddress) Ownable() {... */\n  callvalue\n  dup1\n  iszero\n  tag_1\n  jumpi\n  0x00\n  dup1\n  revert\ntag_1:\n  pop\n  mload(0x40)\n  sub(codesize, bytecodeSize)\n  dup1\n  bytecodeSize\n  dup4\n  codecopy\n  dup2\n  dup2\n  add\n  0x40\n  mstore\n  dup2\n  add\n  swap1\n  tag_2\n  swap2\n  swap1\n  tag_3\n  jump\t// in\ntag_2:\n    /* \"https://github.com/OpenZeppelin/openzeppelin-contracts/blob/v4.8.0/contracts/access/Ownable.sol\":936:968  _transferOwnership(_msgSender()) */\n  tag_7\n    /* \"https://github.com/OpenZeppelin/openzeppelin-contracts/blob/v4.8.0/contracts/access/Ownable.sol\":955:967  _msgSender() */\n  tag_8\n    /* \"https://github.com/OpenZeppelin/openzeppelin-contracts/blob/v4.8.0/contracts/access/Ownable.sol\":955:965  _msgSender */\n  shl(0x20, tag_9)\n    /* \"https://github.com/OpenZeppelin/openzeppelin-contracts/blob/v4.8.0/contracts/access/Ownable.sol\":955:967  _msgSender() */\n  0x20\n  shr\n  jump\t// in\ntag_8:\n    /* \"https://github.com/OpenZeppelin/openzeppelin-contracts/blob/v4.8.0/contracts/access/Ownable.sol\":936:954  _transferOwnership */\n  shl(0x20, tag_10)\n    /* \"https://github.com/OpenZeppelin/openzeppelin-contracts/blob/v4.8.0/contracts/access/Ownable.sol\":936:968  _transferOwnership(_msgSender()) */\n  0x20\n  shr\n  jump\t// in\ntag_7:\n    /* \"contracts/Swap.sol\":2119:2138  _courseTokenAddress */\n  dup1\n    /* \"contracts/Swap.sol\":2082:2093  courseToken */\n  0x01\n  0x00\n    /* \"contracts/Swap.sol\":2082:2139  courseToken = ICourseTokenEnumerable(_courseTokenAddress) */\n  0x0100\n  exp\n  dup2\n  sload\n  dup2\n  0xffffffffffffffffffffffffffffffffffffffff\n  mul\n  not\n  and\n  swap1\n  dup4\n  0xffffffffffffffffffffffffffffffffffffffff\n  and\n  mul\n  or\n  swap1\n  sstore\n  pop\n    /* \"contracts/Swap.sol\":2020:2147  constructor(address _courseTokenAddress) Ownable() {... */\n  pop\n    /* \"contracts/Swap.sol\":840:9089  contract Swap is Ownable {... */\n  jump(tag_12)\n    /* \"https://github.com/OpenZeppelin/openzeppelin-contracts/blob/v4.8.0/contracts/utils/Context.sol\":640:736  function _msgSender() internal view virtual returns (address) {... */\ntag_9:\n    /* \"https://github.com/OpenZeppelin/openzeppelin-contracts/blob/v4.8.0/contracts/utils/Context.sol\":693:700  address */\n  0x00\n    /* \"https://github.com/OpenZeppelin/openzeppelin-contracts/blob/v4.8.0/contracts/utils/Context.sol\":719:729  msg.sender */\n  caller\n    /* \"https://github.com/OpenZeppelin/openzeppelin-contracts/blob/v4.8.0/contracts/utils/Context.sol\":712:729  return msg.sender */\n  swap1\n  pop\n    /* \"https://github.com/OpenZeppelin/openzeppelin-contracts/blob/v4.8.0/contracts/utils/Context.sol\":640:736  function _msgSender() internal view virtual returns (address) {... */\n  swap1\n  jump\t// out\n    /* \"https://github.com/OpenZeppelin/openzeppelin-contracts/blob/v4.8.0/contracts/access/Ownable.sol\":2433:2620  function _transferOwnership(address newOwner) internal virtual {... */\ntag_10:\n    /* \"https://github.com/OpenZeppelin/openzeppelin-contracts/blob/v4.8.0/contracts/access/Ownable.sol\":2506:2522  address oldOwner */\n  0x00\n    /* \"https://github.com/OpenZeppelin/openzeppelin-contracts/blob/v4.8.0/contracts/access/Ownable.sol\":2525:2531  _owner */\n  dup1\n  0x00\n  swap1\n  sload\n  swap1\n  0x0100\n  exp\n  swap1\n  div\n  0xffffffffffffffffffffffffffffffffffffffff\n  and\n    /* \"https://github.com/OpenZeppelin/openzeppelin-contracts/blob/v4.8.0/contracts/access/Ownable.sol\":2506:2531  address oldOwner = _owner */\n  swap1\n  pop\n    /* \"https://github.com/OpenZeppelin/openzeppelin-contracts/blob/v4.8.0/contracts/access/Ownable.sol\":2550:2558  newOwner */\n  dup2\n    /* \"https://github.com/OpenZeppelin/openzeppelin-contracts/blob/v4.8.0/contracts/access/Ownable.sol\":2541:2547  _owner */\n  0x00\n  dup1\n    /* \"https://github.com/OpenZeppelin/openzeppelin-contracts/blob/v4.8.0/contracts/access/Ownable.sol\":2541:2558  _owner = newOwner */\n  0x0100\n  exp\n  dup2\n  sload\n  dup2\n  0xffffffffffffffffffffffffffffffffffffffff\n  mul\n  not\n  and\n  swap1\n  dup4\n  0xffffffffffffffffffffffffffffffffffffffff\n  and\n  mul\n  or\n  swap1\n  sstore\n  pop\n    /* \"https://github.com/OpenZeppelin/openzeppelin-contracts/blob/v4.8.0/contracts/access/Ownable.sol\":2604:2612  newOwner */\n  dup2\n    /* \"https://github.com/OpenZeppelin/openzeppelin-contracts/blob/v4.8.0/contracts/access/Ownable.sol\":2573:2613  OwnershipTransferred(oldOwner, newOwner) */\n  0xffffffffffffffffffffffffffffffffffffffff\n  and\n    /* \"https://github.com/OpenZeppelin/openzeppelin-contracts/blob/v4.8.0/contracts/access/Ownable.sol\":2594:2602  oldOwner */\n  dup2\n    /* \"https://github.com/OpenZeppelin/openzeppelin-contracts/blob/v4.8.0/contracts/access/Ownable.sol\":2573:2613  OwnershipTransferred(oldOwner, newOwner) */\n  0xffffffffffffffffffffffffffffffffffffffff\n  and\n  0x8be0079c531659141344cd1fd0a4f28419497f9722a3daafe3b4186f6b6457e0\n  mload(0x40)\n  mload(0x40)\n  dup1\n  swap2\n  sub\n  swap1\n  log3\n    /* \"https://github.com/OpenZeppelin/openzeppelin-contracts/blob/v4.8.0/contracts/access/Ownable.sol\":2496:2620  {... */\n  pop\n    /* \"https://github.com/OpenZeppelin/openzeppelin-contracts/blob/v4.8.0/contracts/access/Ownable.sol\":2433:2620  function _transferOwnership(address newOwner) internal virtual {... */\n  pop\n  jump\t// out\n    /* \"#utility.yul\":88:205   */\ntag_16:\n    /* \"#utility.yul\":197:198   */\n  0x00\n    /* \"#utility.yul\":194:195   */\n  dup1\n    /* \"#utility.yul\":187:199   */\n  revert\n    /* \"#utility.yul\":334:460   */\ntag_18:\n    /* \"#utility.yul\":371:378   */\n  0x00\n    /* \"#utility.yul\":411:453   */\n  0xffffffffffffffffffffffffffffffffffffffff\n    /* \"#utility.yul\":404:409   */\n  dup3\n    /* \"#utility.yul\":400:454   */\n  and\n    /* \"#utility.yul\":389:454   */\n  swap1\n  pop\n    /* \"#utility.yul\":334:460   */\n  swap2\n  swap1\n  pop\n  jump\t// out\n    /* \"#utility.yul\":466:562   */\ntag_19:\n    /* \"#utility.yul\":503:510   */\n  0x00\n    /* \"#utility.yul\":532:556   */\n  tag_28\n    /* \"#utility.yul\":550:555   */\n  dup3\n    /* \"#utility.yul\":532:556   */\n  tag_18\n  jump\t// in\ntag_28:\n    /* \"#utility.yul\":521:556   */\n  swap1\n  pop\n    /* \"#utility.yul\":466:562   */\n  swap2\n  swap1\n  pop\n  jump\t// out\n    /* \"#utility.yul\":568:690   */\ntag_20:\n    /* \"#utility.yul\":641:665   */\n  tag_30\n    /* \"#utility.yul\":659:664   */\n  dup2\n    /* \"#utility.yul\":641:665   */\n  tag_19\n  jump\t// in\ntag_30:\n    /* \"#utility.yul\":634:639   */\n  dup2\n    /* \"#utility.yul\":631:666   */\n  eq\n    /* \"#utility.yul\":621:684   */\n  tag_31\n  jumpi\n    /* \"#utility.yul\":680:681   */\n  0x00\n    /* \"#utility.yul\":677:678   */\n  dup1\n    /* \"#utility.yul\":670:682   */\n  revert\n    /* \"#utility.yul\":621:684   */\ntag_31:\n    /* \"#utility.yul\":568:690   */\n  pop\n  jump\t// out\n    /* \"#utility.yul\":696:839   */\ntag_21:\n    /* \"#utility.yul\":753:758   */\n  0x00\n    /* \"#utility.yul\":784:790   */\n  dup2\n    /* \"#utility.yul\":778:791   */\n  mload\n    /* \"#utility.yul\":769:791   */\n  swap1\n  pop\n    /* \"#utility.yul\":800:833   */\n  tag_33\n    /* \"#utility.yul\":827:832   */\n  dup2\n    /* \"#utility.yul\":800:833   */\n  tag_20\n  jump\t// in\ntag_33:\n    /* \"#utility.yul\":696:839   */\n  swap3\n  swap2\n  pop\n  pop\n  jump\t// out\n    /* \"#utility.yul\":845:1196   */\ntag_3:\n    /* \"#utility.yul\":915:921   */\n  0x00\n    /* \"#utility.yul\":964:966   */\n  0x20\n    /* \"#utility.yul\":952:961   */\n  dup3\n    /* \"#utility.yul\":943:950   */\n  dup5\n    /* \"#utility.yul\":939:962   */\n  sub\n    /* \"#utility.yul\":935:967   */\n  slt\n    /* \"#utility.yul\":932:1051   */\n  iszero\n  tag_35\n  jumpi\n    /* \"#utility.yul\":970:1049   */\n  tag_36\n  tag_16\n  jump\t// in\ntag_36:\n    /* \"#utility.yul\":932:1051   */\ntag_35:\n    /* \"#utility.yul\":1090:1091   */\n  0x00\n    /* \"#utility.yul\":1115:1179   */\n  tag_37\n    /* \"#utility.yul\":1171:1178   */\n  dup5\n    /* \"#utility.yul\":1162:1168   */\n  dup3\n    /* \"#utility.yul\":1151:1160   */\n  dup6\n    /* \"#utility.yul\":1147:1169   */\n  add\n    /* \"#utility.yul\":1115:1179   */\n  tag_21\n  jump\t// in\ntag_37:\n    /* \"#utility.yul\":1105:1179   */\n  swap2\n  pop\n    /* \"#utility.yul\":1061:1189   */\n  pop\n    /* \"#utility.yul\":845:1196   */\n  swap3\n  swap2\n  pop\n  pop\n  jump\t// out\n    /* \"contracts/Swap.sol\":840:9089  contract Swap is Ownable {... */\ntag_12:\n  dataSize(sub_0)\n  dup1\n  dataOffset(sub_0)\n  0x00\n  codecopy\n  0x00\n  return\nstop\n\nsub_0: assembly {\n        /* \"contracts/Swap.sol\":840:9089  contract Swap is Ownable {... */\n      mstore(0x40, 0x80)\n      callvalue\n      dup1\n      iszero\n      tag_1\n      jumpi\n      0x00\n      dup1\n      revert\n    tag_1:\n      pop\n      jumpi(tag_2, lt(calldatasize, 0x04))\n      shr(0xe0, calldataload(0x00))\n      dup1\n      0x8d22d446\n      gt\n      tag_15\n      jumpi\n      dup1\n      0x8d22d446\n      eq\n      tag_9\n      jumpi\n      dup1\n      0x8da5cb5b\n      eq\n      tag_10\n      jumpi\n      dup1\n      0xa85c38ef\n      eq\n      tag_11\n      jumpi\n      dup1\n      0xb789bf52\n      eq\n      tag_12\n      jumpi\n      dup1\n      0xf2fde38b\n      eq\n      tag_13\n      jumpi\n      dup1\n      0xffe7dc4e\n      eq\n      tag_14\n      jumpi\n      jump(tag_2)\n    tag_15:\n      dup1\n      0x028afabf\n      eq\n      tag_3\n      jumpi\n      dup1\n      0x05462c6d\n      eq\n      tag_4\n      jumpi\n      dup1\n      0x23722084\n      eq\n      tag_5\n      jumpi\n      dup1\n      0x32603f2d\n      eq\n      tag_6\n      jumpi\n      dup1\n      0x514fcac7\n      eq\n      tag_7\n      jumpi\n      dup1\n      0x715018a6\n      eq\n      tag_8\n      jumpi\n    tag_2:\n      0x00\n      dup1\n      revert\n        /* \"contracts/Swap.sol\":2932:3275  function cancelAllOrders() public onlyOwner {... */\n    tag_3:\n      tag_16\n      tag_17\n      jump\t// in\n    tag_16:\n      stop\n        /* \"contracts/Swap.sol\":1312:1353  ICourseTokenEnumerable public courseToken */\n    tag_4:\n      tag_18\n      tag_19\n      jump\t// in\n    tag_18:\n      mload(0x40)\n      tag_20\n      swap2\n      swap1\n      tag_21\n      jump\t// in\n    tag_20:\n      mload(0x40)\n      dup1\n      swap2\n      sub\n      swap1\n      return\n        /* \"contracts/Swap.sol\":1440:1465  uint256[] public orderIds */\n    tag_5:\n      tag_22\n      0x04\n      dup1\n      calldatasize\n      sub\n      dup2\n      add\n      swap1\n      tag_23\n      swap2\n      swap1\n      tag_24\n      jump\t// in\n    tag_23:\n      tag_25\n      jump\t// in\n    tag_22:\n      mload(0x40)\n      tag_26\n      swap2\n      swap1\n      tag_27\n      jump\t// in\n    tag_26:\n      mload(0x40)\n      dup1\n      swap2\n      sub\n      swap1\n      return\n        /* \"contracts/Swap.sol\":3283:4597  function getActiveOrdersWithMetadata() public view onlyOwner returns (OrderWithMetadata[] memory) {... */\n    tag_6:\n      tag_28\n      tag_29\n      jump\t// in\n    tag_28:\n      mload(0x40)\n      tag_30\n      swap2\n      swap1\n      tag_31\n      jump\t// in\n    tag_30:\n      mload(0x40)\n      dup1\n      swap2\n      sub\n      swap1\n      return\n        /* \"contracts/Swap.sol\":2621:2924  function cancelOrder(uint256 orderId) public {... */\n    tag_7:\n      tag_32\n      0x04\n      dup1\n      calldatasize\n      sub\n      dup2\n      add\n      swap1\n      tag_33\n      swap2\n      swap1\n      tag_24\n      jump\t// in\n    tag_33:\n      tag_34\n      jump\t// in\n    tag_32:\n      stop\n        /* \"https://github.com/OpenZeppelin/openzeppelin-contracts/blob/v4.8.0/contracts/access/Ownable.sol\":1831:1932  function renounceOwnership() public virtual onlyOwner {... */\n    tag_8:\n      tag_35\n      tag_36\n      jump\t// in\n    tag_35:\n      stop\n        /* \"contracts/Swap.sol\":2155:2613  function submitOrder(uint256 offeredTokenId, string memory requestedCourseID) public {... */\n    tag_9:\n      tag_37\n      0x04\n      dup1\n      calldatasize\n      sub\n      dup2\n      add\n      swap1\n      tag_38\n      swap2\n      swap1\n      tag_39\n      jump\t// in\n    tag_38:\n      tag_40\n      jump\t// in\n    tag_37:\n      stop\n        /* \"https://github.com/OpenZeppelin/openzeppelin-contracts/blob/v4.8.0/contracts/access/Ownable.sol\":1201:1286  function owner() public view virtual returns (address) {... */\n    tag_10:\n      tag_41\n      tag_42\n      jump\t// in\n    tag_41:\n      mload(0x40)\n      tag_43\n      swap2\n      swap1\n      tag_44\n      jump\t// in\n    tag_43:\n      mload(0x40)\n      dup1\n      swap2\n      sub\n      swap1\n      return\n        /* \"contracts/Swap.sol\":1394:1433  mapping(uint256 => Order) public orders */\n    tag_11:\n      tag_45\n      0x04\n      dup1\n      calldatasize\n      sub\n      dup2\n      add\n      swap1\n      tag_46\n      swap2\n      swap1\n      tag_24\n      jump\t// in\n    tag_46:\n      tag_47\n      jump\t// in\n    tag_45:\n      mload(0x40)\n      tag_48\n      swap6\n      swap5\n      swap4\n      swap3\n      swap2\n      swap1\n      tag_49\n      jump\t// in\n    tag_48:\n      mload(0x40)\n      dup1\n      swap2\n      sub\n      swap1\n      return\n        /* \"contracts/Swap.sol\":1360:1387  uint256 public orderCounter */\n    tag_12:\n      tag_50\n      tag_51\n      jump\t// in\n    tag_50:\n      mload(0x40)\n      tag_52\n      swap2\n      swap1\n      tag_27\n      jump\t// in\n    tag_52:\n      mload(0x40)\n      dup1\n      swap2\n      sub\n      swap1\n      return\n        /* \"https://github.com/OpenZeppelin/openzeppelin-contracts/blob/v4.8.0/contracts/access/Ownable.sol\":2081:2279  function transferOwnership(address newOwner) public virtual onlyOwner {... */\n    tag_13:\n      tag_53\n      0x04\n      dup1\n      calldatasize\n      sub\n      dup2\n      add\n      swap1\n      tag_54\n      swap2\n      swap1\n      tag_55\n      jump\t// in\n    tag_54:\n      tag_56\n      jump\t// in\n    tag_53:\n      stop\n        /* \"contracts/Swap.sol\":4605:7217  function executeSwaps() public onlyOwner {... */\n    tag_14:\n      tag_57\n      tag_58\n      jump\t// in\n    tag_57:\n      stop\n        /* \"contracts/Swap.sol\":2932:3275  function cancelAllOrders() public onlyOwner {... */\n    tag_17:\n        /* \"https://github.com/OpenZeppelin/openzeppelin-contracts/blob/v4.8.0/contracts/access/Ownable.sol\":1094:1107  _checkOwner() */\n      tag_60\n        /* \"https://github.com/OpenZeppelin/openzeppelin-contracts/blob/v4.8.0/contracts/access/Ownable.sol\":1094:1105  _checkOwner */\n      tag_61\n        /* \"https://github.com/OpenZeppelin/openzeppelin-contracts/blob/v4.8.0/contracts/access/Ownable.sol\":1094:1107  _checkOwner() */\n      jump\t// in\n    tag_60:\n        /* \"contracts/Swap.sol\":2992:3001  uint256 i */\n      0x00\n        /* \"contracts/Swap.sol\":2987:3268  for (uint256 i = 0; i < orderIds.length; i++) {... */\n    tag_63:\n        /* \"contracts/Swap.sol\":3011:3019  orderIds */\n      0x04\n        /* \"contracts/Swap.sol\":3011:3026  orderIds.length */\n      dup1\n      sload\n      swap1\n      pop\n        /* \"contracts/Swap.sol\":3007:3008  i */\n      dup2\n        /* \"contracts/Swap.sol\":3007:3026  i < orderIds.length */\n      lt\n        /* \"contracts/Swap.sol\":2987:3268  for (uint256 i = 0; i < orderIds.length; i++) {... */\n      iszero\n      tag_64\n      jumpi\n        /* \"contracts/Swap.sol\":3048:3063  uint256 orderId */\n      0x00\n        /* \"contracts/Swap.sol\":3066:3074  orderIds */\n      0x04\n        /* \"contracts/Swap.sol\":3075:3076  i */\n      dup3\n        /* \"contracts/Swap.sol\":3066:3077  orderIds[i] */\n      dup2\n      sload\n      dup2\n      lt\n      tag_66\n      jumpi\n      tag_67\n      tag_68\n      jump\t// in\n    tag_67:\n    tag_66:\n      swap1\n      0x00\n      mstore\n      keccak256(0x00, 0x20)\n      add\n      sload\n        /* \"contracts/Swap.sol\":3048:3077  uint256 orderId = orderIds[i] */\n      swap1\n      pop\n        /* \"contracts/Swap.sol\":3096:3102  orders */\n      0x03\n        /* \"contracts/Swap.sol\":3096:3111  orders[orderId] */\n      0x00\n        /* \"contracts/Swap.sol\":3103:3110  orderId */\n      dup3\n        /* \"contracts/Swap.sol\":3096:3111  orders[orderId] */\n      dup2\n      mstore\n      0x20\n      add\n      swap1\n      dup2\n      mstore\n      0x20\n      add\n      0x00\n      keccak256\n        /* \"contracts/Swap.sol\":3096:3118  orders[orderId].active */\n      0x04\n      add\n      0x00\n      swap1\n      sload\n      swap1\n      0x0100\n      exp\n      swap1\n      div\n      0xff\n      and\n        /* \"contracts/Swap.sol\":3092:3257  if (orders[orderId].active) {... */\n      iszero\n      tag_70\n      jumpi\n        /* \"contracts/Swap.sol\":3164:3169  false */\n      0x00\n        /* \"contracts/Swap.sol\":3139:3145  orders */\n      0x03\n        /* \"contracts/Swap.sol\":3139:3154  orders[orderId] */\n      0x00\n        /* \"contracts/Swap.sol\":3146:3153  orderId */\n      dup4\n        /* \"contracts/Swap.sol\":3139:3154  orders[orderId] */\n      dup2\n      mstore\n      0x20\n      add\n      swap1\n      dup2\n      mstore\n      0x20\n      add\n      0x00\n      keccak256\n        /* \"contracts/Swap.sol\":3139:3161  orders[orderId].active */\n      0x04\n      add\n      0x00\n        /* \"contracts/Swap.sol\":3139:3169  orders[orderId].active = false */\n      0x0100\n      exp\n      dup2\n      sload\n      dup2\n      0xff\n      mul\n      not\n      and\n      swap1\n      dup4\n      iszero\n      iszero\n      mul\n      or\n      swap1\n      sstore\n      pop\n        /* \"contracts/Swap.sol\":3217:3223  orders */\n      0x03\n        /* \"contracts/Swap.sol\":3217:3232  orders[orderId] */\n      0x00\n        /* \"contracts/Swap.sol\":3224:3231  orderId */\n      dup3\n        /* \"contracts/Swap.sol\":3217:3232  orders[orderId] */\n      dup2\n      mstore\n      0x20\n      add\n      swap1\n      dup2\n      mstore\n      0x20\n      add\n      0x00\n      keccak256\n        /* \"contracts/Swap.sol\":3217:3240  orders[orderId].student */\n      0x01\n      add\n      0x00\n      swap1\n      sload\n      swap1\n      0x0100\n      exp\n      swap1\n      div\n      0xffffffffffffffffffffffffffffffffffffffff\n      and\n        /* \"contracts/Swap.sol\":3193:3241  OrderCancelled(orderId, orders[orderId].student) */\n      0xffffffffffffffffffffffffffffffffffffffff\n      and\n      0xc0362da6f2ff36b382b34aec0814f6b3cdf89f5ef282a1d1f114d0c0b036d596\n        /* \"contracts/Swap.sol\":3208:3215  orderId */\n      dup3\n        /* \"contracts/Swap.sol\":3193:3241  OrderCancelled(orderId, orders[orderId].student) */\n      mload(0x40)\n      tag_71\n      swap2\n      swap1\n      tag_27\n      jump\t// in\n    tag_71:\n      mload(0x40)\n      dup1\n      swap2\n      sub\n      swap1\n      log2\n        /* \"contracts/Swap.sol\":3092:3257  if (orders[orderId].active) {... */\n    tag_70:\n        /* \"contracts/Swap.sol\":3033:3268  {... */\n      pop\n        /* \"contracts/Swap.sol\":3028:3031  i++ */\n      dup1\n      dup1\n      0x01\n      add\n      swap2\n      pop\n      pop\n        /* \"contracts/Swap.sol\":2987:3268  for (uint256 i = 0; i < orderIds.length; i++) {... */\n      jump(tag_63)\n    tag_64:\n      pop\n        /* \"contracts/Swap.sol\":2932:3275  function cancelAllOrders() public onlyOwner {... */\n      jump\t// out\n        /* \"contracts/Swap.sol\":1312:1353  ICourseTokenEnumerable public courseToken */\n    tag_19:\n      0x01\n      0x00\n      swap1\n      sload\n      swap1\n      0x0100\n      exp\n      swap1\n      div\n      0xffffffffffffffffffffffffffffffffffffffff\n      and\n      dup2\n      jump\t// out\n        /* \"contracts/Swap.sol\":1440:1465  uint256[] public orderIds */\n    tag_25:\n      0x04\n      dup2\n      dup2\n      sload\n      dup2\n      lt\n      tag_72\n      jumpi\n      0x00\n      dup1\n      revert\n    tag_72:\n      swap1\n      0x00\n      mstore\n      keccak256(0x00, 0x20)\n      add\n      0x00\n      swap2\n      pop\n      swap1\n      pop\n      sload\n      dup2\n      jump\t// out\n        /* \"contracts/Swap.sol\":3283:4597  function getActiveOrdersWithMetadata() public view onlyOwner returns (OrderWithMetadata[] memory) {... */\n    tag_29:\n        /* \"contracts/Swap.sol\":3353:3379  OrderWithMetadata[] memory */\n      0x60\n        /* \"https://github.com/OpenZeppelin/openzeppelin-contracts/blob/v4.8.0/contracts/access/Ownable.sol\":1094:1107  _checkOwner() */\n      tag_75\n        /* \"https://github.com/OpenZeppelin/openzeppelin-contracts/blob/v4.8.0/contracts/access/Ownable.sol\":1094:1105  _checkOwner */\n      tag_61\n        /* \"https://github.com/OpenZeppelin/openzeppelin-contracts/blob/v4.8.0/contracts/access/Ownable.sol\":1094:1107  _checkOwner() */\n      jump\t// in\n    tag_75:\n        /* \"contracts/Swap.sol\":3392:3405  uint256 count */\n      0x00\n        /* \"contracts/Swap.sol\":3425:3434  uint256 i */\n      dup1\n        /* \"contracts/Swap.sol\":3420:3566  for (uint256 i = 0; i < orderIds.length; i++) {... */\n    tag_77:\n        /* \"contracts/Swap.sol\":3444:3452  orderIds */\n      0x04\n        /* \"contracts/Swap.sol\":3444:3459  orderIds.length */\n      dup1\n      sload\n      swap1\n      pop\n        /* \"contracts/Swap.sol\":3440:3441  i */\n      dup2\n        /* \"contracts/Swap.sol\":3440:3459  i < orderIds.length */\n      lt\n        /* \"contracts/Swap.sol\":3420:3566  for (uint256 i = 0; i < orderIds.length; i++) {... */\n      iszero\n      tag_78\n      jumpi\n        /* \"contracts/Swap.sol\":3485:3491  orders */\n      0x03\n        /* \"contracts/Swap.sol\":3485:3504  orders[orderIds[i]] */\n      0x00\n        /* \"contracts/Swap.sol\":3492:3500  orderIds */\n      0x04\n        /* \"contracts/Swap.sol\":3501:3502  i */\n      dup4\n        /* \"contracts/Swap.sol\":3492:3503  orderIds[i] */\n      dup2\n      sload\n      dup2\n      lt\n      tag_80\n      jumpi\n      tag_81\n      tag_68\n      jump\t// in\n    tag_81:\n    tag_80:\n      swap1\n      0x00\n      mstore\n      keccak256(0x00, 0x20)\n      add\n      sload\n        /* \"contracts/Swap.sol\":3485:3504  orders[orderIds[i]] */\n      dup2\n      mstore\n      0x20\n      add\n      swap1\n      dup2\n      mstore\n      0x20\n      add\n      0x00\n      keccak256\n        /* \"contracts/Swap.sol\":3485:3511  orders[orderIds[i]].active */\n      0x04\n      add\n      0x00\n      swap1\n      sload\n      swap1\n      0x0100\n      exp\n      swap1\n      div\n      0xff\n      and\n        /* \"contracts/Swap.sol\":3481:3555  if (orders[orderIds[i]].active) {... */\n      iszero\n      tag_83\n      jumpi\n        /* \"contracts/Swap.sol\":3532:3539  count++ */\n      dup2\n      dup1\n      tag_84\n      swap1\n      tag_85\n      jump\t// in\n    tag_84:\n      swap3\n      pop\n      pop\n        /* \"contracts/Swap.sol\":3481:3555  if (orders[orderIds[i]].active) {... */\n    tag_83:\n        /* \"contracts/Swap.sol\":3461:3464  i++ */\n      dup1\n      dup1\n      0x01\n      add\n      swap2\n      pop\n      pop\n        /* \"contracts/Swap.sol\":3420:3566  for (uint256 i = 0; i < orderIds.length; i++) {... */\n      jump(tag_77)\n    tag_78:\n      pop\n        /* \"contracts/Swap.sol\":3578:3612  OrderWithMetadata[] memory results */\n      0x00\n        /* \"contracts/Swap.sol\":3639:3644  count */\n      dup2\n        /* \"contracts/Swap.sol\":3615:3645  new OrderWithMetadata[](count) */\n      0xffffffffffffffff\n      dup2\n      gt\n      iszero\n      tag_86\n      jumpi\n      tag_87\n      tag_88\n      jump\t// in\n    tag_87:\n    tag_86:\n      mload(0x40)\n      swap1\n      dup1\n      dup3\n      mstore\n      dup1\n      0x20\n      mul\n      0x20\n      add\n      dup3\n      add\n      0x40\n      mstore\n      dup1\n      iszero\n      tag_89\n      jumpi\n      dup2\n      0x20\n      add\n    tag_90:\n      tag_91\n      tag_92\n      jump\t// in\n    tag_91:\n      dup2\n      mstore\n      0x20\n      add\n      swap1\n      0x01\n      swap1\n      sub\n      swap1\n      dup2\n      tag_90\n      jumpi\n      swap1\n      pop\n    tag_89:\n      pop\n        /* \"contracts/Swap.sol\":3578:3645  OrderWithMetadata[] memory results = new OrderWithMetadata[](count) */\n      swap1\n      pop\n        /* \"contracts/Swap.sol\":3656:3669  uint256 index */\n      0x00\n        /* \"contracts/Swap.sol\":3691:3700  uint256 i */\n      dup1\n        /* \"contracts/Swap.sol\":3686:4563  for (uint256 i = 0; i < orderIds.length; i++) {... */\n    tag_93:\n        /* \"contracts/Swap.sol\":3710:3718  orderIds */\n      0x04\n        /* \"contracts/Swap.sol\":3710:3725  orderIds.length */\n      dup1\n      sload\n      swap1\n      pop\n        /* \"contracts/Swap.sol\":3706:3707  i */\n      dup2\n        /* \"contracts/Swap.sol\":3706:3725  i < orderIds.length */\n      lt\n        /* \"contracts/Swap.sol\":3686:4563  for (uint256 i = 0; i < orderIds.length; i++) {... */\n      iszero\n      tag_94\n      jumpi\n        /* \"contracts/Swap.sol\":3747:3762  uint256 orderId */\n      0x00\n        /* \"contracts/Swap.sol\":3765:3773  orderIds */\n      0x04\n        /* \"contracts/Swap.sol\":3774:3775  i */\n      dup3\n        /* \"contracts/Swap.sol\":3765:3776  orderIds[i] */\n      dup2\n      sload\n      dup2\n      lt\n      tag_96\n      jumpi\n      tag_97\n      tag_68\n      jump\t// in\n    tag_97:\n    tag_96:\n      swap1\n      0x00\n      mstore\n      keccak256(0x00, 0x20)\n      add\n      sload\n        /* \"contracts/Swap.sol\":3747:3776  uint256 orderId = orderIds[i] */\n      swap1\n      pop\n        /* \"contracts/Swap.sol\":3795:3801  orders */\n      0x03\n        /* \"contracts/Swap.sol\":3795:3810  orders[orderId] */\n      0x00\n        /* \"contracts/Swap.sol\":3802:3809  orderId */\n      dup3\n        /* \"contracts/Swap.sol\":3795:3810  orders[orderId] */\n      dup2\n      mstore\n      0x20\n      add\n      swap1\n      dup2\n      mstore\n      0x20\n      add\n      0x00\n      keccak256\n        /* \"contracts/Swap.sol\":3795:3817  orders[orderId].active */\n      0x04\n      add\n      0x00\n      swap1\n      sload\n      swap1\n      0x0100\n      exp\n      swap1\n      div\n      0xff\n      and\n        /* \"contracts/Swap.sol\":3791:4552  if (orders[orderId].active) {... */\n      iszero\n      tag_99\n      jumpi\n        /* \"contracts/Swap.sol\":3838:3857  Order storage order */\n      0x00\n        /* \"contracts/Swap.sol\":3860:3866  orders */\n      0x03\n        /* \"contracts/Swap.sol\":3860:3875  orders[orderId] */\n      0x00\n        /* \"contracts/Swap.sol\":3867:3874  orderId */\n      dup4\n        /* \"contracts/Swap.sol\":3860:3875  orders[orderId] */\n      dup2\n      mstore\n      0x20\n      add\n      swap1\n      dup2\n      mstore\n      0x20\n      add\n      0x00\n      keccak256\n        /* \"contracts/Swap.sol\":3838:3875  Order storage order = orders[orderId] */\n      swap1\n      pop\n        /* \"contracts/Swap.sol\":3917:3939  string memory courseID */\n      0x00\n        /* \"contracts/Swap.sol\":3962:3985  string memory preceptID */\n      dup1\n        /* \"contracts/Swap.sol\":4008:4028  string memory timing */\n      0x00\n        /* \"contracts/Swap.sol\":4051:4078  string memory coursePageURL */\n      dup1\n        /* \"contracts/Swap.sol\":4100:4111  courseToken */\n      0x01\n      0x00\n      swap1\n      sload\n      swap1\n      0x0100\n      exp\n      swap1\n      div\n      0xffffffffffffffffffffffffffffffffffffffff\n      and\n        /* \"contracts/Swap.sol\":4100:4125  courseToken.courseDetails */\n      0xffffffffffffffffffffffffffffffffffffffff\n      and\n      0xd1be5309\n        /* \"contracts/Swap.sol\":4126:4131  order */\n      dup7\n        /* \"contracts/Swap.sol\":4126:4146  order.offeredTokenId */\n      0x02\n      add\n      sload\n        /* \"contracts/Swap.sol\":4100:4147  courseToken.courseDetails(order.offeredTokenId) */\n      mload(0x40)\n      dup3\n      0xffffffff\n      and\n      0xe0\n      shl\n      dup2\n      mstore\n      0x04\n      add\n      tag_100\n      swap2\n      swap1\n      tag_27\n      jump\t// in\n    tag_100:\n      0x00\n      mload(0x40)\n      dup1\n      dup4\n      sub\n      dup2\n      dup7\n      gas\n      staticcall\n      iszero\n      dup1\n      iszero\n      tag_102\n      jumpi\n      returndatasize\n      0x00\n      dup1\n      returndatacopy\n      revert(0x00, returndatasize)\n    tag_102:\n      pop\n      pop\n      pop\n      pop\n      mload(0x40)\n      returndatasize\n      0x00\n      dup3\n      returndatacopy\n      returndatasize\n      not(0x1f)\n      0x1f\n      dup3\n      add\n      and\n      dup3\n      add\n      dup1\n      0x40\n      mstore\n      pop\n      dup2\n      add\n      swap1\n      tag_103\n      swap2\n      swap1\n      tag_104\n      jump\t// in\n    tag_103:\n        /* \"contracts/Swap.sol\":3894:4147  (... */\n      swap4\n      pop\n      swap4\n      pop\n      swap4\n      pop\n      swap4\n      pop\n        /* \"contracts/Swap.sol\":4185:4510  OrderWithMetadata(... */\n      mload(0x40)\n      dup1\n      0x0100\n      add\n      0x40\n      mstore\n      dup1\n        /* \"contracts/Swap.sol\":4225:4230  order */\n      dup7\n        /* \"contracts/Swap.sol\":4225:4238  order.orderId */\n      0x00\n      add\n      sload\n        /* \"contracts/Swap.sol\":4185:4510  OrderWithMetadata(... */\n      dup2\n      mstore\n      0x20\n      add\n        /* \"contracts/Swap.sol\":4261:4266  order */\n      dup7\n        /* \"contracts/Swap.sol\":4261:4274  order.student */\n      0x01\n      add\n      0x00\n      swap1\n      sload\n      swap1\n      0x0100\n      exp\n      swap1\n      div\n      0xffffffffffffffffffffffffffffffffffffffff\n      and\n        /* \"contracts/Swap.sol\":4185:4510  OrderWithMetadata(... */\n      0xffffffffffffffffffffffffffffffffffffffff\n      and\n      dup2\n      mstore\n      0x20\n      add\n        /* \"contracts/Swap.sol\":4297:4302  order */\n      dup7\n        /* \"contracts/Swap.sol\":4297:4317  order.offeredTokenId */\n      0x02\n      add\n      sload\n        /* \"contracts/Swap.sol\":4185:4510  OrderWithMetadata(... */\n      dup2\n      mstore\n      0x20\n      add\n        /* \"contracts/Swap.sol\":4340:4345  order */\n      dup7\n        /* \"contracts/Swap.sol\":4340:4363  order.requestedCourseID */\n      0x03\n      add\n        /* \"contracts/Swap.sol\":4185:4510  OrderWithMetadata(... */\n      dup1\n      sload\n      tag_105\n      swap1\n      tag_106\n      jump\t// in\n    tag_105:\n      dup1\n      0x1f\n      add\n      0x20\n      dup1\n      swap2\n      div\n      mul\n      0x20\n      add\n      mload(0x40)\n      swap1\n      dup2\n      add\n      0x40\n      mstore\n      dup1\n      swap3\n      swap2\n      swap1\n      dup2\n      dup2\n      mstore\n      0x20\n      add\n      dup3\n      dup1\n      sload\n      tag_107\n      swap1\n      tag_106\n      jump\t// in\n    tag_107:\n      dup1\n      iszero\n      tag_108\n      jumpi\n      dup1\n      0x1f\n      lt\n      tag_109\n      jumpi\n      0x0100\n      dup1\n      dup4\n      sload\n      div\n      mul\n      dup4\n      mstore\n      swap2\n      0x20\n      add\n      swap2\n      jump(tag_108)\n    tag_109:\n      dup3\n      add\n      swap2\n      swap1\n      0x00\n      mstore\n      keccak256(0x00, 0x20)\n      swap1\n    tag_110:\n      dup2\n      sload\n      dup2\n      mstore\n      swap1\n      0x01\n      add\n      swap1\n      0x20\n      add\n      dup1\n      dup4\n      gt\n      tag_110\n      jumpi\n      dup3\n      swap1\n      sub\n      0x1f\n      and\n      dup3\n      add\n      swap2\n    tag_108:\n      pop\n      pop\n      pop\n      pop\n      pop\n      dup2\n      mstore\n      0x20\n      add\n        /* \"contracts/Swap.sol\":4386:4394  courseID */\n      dup6\n        /* \"contracts/Swap.sol\":4185:4510  OrderWithMetadata(... */\n      dup2\n      mstore\n      0x20\n      add\n        /* \"contracts/Swap.sol\":4417:4426  preceptID */\n      dup5\n        /* \"contracts/Swap.sol\":4185:4510  OrderWithMetadata(... */\n      dup2\n      mstore\n      0x20\n      add\n        /* \"contracts/Swap.sol\":4449:4455  timing */\n      dup4\n        /* \"contracts/Swap.sol\":4185:4510  OrderWithMetadata(... */\n      dup2\n      mstore\n      0x20\n      add\n        /* \"contracts/Swap.sol\":4478:4491  coursePageURL */\n      dup3\n        /* \"contracts/Swap.sol\":4185:4510  OrderWithMetadata(... */\n      dup2\n      mstore\n      pop\n        /* \"contracts/Swap.sol\":4168:4175  results */\n      dup10\n        /* \"contracts/Swap.sol\":4176:4181  index */\n      dup10\n        /* \"contracts/Swap.sol\":4168:4182  results[index] */\n      dup2\n      mload\n      dup2\n      lt\n      tag_111\n      jumpi\n      tag_112\n      tag_68\n      jump\t// in\n    tag_112:\n    tag_111:\n      0x20\n      mul\n      0x20\n      add\n      add\n        /* \"contracts/Swap.sol\":4168:4510  results[index] = OrderWithMetadata(... */\n      dup2\n      swap1\n      mstore\n      pop\n        /* \"contracts/Swap.sol\":4529:4536  index++ */\n      dup8\n      dup1\n      tag_113\n      swap1\n      tag_85\n      jump\t// in\n    tag_113:\n      swap9\n      pop\n      pop\n        /* \"contracts/Swap.sol\":3819:4552  {... */\n      pop\n      pop\n      pop\n      pop\n      pop\n        /* \"contracts/Swap.sol\":3791:4552  if (orders[orderId].active) {... */\n    tag_99:\n        /* \"contracts/Swap.sol\":3732:4563  {... */\n      pop\n        /* \"contracts/Swap.sol\":3727:3730  i++ */\n      dup1\n      dup1\n      0x01\n      add\n      swap2\n      pop\n      pop\n        /* \"contracts/Swap.sol\":3686:4563  for (uint256 i = 0; i < orderIds.length; i++) {... */\n      jump(tag_93)\n    tag_94:\n      pop\n        /* \"contracts/Swap.sol\":4582:4589  results */\n      dup2\n        /* \"contracts/Swap.sol\":4575:4589  return results */\n      swap4\n      pop\n      pop\n      pop\n      pop\n        /* \"contracts/Swap.sol\":3283:4597  function getActiveOrdersWithMetadata() public view onlyOwner returns (OrderWithMetadata[] memory) {... */\n      swap1\n      jump\t// out\n        /* \"contracts/Swap.sol\":2621:2924  function cancelOrder(uint256 orderId) public {... */\n    tag_34:\n        /* \"contracts/Swap.sol\":2677:2696  Order storage order */\n      0x00\n        /* \"contracts/Swap.sol\":2699:2705  orders */\n      0x03\n        /* \"contracts/Swap.sol\":2699:2714  orders[orderId] */\n      0x00\n        /* \"contracts/Swap.sol\":2706:2713  orderId */\n      dup4\n        /* \"contracts/Swap.sol\":2699:2714  orders[orderId] */\n      dup2\n      mstore\n      0x20\n      add\n      swap1\n      dup2\n      mstore\n      0x20\n      add\n      0x00\n      keccak256\n        /* \"contracts/Swap.sol\":2677:2714  Order storage order = orders[orderId] */\n      swap1\n      pop\n        /* \"contracts/Swap.sol\":2733:2738  order */\n      dup1\n        /* \"contracts/Swap.sol\":2733:2745  order.active */\n      0x04\n      add\n      0x00\n      swap1\n      sload\n      swap1\n      0x0100\n      exp\n      swap1\n      div\n      0xff\n      and\n        /* \"contracts/Swap.sol\":2725:2769  require(order.active, \"Order is not active\") */\n      tag_115\n      jumpi\n      mload(0x40)\n      0x08c379a000000000000000000000000000000000000000000000000000000000\n      dup2\n      mstore\n      0x04\n      add\n      tag_116\n      swap1\n      tag_117\n      jump\t// in\n    tag_116:\n      mload(0x40)\n      dup1\n      swap2\n      sub\n      swap1\n      revert\n    tag_115:\n        /* \"contracts/Swap.sol\":2805:2815  msg.sender */\n      caller\n        /* \"contracts/Swap.sol\":2788:2815  order.student == msg.sender */\n      0xffffffffffffffffffffffffffffffffffffffff\n      and\n        /* \"contracts/Swap.sol\":2788:2793  order */\n      dup2\n        /* \"contracts/Swap.sol\":2788:2801  order.student */\n      0x01\n      add\n      0x00\n      swap1\n      sload\n      swap1\n      0x0100\n      exp\n      swap1\n      div\n      0xffffffffffffffffffffffffffffffffffffffff\n      and\n        /* \"contracts/Swap.sol\":2788:2815  order.student == msg.sender */\n      0xffffffffffffffffffffffffffffffffffffffff\n      and\n      eq\n        /* \"contracts/Swap.sol\":2780:2834  require(order.student == msg.sender, \"Not your order\") */\n      tag_118\n      jumpi\n      mload(0x40)\n      0x08c379a000000000000000000000000000000000000000000000000000000000\n      dup2\n      mstore\n      0x04\n      add\n      tag_119\n      swap1\n      tag_120\n      jump\t// in\n    tag_119:\n      mload(0x40)\n      dup1\n      swap2\n      sub\n      swap1\n      revert\n    tag_118:\n        /* \"contracts/Swap.sol\":2860:2865  false */\n      0x00\n        /* \"contracts/Swap.sol\":2845:2850  order */\n      dup2\n        /* \"contracts/Swap.sol\":2845:2857  order.active */\n      0x04\n      add\n      0x00\n        /* \"contracts/Swap.sol\":2845:2865  order.active = false */\n      0x0100\n      exp\n      dup2\n      sload\n      dup2\n      0xff\n      mul\n      not\n      and\n      swap1\n      dup4\n      iszero\n      iszero\n      mul\n      or\n      swap1\n      sstore\n      pop\n        /* \"contracts/Swap.sol\":2905:2915  msg.sender */\n      caller\n        /* \"contracts/Swap.sol\":2881:2916  OrderCancelled(orderId, msg.sender) */\n      0xffffffffffffffffffffffffffffffffffffffff\n      and\n      0xc0362da6f2ff36b382b34aec0814f6b3cdf89f5ef282a1d1f114d0c0b036d596\n        /* \"contracts/Swap.sol\":2896:2903  orderId */\n      dup4\n        /* \"contracts/Swap.sol\":2881:2916  OrderCancelled(orderId, msg.sender) */\n      mload(0x40)\n      tag_121\n      swap2\n      swap1\n      tag_27\n      jump\t// in\n    tag_121:\n      mload(0x40)\n      dup1\n      swap2\n      sub\n      swap1\n      log2\n        /* \"contracts/Swap.sol\":2666:2924  {... */\n      pop\n        /* \"contracts/Swap.sol\":2621:2924  function cancelOrder(uint256 orderId) public {... */\n      pop\n      jump\t// out\n        /* \"https://github.com/OpenZeppelin/openzeppelin-contracts/blob/v4.8.0/contracts/access/Ownable.sol\":1831:1932  function renounceOwnership() public virtual onlyOwner {... */\n    tag_36:\n        /* \"https://github.com/OpenZeppelin/openzeppelin-contracts/blob/v4.8.0/contracts/access/Ownable.sol\":1094:1107  _checkOwner() */\n      tag_123\n        /* \"https://github.com/OpenZeppelin/openzeppelin-contracts/blob/v4.8.0/contracts/access/Ownable.sol\":1094:1105  _checkOwner */\n      tag_61\n        /* \"https://github.com/OpenZeppelin/openzeppelin-contracts/blob/v4.8.0/contracts/access/Ownable.sol\":1094:1107  _checkOwner() */\n      jump\t// in\n    tag_123:\n        /* \"https://github.com/OpenZeppelin/openzeppelin-contracts/blob/v4.8.0/contracts/access/Ownable.sol\":1895:1925  _transferOwnership(address(0)) */\n      tag_125\n        /* \"https://github.com/OpenZeppelin/openzeppelin-contracts/blob/v4.8.0/contracts/access/Ownable.sol\":1922:1923  0 */\n      0x00\n        /* \"https://github.com/OpenZeppelin/openzeppelin-contracts/blob/v4.8.0/contracts/access/Ownable.sol\":1895:1913  _transferOwnership */\n      tag_126\n        /* \"https://github.com/OpenZeppelin/openzeppelin-contracts/blob/v4.8.0/contracts/access/Ownable.sol\":1895:1925  _transferOwnership(address(0)) */\n      jump\t// in\n    tag_125:\n        /* \"https://github.com/OpenZeppelin/openzeppelin-contracts/blob/v4.8.0/contracts/access/Ownable.sol\":1831:1932  function renounceOwnership() public virtual onlyOwner {... */\n      jump\t// out\n        /* \"contracts/Swap.sol\":2155:2613  function submitOrder(uint256 offeredTokenId, string memory requestedCourseID) public {... */\n    tag_40:\n        /* \"contracts/Swap.sol\":2298:2308  msg.sender */\n      caller\n        /* \"contracts/Swap.sol\":2259:2308  courseToken.ownerOf(offeredTokenId) == msg.sender */\n      0xffffffffffffffffffffffffffffffffffffffff\n      and\n        /* \"contracts/Swap.sol\":2259:2270  courseToken */\n      0x01\n      0x00\n      swap1\n      sload\n      swap1\n      0x0100\n      exp\n      swap1\n      div\n      0xffffffffffffffffffffffffffffffffffffffff\n      and\n        /* \"contracts/Swap.sol\":2259:2278  courseToken.ownerOf */\n      0xffffffffffffffffffffffffffffffffffffffff\n      and\n      0x6352211e\n        /* \"contracts/Swap.sol\":2279:2293  offeredTokenId */\n      dup5\n        /* \"contracts/Swap.sol\":2259:2294  courseToken.ownerOf(offeredTokenId) */\n      mload(0x40)\n      dup3\n      0xffffffff\n      and\n      0xe0\n      shl\n      dup2\n      mstore\n      0x04\n      add\n      tag_128\n      swap2\n      swap1\n      tag_27\n      jump\t// in\n    tag_128:\n      0x20\n      mload(0x40)\n      dup1\n      dup4\n      sub\n      dup2\n      dup7\n      gas\n      staticcall\n      iszero\n      dup1\n      iszero\n      tag_130\n      jumpi\n      returndatasize\n      0x00\n      dup1\n      returndatacopy\n      revert(0x00, returndatasize)\n    tag_130:\n      pop\n      pop\n      pop\n      pop\n      mload(0x40)\n      returndatasize\n      not(0x1f)\n      0x1f\n      dup3\n      add\n      and\n      dup3\n      add\n      dup1\n      0x40\n      mstore\n      pop\n      dup2\n      add\n      swap1\n      tag_131\n      swap2\n      swap1\n      tag_132\n      jump\t// in\n    tag_131:\n        /* \"contracts/Swap.sol\":2259:2308  courseToken.ownerOf(offeredTokenId) == msg.sender */\n      0xffffffffffffffffffffffffffffffffffffffff\n      and\n      eq\n        /* \"contracts/Swap.sol\":2251:2345  require(courseToken.ownerOf(offeredTokenId) == msg.sender, \"You do not own the offered token\") */\n      tag_133\n      jumpi\n      mload(0x40)\n      0x08c379a000000000000000000000000000000000000000000000000000000000\n      dup2\n      mstore\n      0x04\n      add\n      tag_134\n      swap1\n      tag_135\n      jump\t// in\n    tag_134:\n      mload(0x40)\n      dup1\n      swap2\n      sub\n      swap1\n      revert\n    tag_133:\n        /* \"contracts/Swap.sol\":2356:2368  orderCounter */\n      0x02\n      0x00\n        /* \"contracts/Swap.sol\":2356:2370  orderCounter++ */\n      dup2\n      sload\n      dup1\n      swap3\n      swap2\n      swap1\n      tag_136\n      swap1\n      tag_85\n      jump\t// in\n    tag_136:\n      swap2\n      swap1\n      pop\n      sstore\n      pop\n        /* \"contracts/Swap.sol\":2404:2476  Order(orderCounter, msg.sender, offeredTokenId, requestedCourseID, true) */\n      mload(0x40)\n      dup1\n      0xa0\n      add\n      0x40\n      mstore\n      dup1\n        /* \"contracts/Swap.sol\":2410:2422  orderCounter */\n      sload(0x02)\n        /* \"contracts/Swap.sol\":2404:2476  Order(orderCounter, msg.sender, offeredTokenId, requestedCourseID, true) */\n      dup2\n      mstore\n      0x20\n      add\n        /* \"contracts/Swap.sol\":2424:2434  msg.sender */\n      caller\n        /* \"contracts/Swap.sol\":2404:2476  Order(orderCounter, msg.sender, offeredTokenId, requestedCourseID, true) */\n      0xffffffffffffffffffffffffffffffffffffffff\n      and\n      dup2\n      mstore\n      0x20\n      add\n        /* \"contracts/Swap.sol\":2436:2450  offeredTokenId */\n      dup4\n        /* \"contracts/Swap.sol\":2404:2476  Order(orderCounter, msg.sender, offeredTokenId, requestedCourseID, true) */\n      dup2\n      mstore\n      0x20\n      add\n        /* \"contracts/Swap.sol\":2452:2469  requestedCourseID */\n      dup3\n        /* \"contracts/Swap.sol\":2404:2476  Order(orderCounter, msg.sender, offeredTokenId, requestedCourseID, true) */\n      dup2\n      mstore\n      0x20\n      add\n        /* \"contracts/Swap.sol\":2471:2475  true */\n      0x01\n        /* \"contracts/Swap.sol\":2404:2476  Order(orderCounter, msg.sender, offeredTokenId, requestedCourseID, true) */\n      iszero\n      iszero\n      dup2\n      mstore\n      pop\n        /* \"contracts/Swap.sol\":2381:2387  orders */\n      0x03\n        /* \"contracts/Swap.sol\":2381:2401  orders[orderCounter] */\n      0x00\n        /* \"contracts/Swap.sol\":2388:2400  orderCounter */\n      sload(0x02)\n        /* \"contracts/Swap.sol\":2381:2401  orders[orderCounter] */\n      dup2\n      mstore\n      0x20\n      add\n      swap1\n      dup2\n      mstore\n      0x20\n      add\n      0x00\n      keccak256\n        /* \"contracts/Swap.sol\":2381:2476  orders[orderCounter] = Order(orderCounter, msg.sender, offeredTokenId, requestedCourseID, true) */\n      0x00\n      dup3\n      add\n      mload\n      dup2\n      0x00\n      add\n      sstore\n      0x20\n      dup3\n      add\n      mload\n      dup2\n      0x01\n      add\n      exp(0x0100, 0x00)\n      dup2\n      sload\n      dup2\n      0xffffffffffffffffffffffffffffffffffffffff\n      mul\n      not\n      and\n      swap1\n      dup4\n      0xffffffffffffffffffffffffffffffffffffffff\n      and\n      mul\n      or\n      swap1\n      sstore\n      pop\n      0x40\n      dup3\n      add\n      mload\n      dup2\n      0x02\n      add\n      sstore\n      0x60\n      dup3\n      add\n      mload\n      dup2\n      0x03\n      add\n      swap1\n      dup2\n      tag_137\n      swap2\n      swap1\n      tag_138\n      jump\t// in\n    tag_137:\n      pop\n      0x80\n      dup3\n      add\n      mload\n      dup2\n      0x04\n      add\n      exp(0x0100, 0x00)\n      dup2\n      sload\n      dup2\n      0xff\n      mul\n      not\n      and\n      swap1\n      dup4\n      iszero\n      iszero\n      mul\n      or\n      swap1\n      sstore\n      pop\n      swap1\n      pop\n      pop\n        /* \"contracts/Swap.sol\":2487:2495  orderIds */\n      0x04\n        /* \"contracts/Swap.sol\":2501:2513  orderCounter */\n      sload(0x02)\n        /* \"contracts/Swap.sol\":2487:2514  orderIds.push(orderCounter) */\n      swap1\n      dup1\n      0x01\n      dup2\n      sload\n      add\n      dup1\n      dup3\n      sstore\n      dup1\n      swap2\n      pop\n      pop\n      0x01\n      swap1\n      sub\n      swap1\n      0x00\n      mstore\n      keccak256(0x00, 0x20)\n      add\n      0x00\n      swap1\n      swap2\n      swap1\n      swap2\n      swap1\n      swap2\n      pop\n      sstore\n        /* \"contracts/Swap.sol\":2559:2569  msg.sender */\n      caller\n        /* \"contracts/Swap.sol\":2530:2605  OrderSubmitted(orderCounter, msg.sender, offeredTokenId, requestedCourseID) */\n      0xffffffffffffffffffffffffffffffffffffffff\n      and\n      0xce5223d849377a0f55f7f8906570ae74f4031b0fe42160b9c14828a428447333\n        /* \"contracts/Swap.sol\":2545:2557  orderCounter */\n      sload(0x02)\n        /* \"contracts/Swap.sol\":2571:2585  offeredTokenId */\n      dup5\n        /* \"contracts/Swap.sol\":2587:2604  requestedCourseID */\n      dup5\n        /* \"contracts/Swap.sol\":2530:2605  OrderSubmitted(orderCounter, msg.sender, offeredTokenId, requestedCourseID) */\n      mload(0x40)\n      tag_140\n      swap4\n      swap3\n      swap2\n      swap1\n      tag_141\n      jump\t// in\n    tag_140:\n      mload(0x40)\n      dup1\n      swap2\n      sub\n      swap1\n      log2\n        /* \"contracts/Swap.sol\":2155:2613  function submitOrder(uint256 offeredTokenId, string memory requestedCourseID) public {... */\n      pop\n      pop\n      jump\t// out\n        /* \"https://github.com/OpenZeppelin/openzeppelin-contracts/blob/v4.8.0/contracts/access/Ownable.sol\":1201:1286  function owner() public view virtual returns (address) {... */\n    tag_42:\n        /* \"https://github.com/OpenZeppelin/openzeppelin-contracts/blob/v4.8.0/contracts/access/Ownable.sol\":1247:1254  address */\n      0x00\n        /* \"https://github.com/OpenZeppelin/openzeppelin-contracts/blob/v4.8.0/contracts/access/Ownable.sol\":1273:1279  _owner */\n      dup1\n      0x00\n      swap1\n      sload\n      swap1\n      0x0100\n      exp\n      swap1\n      div\n      0xffffffffffffffffffffffffffffffffffffffff\n      and\n        /* \"https://github.com/OpenZeppelin/openzeppelin-contracts/blob/v4.8.0/contracts/access/Ownable.sol\":1266:1279  return _owner */\n      swap1\n      pop\n        /* \"https://github.com/OpenZeppelin/openzeppelin-contracts/blob/v4.8.0/contracts/access/Ownable.sol\":1201:1286  function owner() public view virtual returns (address) {... */\n      swap1\n      jump\t// out\n        /* \"contracts/Swap.sol\":1394:1433  mapping(uint256 => Order) public orders */\n    tag_47:\n      mstore(0x20, 0x03)\n      dup1\n      0x00\n      mstore\n      keccak256(0x00, 0x40)\n      0x00\n      swap2\n      pop\n      swap1\n      pop\n      dup1\n      0x00\n      add\n      sload\n      swap1\n      dup1\n      0x01\n      add\n      0x00\n      swap1\n      sload\n      swap1\n      0x0100\n      exp\n      swap1\n      div\n      0xffffffffffffffffffffffffffffffffffffffff\n      and\n      swap1\n      dup1\n      0x02\n      add\n      sload\n      swap1\n      dup1\n      0x03\n      add\n      dup1\n      sload\n      tag_143\n      swap1\n      tag_106\n      jump\t// in\n    tag_143:\n      dup1\n      0x1f\n      add\n      0x20\n      dup1\n      swap2\n      div\n      mul\n      0x20\n      add\n      mload(0x40)\n      swap1\n      dup2\n      add\n      0x40\n      mstore\n      dup1\n      swap3\n      swap2\n      swap1\n      dup2\n      dup2\n      mstore\n      0x20\n      add\n      dup3\n      dup1\n      sload\n      tag_144\n      swap1\n      tag_106\n      jump\t// in\n    tag_144:\n      dup1\n      iszero\n      tag_145\n      jumpi\n      dup1\n      0x1f\n      lt\n      tag_146\n      jumpi\n      0x0100\n      dup1\n      dup4\n      sload\n      div\n      mul\n      dup4\n      mstore\n      swap2\n      0x20\n      add\n      swap2\n      jump(tag_145)\n    tag_146:\n      dup3\n      add\n      swap2\n      swap1\n      0x00\n      mstore\n      keccak256(0x00, 0x20)\n      swap1\n    tag_147:\n      dup2\n      sload\n      dup2\n      mstore\n      swap1\n      0x01\n      add\n      swap1\n      0x20\n      add\n      dup1\n      dup4\n      gt\n      tag_147\n      jumpi\n      dup3\n      swap1\n      sub\n      0x1f\n      and\n      dup3\n      add\n      swap2\n    tag_145:\n      pop\n      pop\n      pop\n      pop\n      pop\n      swap1\n      dup1\n      0x04\n      add\n      0x00\n      swap1\n      sload\n      swap1\n      0x0100\n      exp\n      swap1\n      div\n      0xff\n      and\n      swap1\n      pop\n      dup6\n      jump\t// out\n        /* \"contracts/Swap.sol\":1360:1387  uint256 public orderCounter */\n    tag_51:\n      sload(0x02)\n      dup2\n      jump\t// out\n        /* \"https://github.com/OpenZeppelin/openzeppelin-contracts/blob/v4.8.0/contracts/access/Ownable.sol\":2081:2279  function transferOwnership(address newOwner) public virtual onlyOwner {... */\n    tag_56:\n        /* \"https://github.com/OpenZeppelin/openzeppelin-contracts/blob/v4.8.0/contracts/access/Ownable.sol\":1094:1107  _checkOwner() */\n      tag_149\n        /* \"https://github.com/OpenZeppelin/openzeppelin-contracts/blob/v4.8.0/contracts/access/Ownable.sol\":1094:1105  _checkOwner */\n      tag_61\n        /* \"https://github.com/OpenZeppelin/openzeppelin-contracts/blob/v4.8.0/contracts/access/Ownable.sol\":1094:1107  _checkOwner() */\n      jump\t// in\n    tag_149:\n        /* \"https://github.com/OpenZeppelin/openzeppelin-contracts/blob/v4.8.0/contracts/access/Ownable.sol\":2189:2190  0 */\n      0x00\n        /* \"https://github.com/OpenZeppelin/openzeppelin-contracts/blob/v4.8.0/contracts/access/Ownable.sol\":2169:2191  newOwner != address(0) */\n      0xffffffffffffffffffffffffffffffffffffffff\n      and\n        /* \"https://github.com/OpenZeppelin/openzeppelin-contracts/blob/v4.8.0/contracts/access/Ownable.sol\":2169:2177  newOwner */\n      dup2\n        /* \"https://github.com/OpenZeppelin/openzeppelin-contracts/blob/v4.8.0/contracts/access/Ownable.sol\":2169:2191  newOwner != address(0) */\n      0xffffffffffffffffffffffffffffffffffffffff\n      and\n      sub\n        /* \"https://github.com/OpenZeppelin/openzeppelin-contracts/blob/v4.8.0/contracts/access/Ownable.sol\":2161:2234  require(newOwner != address(0), \"Ownable: new owner is the zero address\") */\n      tag_151\n      jumpi\n      mload(0x40)\n      0x08c379a000000000000000000000000000000000000000000000000000000000\n      dup2\n      mstore\n      0x04\n      add\n      tag_152\n      swap1\n      tag_153\n      jump\t// in\n    tag_152:\n      mload(0x40)\n      dup1\n      swap2\n      sub\n      swap1\n      revert\n    tag_151:\n        /* \"https://github.com/OpenZeppelin/openzeppelin-contracts/blob/v4.8.0/contracts/access/Ownable.sol\":2244:2272  _transferOwnership(newOwner) */\n      tag_154\n        /* \"https://github.com/OpenZeppelin/openzeppelin-contracts/blob/v4.8.0/contracts/access/Ownable.sol\":2263:2271  newOwner */\n      dup2\n        /* \"https://github.com/OpenZeppelin/openzeppelin-contracts/blob/v4.8.0/contracts/access/Ownable.sol\":2244:2262  _transferOwnership */\n      tag_126\n        /* \"https://github.com/OpenZeppelin/openzeppelin-contracts/blob/v4.8.0/contracts/access/Ownable.sol\":2244:2272  _transferOwnership(newOwner) */\n      jump\t// in\n    tag_154:\n        /* \"https://github.com/OpenZeppelin/openzeppelin-contracts/blob/v4.8.0/contracts/access/Ownable.sol\":2081:2279  function transferOwnership(address newOwner) public virtual onlyOwner {... */\n      pop\n      jump\t// out\n        /* \"contracts/Swap.sol\":4605:7217  function executeSwaps() public onlyOwner {... */\n    tag_58:\n        /* \"https://github.com/OpenZeppelin/openzeppelin-contracts/blob/v4.8.0/contracts/access/Ownable.sol\":1094:1107  _checkOwner() */\n      tag_156\n        /* \"https://github.com/OpenZeppelin/openzeppelin-contracts/blob/v4.8.0/contracts/access/Ownable.sol\":1094:1105  _checkOwner */\n      tag_61\n        /* \"https://github.com/OpenZeppelin/openzeppelin-contracts/blob/v4.8.0/contracts/access/Ownable.sol\":1094:1107  _checkOwner() */\n      jump\t// in\n    tag_156:\n        /* \"contracts/Swap.sol\":4657:4666  uint256 n */\n      0x00\n        /* \"contracts/Swap.sol\":4669:4677  orderIds */\n      0x04\n        /* \"contracts/Swap.sol\":4669:4684  orderIds.length */\n      dup1\n      sload\n      swap1\n      pop\n        /* \"contracts/Swap.sol\":4657:4684  uint256 n = orderIds.length */\n      swap1\n      pop\n        /* \"contracts/Swap.sol\":4702:4711  uint256 i */\n      0x00\n        /* \"contracts/Swap.sol\":4697:7210  for (uint256 i = 0; i < n; i++) {... */\n    tag_158:\n        /* \"contracts/Swap.sol\":4721:4722  n */\n      dup2\n        /* \"contracts/Swap.sol\":4717:4718  i */\n      dup2\n        /* \"contracts/Swap.sol\":4717:4722  i < n */\n      lt\n        /* \"contracts/Swap.sol\":4697:7210  for (uint256 i = 0; i < n; i++) {... */\n      iszero\n      tag_159\n      jumpi\n        /* \"contracts/Swap.sol\":4744:4760  uint256 orderId1 */\n      0x00\n        /* \"contracts/Swap.sol\":4763:4771  orderIds */\n      0x04\n        /* \"contracts/Swap.sol\":4772:4773  i */\n      dup3\n        /* \"contracts/Swap.sol\":4763:4774  orderIds[i] */\n      dup2\n      sload\n      dup2\n      lt\n      tag_161\n      jumpi\n      tag_162\n      tag_68\n      jump\t// in\n    tag_162:\n    tag_161:\n      swap1\n      0x00\n      mstore\n      keccak256(0x00, 0x20)\n      add\n      sload\n        /* \"contracts/Swap.sol\":4744:4774  uint256 orderId1 = orderIds[i] */\n      swap1\n      pop\n        /* \"contracts/Swap.sol\":4794:4800  orders */\n      0x03\n        /* \"contracts/Swap.sol\":4794:4810  orders[orderId1] */\n      0x00\n        /* \"contracts/Swap.sol\":4801:4809  orderId1 */\n      dup3\n        /* \"contracts/Swap.sol\":4794:4810  orders[orderId1] */\n      dup2\n      mstore\n      0x20\n      add\n      swap1\n      dup2\n      mstore\n      0x20\n      add\n      0x00\n      keccak256\n        /* \"contracts/Swap.sol\":4794:4817  orders[orderId1].active */\n      0x04\n      add\n      0x00\n      swap1\n      sload\n      swap1\n      0x0100\n      exp\n      swap1\n      div\n      0xff\n      and\n        /* \"contracts/Swap.sol\":4789:4827  if (!orders[orderId1].active) continue */\n      tag_164\n      jumpi\n        /* \"contracts/Swap.sol\":4819:4827  continue */\n      pop\n      jump(tag_160)\n        /* \"contracts/Swap.sol\":4789:4827  if (!orders[orderId1].active) continue */\n    tag_164:\n        /* \"contracts/Swap.sol\":4844:4864  Order storage order1 */\n      0x00\n        /* \"contracts/Swap.sol\":4867:4873  orders */\n      0x03\n        /* \"contracts/Swap.sol\":4867:4883  orders[orderId1] */\n      0x00\n        /* \"contracts/Swap.sol\":4874:4882  orderId1 */\n      dup4\n        /* \"contracts/Swap.sol\":4867:4883  orders[orderId1] */\n      dup2\n      mstore\n      0x20\n      add\n      swap1\n      dup2\n      mstore\n      0x20\n      add\n      0x00\n      keccak256\n        /* \"contracts/Swap.sol\":4844:4883  Order storage order1 = orders[orderId1] */\n      swap1\n      pop\n        /* \"contracts/Swap.sol\":4899:4922  string memory courseID1 */\n      0x00\n        /* \"contracts/Swap.sol\":4932:4943  courseToken */\n      0x01\n      0x00\n      swap1\n      sload\n      swap1\n      0x0100\n      exp\n      swap1\n      div\n      0xffffffffffffffffffffffffffffffffffffffff\n      and\n        /* \"contracts/Swap.sol\":4932:4957  courseToken.courseDetails */\n      0xffffffffffffffffffffffffffffffffffffffff\n      and\n      0xd1be5309\n        /* \"contracts/Swap.sol\":4958:4964  order1 */\n      dup4\n        /* \"contracts/Swap.sol\":4958:4979  order1.offeredTokenId */\n      0x02\n      add\n      sload\n        /* \"contracts/Swap.sol\":4932:4980  courseToken.courseDetails(order1.offeredTokenId) */\n      mload(0x40)\n      dup3\n      0xffffffff\n      and\n      0xe0\n      shl\n      dup2\n      mstore\n      0x04\n      add\n      tag_165\n      swap2\n      swap1\n      tag_27\n      jump\t// in\n    tag_165:\n      0x00\n      mload(0x40)\n      dup1\n      dup4\n      sub\n      dup2\n      dup7\n      gas\n      staticcall\n      iszero\n      dup1\n      iszero\n      tag_167\n      jumpi\n      returndatasize\n      0x00\n      dup1\n      returndatacopy\n      revert(0x00, returndatasize)\n    tag_167:\n      pop\n      pop\n      pop\n      pop\n      mload(0x40)\n      returndatasize\n      0x00\n      dup3\n      returndatacopy\n      returndatasize\n      not(0x1f)\n      0x1f\n      dup3\n      add\n      and\n      dup3\n      add\n      dup1\n      0x40\n      mstore\n      pop\n      dup2\n      add\n      swap1\n      tag_168\n      swap2\n      swap1\n      tag_104\n      jump\t// in\n    tag_168:\n        /* \"contracts/Swap.sol\":4898:4980  (string memory courseID1, , , ) = courseToken.courseDetails(order1.offeredTokenId) */\n      pop\n      pop\n      pop\n      swap1\n      pop\n        /* \"contracts/Swap.sol\":5002:5011  uint256 j */\n      0x00\n        /* \"contracts/Swap.sol\":5018:5019  1 */\n      0x01\n        /* \"contracts/Swap.sol\":5014:5015  i */\n      dup6\n        /* \"contracts/Swap.sol\":5014:5019  i + 1 */\n      tag_172\n      swap2\n      swap1\n      tag_173\n      jump\t// in\n    tag_172:\n        /* \"contracts/Swap.sol\":5002:5019  uint256 j = i + 1 */\n      swap1\n      pop\n        /* \"contracts/Swap.sol\":4997:7199  for (uint256 j = i + 1; j < n; j++) {... */\n    tag_169:\n        /* \"contracts/Swap.sol\":5025:5026  n */\n      dup6\n        /* \"contracts/Swap.sol\":5021:5022  j */\n      dup2\n        /* \"contracts/Swap.sol\":5021:5026  j < n */\n      lt\n        /* \"contracts/Swap.sol\":4997:7199  for (uint256 j = i + 1; j < n; j++) {... */\n      iszero\n      tag_170\n      jumpi\n        /* \"contracts/Swap.sol\":5052:5068  uint256 orderId2 */\n      0x00\n        /* \"contracts/Swap.sol\":5071:5079  orderIds */\n      0x04\n        /* \"contracts/Swap.sol\":5080:5081  j */\n      dup3\n        /* \"contracts/Swap.sol\":5071:5082  orderIds[j] */\n      dup2\n      sload\n      dup2\n      lt\n      tag_174\n      jumpi\n      tag_175\n      tag_68\n      jump\t// in\n    tag_175:\n    tag_174:\n      swap1\n      0x00\n      mstore\n      keccak256(0x00, 0x20)\n      add\n      sload\n        /* \"contracts/Swap.sol\":5052:5082  uint256 orderId2 = orderIds[j] */\n      swap1\n      pop\n        /* \"contracts/Swap.sol\":5106:5112  orders */\n      0x03\n        /* \"contracts/Swap.sol\":5106:5122  orders[orderId2] */\n      0x00\n        /* \"contracts/Swap.sol\":5113:5121  orderId2 */\n      dup3\n        /* \"contracts/Swap.sol\":5106:5122  orders[orderId2] */\n      dup2\n      mstore\n      0x20\n      add\n      swap1\n      dup2\n      mstore\n      0x20\n      add\n      0x00\n      keccak256\n        /* \"contracts/Swap.sol\":5106:5129  orders[orderId2].active */\n      0x04\n      add\n      0x00\n      swap1\n      sload\n      swap1\n      0x0100\n      exp\n      swap1\n      div\n      0xff\n      and\n        /* \"contracts/Swap.sol\":5101:5139  if (!orders[orderId2].active) continue */\n      tag_177\n      jumpi\n        /* \"contracts/Swap.sol\":5131:5139  continue */\n      pop\n      jump(tag_171)\n        /* \"contracts/Swap.sol\":5101:5139  if (!orders[orderId2].active) continue */\n    tag_177:\n        /* \"contracts/Swap.sol\":5160:5180  Order storage order2 */\n      0x00\n        /* \"contracts/Swap.sol\":5183:5189  orders */\n      0x03\n        /* \"contracts/Swap.sol\":5183:5199  orders[orderId2] */\n      0x00\n        /* \"contracts/Swap.sol\":5190:5198  orderId2 */\n      dup4\n        /* \"contracts/Swap.sol\":5183:5199  orders[orderId2] */\n      dup2\n      mstore\n      0x20\n      add\n      swap1\n      dup2\n      mstore\n      0x20\n      add\n      0x00\n      keccak256\n        /* \"contracts/Swap.sol\":5160:5199  Order storage order2 = orders[orderId2] */\n      swap1\n      pop\n        /* \"contracts/Swap.sol\":5219:5242  string memory courseID2 */\n      0x00\n        /* \"contracts/Swap.sol\":5252:5263  courseToken */\n      0x01\n      0x00\n      swap1\n      sload\n      swap1\n      0x0100\n      exp\n      swap1\n      div\n      0xffffffffffffffffffffffffffffffffffffffff\n      and\n        /* \"contracts/Swap.sol\":5252:5277  courseToken.courseDetails */\n      0xffffffffffffffffffffffffffffffffffffffff\n      and\n      0xd1be5309\n        /* \"contracts/Swap.sol\":5278:5284  order2 */\n      dup4\n        /* \"contracts/Swap.sol\":5278:5299  order2.offeredTokenId */\n      0x02\n      add\n      sload\n        /* \"contracts/Swap.sol\":5252:5300  courseToken.courseDetails(order2.offeredTokenId) */\n      mload(0x40)\n      dup3\n      0xffffffff\n      and\n      0xe0\n      shl\n      dup2\n      mstore\n      0x04\n      add\n      tag_178\n      swap2\n      swap1\n      tag_27\n      jump\t// in\n    tag_178:\n      0x00\n      mload(0x40)\n      dup1\n      dup4\n      sub\n      dup2\n      dup7\n      gas\n      staticcall\n      iszero\n      dup1\n      iszero\n      tag_180\n      jumpi\n      returndatasize\n      0x00\n      dup1\n      returndatacopy\n      revert(0x00, returndatasize)\n    tag_180:\n      pop\n      pop\n      pop\n      pop\n      mload(0x40)\n      returndatasize\n      0x00\n      dup3\n      returndatacopy\n      returndatasize\n      not(0x1f)\n      0x1f\n      dup3\n      add\n      and\n      dup3\n      add\n      dup1\n      0x40\n      mstore\n      pop\n      dup2\n      add\n      swap1\n      tag_181\n      swap2\n      swap1\n      tag_104\n      jump\t// in\n    tag_181:\n        /* \"contracts/Swap.sol\":5218:5300  (string memory courseID2, , , ) = courseToken.courseDetails(order2.offeredTokenId) */\n      pop\n      pop\n      pop\n      swap1\n      pop\n        /* \"contracts/Swap.sol\":5347:5398  compareStrings(order1.requestedCourseID, courseID2) */\n      tag_182\n        /* \"contracts/Swap.sol\":5362:5368  order1 */\n      dup7\n        /* \"contracts/Swap.sol\":5362:5386  order1.requestedCourseID */\n      0x03\n      add\n        /* \"contracts/Swap.sol\":5347:5398  compareStrings(order1.requestedCourseID, courseID2) */\n      dup1\n      sload\n      tag_183\n      swap1\n      tag_106\n      jump\t// in\n    tag_183:\n      dup1\n      0x1f\n      add\n      0x20\n      dup1\n      swap2\n      div\n      mul\n      0x20\n      add\n      mload(0x40)\n      swap1\n      dup2\n      add\n      0x40\n      mstore\n      dup1\n      swap3\n      swap2\n      swap1\n      dup2\n      dup2\n      mstore\n      0x20\n      add\n      dup3\n      dup1\n      sload\n      tag_184\n      swap1\n      tag_106\n      jump\t// in\n    tag_184:\n      dup1\n      iszero\n      tag_185\n      jumpi\n      dup1\n      0x1f\n      lt\n      tag_186\n      jumpi\n      0x0100\n      dup1\n      dup4\n      sload\n      div\n      mul\n      dup4\n      mstore\n      swap2\n      0x20\n      add\n      swap2\n      jump(tag_185)\n    tag_186:\n      dup3\n      add\n      swap2\n      swap1\n      0x00\n      mstore\n      keccak256(0x00, 0x20)\n      swap1\n    tag_187:\n      dup2\n      sload\n      dup2\n      mstore\n      swap1\n      0x01\n      add\n      swap1\n      0x20\n      add\n      dup1\n      dup4\n      gt\n      tag_187\n      jumpi\n      dup3\n      swap1\n      sub\n      0x1f\n      and\n      dup3\n      add\n      swap2\n    tag_185:\n      pop\n      pop\n      pop\n      pop\n      pop\n        /* \"contracts/Swap.sol\":5388:5397  courseID2 */\n      dup3\n        /* \"contracts/Swap.sol\":5347:5361  compareStrings */\n      tag_188\n        /* \"contracts/Swap.sol\":5347:5398  compareStrings(order1.requestedCourseID, courseID2) */\n      jump\t// in\n    tag_182:\n        /* \"contracts/Swap.sol\":5347:5474  compareStrings(order1.requestedCourseID, courseID2) &&... */\n      dup1\n      iszero\n      tag_189\n      jumpi\n      pop\n        /* \"contracts/Swap.sol\":5423:5474  compareStrings(order2.requestedCourseID, courseID1) */\n      tag_190\n        /* \"contracts/Swap.sol\":5438:5444  order2 */\n      dup3\n        /* \"contracts/Swap.sol\":5438:5462  order2.requestedCourseID */\n      0x03\n      add\n        /* \"contracts/Swap.sol\":5423:5474  compareStrings(order2.requestedCourseID, courseID1) */\n      dup1\n      sload\n      tag_191\n      swap1\n      tag_106\n      jump\t// in\n    tag_191:\n      dup1\n      0x1f\n      add\n      0x20\n      dup1\n      swap2\n      div\n      mul\n      0x20\n      add\n      mload(0x40)\n      swap1\n      dup2\n      add\n      0x40\n      mstore\n      dup1\n      swap3\n      swap2\n      swap1\n      dup2\n      dup2\n      mstore\n      0x20\n      add\n      dup3\n      dup1\n      sload\n      tag_192\n      swap1\n      tag_106\n      jump\t// in\n    tag_192:\n      dup1\n      iszero\n      tag_193\n      jumpi\n      dup1\n      0x1f\n      lt\n      tag_194\n      jumpi\n      0x0100\n      dup1\n      dup4\n      sload\n      div\n      mul\n      dup4\n      mstore\n      swap2\n      0x20\n      add\n      swap2\n      jump(tag_193)\n    tag_194:\n      dup3\n      add\n      swap2\n      swap1\n      0x00\n      mstore\n      keccak256(0x00, 0x20)\n      swap1\n    tag_195:\n      dup2\n      sload\n      dup2\n      mstore\n      swap1\n      0x01\n      add\n      swap1\n      0x20\n      add\n      dup1\n      dup4\n      gt\n      tag_195\n      jumpi\n      dup3\n      swap1\n      sub\n      0x1f\n      and\n      dup3\n      add\n      swap2\n    tag_193:\n      pop\n      pop\n      pop\n      pop\n      pop\n        /* \"contracts/Swap.sol\":5464:5473  courseID1 */\n      dup7\n        /* \"contracts/Swap.sol\":5423:5437  compareStrings */\n      tag_188\n        /* \"contracts/Swap.sol\":5423:5474  compareStrings(order2.requestedCourseID, courseID1) */\n      jump\t// in\n    tag_190:\n        /* \"contracts/Swap.sol\":5347:5474  compareStrings(order1.requestedCourseID, courseID2) &&... */\n    tag_189:\n        /* \"contracts/Swap.sol\":5321:7184  if (... */\n      iszero\n      tag_196\n      jumpi\n        /* \"contracts/Swap.sol\":5517:5533  address student1 */\n      0x00\n        /* \"contracts/Swap.sol\":5536:5542  order1 */\n      dup7\n        /* \"contracts/Swap.sol\":5536:5550  order1.student */\n      0x01\n      add\n      0x00\n      swap1\n      sload\n      swap1\n      0x0100\n      exp\n      swap1\n      div\n      0xffffffffffffffffffffffffffffffffffffffff\n      and\n        /* \"contracts/Swap.sol\":5517:5550  address student1 = order1.student */\n      swap1\n      pop\n        /* \"contracts/Swap.sol\":5573:5589  address student2 */\n      0x00\n        /* \"contracts/Swap.sol\":5592:5598  order2 */\n      dup4\n        /* \"contracts/Swap.sol\":5592:5606  order2.student */\n      0x01\n      add\n      0x00\n      swap1\n      sload\n      swap1\n      0x0100\n      exp\n      swap1\n      div\n      0xffffffffffffffffffffffffffffffffffffffff\n      and\n        /* \"contracts/Swap.sol\":5573:5606  address student2 = order2.student */\n      swap1\n      pop\n        /* \"contracts/Swap.sol\":5629:5645  uint256 tokenId1 */\n      0x00\n        /* \"contracts/Swap.sol\":5648:5654  order1 */\n      dup9\n        /* \"contracts/Swap.sol\":5648:5669  order1.offeredTokenId */\n      0x02\n      add\n      sload\n        /* \"contracts/Swap.sol\":5629:5669  uint256 tokenId1 = order1.offeredTokenId */\n      swap1\n      pop\n        /* \"contracts/Swap.sol\":5692:5708  uint256 tokenId2 */\n      0x00\n        /* \"contracts/Swap.sol\":5711:5717  order2 */\n      dup6\n        /* \"contracts/Swap.sol\":5711:5732  order2.offeredTokenId */\n      0x02\n      add\n      sload\n        /* \"contracts/Swap.sol\":5692:5732  uint256 tokenId2 = order2.offeredTokenId */\n      swap1\n      pop\n        /* \"contracts/Swap.sol\":5798:5806  student1 */\n      dup4\n        /* \"contracts/Swap.sol\":5765:5806  courseToken.ownerOf(tokenId1) == student1 */\n      0xffffffffffffffffffffffffffffffffffffffff\n      and\n        /* \"contracts/Swap.sol\":5765:5776  courseToken */\n      0x01\n      0x00\n      swap1\n      sload\n      swap1\n      0x0100\n      exp\n      swap1\n      div\n      0xffffffffffffffffffffffffffffffffffffffff\n      and\n        /* \"contracts/Swap.sol\":5765:5784  courseToken.ownerOf */\n      0xffffffffffffffffffffffffffffffffffffffff\n      and\n      0x6352211e\n        /* \"contracts/Swap.sol\":5785:5793  tokenId1 */\n      dup5\n        /* \"contracts/Swap.sol\":5765:5794  courseToken.ownerOf(tokenId1) */\n      mload(0x40)\n      dup3\n      0xffffffff\n      and\n      0xe0\n      shl\n      dup2\n      mstore\n      0x04\n      add\n      tag_197\n      swap2\n      swap1\n      tag_27\n      jump\t// in\n    tag_197:\n      0x20\n      mload(0x40)\n      dup1\n      dup4\n      sub\n      dup2\n      dup7\n      gas\n      staticcall\n      iszero\n      dup1\n      iszero\n      tag_199\n      jumpi\n      returndatasize\n      0x00\n      dup1\n      returndatacopy\n      revert(0x00, returndatasize)\n    tag_199:\n      pop\n      pop\n      pop\n      pop\n      mload(0x40)\n      returndatasize\n      not(0x1f)\n      0x1f\n      dup3\n      add\n      and\n      dup3\n      add\n      dup1\n      0x40\n      mstore\n      pop\n      dup2\n      add\n      swap1\n      tag_200\n      swap2\n      swap1\n      tag_132\n      jump\t// in\n    tag_200:\n        /* \"contracts/Swap.sol\":5765:5806  courseToken.ownerOf(tokenId1) == student1 */\n      0xffffffffffffffffffffffffffffffffffffffff\n      and\n      eq\n        /* \"contracts/Swap.sol\":5757:5837  require(courseToken.ownerOf(tokenId1) == student1, \"Owner mismatch for token 1\") */\n      tag_201\n      jumpi\n      mload(0x40)\n      0x08c379a000000000000000000000000000000000000000000000000000000000\n      dup2\n      mstore\n      0x04\n      add\n      tag_202\n      swap1\n      tag_203\n      jump\t// in\n    tag_202:\n      mload(0x40)\n      dup1\n      swap2\n      sub\n      swap1\n      revert\n    tag_201:\n        /* \"contracts/Swap.sol\":5901:5909  student2 */\n      dup3\n        /* \"contracts/Swap.sol\":5868:5909  courseToken.ownerOf(tokenId2) == student2 */\n      0xffffffffffffffffffffffffffffffffffffffff\n      and\n        /* \"contracts/Swap.sol\":5868:5879  courseToken */\n      0x01\n      0x00\n      swap1\n      sload\n      swap1\n      0x0100\n      exp\n      swap1\n      div\n      0xffffffffffffffffffffffffffffffffffffffff\n      and\n        /* \"contracts/Swap.sol\":5868:5887  courseToken.ownerOf */\n      0xffffffffffffffffffffffffffffffffffffffff\n      and\n      0x6352211e\n        /* \"contracts/Swap.sol\":5888:5896  tokenId2 */\n      dup4\n        /* \"contracts/Swap.sol\":5868:5897  courseToken.ownerOf(tokenId2) */\n      mload(0x40)\n      dup3\n      0xffffffff\n      and\n      0xe0\n      shl\n      dup2\n      mstore\n      0x04\n      add\n      tag_204\n      swap2\n      swap1\n      tag_27\n      jump\t// in\n    tag_204:\n      0x20\n      mload(0x40)\n      dup1\n      dup4\n      sub\n      dup2\n      dup7\n      gas\n      staticcall\n      iszero\n      dup1\n      iszero\n      tag_206\n      jumpi\n      returndatasize\n      0x00\n      dup1\n      returndatacopy\n      revert(0x00, returndatasize)\n    tag_206:\n      pop\n      pop\n      pop\n      pop\n      mload(0x40)\n      returndatasize\n      not(0x1f)\n      0x1f\n      dup3\n      add\n      and\n      dup3\n      add\n      dup1\n      0x40\n      mstore\n      pop\n      dup2\n      add\n      swap1\n      tag_207\n      swap2\n      swap1\n      tag_132\n      jump\t// in\n    tag_207:\n        /* \"contracts/Swap.sol\":5868:5909  courseToken.ownerOf(tokenId2) == student2 */\n      0xffffffffffffffffffffffffffffffffffffffff\n      and\n      eq\n        /* \"contracts/Swap.sol\":5860:5940  require(courseToken.ownerOf(tokenId2) == student2, \"Owner mismatch for token 2\") */\n      tag_208\n      jumpi\n      mload(0x40)\n      0x08c379a000000000000000000000000000000000000000000000000000000000\n      dup2\n      mstore\n      0x04\n      add\n      tag_209\n      swap1\n      tag_210\n      jump\t// in\n    tag_209:\n      mload(0x40)\n      dup1\n      swap2\n      sub\n      swap1\n      revert\n    tag_208:\n        /* \"contracts/Swap.sol\":5995:6042  hasTimingConflict(student1, tokenId1, tokenId2) */\n      tag_211\n        /* \"contracts/Swap.sol\":6013:6021  student1 */\n      dup5\n        /* \"contracts/Swap.sol\":6023:6031  tokenId1 */\n      dup4\n        /* \"contracts/Swap.sol\":6033:6041  tokenId2 */\n      dup4\n        /* \"contracts/Swap.sol\":5995:6012  hasTimingConflict */\n      tag_212\n        /* \"contracts/Swap.sol\":5995:6042  hasTimingConflict(student1, tokenId1, tokenId2) */\n      jump\t// in\n    tag_211:\n        /* \"contracts/Swap.sol\":5995:6118  hasTimingConflict(student1, tokenId1, tokenId2) ||... */\n      dup1\n      tag_213\n      jumpi\n      pop\n        /* \"contracts/Swap.sol\":6071:6118  hasTimingConflict(student2, tokenId2, tokenId1) */\n      tag_214\n        /* \"contracts/Swap.sol\":6089:6097  student2 */\n      dup4\n        /* \"contracts/Swap.sol\":6099:6107  tokenId2 */\n      dup3\n        /* \"contracts/Swap.sol\":6109:6117  tokenId1 */\n      dup5\n        /* \"contracts/Swap.sol\":6071:6088  hasTimingConflict */\n      tag_212\n        /* \"contracts/Swap.sol\":6071:6118  hasTimingConflict(student2, tokenId2, tokenId1) */\n      jump\t// in\n    tag_214:\n        /* \"contracts/Swap.sol\":5995:6118  hasTimingConflict(student1, tokenId1, tokenId2) ||... */\n    tag_213:\n        /* \"contracts/Swap.sol\":5995:6194  hasTimingConflict(student1, tokenId1, tokenId2) ||... */\n      dup1\n      tag_215\n      jumpi\n      pop\n        /* \"contracts/Swap.sol\":6147:6194  hasCourseConflict(student1, tokenId1, tokenId2) */\n      tag_216\n        /* \"contracts/Swap.sol\":6165:6173  student1 */\n      dup5\n        /* \"contracts/Swap.sol\":6175:6183  tokenId1 */\n      dup4\n        /* \"contracts/Swap.sol\":6185:6193  tokenId2 */\n      dup4\n        /* \"contracts/Swap.sol\":6147:6164  hasCourseConflict */\n      tag_217\n        /* \"contracts/Swap.sol\":6147:6194  hasCourseConflict(student1, tokenId1, tokenId2) */\n      jump\t// in\n    tag_216:\n        /* \"contracts/Swap.sol\":5995:6194  hasTimingConflict(student1, tokenId1, tokenId2) ||... */\n    tag_215:\n        /* \"contracts/Swap.sol\":5995:6270  hasTimingConflict(student1, tokenId1, tokenId2) ||... */\n      dup1\n      tag_218\n      jumpi\n      pop\n        /* \"contracts/Swap.sol\":6223:6270  hasCourseConflict(student2, tokenId2, tokenId1) */\n      tag_219\n        /* \"contracts/Swap.sol\":6241:6249  student2 */\n      dup4\n        /* \"contracts/Swap.sol\":6251:6259  tokenId2 */\n      dup3\n        /* \"contracts/Swap.sol\":6261:6269  tokenId1 */\n      dup5\n        /* \"contracts/Swap.sol\":6223:6240  hasCourseConflict */\n      tag_217\n        /* \"contracts/Swap.sol\":6223:6270  hasCourseConflict(student2, tokenId2, tokenId1) */\n      jump\t// in\n    tag_219:\n        /* \"contracts/Swap.sol\":5995:6270  hasTimingConflict(student1, tokenId1, tokenId2) ||... */\n    tag_218:\n        /* \"contracts/Swap.sol\":5965:6353  if (... */\n      iszero\n      tag_220\n      jumpi\n        /* \"contracts/Swap.sol\":6321:6329  continue */\n      pop\n      pop\n      pop\n      pop\n      pop\n      pop\n      pop\n      jump(tag_171)\n        /* \"contracts/Swap.sol\":5965:6353  if (... */\n    tag_220:\n        /* \"contracts/Swap.sol\":6377:6388  courseToken */\n      0x01\n      0x00\n      swap1\n      sload\n      swap1\n      0x0100\n      exp\n      swap1\n      div\n      0xffffffffffffffffffffffffffffffffffffffff\n      and\n        /* \"contracts/Swap.sol\":6377:6405  courseToken.safeTransferFrom */\n      0xffffffffffffffffffffffffffffffffffffffff\n      and\n      0x42842e0e\n        /* \"contracts/Swap.sol\":6406:6414  student1 */\n      dup6\n        /* \"contracts/Swap.sol\":6416:6424  student2 */\n      dup6\n        /* \"contracts/Swap.sol\":6426:6434  tokenId1 */\n      dup6\n        /* \"contracts/Swap.sol\":6377:6435  courseToken.safeTransferFrom(student1, student2, tokenId1) */\n      mload(0x40)\n      dup5\n      0xffffffff\n      and\n      0xe0\n      shl\n      dup2\n      mstore\n      0x04\n      add\n      tag_221\n      swap4\n      swap3\n      swap2\n      swap1\n      tag_222\n      jump\t// in\n    tag_221:\n      0x00\n      mload(0x40)\n      dup1\n      dup4\n      sub\n      dup2\n      0x00\n      dup8\n      dup1\n      extcodesize\n      iszero\n      dup1\n      iszero\n      tag_223\n      jumpi\n      0x00\n      dup1\n      revert\n    tag_223:\n      pop\n      gas\n      call\n      iszero\n      dup1\n      iszero\n      tag_225\n      jumpi\n      returndatasize\n      0x00\n      dup1\n      returndatacopy\n      revert(0x00, returndatasize)\n    tag_225:\n      pop\n      pop\n      pop\n      pop\n        /* \"contracts/Swap.sol\":6458:6469  courseToken */\n      0x01\n      0x00\n      swap1\n      sload\n      swap1\n      0x0100\n      exp\n      swap1\n      div\n      0xffffffffffffffffffffffffffffffffffffffff\n      and\n        /* \"contracts/Swap.sol\":6458:6486  courseToken.safeTransferFrom */\n      0xffffffffffffffffffffffffffffffffffffffff\n      and\n      0x42842e0e\n        /* \"contracts/Swap.sol\":6487:6495  student2 */\n      dup5\n        /* \"contracts/Swap.sol\":6497:6505  student1 */\n      dup7\n        /* \"contracts/Swap.sol\":6507:6515  tokenId2 */\n      dup5\n        /* \"contracts/Swap.sol\":6458:6516  courseToken.safeTransferFrom(student2, student1, tokenId2) */\n      mload(0x40)\n      dup5\n      0xffffffff\n      and\n      0xe0\n      shl\n      dup2\n      mstore\n      0x04\n      add\n      tag_226\n      swap4\n      swap3\n      swap2\n      swap1\n      tag_222\n      jump\t// in\n    tag_226:\n      0x00\n      mload(0x40)\n      dup1\n      dup4\n      sub\n      dup2\n      0x00\n      dup8\n      dup1\n      extcodesize\n      iszero\n      dup1\n      iszero\n      tag_227\n      jumpi\n      0x00\n      dup1\n      revert\n    tag_227:\n      pop\n      gas\n      call\n      iszero\n      dup1\n      iszero\n      tag_229\n      jumpi\n      returndatasize\n      0x00\n      dup1\n      returndatacopy\n      revert(0x00, returndatasize)\n    tag_229:\n      pop\n      pop\n      pop\n      pop\n        /* \"contracts/Swap.sol\":6557:6562  false */\n      0x00\n        /* \"contracts/Swap.sol\":6541:6547  order1 */\n      dup11\n        /* \"contracts/Swap.sol\":6541:6554  order1.active */\n      0x04\n      add\n      0x00\n        /* \"contracts/Swap.sol\":6541:6562  order1.active = false */\n      0x0100\n      exp\n      dup2\n      sload\n      dup2\n      0xff\n      mul\n      not\n      and\n      swap1\n      dup4\n      iszero\n      iszero\n      mul\n      or\n      swap1\n      sstore\n      pop\n        /* \"contracts/Swap.sol\":6601:6606  false */\n      0x00\n        /* \"contracts/Swap.sol\":6585:6591  order2 */\n      dup7\n        /* \"contracts/Swap.sol\":6585:6598  order2.active */\n      0x04\n      add\n      0x00\n        /* \"contracts/Swap.sol\":6585:6606  order2.active = false */\n      0x0100\n      exp\n      dup2\n      sload\n      dup2\n      0xff\n      mul\n      not\n      and\n      swap1\n      dup4\n      iszero\n      iszero\n      mul\n      or\n      swap1\n      sstore\n      pop\n        /* \"contracts/Swap.sol\":6636:6688  SwapExecuted(orderId1, orderId2, tokenId1, tokenId2) */\n      0xabed9c2bf91a3043c0b147978b27b3272de63d4ccdcbcb8ba15ff32b078c5be3\n        /* \"contracts/Swap.sol\":6649:6657  orderId1 */\n      dup12\n        /* \"contracts/Swap.sol\":6659:6667  orderId2 */\n      dup9\n        /* \"contracts/Swap.sol\":6669:6677  tokenId1 */\n      dup5\n        /* \"contracts/Swap.sol\":6679:6687  tokenId2 */\n      dup5\n        /* \"contracts/Swap.sol\":6636:6688  SwapExecuted(orderId1, orderId2, tokenId1, tokenId2) */\n      mload(0x40)\n      tag_230\n      swap5\n      swap4\n      swap3\n      swap2\n      swap1\n      tag_231\n      jump\t// in\n    tag_230:\n      mload(0x40)\n      dup1\n      swap2\n      sub\n      swap1\n      log1\n        /* \"contracts/Swap.sol\":6803:6819  string memory c1 */\n      0x00\n        /* \"contracts/Swap.sol\":6821:6837  string memory p1 */\n      dup1\n        /* \"contracts/Swap.sol\":6845:6856  courseToken */\n      0x01\n      0x00\n      swap1\n      sload\n      swap1\n      0x0100\n      exp\n      swap1\n      div\n      0xffffffffffffffffffffffffffffffffffffffff\n      and\n        /* \"contracts/Swap.sol\":6845:6870  courseToken.courseDetails */\n      0xffffffffffffffffffffffffffffffffffffffff\n      and\n      0xd1be5309\n        /* \"contracts/Swap.sol\":6871:6879  tokenId1 */\n      dup6\n        /* \"contracts/Swap.sol\":6845:6880  courseToken.courseDetails(tokenId1) */\n      mload(0x40)\n      dup3\n      0xffffffff\n      and\n      0xe0\n      shl\n      dup2\n      mstore\n      0x04\n      add\n      tag_232\n      swap2\n      swap1\n      tag_27\n      jump\t// in\n    tag_232:\n      0x00\n      mload(0x40)\n      dup1\n      dup4\n      sub\n      dup2\n      dup7\n      gas\n      staticcall\n      iszero\n      dup1\n      iszero\n      tag_234\n      jumpi\n      returndatasize\n      0x00\n      dup1\n      returndatacopy\n      revert(0x00, returndatasize)\n    tag_234:\n      pop\n      pop\n      pop\n      pop\n      mload(0x40)\n      returndatasize\n      0x00\n      dup3\n      returndatacopy\n      returndatasize\n      not(0x1f)\n      0x1f\n      dup3\n      add\n      and\n      dup3\n      add\n      dup1\n      0x40\n      mstore\n      pop\n      dup2\n      add\n      swap1\n      tag_235\n      swap2\n      swap1\n      tag_104\n      jump\t// in\n    tag_235:\n        /* \"contracts/Swap.sol\":6802:6880  (string memory c1, string memory p1, , ) = courseToken.courseDetails(tokenId1) */\n      pop\n      pop\n      swap2\n      pop\n      swap2\n      pop\n        /* \"contracts/Swap.sol\":6908:6924  string memory c2 */\n      0x00\n        /* \"contracts/Swap.sol\":6926:6942  string memory p2 */\n      dup1\n        /* \"contracts/Swap.sol\":6950:6961  courseToken */\n      0x01\n      0x00\n      swap1\n      sload\n      swap1\n      0x0100\n      exp\n      swap1\n      div\n      0xffffffffffffffffffffffffffffffffffffffff\n      and\n        /* \"contracts/Swap.sol\":6950:6975  courseToken.courseDetails */\n      0xffffffffffffffffffffffffffffffffffffffff\n      and\n      0xd1be5309\n        /* \"contracts/Swap.sol\":6976:6984  tokenId2 */\n      dup7\n        /* \"contracts/Swap.sol\":6950:6985  courseToken.courseDetails(tokenId2) */\n      mload(0x40)\n      dup3\n      0xffffffff\n      and\n      0xe0\n      shl\n      dup2\n      mstore\n      0x04\n      add\n      tag_236\n      swap2\n      swap1\n      tag_27\n      jump\t// in\n    tag_236:\n      0x00\n      mload(0x40)\n      dup1\n      dup4\n      sub\n      dup2\n      dup7\n      gas\n      staticcall\n      iszero\n      dup1\n      iszero\n      tag_238\n      jumpi\n      returndatasize\n      0x00\n      dup1\n      returndatacopy\n      revert(0x00, returndatasize)\n    tag_238:\n      pop\n      pop\n      pop\n      pop\n      mload(0x40)\n      returndatasize\n      0x00\n      dup3\n      returndatacopy\n      returndatasize\n      not(0x1f)\n      0x1f\n      dup3\n      add\n      and\n      dup3\n      add\n      dup1\n      0x40\n      mstore\n      pop\n      dup2\n      add\n      swap1\n      tag_239\n      swap2\n      swap1\n      tag_104\n      jump\t// in\n    tag_239:\n        /* \"contracts/Swap.sol\":6907:6985  (string memory c2, string memory p2, , ) = courseToken.courseDetails(tokenId2) */\n      pop\n      pop\n      swap2\n      pop\n      swap2\n      pop\n        /* \"contracts/Swap.sol\":7017:7092  SwapExecutedVerbose(orderId1, student1, c1, p1, orderId2, student2, c2, p2) */\n      0x9fe4a655c0746bee9930f95157c5b5dd064d1694237b1a3a016a4125a579bf0b\n        /* \"contracts/Swap.sol\":7037:7045  orderId1 */\n      dup16\n        /* \"contracts/Swap.sol\":7047:7055  student1 */\n      dup10\n        /* \"contracts/Swap.sol\":7057:7059  c1 */\n      dup7\n        /* \"contracts/Swap.sol\":7061:7063  p1 */\n      dup7\n        /* \"contracts/Swap.sol\":7065:7073  orderId2 */\n      dup16\n        /* \"contracts/Swap.sol\":7075:7083  student2 */\n      dup13\n        /* \"contracts/Swap.sol\":7085:7087  c2 */\n      dup9\n        /* \"contracts/Swap.sol\":7089:7091  p2 */\n      dup9\n        /* \"contracts/Swap.sol\":7017:7092  SwapExecutedVerbose(orderId1, student1, c1, p1, orderId2, student2, c2, p2) */\n      mload(0x40)\n      tag_240\n      swap9\n      swap8\n      swap7\n      swap6\n      swap5\n      swap4\n      swap3\n      swap2\n      swap1\n      tag_241\n      jump\t// in\n    tag_240:\n      mload(0x40)\n      dup1\n      swap2\n      sub\n      swap1\n      log1\n        /* \"contracts/Swap.sol\":6713:7116  {... */\n      pop\n      pop\n      pop\n      pop\n        /* \"contracts/Swap.sol\":7140:7145  break */\n      pop\n      pop\n      pop\n      pop\n      pop\n      pop\n      pop\n      jump(tag_170)\n        /* \"contracts/Swap.sol\":5321:7184  if (... */\n    tag_196:\n        /* \"contracts/Swap.sol\":5033:7199  {... */\n      pop\n      pop\n      pop\n        /* \"contracts/Swap.sol\":4997:7199  for (uint256 j = i + 1; j < n; j++) {... */\n    tag_171:\n        /* \"contracts/Swap.sol\":5028:5031  j++ */\n      dup1\n      dup1\n      0x01\n      add\n      swap2\n      pop\n      pop\n        /* \"contracts/Swap.sol\":4997:7199  for (uint256 j = i + 1; j < n; j++) {... */\n      jump(tag_169)\n    tag_170:\n      pop\n        /* \"contracts/Swap.sol\":4729:7210  {... */\n      pop\n      pop\n      pop\n        /* \"contracts/Swap.sol\":4697:7210  for (uint256 i = 0; i < n; i++) {... */\n    tag_160:\n        /* \"contracts/Swap.sol\":4724:4727  i++ */\n      dup1\n      dup1\n      0x01\n      add\n      swap2\n      pop\n      pop\n        /* \"contracts/Swap.sol\":4697:7210  for (uint256 i = 0; i < n; i++) {... */\n      jump(tag_158)\n    tag_159:\n      pop\n        /* \"contracts/Swap.sol\":4646:7217  {... */\n      pop\n        /* \"contracts/Swap.sol\":4605:7217  function executeSwaps() public onlyOwner {... */\n      jump\t// out\n        /* \"https://github.com/OpenZeppelin/openzeppelin-contracts/blob/v4.8.0/contracts/access/Ownable.sol\":1359:1489  function _checkOwner() internal view virtual {... */\n    tag_61:\n        /* \"https://github.com/OpenZeppelin/openzeppelin-contracts/blob/v4.8.0/contracts/access/Ownable.sol\":1433:1445  _msgSender() */\n      tag_243\n        /* \"https://github.com/OpenZeppelin/openzeppelin-contracts/blob/v4.8.0/contracts/access/Ownable.sol\":1433:1443  _msgSender */\n      tag_244\n        /* \"https://github.com/OpenZeppelin/openzeppelin-contracts/blob/v4.8.0/contracts/access/Ownable.sol\":1433:1445  _msgSender() */\n      jump\t// in\n    tag_243:\n        /* \"https://github.com/OpenZeppelin/openzeppelin-contracts/blob/v4.8.0/contracts/access/Ownable.sol\":1422:1445  owner() == _msgSender() */\n      0xffffffffffffffffffffffffffffffffffffffff\n      and\n        /* \"https://github.com/OpenZeppelin/openzeppelin-contracts/blob/v4.8.0/contracts/access/Ownable.sol\":1422:1429  owner() */\n      tag_245\n        /* \"https://github.com/OpenZeppelin/openzeppelin-contracts/blob/v4.8.0/contracts/access/Ownable.sol\":1422:1427  owner */\n      tag_42\n        /* \"https://github.com/OpenZeppelin/openzeppelin-contracts/blob/v4.8.0/contracts/access/Ownable.sol\":1422:1429  owner() */\n      jump\t// in\n    tag_245:\n        /* \"https://github.com/OpenZeppelin/openzeppelin-contracts/blob/v4.8.0/contracts/access/Ownable.sol\":1422:1445  owner() == _msgSender() */\n      0xffffffffffffffffffffffffffffffffffffffff\n      and\n      eq\n        /* \"https://github.com/OpenZeppelin/openzeppelin-contracts/blob/v4.8.0/contracts/access/Ownable.sol\":1414:1482  require(owner() == _msgSender(), \"Ownable: caller is not the owner\") */\n      tag_246\n      jumpi\n      mload(0x40)\n      0x08c379a000000000000000000000000000000000000000000000000000000000\n      dup2\n      mstore\n      0x04\n      add\n      tag_247\n      swap1\n      tag_248\n      jump\t// in\n    tag_247:\n      mload(0x40)\n      dup1\n      swap2\n      sub\n      swap1\n      revert\n    tag_246:\n        /* \"https://github.com/OpenZeppelin/openzeppelin-contracts/blob/v4.8.0/contracts/access/Ownable.sol\":1359:1489  function _checkOwner() internal view virtual {... */\n      jump\t// out\n        /* \"https://github.com/OpenZeppelin/openzeppelin-contracts/blob/v4.8.0/contracts/access/Ownable.sol\":2433:2620  function _transferOwnership(address newOwner) internal virtual {... */\n    tag_126:\n        /* \"https://github.com/OpenZeppelin/openzeppelin-contracts/blob/v4.8.0/contracts/access/Ownable.sol\":2506:2522  address oldOwner */\n      0x00\n        /* \"https://github.com/OpenZeppelin/openzeppelin-contracts/blob/v4.8.0/contracts/access/Ownable.sol\":2525:2531  _owner */\n      dup1\n      0x00\n      swap1\n      sload\n      swap1\n      0x0100\n      exp\n      swap1\n      div\n      0xffffffffffffffffffffffffffffffffffffffff\n      and\n        /* \"https://github.com/OpenZeppelin/openzeppelin-contracts/blob/v4.8.0/contracts/access/Ownable.sol\":2506:2531  address oldOwner = _owner */\n      swap1\n      pop\n        /* \"https://github.com/OpenZeppelin/openzeppelin-contracts/blob/v4.8.0/contracts/access/Ownable.sol\":2550:2558  newOwner */\n      dup2\n        /* \"https://github.com/OpenZeppelin/openzeppelin-contracts/blob/v4.8.0/contracts/access/Ownable.sol\":2541:2547  _owner */\n      0x00\n      dup1\n        /* \"https://github.com/OpenZeppelin/openzeppelin-contracts/blob/v4.8.0/contracts/access/Ownable.sol\":2541:2558  _owner = newOwner */\n      0x0100\n      exp\n      dup2\n      sload\n      dup2\n      0xffffffffffffffffffffffffffffffffffffffff\n      mul\n      not\n      and\n      swap1\n      dup4\n      0xffffffffffffffffffffffffffffffffffffffff\n      and\n      mul\n      or\n      swap1\n      sstore\n      pop\n        /* \"https://github.com/OpenZeppelin/openzeppelin-contracts/blob/v4.8.0/contracts/access/Ownable.sol\":2604:2612  newOwner */\n      dup2\n        /* \"https://github.com/OpenZeppelin/openzeppelin-contracts/blob/v4.8.0/contracts/access/Ownable.sol\":2573:2613  OwnershipTransferred(oldOwner, newOwner) */\n      0xffffffffffffffffffffffffffffffffffffffff\n      and\n        /* \"https://github.com/OpenZeppelin/openzeppelin-contracts/blob/v4.8.0/contracts/access/Ownable.sol\":2594:2602  oldOwner */\n      dup2\n        /* \"https://github.com/OpenZeppelin/openzeppelin-contracts/blob/v4.8.0/contracts/access/Ownable.sol\":2573:2613  OwnershipTransferred(oldOwner, newOwner) */\n      0xffffffffffffffffffffffffffffffffffffffff\n      and\n      0x8be0079c531659141344cd1fd0a4f28419497f9722a3daafe3b4186f6b6457e0\n      mload(0x40)\n      mload(0x40)\n      dup1\n      swap2\n      sub\n      swap1\n      log3\n        /* \"https://github.com/OpenZeppelin/openzeppelin-contracts/blob/v4.8.0/contracts/access/Ownable.sol\":2496:2620  {... */\n      pop\n        /* \"https://github.com/OpenZeppelin/openzeppelin-contracts/blob/v4.8.0/contracts/access/Ownable.sol\":2433:2620  function _transferOwnership(address newOwner) internal virtual {... */\n      pop\n      jump\t// out\n        /* \"contracts/Swap.sol\":8907:9086  function compareStrings(string memory a, string memory b) internal pure returns (bool) {... */\n    tag_188:\n        /* \"contracts/Swap.sol\":8988:8992  bool */\n      0x00\n        /* \"contracts/Swap.sol\":9074:9075  b */\n      dup2\n        /* \"contracts/Swap.sol\":9057:9076  abi.encodePacked(b) */\n      add(0x20, mload(0x40))\n      tag_251\n      swap2\n      swap1\n      tag_252\n      jump\t// in\n    tag_251:\n      mload(0x40)\n      0x20\n      dup2\n      dup4\n      sub\n      sub\n      dup2\n      mstore\n      swap1\n      0x40\n      mstore\n        /* \"contracts/Swap.sol\":9047:9077  keccak256(abi.encodePacked(b)) */\n      dup1\n      mload\n      swap1\n      0x20\n      add\n      keccak256\n        /* \"contracts/Swap.sol\":9040:9041  a */\n      dup4\n        /* \"contracts/Swap.sol\":9023:9042  abi.encodePacked(a) */\n      add(0x20, mload(0x40))\n      tag_253\n      swap2\n      swap1\n      tag_252\n      jump\t// in\n    tag_253:\n      mload(0x40)\n      0x20\n      dup2\n      dup4\n      sub\n      sub\n      dup2\n      mstore\n      swap1\n      0x40\n      mstore\n        /* \"contracts/Swap.sol\":9013:9043  keccak256(abi.encodePacked(a)) */\n      dup1\n      mload\n      swap1\n      0x20\n      add\n      keccak256\n        /* \"contracts/Swap.sol\":9013:9077  keccak256(abi.encodePacked(a)) == keccak256(abi.encodePacked(b)) */\n      eq\n        /* \"contracts/Swap.sol\":9005:9078  return (keccak256(abi.encodePacked(a)) == keccak256(abi.encodePacked(b))) */\n      swap1\n      pop\n        /* \"contracts/Swap.sol\":8907:9086  function compareStrings(string memory a, string memory b) internal pure returns (bool) {... */\n      swap3\n      swap2\n      pop\n      pop\n      jump\t// out\n        /* \"contracts/Swap.sol\":7585:8234  function hasTimingConflict(address student, uint256 droppingTokenId, uint256 incomingTokenId) internal view returns (bool) {... */\n    tag_212:\n        /* \"contracts/Swap.sol\":7702:7706  bool */\n      0x00\n        /* \"contracts/Swap.sol\":7719:7740  uint256[] memory regs */\n      dup1\n        /* \"contracts/Swap.sol\":7743:7768  getTokensOfOwner(student) */\n      tag_255\n        /* \"contracts/Swap.sol\":7760:7767  student */\n      dup6\n        /* \"contracts/Swap.sol\":7743:7759  getTokensOfOwner */\n      tag_256\n        /* \"contracts/Swap.sol\":7743:7768  getTokensOfOwner(student) */\n      jump\t// in\n    tag_255:\n        /* \"contracts/Swap.sol\":7719:7768  uint256[] memory regs = getTokensOfOwner(student) */\n      swap1\n      pop\n        /* \"contracts/Swap.sol\":7784:7812  string memory incomingTiming */\n      0x00\n        /* \"contracts/Swap.sol\":7818:7829  courseToken */\n      0x01\n      0x00\n      swap1\n      sload\n      swap1\n      0x0100\n      exp\n      swap1\n      div\n      0xffffffffffffffffffffffffffffffffffffffff\n      and\n        /* \"contracts/Swap.sol\":7818:7843  courseToken.courseDetails */\n      0xffffffffffffffffffffffffffffffffffffffff\n      and\n      0xd1be5309\n        /* \"contracts/Swap.sol\":7844:7859  incomingTokenId */\n      dup6\n        /* \"contracts/Swap.sol\":7818:7860  courseToken.courseDetails(incomingTokenId) */\n      mload(0x40)\n      dup3\n      0xffffffff\n      and\n      0xe0\n      shl\n      dup2\n      mstore\n      0x04\n      add\n      tag_257\n      swap2\n      swap1\n      tag_27\n      jump\t// in\n    tag_257:\n      0x00\n      mload(0x40)\n      dup1\n      dup4\n      sub\n      dup2\n      dup7\n      gas\n      staticcall\n      iszero\n      dup1\n      iszero\n      tag_259\n      jumpi\n      returndatasize\n      0x00\n      dup1\n      returndatacopy\n      revert(0x00, returndatasize)\n    tag_259:\n      pop\n      pop\n      pop\n      pop\n      mload(0x40)\n      returndatasize\n      0x00\n      dup3\n      returndatacopy\n      returndatasize\n      not(0x1f)\n      0x1f\n      dup3\n      add\n      and\n      dup3\n      add\n      dup1\n      0x40\n      mstore\n      pop\n      dup2\n      add\n      swap1\n      tag_260\n      swap2\n      swap1\n      tag_104\n      jump\t// in\n    tag_260:\n        /* \"contracts/Swap.sol\":7779:7860  (, , string memory incomingTiming, ) = courseToken.courseDetails(incomingTokenId) */\n      pop\n      swap3\n      pop\n      pop\n      pop\n        /* \"contracts/Swap.sol\":7876:7885  uint256 i */\n      0x00\n        /* \"contracts/Swap.sol\":7871:8204  for (uint256 i = 0; i < regs.length; i++) {... */\n    tag_261:\n        /* \"contracts/Swap.sol\":7895:7899  regs */\n      dup3\n        /* \"contracts/Swap.sol\":7895:7906  regs.length */\n      mload\n        /* \"contracts/Swap.sol\":7891:7892  i */\n      dup2\n        /* \"contracts/Swap.sol\":7891:7906  i < regs.length */\n      lt\n        /* \"contracts/Swap.sol\":7871:8204  for (uint256 i = 0; i < regs.length; i++) {... */\n      iszero\n      tag_262\n      jumpi\n        /* \"contracts/Swap.sol\":7943:7958  droppingTokenId */\n      dup6\n        /* \"contracts/Swap.sol\":7932:7936  regs */\n      dup4\n        /* \"contracts/Swap.sol\":7937:7938  i */\n      dup3\n        /* \"contracts/Swap.sol\":7932:7939  regs[i] */\n      dup2\n      mload\n      dup2\n      lt\n      tag_264\n      jumpi\n      tag_265\n      tag_68\n      jump\t// in\n    tag_265:\n    tag_264:\n      0x20\n      mul\n      0x20\n      add\n      add\n      mload\n        /* \"contracts/Swap.sol\":7932:7958  regs[i] == droppingTokenId */\n      sub\n        /* \"contracts/Swap.sol\":7928:8003  if (regs[i] == droppingTokenId) {... */\n      iszero\n        /* \"contracts/Swap.sol\":7979:7987  continue */\n      tag_263\n        /* \"contracts/Swap.sol\":7928:8003  if (regs[i] == droppingTokenId) {... */\n      jumpi\n        /* \"contracts/Swap.sol\":8022:8045  string memory regTiming */\n      0x00\n        /* \"contracts/Swap.sol\":8051:8062  courseToken */\n      0x01\n      0x00\n      swap1\n      sload\n      swap1\n      0x0100\n      exp\n      swap1\n      div\n      0xffffffffffffffffffffffffffffffffffffffff\n      and\n        /* \"contracts/Swap.sol\":8051:8076  courseToken.courseDetails */\n      0xffffffffffffffffffffffffffffffffffffffff\n      and\n      0xd1be5309\n        /* \"contracts/Swap.sol\":8077:8081  regs */\n      dup6\n        /* \"contracts/Swap.sol\":8082:8083  i */\n      dup5\n        /* \"contracts/Swap.sol\":8077:8084  regs[i] */\n      dup2\n      mload\n      dup2\n      lt\n      tag_267\n      jumpi\n      tag_268\n      tag_68\n      jump\t// in\n    tag_268:\n    tag_267:\n      0x20\n      mul\n      0x20\n      add\n      add\n      mload\n        /* \"contracts/Swap.sol\":8051:8085  courseToken.courseDetails(regs[i]) */\n      mload(0x40)\n      dup3\n      0xffffffff\n      and\n      0xe0\n      shl\n      dup2\n      mstore\n      0x04\n      add\n      tag_269\n      swap2\n      swap1\n      tag_27\n      jump\t// in\n    tag_269:\n      0x00\n      mload(0x40)\n      dup1\n      dup4\n      sub\n      dup2\n      dup7\n      gas\n      staticcall\n      iszero\n      dup1\n      iszero\n      tag_271\n      jumpi\n      returndatasize\n      0x00\n      dup1\n      returndatacopy\n      revert(0x00, returndatasize)\n    tag_271:\n      pop\n      pop\n      pop\n      pop\n      mload(0x40)\n      returndatasize\n      0x00\n      dup3\n      returndatacopy\n      returndatasize\n      not(0x1f)\n      0x1f\n      dup3\n      add\n      and\n      dup3\n      add\n      dup1\n      0x40\n      mstore\n      pop\n      dup2\n      add\n      swap1\n      tag_272\n      swap2\n      swap1\n      tag_104\n      jump\t// in\n    tag_272:\n        /* \"contracts/Swap.sol\":8017:8085  (, , string memory regTiming, ) = courseToken.courseDetails(regs[i]) */\n      pop\n      swap3\n      pop\n      pop\n      pop\n        /* \"contracts/Swap.sol\":8104:8145  compareStrings(regTiming, incomingTiming) */\n      tag_273\n        /* \"contracts/Swap.sol\":8119:8128  regTiming */\n      dup2\n        /* \"contracts/Swap.sol\":8130:8144  incomingTiming */\n      dup5\n        /* \"contracts/Swap.sol\":8104:8118  compareStrings */\n      tag_188\n        /* \"contracts/Swap.sol\":8104:8145  compareStrings(regTiming, incomingTiming) */\n      jump\t// in\n    tag_273:\n        /* \"contracts/Swap.sol\":8100:8193  if (compareStrings(regTiming, incomingTiming)) {... */\n      iszero\n      tag_274\n      jumpi\n        /* \"contracts/Swap.sol\":8173:8177  true */\n      0x01\n        /* \"contracts/Swap.sol\":8166:8177  return true */\n      swap5\n      pop\n      pop\n      pop\n      pop\n      pop\n      jump(tag_254)\n        /* \"contracts/Swap.sol\":8100:8193  if (compareStrings(regTiming, incomingTiming)) {... */\n    tag_274:\n        /* \"contracts/Swap.sol\":7913:8204  {... */\n      pop\n        /* \"contracts/Swap.sol\":7871:8204  for (uint256 i = 0; i < regs.length; i++) {... */\n    tag_263:\n        /* \"contracts/Swap.sol\":7908:7911  i++ */\n      dup1\n      dup1\n      0x01\n      add\n      swap2\n      pop\n      pop\n        /* \"contracts/Swap.sol\":7871:8204  for (uint256 i = 0; i < regs.length; i++) {... */\n      jump(tag_261)\n    tag_262:\n      pop\n        /* \"contracts/Swap.sol\":8221:8226  false */\n      0x00\n        /* \"contracts/Swap.sol\":8214:8226  return false */\n      swap3\n      pop\n      pop\n      pop\n        /* \"contracts/Swap.sol\":7585:8234  function hasTimingConflict(address student, uint256 droppingTokenId, uint256 incomingTokenId) internal view returns (bool) {... */\n    tag_254:\n      swap4\n      swap3\n      pop\n      pop\n      pop\n      jump\t// out\n        /* \"contracts/Swap.sol\":8242:8899  function hasCourseConflict(address student, uint256 droppingTokenId, uint256 incomingTokenId) internal view returns (bool) {... */\n    tag_217:\n        /* \"contracts/Swap.sol\":8359:8363  bool */\n      0x00\n        /* \"contracts/Swap.sol\":8376:8397  uint256[] memory regs */\n      dup1\n        /* \"contracts/Swap.sol\":8400:8425  getTokensOfOwner(student) */\n      tag_276\n        /* \"contracts/Swap.sol\":8417:8424  student */\n      dup6\n        /* \"contracts/Swap.sol\":8400:8416  getTokensOfOwner */\n      tag_256\n        /* \"contracts/Swap.sol\":8400:8425  getTokensOfOwner(student) */\n      jump\t// in\n    tag_276:\n        /* \"contracts/Swap.sol\":8376:8425  uint256[] memory regs = getTokensOfOwner(student) */\n      swap1\n      pop\n        /* \"contracts/Swap.sol\":8437:8467  string memory incomingCourseID */\n      0x00\n        /* \"contracts/Swap.sol\":8477:8488  courseToken */\n      0x01\n      0x00\n      swap1\n      sload\n      swap1\n      0x0100\n      exp\n      swap1\n      div\n      0xffffffffffffffffffffffffffffffffffffffff\n      and\n        /* \"contracts/Swap.sol\":8477:8502  courseToken.courseDetails */\n      0xffffffffffffffffffffffffffffffffffffffff\n      and\n      0xd1be5309\n        /* \"contracts/Swap.sol\":8503:8518  incomingTokenId */\n      dup6\n        /* \"contracts/Swap.sol\":8477:8519  courseToken.courseDetails(incomingTokenId) */\n      mload(0x40)\n      dup3\n      0xffffffff\n      and\n      0xe0\n      shl\n      dup2\n      mstore\n      0x04\n      add\n      tag_277\n      swap2\n      swap1\n      tag_27\n      jump\t// in\n    tag_277:\n      0x00\n      mload(0x40)\n      dup1\n      dup4\n      sub\n      dup2\n      dup7\n      gas\n      staticcall\n      iszero\n      dup1\n      iszero\n      tag_279\n      jumpi\n      returndatasize\n      0x00\n      dup1\n      returndatacopy\n      revert(0x00, returndatasize)\n    tag_279:\n      pop\n      pop\n      pop\n      pop\n      mload(0x40)\n      returndatasize\n      0x00\n      dup3\n      returndatacopy\n      returndatasize\n      not(0x1f)\n      0x1f\n      dup3\n      add\n      and\n      dup3\n      add\n      dup1\n      0x40\n      mstore\n      pop\n      dup2\n      add\n      swap1\n      tag_280\n      swap2\n      swap1\n      tag_104\n      jump\t// in\n    tag_280:\n        /* \"contracts/Swap.sol\":8436:8519  (string memory incomingCourseID, , , ) = courseToken.courseDetails(incomingTokenId) */\n      pop\n      pop\n      pop\n      swap1\n      pop\n        /* \"contracts/Swap.sol\":8535:8544  uint256 i */\n      0x00\n        /* \"contracts/Swap.sol\":8530:8869  for (uint256 i = 0; i < regs.length; i++) {... */\n    tag_281:\n        /* \"contracts/Swap.sol\":8554:8558  regs */\n      dup3\n        /* \"contracts/Swap.sol\":8554:8565  regs.length */\n      mload\n        /* \"contracts/Swap.sol\":8550:8551  i */\n      dup2\n        /* \"contracts/Swap.sol\":8550:8565  i < regs.length */\n      lt\n        /* \"contracts/Swap.sol\":8530:8869  for (uint256 i = 0; i < regs.length; i++) {... */\n      iszero\n      tag_282\n      jumpi\n        /* \"contracts/Swap.sol\":8602:8617  droppingTokenId */\n      dup6\n        /* \"contracts/Swap.sol\":8591:8595  regs */\n      dup4\n        /* \"contracts/Swap.sol\":8596:8597  i */\n      dup3\n        /* \"contracts/Swap.sol\":8591:8598  regs[i] */\n      dup2\n      mload\n      dup2\n      lt\n      tag_284\n      jumpi\n      tag_285\n      tag_68\n      jump\t// in\n    tag_285:\n    tag_284:\n      0x20\n      mul\n      0x20\n      add\n      add\n      mload\n        /* \"contracts/Swap.sol\":8591:8617  regs[i] == droppingTokenId */\n      sub\n        /* \"contracts/Swap.sol\":8587:8662  if (regs[i] == droppingTokenId) {... */\n      iszero\n        /* \"contracts/Swap.sol\":8638:8646  continue */\n      tag_283\n        /* \"contracts/Swap.sol\":8587:8662  if (regs[i] == droppingTokenId) {... */\n      jumpi\n        /* \"contracts/Swap.sol\":8677:8702  string memory regCourseID */\n      0x00\n        /* \"contracts/Swap.sol\":8712:8723  courseToken */\n      0x01\n      0x00\n      swap1\n      sload\n      swap1\n      0x0100\n      exp\n      swap1\n      div\n      0xffffffffffffffffffffffffffffffffffffffff\n      and\n        /* \"contracts/Swap.sol\":8712:8737  courseToken.courseDetails */\n      0xffffffffffffffffffffffffffffffffffffffff\n      and\n      0xd1be5309\n        /* \"contracts/Swap.sol\":8738:8742  regs */\n      dup6\n        /* \"contracts/Swap.sol\":8743:8744  i */\n      dup5\n        /* \"contracts/Swap.sol\":8738:8745  regs[i] */\n      dup2\n      mload\n      dup2\n      lt\n      tag_287\n      jumpi\n      tag_288\n      tag_68\n      jump\t// in\n    tag_288:\n    tag_287:\n      0x20\n      mul\n      0x20\n      add\n      add\n      mload\n        /* \"contracts/Swap.sol\":8712:8746  courseToken.courseDetails(regs[i]) */\n      mload(0x40)\n      dup3\n      0xffffffff\n      and\n      0xe0\n      shl\n      dup2\n      mstore\n      0x04\n      add\n      tag_289\n      swap2\n      swap1\n      tag_27\n      jump\t// in\n    tag_289:\n      0x00\n      mload(0x40)\n      dup1\n      dup4\n      sub\n      dup2\n      dup7\n      gas\n      staticcall\n      iszero\n      dup1\n      iszero\n      tag_291\n      jumpi\n      returndatasize\n      0x00\n      dup1\n      returndatacopy\n      revert(0x00, returndatasize)\n    tag_291:\n      pop\n      pop\n      pop\n      pop\n      mload(0x40)\n      returndatasize\n      0x00\n      dup3\n      returndatacopy\n      returndatasize\n      not(0x1f)\n      0x1f\n      dup3\n      add\n      and\n      dup3\n      add\n      dup1\n      0x40\n      mstore\n      pop\n      dup2\n      add\n      swap1\n      tag_292\n      swap2\n      swap1\n      tag_104\n      jump\t// in\n    tag_292:\n        /* \"contracts/Swap.sol\":8676:8746  (string memory regCourseID, , , ) = courseToken.courseDetails(regs[i]) */\n      pop\n      pop\n      pop\n      swap1\n      pop\n        /* \"contracts/Swap.sol\":8765:8810  compareStrings(regCourseID, incomingCourseID) */\n      tag_293\n        /* \"contracts/Swap.sol\":8780:8791  regCourseID */\n      dup2\n        /* \"contracts/Swap.sol\":8793:8809  incomingCourseID */\n      dup5\n        /* \"contracts/Swap.sol\":8765:8779  compareStrings */\n      tag_188\n        /* \"contracts/Swap.sol\":8765:8810  compareStrings(regCourseID, incomingCourseID) */\n      jump\t// in\n    tag_293:\n        /* \"contracts/Swap.sol\":8761:8858  if (compareStrings(regCourseID, incomingCourseID)) {... */\n      iszero\n      tag_294\n      jumpi\n        /* \"contracts/Swap.sol\":8838:8842  true */\n      0x01\n        /* \"contracts/Swap.sol\":8831:8842  return true */\n      swap5\n      pop\n      pop\n      pop\n      pop\n      pop\n      jump(tag_275)\n        /* \"contracts/Swap.sol\":8761:8858  if (compareStrings(regCourseID, incomingCourseID)) {... */\n    tag_294:\n        /* \"contracts/Swap.sol\":8572:8869  {... */\n      pop\n        /* \"contracts/Swap.sol\":8530:8869  for (uint256 i = 0; i < regs.length; i++) {... */\n    tag_283:\n        /* \"contracts/Swap.sol\":8567:8570  i++ */\n      dup1\n      dup1\n      0x01\n      add\n      swap2\n      pop\n      pop\n        /* \"contracts/Swap.sol\":8530:8869  for (uint256 i = 0; i < regs.length; i++) {... */\n      jump(tag_281)\n    tag_282:\n      pop\n        /* \"contracts/Swap.sol\":8886:8891  false */\n      0x00\n        /* \"contracts/Swap.sol\":8879:8891  return false */\n      swap3\n      pop\n      pop\n      pop\n        /* \"contracts/Swap.sol\":8242:8899  function hasCourseConflict(address student, uint256 droppingTokenId, uint256 incomingTokenId) internal view returns (bool) {... */\n    tag_275:\n      swap4\n      swap3\n      pop\n      pop\n      pop\n      jump\t// out\n        /* \"https://github.com/OpenZeppelin/openzeppelin-contracts/blob/v4.8.0/contracts/utils/Context.sol\":640:736  function _msgSender() internal view virtual returns (address) {... */\n    tag_244:\n        /* \"https://github.com/OpenZeppelin/openzeppelin-contracts/blob/v4.8.0/contracts/utils/Context.sol\":693:700  address */\n      0x00\n        /* \"https://github.com/OpenZeppelin/openzeppelin-contracts/blob/v4.8.0/contracts/utils/Context.sol\":719:729  msg.sender */\n      caller\n        /* \"https://github.com/OpenZeppelin/openzeppelin-contracts/blob/v4.8.0/contracts/utils/Context.sol\":712:729  return msg.sender */\n      swap1\n      pop\n        /* \"https://github.com/OpenZeppelin/openzeppelin-contracts/blob/v4.8.0/contracts/utils/Context.sol\":640:736  function _msgSender() internal view virtual returns (address) {... */\n      swap1\n      jump\t// out\n        /* \"contracts/Swap.sol\":7225:7577  function getTokensOfOwner(address owner) internal view returns (uint256[] memory) {... */\n    tag_256:\n        /* \"contracts/Swap.sol\":7289:7305  uint256[] memory */\n      0x60\n        /* \"contracts/Swap.sol\":7318:7331  uint256 count */\n      0x00\n        /* \"contracts/Swap.sol\":7334:7345  courseToken */\n      0x01\n      0x00\n      swap1\n      sload\n      swap1\n      0x0100\n      exp\n      swap1\n      div\n      0xffffffffffffffffffffffffffffffffffffffff\n      and\n        /* \"contracts/Swap.sol\":7334:7355  courseToken.balanceOf */\n      0xffffffffffffffffffffffffffffffffffffffff\n      and\n      0x70a08231\n        /* \"contracts/Swap.sol\":7356:7361  owner */\n      dup5\n        /* \"contracts/Swap.sol\":7334:7362  courseToken.balanceOf(owner) */\n      mload(0x40)\n      dup3\n      0xffffffff\n      and\n      0xe0\n      shl\n      dup2\n      mstore\n      0x04\n      add\n      tag_297\n      swap2\n      swap1\n      tag_44\n      jump\t// in\n    tag_297:\n      0x20\n      mload(0x40)\n      dup1\n      dup4\n      sub\n      dup2\n      dup7\n      gas\n      staticcall\n      iszero\n      dup1\n      iszero\n      tag_299\n      jumpi\n      returndatasize\n      0x00\n      dup1\n      returndatacopy\n      revert(0x00, returndatasize)\n    tag_299:\n      pop\n      pop\n      pop\n      pop\n      mload(0x40)\n      returndatasize\n      not(0x1f)\n      0x1f\n      dup3\n      add\n      and\n      dup3\n      add\n      dup1\n      0x40\n      mstore\n      pop\n      dup2\n      add\n      swap1\n      tag_300\n      swap2\n      swap1\n      tag_301\n      jump\t// in\n    tag_300:\n        /* \"contracts/Swap.sol\":7318:7362  uint256 count = courseToken.balanceOf(owner) */\n      swap1\n      pop\n        /* \"contracts/Swap.sol\":7373:7396  uint256[] memory tokens */\n      0x00\n        /* \"contracts/Swap.sol\":7413:7418  count */\n      dup2\n        /* \"contracts/Swap.sol\":7399:7419  new uint256[](count) */\n      0xffffffffffffffff\n      dup2\n      gt\n      iszero\n      tag_302\n      jumpi\n      tag_303\n      tag_88\n      jump\t// in\n    tag_303:\n    tag_302:\n      mload(0x40)\n      swap1\n      dup1\n      dup3\n      mstore\n      dup1\n      0x20\n      mul\n      0x20\n      add\n      dup3\n      add\n      0x40\n      mstore\n      dup1\n      iszero\n      tag_304\n      jumpi\n      dup2\n      0x20\n      add\n      0x20\n      dup3\n      mul\n      dup1\n      calldatasize\n      dup4\n      calldatacopy\n      dup1\n      dup3\n      add\n      swap2\n      pop\n      pop\n      swap1\n      pop\n    tag_304:\n      pop\n        /* \"contracts/Swap.sol\":7373:7419  uint256[] memory tokens = new uint256[](count) */\n      swap1\n      pop\n        /* \"contracts/Swap.sol\":7435:7444  uint256 i */\n      0x00\n        /* \"contracts/Swap.sol\":7430:7546  for (uint256 i = 0; i < count; i++) {... */\n    tag_305:\n        /* \"contracts/Swap.sol\":7454:7459  count */\n      dup3\n        /* \"contracts/Swap.sol\":7450:7451  i */\n      dup2\n        /* \"contracts/Swap.sol\":7450:7459  i < count */\n      lt\n        /* \"contracts/Swap.sol\":7430:7546  for (uint256 i = 0; i < count; i++) {... */\n      iszero\n      tag_306\n      jumpi\n        /* \"contracts/Swap.sol\":7493:7504  courseToken */\n      0x01\n      0x00\n      swap1\n      sload\n      swap1\n      0x0100\n      exp\n      swap1\n      div\n      0xffffffffffffffffffffffffffffffffffffffff\n      and\n        /* \"contracts/Swap.sol\":7493:7524  courseToken.tokenOfOwnerByIndex */\n      0xffffffffffffffffffffffffffffffffffffffff\n      and\n      0x2f745c59\n        /* \"contracts/Swap.sol\":7525:7530  owner */\n      dup7\n        /* \"contracts/Swap.sol\":7532:7533  i */\n      dup4\n        /* \"contracts/Swap.sol\":7493:7534  courseToken.tokenOfOwnerByIndex(owner, i) */\n      mload(0x40)\n      dup4\n      0xffffffff\n      and\n      0xe0\n      shl\n      dup2\n      mstore\n      0x04\n      add\n      tag_308\n      swap3\n      swap2\n      swap1\n      tag_309\n      jump\t// in\n    tag_308:\n      0x20\n      mload(0x40)\n      dup1\n      dup4\n      sub\n      dup2\n      dup7\n      gas\n      staticcall\n      iszero\n      dup1\n      iszero\n      tag_311\n      jumpi\n      returndatasize\n      0x00\n      dup1\n      returndatacopy\n      revert(0x00, returndatasize)\n    tag_311:\n      pop\n      pop\n      pop\n      pop\n      mload(0x40)\n      returndatasize\n      not(0x1f)\n      0x1f\n      dup3\n      add\n      and\n      dup3\n      add\n      dup1\n      0x40\n      mstore\n      pop\n      dup2\n      add\n      swap1\n      tag_312\n      swap2\n      swap1\n      tag_301\n      jump\t// in\n    tag_312:\n        /* \"contracts/Swap.sol\":7481:7487  tokens */\n      dup3\n        /* \"contracts/Swap.sol\":7488:7489  i */\n      dup3\n        /* \"contracts/Swap.sol\":7481:7490  tokens[i] */\n      dup2\n      mload\n      dup2\n      lt\n      tag_313\n      jumpi\n      tag_314\n      tag_68\n      jump\t// in\n    tag_314:\n    tag_313:\n      0x20\n      mul\n      0x20\n      add\n      add\n        /* \"contracts/Swap.sol\":7481:7534  tokens[i] = courseToken.tokenOfOwnerByIndex(owner, i) */\n      dup2\n      dup2\n      mstore\n      pop\n      pop\n        /* \"contracts/Swap.sol\":7461:7464  i++ */\n      dup1\n      dup1\n      0x01\n      add\n      swap2\n      pop\n      pop\n        /* \"contracts/Swap.sol\":7430:7546  for (uint256 i = 0; i < count; i++) {... */\n      jump(tag_305)\n    tag_306:\n      pop\n        /* \"contracts/Swap.sol\":7563:7569  tokens */\n      dup1\n        /* \"contracts/Swap.sol\":7556:7569  return tokens */\n      swap3\n      pop\n      pop\n      pop\n        /* \"contracts/Swap.sol\":7225:7577  function getTokensOfOwner(address owner) internal view returns (uint256[] memory) {... */\n      swap2\n      swap1\n      pop\n      jump\t// out\n    tag_92:\n      mload(0x40)\n      dup1\n      0x0100\n      add\n      0x40\n      mstore\n      dup1\n      0x00\n      dup2\n      mstore\n      0x20\n      add\n      and(0xffffffffffffffffffffffffffffffffffffffff, 0x00)\n      dup2\n      mstore\n      0x20\n      add\n      0x00\n      dup2\n      mstore\n      0x20\n      add\n      0x60\n      dup2\n      mstore\n      0x20\n      add\n      0x60\n      dup2\n      mstore\n      0x20\n      add\n      0x60\n      dup2\n      mstore\n      0x20\n      add\n      0x60\n      dup2\n      mstore\n      0x20\n      add\n      0x60\n      dup2\n      mstore\n      pop\n      swap1\n      jump\t// out\n        /* \"#utility.yul\":7:133   */\n    tag_315:\n        /* \"#utility.yul\":44:51   */\n      0x00\n        /* \"#utility.yul\":84:126   */\n      0xffffffffffffffffffffffffffffffffffffffff\n        /* \"#utility.yul\":77:82   */\n      dup3\n        /* \"#utility.yul\":73:127   */\n      and\n        /* \"#utility.yul\":62:127   */\n      swap1\n      pop\n        /* \"#utility.yul\":7:133   */\n      swap2\n      swap1\n      pop\n      jump\t// out\n        /* \"#utility.yul\":139:199   */\n    tag_316:\n        /* \"#utility.yul\":167:170   */\n      0x00\n        /* \"#utility.yul\":188:193   */\n      dup2\n        /* \"#utility.yul\":181:193   */\n      swap1\n      pop\n        /* \"#utility.yul\":139:199   */\n      swap2\n      swap1\n      pop\n      jump\t// out\n        /* \"#utility.yul\":205:347   */\n    tag_317:\n        /* \"#utility.yul\":255:264   */\n      0x00\n        /* \"#utility.yul\":288:341   */\n      tag_398\n        /* \"#utility.yul\":306:340   */\n      tag_399\n        /* \"#utility.yul\":315:339   */\n      tag_400\n        /* \"#utility.yul\":333:338   */\n      dup5\n        /* \"#utility.yul\":315:339   */\n      tag_315\n      jump\t// in\n    tag_400:\n        /* \"#utility.yul\":306:340   */\n      tag_316\n      jump\t// in\n    tag_399:\n        /* \"#utility.yul\":288:341   */\n      tag_315\n      jump\t// in\n    tag_398:\n        /* \"#utility.yul\":275:341   */\n      swap1\n      pop\n        /* \"#utility.yul\":205:347   */\n      swap2\n      swap1\n      pop\n      jump\t// out\n        /* \"#utility.yul\":353:479   */\n    tag_318:\n        /* \"#utility.yul\":403:412   */\n      0x00\n        /* \"#utility.yul\":436:473   */\n      tag_402\n        /* \"#utility.yul\":467:472   */\n      dup3\n        /* \"#utility.yul\":436:473   */\n      tag_317\n      jump\t// in\n    tag_402:\n        /* \"#utility.yul\":423:473   */\n      swap1\n      pop\n        /* \"#utility.yul\":353:479   */\n      swap2\n      swap1\n      pop\n      jump\t// out\n        /* \"#utility.yul\":485:640   */\n    tag_319:\n        /* \"#utility.yul\":564:573   */\n      0x00\n        /* \"#utility.yul\":597:634   */\n      tag_404\n        /* \"#utility.yul\":628:633   */\n      dup3\n        /* \"#utility.yul\":597:634   */\n      tag_318\n      jump\t// in\n    tag_404:\n        /* \"#utility.yul\":584:634   */\n      swap1\n      pop\n        /* \"#utility.yul\":485:640   */\n      swap2\n      swap1\n      pop\n      jump\t// out\n        /* \"#utility.yul\":646:835   */\n    tag_320:\n        /* \"#utility.yul\":762:828   */\n      tag_406\n        /* \"#utility.yul\":822:827   */\n      dup2\n        /* \"#utility.yul\":762:828   */\n      tag_319\n      jump\t// in\n    tag_406:\n        /* \"#utility.yul\":757:760   */\n      dup3\n        /* \"#utility.yul\":750:829   */\n      mstore\n        /* \"#utility.yul\":646:835   */\n      pop\n      pop\n      jump\t// out\n        /* \"#utility.yul\":841:1121   */\n    tag_21:\n        /* \"#utility.yul\":963:967   */\n      0x00\n        /* \"#utility.yul\":1001:1003   */\n      0x20\n        /* \"#utility.yul\":990:999   */\n      dup3\n        /* \"#utility.yul\":986:1004   */\n      add\n        /* \"#utility.yul\":978:1004   */\n      swap1\n      pop\n        /* \"#utility.yul\":1014:1114   */\n      tag_408\n        /* \"#utility.yul\":1111:1112   */\n      0x00\n        /* \"#utility.yul\":1100:1109   */\n      dup4\n        /* \"#utility.yul\":1096:1113   */\n      add\n        /* \"#utility.yul\":1087:1093   */\n      dup5\n        /* \"#utility.yul\":1014:1114   */\n      tag_320\n      jump\t// in\n    tag_408:\n        /* \"#utility.yul\":841:1121   */\n      swap3\n      swap2\n      pop\n      pop\n      jump\t// out\n        /* \"#utility.yul\":1127:1202   */\n    tag_321:\n        /* \"#utility.yul\":1160:1166   */\n      0x00\n        /* \"#utility.yul\":1193:1195   */\n      0x40\n        /* \"#utility.yul\":1187:1196   */\n      mload\n        /* \"#utility.yul\":1177:1196   */\n      swap1\n      pop\n        /* \"#utility.yul\":1127:1202   */\n      swap1\n      jump\t// out\n        /* \"#utility.yul\":1208:1325   */\n    tag_322:\n        /* \"#utility.yul\":1317:1318   */\n      0x00\n        /* \"#utility.yul\":1314:1315   */\n      dup1\n        /* \"#utility.yul\":1307:1319   */\n      revert\n        /* \"#utility.yul\":1331:1448   */\n    tag_323:\n        /* \"#utility.yul\":1440:1441   */\n      0x00\n        /* \"#utility.yul\":1437:1438   */\n      dup1\n        /* \"#utility.yul\":1430:1442   */\n      revert\n        /* \"#utility.yul\":1454:1531   */\n    tag_324:\n        /* \"#utility.yul\":1491:1498   */\n      0x00\n        /* \"#utility.yul\":1520:1525   */\n      dup2\n        /* \"#utility.yul\":1509:1525   */\n      swap1\n      pop\n        /* \"#utility.yul\":1454:1531   */\n      swap2\n      swap1\n      pop\n      jump\t// out\n        /* \"#utility.yul\":1537:1659   */\n    tag_325:\n        /* \"#utility.yul\":1610:1634   */\n      tag_414\n        /* \"#utility.yul\":1628:1633   */\n      dup2\n        /* \"#utility.yul\":1610:1634   */\n      tag_324\n      jump\t// in\n    tag_414:\n        /* \"#utility.yul\":1603:1608   */\n      dup2\n        /* \"#utility.yul\":1600:1635   */\n      eq\n        /* \"#utility.yul\":1590:1653   */\n      tag_415\n      jumpi\n        /* \"#utility.yul\":1649:1650   */\n      0x00\n        /* \"#utility.yul\":1646:1647   */\n      dup1\n        /* \"#utility.yul\":1639:1651   */\n      revert\n        /* \"#utility.yul\":1590:1653   */\n    tag_415:\n        /* \"#utility.yul\":1537:1659   */\n      pop\n      jump\t// out\n        /* \"#utility.yul\":1665:1804   */\n    tag_326:\n        /* \"#utility.yul\":1711:1716   */\n      0x00\n        /* \"#utility.yul\":1749:1755   */\n      dup2\n        /* \"#utility.yul\":1736:1756   */\n      calldataload\n        /* \"#utility.yul\":1727:1756   */\n      swap1\n      pop\n        /* \"#utility.yul\":1765:1798   */\n      tag_417\n        /* \"#utility.yul\":1792:1797   */\n      dup2\n        /* \"#utility.yul\":1765:1798   */\n      tag_325\n      jump\t// in\n    tag_417:\n        /* \"#utility.yul\":1665:1804   */\n      swap3\n      swap2\n      pop\n      pop\n      jump\t// out\n        /* \"#utility.yul\":1810:2139   */\n    tag_24:\n        /* \"#utility.yul\":1869:1875   */\n      0x00\n        /* \"#utility.yul\":1918:1920   */\n      0x20\n        /* \"#utility.yul\":1906:1915   */\n      dup3\n        /* \"#utility.yul\":1897:1904   */\n      dup5\n        /* \"#utility.yul\":1893:1916   */\n      sub\n        /* \"#utility.yul\":1889:1921   */\n      slt\n        /* \"#utility.yul\":1886:2005   */\n      iszero\n      tag_419\n      jumpi\n        /* \"#utility.yul\":1924:2003   */\n      tag_420\n      tag_322\n      jump\t// in\n    tag_420:\n        /* \"#utility.yul\":1886:2005   */\n    tag_419:\n        /* \"#utility.yul\":2044:2045   */\n      0x00\n        /* \"#utility.yul\":2069:2122   */\n      tag_421\n        /* \"#utility.yul\":2114:2121   */\n      dup5\n        /* \"#utility.yul\":2105:2111   */\n      dup3\n        /* \"#utility.yul\":2094:2103   */\n      dup6\n        /* \"#utility.yul\":2090:2112   */\n      add\n        /* \"#utility.yul\":2069:2122   */\n      tag_326\n      jump\t// in\n    tag_421:\n        /* \"#utility.yul\":2059:2122   */\n      swap2\n      pop\n        /* \"#utility.yul\":2015:2132   */\n      pop\n        /* \"#utility.yul\":1810:2139   */\n      swap3\n      swap2\n      pop\n      pop\n      jump\t// out\n        /* \"#utility.yul\":2145:2263   */\n    tag_327:\n        /* \"#utility.yul\":2232:2256   */\n      tag_423\n        /* \"#utility.yul\":2250:2255   */\n      dup2\n        /* \"#utility.yul\":2232:2256   */\n      tag_324\n      jump\t// in\n    tag_423:\n        /* \"#utility.yul\":2227:2230   */\n      dup3\n        /* \"#utility.yul\":2220:2257   */\n      mstore\n        /* \"#utility.yul\":2145:2263   */\n      pop\n      pop\n      jump\t// out\n        /* \"#utility.yul\":2269:2491   */\n    tag_27:\n        /* \"#utility.yul\":2362:2366   */\n      0x00\n        /* \"#utility.yul\":2400:2402   */\n      0x20\n        /* \"#utility.yul\":2389:2398   */\n      dup3\n        /* \"#utility.yul\":2385:2403   */\n      add\n        /* \"#utility.yul\":2377:2403   */\n      swap1\n      pop\n        /* \"#utility.yul\":2413:2484   */\n      tag_425\n        /* \"#utility.yul\":2481:2482   */\n      0x00\n        /* \"#utility.yul\":2470:2479   */\n      dup4\n        /* \"#utility.yul\":2466:2483   */\n      add\n        /* \"#utility.yul\":2457:2463   */\n      dup5\n        /* \"#utility.yul\":2413:2484   */\n      tag_327\n      jump\t// in\n    tag_425:\n        /* \"#utility.yul\":2269:2491   */\n      swap3\n      swap2\n      pop\n      pop\n      jump\t// out\n        /* \"#utility.yul\":2497:2644   */\n    tag_328:\n        /* \"#utility.yul\":2597:2603   */\n      0x00\n        /* \"#utility.yul\":2631:2636   */\n      dup2\n        /* \"#utility.yul\":2625:2637   */\n      mload\n        /* \"#utility.yul\":2615:2637   */\n      swap1\n      pop\n        /* \"#utility.yul\":2497:2644   */\n      swap2\n      swap1\n      pop\n      jump\t// out\n        /* \"#utility.yul\":2650:2867   */\n    tag_329:\n        /* \"#utility.yul\":2782:2793   */\n      0x00\n        /* \"#utility.yul\":2816:2822   */\n      dup3\n        /* \"#utility.yul\":2811:2814   */\n      dup3\n        /* \"#utility.yul\":2804:2823   */\n      mstore\n        /* \"#utility.yul\":2856:2860   */\n      0x20\n        /* \"#utility.yul\":2851:2854   */\n      dup3\n        /* \"#utility.yul\":2847:2861   */\n      add\n        /* \"#utility.yul\":2832:2861   */\n      swap1\n      pop\n        /* \"#utility.yul\":2650:2867   */\n      swap3\n      swap2\n      pop\n      pop\n      jump\t// out\n        /* \"#utility.yul\":2873:3038   */\n    tag_330:\n        /* \"#utility.yul\":2973:2977   */\n      0x00\n        /* \"#utility.yul\":2996:2999   */\n      dup2\n        /* \"#utility.yul\":2988:2999   */\n      swap1\n      pop\n        /* \"#utility.yul\":3026:3030   */\n      0x20\n        /* \"#utility.yul\":3021:3024   */\n      dup3\n        /* \"#utility.yul\":3017:3031   */\n      add\n        /* \"#utility.yul\":3009:3031   */\n      swap1\n      pop\n        /* \"#utility.yul\":2873:3038   */\n      swap2\n      swap1\n      pop\n      jump\t// out\n        /* \"#utility.yul\":3044:3152   */\n    tag_331:\n        /* \"#utility.yul\":3121:3145   */\n      tag_430\n        /* \"#utility.yul\":3139:3144   */\n      dup2\n        /* \"#utility.yul\":3121:3145   */\n      tag_324\n      jump\t// in\n    tag_430:\n        /* \"#utility.yul\":3116:3119   */\n      dup3\n        /* \"#utility.yul\":3109:3146   */\n      mstore\n        /* \"#utility.yul\":3044:3152   */\n      pop\n      pop\n      jump\t// out\n        /* \"#utility.yul\":3158:3254   */\n    tag_332:\n        /* \"#utility.yul\":3195:3202   */\n      0x00\n        /* \"#utility.yul\":3224:3248   */\n      tag_432\n        /* \"#utility.yul\":3242:3247   */\n      dup3\n        /* \"#utility.yul\":3224:3248   */\n      tag_315\n      jump\t// in\n    tag_432:\n        /* \"#utility.yul\":3213:3248   */\n      swap1\n      pop\n        /* \"#utility.yul\":3158:3254   */\n      swap2\n      swap1\n      pop\n      jump\t// out\n        /* \"#utility.yul\":3260:3368   */\n    tag_333:\n        /* \"#utility.yul\":3337:3361   */\n      tag_434\n        /* \"#utility.yul\":3355:3360   */\n      dup2\n        /* \"#utility.yul\":3337:3361   */\n      tag_332\n      jump\t// in\n    tag_434:\n        /* \"#utility.yul\":3332:3335   */\n      dup3\n        /* \"#utility.yul\":3325:3362   */\n      mstore\n        /* \"#utility.yul\":3260:3368   */\n      pop\n      pop\n      jump\t// out\n        /* \"#utility.yul\":3374:3473   */\n    tag_334:\n        /* \"#utility.yul\":3426:3432   */\n      0x00\n        /* \"#utility.yul\":3460:3465   */\n      dup2\n        /* \"#utility.yul\":3454:3466   */\n      mload\n        /* \"#utility.yul\":3444:3466   */\n      swap1\n      pop\n        /* \"#utility.yul\":3374:3473   */\n      swap2\n      swap1\n      pop\n      jump\t// out\n        /* \"#utility.yul\":3479:3638   */\n    tag_335:\n        /* \"#utility.yul\":3553:3564   */\n      0x00\n        /* \"#utility.yul\":3587:3593   */\n      dup3\n        /* \"#utility.yul\":3582:3585   */\n      dup3\n        /* \"#utility.yul\":3575:3594   */\n      mstore\n        /* \"#utility.yul\":3627:3631   */\n      0x20\n        /* \"#utility.yul\":3622:3625   */\n      dup3\n        /* \"#utility.yul\":3618:3632   */\n      add\n        /* \"#utility.yul\":3603:3632   */\n      swap1\n      pop\n        /* \"#utility.yul\":3479:3638   */\n      swap3\n      swap2\n      pop\n      pop\n      jump\t// out\n        /* \"#utility.yul\":3644:3783   */\n    tag_336:\n        /* \"#utility.yul\":3733:3739   */\n      dup3\n        /* \"#utility.yul\":3728:3731   */\n      dup2\n        /* \"#utility.yul\":3723:3726   */\n      dup4\n        /* \"#utility.yul\":3717:3740   */\n      mcopy\n        /* \"#utility.yul\":3774:3775   */\n      0x00\n        /* \"#utility.yul\":3765:3771   */\n      dup4\n        /* \"#utility.yul\":3760:3763   */\n      dup4\n        /* \"#utility.yul\":3756:3772   */\n      add\n        /* \"#utility.yul\":3749:3776   */\n      mstore\n        /* \"#utility.yul\":3644:3783   */\n      pop\n      pop\n      pop\n      jump\t// out\n        /* \"#utility.yul\":3789:3891   */\n    tag_337:\n        /* \"#utility.yul\":3830:3836   */\n      0x00\n        /* \"#utility.yul\":3881:3883   */\n      0x1f\n        /* \"#utility.yul\":3877:3884   */\n      not\n        /* \"#utility.yul\":3872:3874   */\n      0x1f\n        /* \"#utility.yul\":3865:3870   */\n      dup4\n        /* \"#utility.yul\":3861:3875   */\n      add\n        /* \"#utility.yul\":3857:3885   */\n      and\n        /* \"#utility.yul\":3847:3885   */\n      swap1\n      pop\n        /* \"#utility.yul\":3789:3891   */\n      swap2\n      swap1\n      pop\n      jump\t// out\n        /* \"#utility.yul\":3897:4254   */\n    tag_338:\n        /* \"#utility.yul\":3975:3978   */\n      0x00\n        /* \"#utility.yul\":4003:4042   */\n      tag_440\n        /* \"#utility.yul\":4036:4041   */\n      dup3\n        /* \"#utility.yul\":4003:4042   */\n      tag_334\n      jump\t// in\n    tag_440:\n        /* \"#utility.yul\":4058:4119   */\n      tag_441\n        /* \"#utility.yul\":4112:4118   */\n      dup2\n        /* \"#utility.yul\":4107:4110   */\n      dup6\n        /* \"#utility.yul\":4058:4119   */\n      tag_335\n      jump\t// in\n    tag_441:\n        /* \"#utility.yul\":4051:4119   */\n      swap4\n      pop\n        /* \"#utility.yul\":4128:4193   */\n      tag_442\n        /* \"#utility.yul\":4186:4192   */\n      dup2\n        /* \"#utility.yul\":4181:4184   */\n      dup6\n        /* \"#utility.yul\":4174:4178   */\n      0x20\n        /* \"#utility.yul\":4167:4172   */\n      dup7\n        /* \"#utility.yul\":4163:4179   */\n      add\n        /* \"#utility.yul\":4128:4193   */\n      tag_336\n      jump\t// in\n    tag_442:\n        /* \"#utility.yul\":4218:4247   */\n      tag_443\n        /* \"#utility.yul\":4240:4246   */\n      dup2\n        /* \"#utility.yul\":4218:4247   */\n      tag_337\n      jump\t// in\n    tag_443:\n        /* \"#utility.yul\":4213:4216   */\n      dup5\n        /* \"#utility.yul\":4209:4248   */\n      add\n        /* \"#utility.yul\":4202:4248   */\n      swap2\n      pop\n        /* \"#utility.yul\":3979:4254   */\n      pop\n        /* \"#utility.yul\":3897:4254   */\n      swap3\n      swap2\n      pop\n      pop\n      jump\t// out\n        /* \"#utility.yul\":4330:6321   */\n    tag_339:\n        /* \"#utility.yul\":4455:4458   */\n      0x00\n        /* \"#utility.yul\":4491:4497   */\n      0x0100\n        /* \"#utility.yul\":4486:4489   */\n      dup4\n        /* \"#utility.yul\":4482:4498   */\n      add\n        /* \"#utility.yul\":4583:4587   */\n      0x00\n        /* \"#utility.yul\":4576:4581   */\n      dup4\n        /* \"#utility.yul\":4572:4588   */\n      add\n        /* \"#utility.yul\":4566:4589   */\n      mload\n        /* \"#utility.yul\":4602:4665   */\n      tag_445\n        /* \"#utility.yul\":4659:4663   */\n      0x00\n        /* \"#utility.yul\":4654:4657   */\n      dup7\n        /* \"#utility.yul\":4650:4664   */\n      add\n        /* \"#utility.yul\":4636:4648   */\n      dup3\n        /* \"#utility.yul\":4602:4665   */\n      tag_331\n      jump\t// in\n    tag_445:\n        /* \"#utility.yul\":4508:4675   */\n      pop\n        /* \"#utility.yul\":4760:4764   */\n      0x20\n        /* \"#utility.yul\":4753:4758   */\n      dup4\n        /* \"#utility.yul\":4749:4765   */\n      add\n        /* \"#utility.yul\":4743:4766   */\n      mload\n        /* \"#utility.yul\":4779:4842   */\n      tag_446\n        /* \"#utility.yul\":4836:4840   */\n      0x20\n        /* \"#utility.yul\":4831:4834   */\n      dup7\n        /* \"#utility.yul\":4827:4841   */\n      add\n        /* \"#utility.yul\":4813:4825   */\n      dup3\n        /* \"#utility.yul\":4779:4842   */\n      tag_333\n      jump\t// in\n    tag_446:\n        /* \"#utility.yul\":4685:4852   */\n      pop\n        /* \"#utility.yul\":4944:4948   */\n      0x40\n        /* \"#utility.yul\":4937:4942   */\n      dup4\n        /* \"#utility.yul\":4933:4949   */\n      add\n        /* \"#utility.yul\":4927:4950   */\n      mload\n        /* \"#utility.yul\":4963:5026   */\n      tag_447\n        /* \"#utility.yul\":5020:5024   */\n      0x40\n        /* \"#utility.yul\":5015:5018   */\n      dup7\n        /* \"#utility.yul\":5011:5025   */\n      add\n        /* \"#utility.yul\":4997:5009   */\n      dup3\n        /* \"#utility.yul\":4963:5026   */\n      tag_331\n      jump\t// in\n    tag_447:\n        /* \"#utility.yul\":4862:5036   */\n      pop\n        /* \"#utility.yul\":5131:5135   */\n      0x60\n        /* \"#utility.yul\":5124:5129   */\n      dup4\n        /* \"#utility.yul\":5120:5136   */\n      add\n        /* \"#utility.yul\":5114:5137   */\n      mload\n        /* \"#utility.yul\":5184:5187   */\n      dup5\n        /* \"#utility.yul\":5178:5182   */\n      dup3\n        /* \"#utility.yul\":5174:5188   */\n      sub\n        /* \"#utility.yul\":5167:5171   */\n      0x60\n        /* \"#utility.yul\":5162:5165   */\n      dup7\n        /* \"#utility.yul\":5158:5172   */\n      add\n        /* \"#utility.yul\":5151:5189   */\n      mstore\n        /* \"#utility.yul\":5210:5283   */\n      tag_448\n        /* \"#utility.yul\":5278:5282   */\n      dup3\n        /* \"#utility.yul\":5264:5276   */\n      dup3\n        /* \"#utility.yul\":5210:5283   */\n      tag_338\n      jump\t// in\n    tag_448:\n        /* \"#utility.yul\":5202:5283   */\n      swap2\n      pop\n        /* \"#utility.yul\":5046:5294   */\n      pop\n        /* \"#utility.yul\":5380:5384   */\n      0x80\n        /* \"#utility.yul\":5373:5378   */\n      dup4\n        /* \"#utility.yul\":5369:5385   */\n      add\n        /* \"#utility.yul\":5363:5386   */\n      mload\n        /* \"#utility.yul\":5433:5436   */\n      dup5\n        /* \"#utility.yul\":5427:5431   */\n      dup3\n        /* \"#utility.yul\":5423:5437   */\n      sub\n        /* \"#utility.yul\":5416:5420   */\n      0x80\n        /* \"#utility.yul\":5411:5414   */\n      dup7\n        /* \"#utility.yul\":5407:5421   */\n      add\n        /* \"#utility.yul\":5400:5438   */\n      mstore\n        /* \"#utility.yul\":5459:5532   */\n      tag_449\n        /* \"#utility.yul\":5527:5531   */\n      dup3\n        /* \"#utility.yul\":5513:5525   */\n      dup3\n        /* \"#utility.yul\":5459:5532   */\n      tag_338\n      jump\t// in\n    tag_449:\n        /* \"#utility.yul\":5451:5532   */\n      swap2\n      pop\n        /* \"#utility.yul\":5304:5543   */\n      pop\n        /* \"#utility.yul\":5630:5634   */\n      0xa0\n        /* \"#utility.yul\":5623:5628   */\n      dup4\n        /* \"#utility.yul\":5619:5635   */\n      add\n        /* \"#utility.yul\":5613:5636   */\n      mload\n        /* \"#utility.yul\":5683:5686   */\n      dup5\n        /* \"#utility.yul\":5677:5681   */\n      dup3\n        /* \"#utility.yul\":5673:5687   */\n      sub\n        /* \"#utility.yul\":5666:5670   */\n      0xa0\n        /* \"#utility.yul\":5661:5664   */\n      dup7\n        /* \"#utility.yul\":5657:5671   */\n      add\n        /* \"#utility.yul\":5650:5688   */\n      mstore\n        /* \"#utility.yul\":5709:5782   */\n      tag_450\n        /* \"#utility.yul\":5777:5781   */\n      dup3\n        /* \"#utility.yul\":5763:5775   */\n      dup3\n        /* \"#utility.yul\":5709:5782   */\n      tag_338\n      jump\t// in\n    tag_450:\n        /* \"#utility.yul\":5701:5782   */\n      swap2\n      pop\n        /* \"#utility.yul\":5553:5793   */\n      pop\n        /* \"#utility.yul\":5877:5881   */\n      0xc0\n        /* \"#utility.yul\":5870:5875   */\n      dup4\n        /* \"#utility.yul\":5866:5882   */\n      add\n        /* \"#utility.yul\":5860:5883   */\n      mload\n        /* \"#utility.yul\":5930:5933   */\n      dup5\n        /* \"#utility.yul\":5924:5928   */\n      dup3\n        /* \"#utility.yul\":5920:5934   */\n      sub\n        /* \"#utility.yul\":5913:5917   */\n      0xc0\n        /* \"#utility.yul\":5908:5911   */\n      dup7\n        /* \"#utility.yul\":5904:5918   */\n      add\n        /* \"#utility.yul\":5897:5935   */\n      mstore\n        /* \"#utility.yul\":5956:6029   */\n      tag_451\n        /* \"#utility.yul\":6024:6028   */\n      dup3\n        /* \"#utility.yul\":6010:6022   */\n      dup3\n        /* \"#utility.yul\":5956:6029   */\n      tag_338\n      jump\t// in\n    tag_451:\n        /* \"#utility.yul\":5948:6029   */\n      swap2\n      pop\n        /* \"#utility.yul\":5803:6040   */\n      pop\n        /* \"#utility.yul\":6131:6135   */\n      0xe0\n        /* \"#utility.yul\":6124:6129   */\n      dup4\n        /* \"#utility.yul\":6120:6136   */\n      add\n        /* \"#utility.yul\":6114:6137   */\n      mload\n        /* \"#utility.yul\":6184:6187   */\n      dup5\n        /* \"#utility.yul\":6178:6182   */\n      dup3\n        /* \"#utility.yul\":6174:6188   */\n      sub\n        /* \"#utility.yul\":6167:6171   */\n      0xe0\n        /* \"#utility.yul\":6162:6165   */\n      dup7\n        /* \"#utility.yul\":6158:6172   */\n      add\n        /* \"#utility.yul\":6151:6189   */\n      mstore\n        /* \"#utility.yul\":6210:6283   */\n      tag_452\n        /* \"#utility.yul\":6278:6282   */\n      dup3\n        /* \"#utility.yul\":6264:6276   */\n      dup3\n        /* \"#utility.yul\":6210:6283   */\n      tag_338\n      jump\t// in\n    tag_452:\n        /* \"#utility.yul\":6202:6283   */\n      swap2\n      pop\n        /* \"#utility.yul\":6050:6294   */\n      pop\n        /* \"#utility.yul\":6311:6315   */\n      dup1\n        /* \"#utility.yul\":6304:6315   */\n      swap2\n      pop\n        /* \"#utility.yul\":4460:6321   */\n      pop\n        /* \"#utility.yul\":4330:6321   */\n      swap3\n      swap2\n      pop\n      pop\n      jump\t// out\n        /* \"#utility.yul\":6327:6615   */\n    tag_340:\n        /* \"#utility.yul\":6462:6472   */\n      0x00\n        /* \"#utility.yul\":6497:6609   */\n      tag_454\n        /* \"#utility.yul\":6605:6608   */\n      dup4\n        /* \"#utility.yul\":6597:6603   */\n      dup4\n        /* \"#utility.yul\":6497:6609   */\n      tag_339\n      jump\t// in\n    tag_454:\n        /* \"#utility.yul\":6483:6609   */\n      swap1\n      pop\n        /* \"#utility.yul\":6327:6615   */\n      swap3\n      swap2\n      pop\n      pop\n      jump\t// out\n        /* \"#utility.yul\":6621:6767   */\n    tag_341:\n        /* \"#utility.yul\":6724:6728   */\n      0x00\n        /* \"#utility.yul\":6756:6760   */\n      0x20\n        /* \"#utility.yul\":6751:6754   */\n      dup3\n        /* \"#utility.yul\":6747:6761   */\n      add\n        /* \"#utility.yul\":6739:6761   */\n      swap1\n      pop\n        /* \"#utility.yul\":6621:6767   */\n      swap2\n      swap1\n      pop\n      jump\t// out\n        /* \"#utility.yul\":6847:8022   */\n    tag_342:\n        /* \"#utility.yul\":7032:7035   */\n      0x00\n        /* \"#utility.yul\":7061:7148   */\n      tag_457\n        /* \"#utility.yul\":7142:7147   */\n      dup3\n        /* \"#utility.yul\":7061:7148   */\n      tag_328\n      jump\t// in\n    tag_457:\n        /* \"#utility.yul\":7164:7283   */\n      tag_458\n        /* \"#utility.yul\":7276:7282   */\n      dup2\n        /* \"#utility.yul\":7271:7274   */\n      dup6\n        /* \"#utility.yul\":7164:7283   */\n      tag_329\n      jump\t// in\n    tag_458:\n        /* \"#utility.yul\":7157:7283   */\n      swap4\n      pop\n        /* \"#utility.yul\":7309:7312   */\n      dup4\n        /* \"#utility.yul\":7354:7358   */\n      0x20\n        /* \"#utility.yul\":7346:7352   */\n      dup3\n        /* \"#utility.yul\":7342:7359   */\n      mul\n        /* \"#utility.yul\":7337:7340   */\n      dup6\n        /* \"#utility.yul\":7333:7360   */\n      add\n        /* \"#utility.yul\":7384:7473   */\n      tag_459\n        /* \"#utility.yul\":7467:7472   */\n      dup6\n        /* \"#utility.yul\":7384:7473   */\n      tag_330\n      jump\t// in\n    tag_459:\n        /* \"#utility.yul\":7496:7503   */\n      dup1\n        /* \"#utility.yul\":7527:7528   */\n      0x00\n        /* \"#utility.yul\":7512:7977   */\n    tag_460:\n        /* \"#utility.yul\":7537:7543   */\n      dup6\n        /* \"#utility.yul\":7534:7535   */\n      dup2\n        /* \"#utility.yul\":7531:7544   */\n      lt\n        /* \"#utility.yul\":7512:7977   */\n      iszero\n      tag_462\n      jumpi\n        /* \"#utility.yul\":7608:7617   */\n      dup5\n        /* \"#utility.yul\":7602:7606   */\n      dup5\n        /* \"#utility.yul\":7598:7618   */\n      sub\n        /* \"#utility.yul\":7593:7596   */\n      dup10\n        /* \"#utility.yul\":7586:7619   */\n      mstore\n        /* \"#utility.yul\":7659:7665   */\n      dup2\n        /* \"#utility.yul\":7653:7666   */\n      mload\n        /* \"#utility.yul\":7687:7817   */\n      tag_463\n        /* \"#utility.yul\":7812:7816   */\n      dup6\n        /* \"#utility.yul\":7797:7810   */\n      dup3\n        /* \"#utility.yul\":7687:7817   */\n      tag_340\n      jump\t// in\n    tag_463:\n        /* \"#utility.yul\":7679:7817   */\n      swap5\n      pop\n        /* \"#utility.yul\":7840:7933   */\n      tag_464\n        /* \"#utility.yul\":7926:7932   */\n      dup4\n        /* \"#utility.yul\":7840:7933   */\n      tag_341\n      jump\t// in\n    tag_464:\n        /* \"#utility.yul\":7830:7933   */\n      swap3\n      pop\n        /* \"#utility.yul\":7962:7966   */\n      0x20\n        /* \"#utility.yul\":7957:7960   */\n      dup11\n        /* \"#utility.yul\":7953:7967   */\n      add\n        /* \"#utility.yul\":7946:7967   */\n      swap10\n      pop\n        /* \"#utility.yul\":7572:7977   */\n      pop\n        /* \"#utility.yul\":7559:7560   */\n      0x01\n        /* \"#utility.yul\":7556:7557   */\n      dup2\n        /* \"#utility.yul\":7552:7561   */\n      add\n        /* \"#utility.yul\":7547:7561   */\n      swap1\n      pop\n        /* \"#utility.yul\":7512:7977   */\n      jump(tag_460)\n    tag_462:\n        /* \"#utility.yul\":7516:7530   */\n      pop\n        /* \"#utility.yul\":7993:7997   */\n      dup3\n        /* \"#utility.yul\":7986:7997   */\n      swap8\n      pop\n        /* \"#utility.yul\":8013:8016   */\n      dup8\n        /* \"#utility.yul\":8006:8016   */\n      swap6\n      pop\n        /* \"#utility.yul\":7037:8022   */\n      pop\n      pop\n      pop\n      pop\n      pop\n        /* \"#utility.yul\":6847:8022   */\n      swap3\n      swap2\n      pop\n      pop\n      jump\t// out\n        /* \"#utility.yul\":8028:8533   */\n    tag_31:\n        /* \"#utility.yul\":8237:8241   */\n      0x00\n        /* \"#utility.yul\":8275:8277   */\n      0x20\n        /* \"#utility.yul\":8264:8273   */\n      dup3\n        /* \"#utility.yul\":8260:8278   */\n      add\n        /* \"#utility.yul\":8252:8278   */\n      swap1\n      pop\n        /* \"#utility.yul\":8324:8333   */\n      dup2\n        /* \"#utility.yul\":8318:8322   */\n      dup2\n        /* \"#utility.yul\":8314:8334   */\n      sub\n        /* \"#utility.yul\":8310:8311   */\n      0x00\n        /* \"#utility.yul\":8299:8308   */\n      dup4\n        /* \"#utility.yul\":8295:8312   */\n      add\n        /* \"#utility.yul\":8288:8335   */\n      mstore\n        /* \"#utility.yul\":8352:8526   */\n      tag_466\n        /* \"#utility.yul\":8521:8525   */\n      dup2\n        /* \"#utility.yul\":8512:8518   */\n      dup5\n        /* \"#utility.yul\":8352:8526   */\n      tag_342\n      jump\t// in\n    tag_466:\n        /* \"#utility.yul\":8344:8526   */\n      swap1\n      pop\n        /* \"#utility.yul\":8028:8533   */\n      swap3\n      swap2\n      pop\n      pop\n      jump\t// out\n        /* \"#utility.yul\":8539:8656   */\n    tag_343:\n        /* \"#utility.yul\":8648:8649   */\n      0x00\n        /* \"#utility.yul\":8645:8646   */\n      dup1\n        /* \"#utility.yul\":8638:8650   */\n      revert\n        /* \"#utility.yul\":8662:8779   */\n    tag_344:\n        /* \"#utility.yul\":8771:8772   */\n      0x00\n        /* \"#utility.yul\":8768:8769   */\n      dup1\n        /* \"#utility.yul\":8761:8773   */\n      revert\n        /* \"#utility.yul\":8785:8965   */\n    tag_88:\n        /* \"#utility.yul\":8833:8910   */\n      0x4e487b7100000000000000000000000000000000000000000000000000000000\n        /* \"#utility.yul\":8830:8831   */\n      0x00\n        /* \"#utility.yul\":8823:8911   */\n      mstore\n        /* \"#utility.yul\":8930:8934   */\n      0x41\n        /* \"#utility.yul\":8927:8928   */\n      0x04\n        /* \"#utility.yul\":8920:8935   */\n      mstore\n        /* \"#utility.yul\":8954:8958   */\n      0x24\n        /* \"#utility.yul\":8951:8952   */\n      0x00\n        /* \"#utility.yul\":8944:8959   */\n      revert\n        /* \"#utility.yul\":8971:9252   */\n    tag_345:\n        /* \"#utility.yul\":9054:9081   */\n      tag_471\n        /* \"#utility.yul\":9076:9080   */\n      dup3\n        /* \"#utility.yul\":9054:9081   */\n      tag_337\n      jump\t// in\n    tag_471:\n        /* \"#utility.yul\":9046:9052   */\n      dup2\n        /* \"#utility.yul\":9042:9082   */\n      add\n        /* \"#utility.yul\":9184:9190   */\n      dup2\n        /* \"#utility.yul\":9172:9182   */\n      dup2\n        /* \"#utility.yul\":9169:9191   */\n      lt\n        /* \"#utility.yul\":9148:9166   */\n      0xffffffffffffffff\n        /* \"#utility.yul\":9136:9146   */\n      dup3\n        /* \"#utility.yul\":9133:9167   */\n      gt\n        /* \"#utility.yul\":9130:9192   */\n      or\n        /* \"#utility.yul\":9127:9215   */\n      iszero\n      tag_472\n      jumpi\n        /* \"#utility.yul\":9195:9213   */\n      tag_473\n      tag_88\n      jump\t// in\n    tag_473:\n        /* \"#utility.yul\":9127:9215   */\n    tag_472:\n        /* \"#utility.yul\":9235:9245   */\n      dup1\n        /* \"#utility.yul\":9231:9233   */\n      0x40\n        /* \"#utility.yul\":9224:9246   */\n      mstore\n        /* \"#utility.yul\":9014:9252   */\n      pop\n        /* \"#utility.yul\":8971:9252   */\n      pop\n      pop\n      jump\t// out\n        /* \"#utility.yul\":9258:9387   */\n    tag_346:\n        /* \"#utility.yul\":9292:9298   */\n      0x00\n        /* \"#utility.yul\":9319:9339   */\n      tag_475\n      tag_321\n      jump\t// in\n    tag_475:\n        /* \"#utility.yul\":9309:9339   */\n      swap1\n      pop\n        /* \"#utility.yul\":9348:9381   */\n      tag_476\n        /* \"#utility.yul\":9376:9380   */\n      dup3\n        /* \"#utility.yul\":9368:9374   */\n      dup3\n        /* \"#utility.yul\":9348:9381   */\n      tag_345\n      jump\t// in\n    tag_476:\n        /* \"#utility.yul\":9258:9387   */\n      swap2\n      swap1\n      pop\n      jump\t// out\n        /* \"#utility.yul\":9393:9701   */\n    tag_347:\n        /* \"#utility.yul\":9455:9459   */\n      0x00\n        /* \"#utility.yul\":9545:9563   */\n      0xffffffffffffffff\n        /* \"#utility.yul\":9537:9543   */\n      dup3\n        /* \"#utility.yul\":9534:9564   */\n      gt\n        /* \"#utility.yul\":9531:9587   */\n      iszero\n      tag_478\n      jumpi\n        /* \"#utility.yul\":9567:9585   */\n      tag_479\n      tag_88\n      jump\t// in\n    tag_479:\n        /* \"#utility.yul\":9531:9587   */\n    tag_478:\n        /* \"#utility.yul\":9605:9634   */\n      tag_480\n        /* \"#utility.yul\":9627:9633   */\n      dup3\n        /* \"#utility.yul\":9605:9634   */\n      tag_337\n      jump\t// in\n    tag_480:\n        /* \"#utility.yul\":9597:9634   */\n      swap1\n      pop\n        /* \"#utility.yul\":9689:9693   */\n      0x20\n        /* \"#utility.yul\":9683:9687   */\n      dup2\n        /* \"#utility.yul\":9679:9694   */\n      add\n        /* \"#utility.yul\":9671:9694   */\n      swap1\n      pop\n        /* \"#utility.yul\":9393:9701   */\n      swap2\n      swap1\n      pop\n      jump\t// out\n        /* \"#utility.yul\":9707:9855   */\n    tag_348:\n        /* \"#utility.yul\":9805:9811   */\n      dup3\n        /* \"#utility.yul\":9800:9803   */\n      dup2\n        /* \"#utility.yul\":9795:9798   */\n      dup4\n        /* \"#utility.yul\":9782:9812   */\n      calldatacopy\n        /* \"#utility.yul\":9846:9847   */\n      0x00\n        /* \"#utility.yul\":9837:9843   */\n      dup4\n        /* \"#utility.yul\":9832:9835   */\n      dup4\n        /* \"#utility.yul\":9828:9844   */\n      add\n        /* \"#utility.yul\":9821:9848   */\n      mstore\n        /* \"#utility.yul\":9707:9855   */\n      pop\n      pop\n      pop\n      jump\t// out\n        /* \"#utility.yul\":9861:10286   */\n    tag_349:\n        /* \"#utility.yul\":9939:9944   */\n      0x00\n        /* \"#utility.yul\":9964:10030   */\n      tag_483\n        /* \"#utility.yul\":9980:10029   */\n      tag_484\n        /* \"#utility.yul\":10022:10028   */\n      dup5\n        /* \"#utility.yul\":9980:10029   */\n      tag_347\n      jump\t// in\n    tag_484:\n        /* \"#utility.yul\":9964:10030   */\n      tag_346\n      jump\t// in\n    tag_483:\n        /* \"#utility.yul\":9955:10030   */\n      swap1\n      pop\n        /* \"#utility.yul\":10053:10059   */\n      dup3\n        /* \"#utility.yul\":10046:10051   */\n      dup2\n        /* \"#utility.yul\":10039:10060   */\n      mstore\n        /* \"#utility.yul\":10091:10095   */\n      0x20\n        /* \"#utility.yul\":10084:10089   */\n      dup2\n        /* \"#utility.yul\":10080:10096   */\n      add\n        /* \"#utility.yul\":10129:10132   */\n      dup5\n        /* \"#utility.yul\":10120:10126   */\n      dup5\n        /* \"#utility.yul\":10115:10118   */\n      dup5\n        /* \"#utility.yul\":10111:10127   */\n      add\n        /* \"#utility.yul\":10108:10133   */\n      gt\n        /* \"#utility.yul\":10105:10217   */\n      iszero\n      tag_485\n      jumpi\n        /* \"#utility.yul\":10136:10215   */\n      tag_486\n      tag_344\n      jump\t// in\n    tag_486:\n        /* \"#utility.yul\":10105:10217   */\n    tag_485:\n        /* \"#utility.yul\":10226:10280   */\n      tag_487\n        /* \"#utility.yul\":10273:10279   */\n      dup5\n        /* \"#utility.yul\":10268:10271   */\n      dup3\n        /* \"#utility.yul\":10263:10266   */\n      dup6\n        /* \"#utility.yul\":10226:10280   */\n      tag_348\n      jump\t// in\n    tag_487:\n        /* \"#utility.yul\":9945:10286   */\n      pop\n        /* \"#utility.yul\":9861:10286   */\n      swap4\n      swap3\n      pop\n      pop\n      pop\n      jump\t// out\n        /* \"#utility.yul\":10306:10646   */\n    tag_350:\n        /* \"#utility.yul\":10362:10367   */\n      0x00\n        /* \"#utility.yul\":10411:10414   */\n      dup3\n        /* \"#utility.yul\":10404:10408   */\n      0x1f\n        /* \"#utility.yul\":10396:10402   */\n      dup4\n        /* \"#utility.yul\":10392:10409   */\n      add\n        /* \"#utility.yul\":10388:10415   */\n      slt\n        /* \"#utility.yul\":10378:10500   */\n      tag_489\n      jumpi\n        /* \"#utility.yul\":10419:10498   */\n      tag_490\n      tag_343\n      jump\t// in\n    tag_490:\n        /* \"#utility.yul\":10378:10500   */\n    tag_489:\n        /* \"#utility.yul\":10536:10542   */\n      dup2\n        /* \"#utility.yul\":10523:10543   */\n      calldataload\n        /* \"#utility.yul\":10561:10640   */\n      tag_491\n        /* \"#utility.yul\":10636:10639   */\n      dup5\n        /* \"#utility.yul\":10628:10634   */\n      dup3\n        /* \"#utility.yul\":10621:10625   */\n      0x20\n        /* \"#utility.yul\":10613:10619   */\n      dup7\n        /* \"#utility.yul\":10609:10626   */\n      add\n        /* \"#utility.yul\":10561:10640   */\n      tag_349\n      jump\t// in\n    tag_491:\n        /* \"#utility.yul\":10552:10640   */\n      swap2\n      pop\n        /* \"#utility.yul\":10368:10646   */\n      pop\n        /* \"#utility.yul\":10306:10646   */\n      swap3\n      swap2\n      pop\n      pop\n      jump\t// out\n        /* \"#utility.yul\":10652:11306   */\n    tag_39:\n        /* \"#utility.yul\":10730:10736   */\n      0x00\n        /* \"#utility.yul\":10738:10744   */\n      dup1\n        /* \"#utility.yul\":10787:10789   */\n      0x40\n        /* \"#utility.yul\":10775:10784   */\n      dup4\n        /* \"#utility.yul\":10766:10773   */\n      dup6\n        /* \"#utility.yul\":10762:10785   */\n      sub\n        /* \"#utility.yul\":10758:10790   */\n      slt\n        /* \"#utility.yul\":10755:10874   */\n      iszero\n      tag_493\n      jumpi\n        /* \"#utility.yul\":10793:10872   */\n      tag_494\n      tag_322\n      jump\t// in\n    tag_494:\n        /* \"#utility.yul\":10755:10874   */\n    tag_493:\n        /* \"#utility.yul\":10913:10914   */\n      0x00\n        /* \"#utility.yul\":10938:10991   */\n      tag_495\n        /* \"#utility.yul\":10983:10990   */\n      dup6\n        /* \"#utility.yul\":10974:10980   */\n      dup3\n        /* \"#utility.yul\":10963:10972   */\n      dup7\n        /* \"#utility.yul\":10959:10981   */\n      add\n        /* \"#utility.yul\":10938:10991   */\n      tag_326\n      jump\t// in\n    tag_495:\n        /* \"#utility.yul\":10928:10991   */\n      swap3\n      pop\n        /* \"#utility.yul\":10884:11001   */\n      pop\n        /* \"#utility.yul\":11068:11070   */\n      0x20\n        /* \"#utility.yul\":11057:11066   */\n      dup4\n        /* \"#utility.yul\":11053:11071   */\n      add\n        /* \"#utility.yul\":11040:11072   */\n      calldataload\n        /* \"#utility.yul\":11099:11117   */\n      0xffffffffffffffff\n        /* \"#utility.yul\":11091:11097   */\n      dup2\n        /* \"#utility.yul\":11088:11118   */\n      gt\n        /* \"#utility.yul\":11085:11202   */\n      iszero\n      tag_496\n      jumpi\n        /* \"#utility.yul\":11121:11200   */\n      tag_497\n      tag_323\n      jump\t// in\n    tag_497:\n        /* \"#utility.yul\":11085:11202   */\n    tag_496:\n        /* \"#utility.yul\":11226:11289   */\n      tag_498\n        /* \"#utility.yul\":11281:11288   */\n      dup6\n        /* \"#utility.yul\":11272:11278   */\n      dup3\n        /* \"#utility.yul\":11261:11270   */\n      dup7\n        /* \"#utility.yul\":11257:11279   */\n      add\n        /* \"#utility.yul\":11226:11289   */\n      tag_350\n      jump\t// in\n    tag_498:\n        /* \"#utility.yul\":11216:11289   */\n      swap2\n      pop\n        /* \"#utility.yul\":11011:11299   */\n      pop\n        /* \"#utility.yul\":10652:11306   */\n      swap3\n      pop\n      swap3\n      swap1\n      pop\n      jump\t// out\n        /* \"#utility.yul\":11312:11430   */\n    tag_351:\n        /* \"#utility.yul\":11399:11423   */\n      tag_500\n        /* \"#utility.yul\":11417:11422   */\n      dup2\n        /* \"#utility.yul\":11399:11423   */\n      tag_332\n      jump\t// in\n    tag_500:\n        /* \"#utility.yul\":11394:11397   */\n      dup3\n        /* \"#utility.yul\":11387:11424   */\n      mstore\n        /* \"#utility.yul\":11312:11430   */\n      pop\n      pop\n      jump\t// out\n        /* \"#utility.yul\":11436:11658   */\n    tag_44:\n        /* \"#utility.yul\":11529:11533   */\n      0x00\n        /* \"#utility.yul\":11567:11569   */\n      0x20\n        /* \"#utility.yul\":11556:11565   */\n      dup3\n        /* \"#utility.yul\":11552:11570   */\n      add\n        /* \"#utility.yul\":11544:11570   */\n      swap1\n      pop\n        /* \"#utility.yul\":11580:11651   */\n      tag_502\n        /* \"#utility.yul\":11648:11649   */\n      0x00\n        /* \"#utility.yul\":11637:11646   */\n      dup4\n        /* \"#utility.yul\":11633:11650   */\n      add\n        /* \"#utility.yul\":11624:11630   */\n      dup5\n        /* \"#utility.yul\":11580:11651   */\n      tag_351\n      jump\t// in\n    tag_502:\n        /* \"#utility.yul\":11436:11658   */\n      swap3\n      swap2\n      pop\n      pop\n      jump\t// out\n        /* \"#utility.yul\":11664:11833   */\n    tag_352:\n        /* \"#utility.yul\":11748:11759   */\n      0x00\n        /* \"#utility.yul\":11782:11788   */\n      dup3\n        /* \"#utility.yul\":11777:11780   */\n      dup3\n        /* \"#utility.yul\":11770:11789   */\n      mstore\n        /* \"#utility.yul\":11822:11826   */\n      0x20\n        /* \"#utility.yul\":11817:11820   */\n      dup3\n        /* \"#utility.yul\":11813:11827   */\n      add\n        /* \"#utility.yul\":11798:11827   */\n      swap1\n      pop\n        /* \"#utility.yul\":11664:11833   */\n      swap3\n      swap2\n      pop\n      pop\n      jump\t// out\n        /* \"#utility.yul\":11839:12216   */\n    tag_353:\n        /* \"#utility.yul\":11927:11930   */\n      0x00\n        /* \"#utility.yul\":11955:11994   */\n      tag_505\n        /* \"#utility.yul\":11988:11993   */\n      dup3\n        /* \"#utility.yul\":11955:11994   */\n      tag_334\n      jump\t// in\n    tag_505:\n        /* \"#utility.yul\":12010:12081   */\n      tag_506\n        /* \"#utility.yul\":12074:12080   */\n      dup2\n        /* \"#utility.yul\":12069:12072   */\n      dup6\n        /* \"#utility.yul\":12010:12081   */\n      tag_352\n      jump\t// in\n    tag_506:\n        /* \"#utility.yul\":12003:12081   */\n      swap4\n      pop\n        /* \"#utility.yul\":12090:12155   */\n      tag_507\n        /* \"#utility.yul\":12148:12154   */\n      dup2\n        /* \"#utility.yul\":12143:12146   */\n      dup6\n        /* \"#utility.yul\":12136:12140   */\n      0x20\n        /* \"#utility.yul\":12129:12134   */\n      dup7\n        /* \"#utility.yul\":12125:12141   */\n      add\n        /* \"#utility.yul\":12090:12155   */\n      tag_336\n      jump\t// in\n    tag_507:\n        /* \"#utility.yul\":12180:12209   */\n      tag_508\n        /* \"#utility.yul\":12202:12208   */\n      dup2\n        /* \"#utility.yul\":12180:12209   */\n      tag_337\n      jump\t// in\n    tag_508:\n        /* \"#utility.yul\":12175:12178   */\n      dup5\n        /* \"#utility.yul\":12171:12210   */\n      add\n        /* \"#utility.yul\":12164:12210   */\n      swap2\n      pop\n        /* \"#utility.yul\":11931:12216   */\n      pop\n        /* \"#utility.yul\":11839:12216   */\n      swap3\n      swap2\n      pop\n      pop\n      jump\t// out\n        /* \"#utility.yul\":12222:12312   */\n    tag_354:\n        /* \"#utility.yul\":12256:12263   */\n      0x00\n        /* \"#utility.yul\":12299:12304   */\n      dup2\n        /* \"#utility.yul\":12292:12305   */\n      iszero\n        /* \"#utility.yul\":12285:12306   */\n      iszero\n        /* \"#utility.yul\":12274:12306   */\n      swap1\n      pop\n        /* \"#utility.yul\":12222:12312   */\n      swap2\n      swap1\n      pop\n      jump\t// out\n        /* \"#utility.yul\":12318:12427   */\n    tag_355:\n        /* \"#utility.yul\":12399:12420   */\n      tag_511\n        /* \"#utility.yul\":12414:12419   */\n      dup2\n        /* \"#utility.yul\":12399:12420   */\n      tag_354\n      jump\t// in\n    tag_511:\n        /* \"#utility.yul\":12394:12397   */\n      dup3\n        /* \"#utility.yul\":12387:12421   */\n      mstore\n        /* \"#utility.yul\":12318:12427   */\n      pop\n      pop\n      jump\t// out\n        /* \"#utility.yul\":12433:13176   */\n    tag_49:\n        /* \"#utility.yul\":12652:12656   */\n      0x00\n        /* \"#utility.yul\":12690:12693   */\n      0xa0\n        /* \"#utility.yul\":12679:12688   */\n      dup3\n        /* \"#utility.yul\":12675:12694   */\n      add\n        /* \"#utility.yul\":12667:12694   */\n      swap1\n      pop\n        /* \"#utility.yul\":12704:12775   */\n      tag_513\n        /* \"#utility.yul\":12772:12773   */\n      0x00\n        /* \"#utility.yul\":12761:12770   */\n      dup4\n        /* \"#utility.yul\":12757:12774   */\n      add\n        /* \"#utility.yul\":12748:12754   */\n      dup9\n        /* \"#utility.yul\":12704:12775   */\n      tag_327\n      jump\t// in\n    tag_513:\n        /* \"#utility.yul\":12785:12857   */\n      tag_514\n        /* \"#utility.yul\":12853:12855   */\n      0x20\n        /* \"#utility.yul\":12842:12851   */\n      dup4\n        /* \"#utility.yul\":12838:12856   */\n      add\n        /* \"#utility.yul\":12829:12835   */\n      dup8\n        /* \"#utility.yul\":12785:12857   */\n      tag_351\n      jump\t// in\n    tag_514:\n        /* \"#utility.yul\":12867:12939   */\n      tag_515\n        /* \"#utility.yul\":12935:12937   */\n      0x40\n        /* \"#utility.yul\":12924:12933   */\n      dup4\n        /* \"#utility.yul\":12920:12938   */\n      add\n        /* \"#utility.yul\":12911:12917   */\n      dup7\n        /* \"#utility.yul\":12867:12939   */\n      tag_327\n      jump\t// in\n    tag_515:\n        /* \"#utility.yul\":12986:12995   */\n      dup2\n        /* \"#utility.yul\":12980:12984   */\n      dup2\n        /* \"#utility.yul\":12976:12996   */\n      sub\n        /* \"#utility.yul\":12971:12973   */\n      0x60\n        /* \"#utility.yul\":12960:12969   */\n      dup4\n        /* \"#utility.yul\":12956:12974   */\n      add\n        /* \"#utility.yul\":12949:12997   */\n      mstore\n        /* \"#utility.yul\":13014:13092   */\n      tag_516\n        /* \"#utility.yul\":13087:13091   */\n      dup2\n        /* \"#utility.yul\":13078:13084   */\n      dup6\n        /* \"#utility.yul\":13014:13092   */\n      tag_353\n      jump\t// in\n    tag_516:\n        /* \"#utility.yul\":13006:13092   */\n      swap1\n      pop\n        /* \"#utility.yul\":13102:13169   */\n      tag_517\n        /* \"#utility.yul\":13164:13167   */\n      0x80\n        /* \"#utility.yul\":13153:13162   */\n      dup4\n        /* \"#utility.yul\":13149:13168   */\n      add\n        /* \"#utility.yul\":13140:13146   */\n      dup5\n        /* \"#utility.yul\":13102:13169   */\n      tag_355\n      jump\t// in\n    tag_517:\n        /* \"#utility.yul\":12433:13176   */\n      swap7\n      swap6\n      pop\n      pop\n      pop\n      pop\n      pop\n      pop\n      jump\t// out\n        /* \"#utility.yul\":13182:13304   */\n    tag_356:\n        /* \"#utility.yul\":13255:13279   */\n      tag_519\n        /* \"#utility.yul\":13273:13278   */\n      dup2\n        /* \"#utility.yul\":13255:13279   */\n      tag_332\n      jump\t// in\n    tag_519:\n        /* \"#utility.yul\":13248:13253   */\n      dup2\n        /* \"#utility.yul\":13245:13280   */\n      eq\n        /* \"#utility.yul\":13235:13298   */\n      tag_520\n      jumpi\n        /* \"#utility.yul\":13294:13295   */\n      0x00\n        /* \"#utility.yul\":13291:13292   */\n      dup1\n        /* \"#utility.yul\":13284:13296   */\n      revert\n        /* \"#utility.yul\":13235:13298   */\n    tag_520:\n        /* \"#utility.yul\":13182:13304   */\n      pop\n      jump\t// out\n        /* \"#utility.yul\":13310:13449   */\n    tag_357:\n        /* \"#utility.yul\":13356:13361   */\n      0x00\n        /* \"#utility.yul\":13394:13400   */\n      dup2\n        /* \"#utility.yul\":13381:13401   */\n      calldataload\n        /* \"#utility.yul\":13372:13401   */\n      swap1\n      pop\n        /* \"#utility.yul\":13410:13443   */\n      tag_522\n        /* \"#utility.yul\":13437:13442   */\n      dup2\n        /* \"#utility.yul\":13410:13443   */\n      tag_356\n      jump\t// in\n    tag_522:\n        /* \"#utility.yul\":13310:13449   */\n      swap3\n      swap2\n      pop\n      pop\n      jump\t// out\n        /* \"#utility.yul\":13455:13784   */\n    tag_55:\n        /* \"#utility.yul\":13514:13520   */\n      0x00\n        /* \"#utility.yul\":13563:13565   */\n      0x20\n        /* \"#utility.yul\":13551:13560   */\n      dup3\n        /* \"#utility.yul\":13542:13549   */\n      dup5\n        /* \"#utility.yul\":13538:13561   */\n      sub\n        /* \"#utility.yul\":13534:13566   */\n      slt\n        /* \"#utility.yul\":13531:13650   */\n      iszero\n      tag_524\n      jumpi\n        /* \"#utility.yul\":13569:13648   */\n      tag_525\n      tag_322\n      jump\t// in\n    tag_525:\n        /* \"#utility.yul\":13531:13650   */\n    tag_524:\n        /* \"#utility.yul\":13689:13690   */\n      0x00\n        /* \"#utility.yul\":13714:13767   */\n      tag_526\n        /* \"#utility.yul\":13759:13766   */\n      dup5\n        /* \"#utility.yul\":13750:13756   */\n      dup3\n        /* \"#utility.yul\":13739:13748   */\n      dup6\n        /* \"#utility.yul\":13735:13757   */\n      add\n        /* \"#utility.yul\":13714:13767   */\n      tag_357\n      jump\t// in\n    tag_526:\n        /* \"#utility.yul\":13704:13767   */\n      swap2\n      pop\n        /* \"#utility.yul\":13660:13777   */\n      pop\n        /* \"#utility.yul\":13455:13784   */\n      swap3\n      swap2\n      pop\n      pop\n      jump\t// out\n        /* \"#utility.yul\":13790:13970   */\n    tag_68:\n        /* \"#utility.yul\":13838:13915   */\n      0x4e487b7100000000000000000000000000000000000000000000000000000000\n        /* \"#utility.yul\":13835:13836   */\n      0x00\n        /* \"#utility.yul\":13828:13916   */\n      mstore\n        /* \"#utility.yul\":13935:13939   */\n      0x32\n        /* \"#utility.yul\":13932:13933   */\n      0x04\n        /* \"#utility.yul\":13925:13940   */\n      mstore\n        /* \"#utility.yul\":13959:13963   */\n      0x24\n        /* \"#utility.yul\":13956:13957   */\n      0x00\n        /* \"#utility.yul\":13949:13964   */\n      revert\n        /* \"#utility.yul\":13976:14156   */\n    tag_358:\n        /* \"#utility.yul\":14024:14101   */\n      0x4e487b7100000000000000000000000000000000000000000000000000000000\n        /* \"#utility.yul\":14021:14022   */\n      0x00\n        /* \"#utility.yul\":14014:14102   */\n      mstore\n        /* \"#utility.yul\":14121:14125   */\n      0x11\n        /* \"#utility.yul\":14118:14119   */\n      0x04\n        /* \"#utility.yul\":14111:14126   */\n      mstore\n        /* \"#utility.yul\":14145:14149   */\n      0x24\n        /* \"#utility.yul\":14142:14143   */\n      0x00\n        /* \"#utility.yul\":14135:14150   */\n      revert\n        /* \"#utility.yul\":14162:14395   */\n    tag_85:\n        /* \"#utility.yul\":14201:14204   */\n      0x00\n        /* \"#utility.yul\":14224:14248   */\n      tag_530\n        /* \"#utility.yul\":14242:14247   */\n      dup3\n        /* \"#utility.yul\":14224:14248   */\n      tag_324\n      jump\t// in\n    tag_530:\n        /* \"#utility.yul\":14215:14248   */\n      swap2\n      pop\n        /* \"#utility.yul\":14270:14336   */\n      0xffffffffffffffffffffffffffffffffffffffffffffffffffffffffffffffff\n        /* \"#utility.yul\":14263:14268   */\n      dup3\n        /* \"#utility.yul\":14260:14337   */\n      sub\n        /* \"#utility.yul\":14257:14360   */\n      tag_531\n      jumpi\n        /* \"#utility.yul\":14340:14358   */\n      tag_532\n      tag_358\n      jump\t// in\n    tag_532:\n        /* \"#utility.yul\":14257:14360   */\n    tag_531:\n        /* \"#utility.yul\":14387:14388   */\n      0x01\n        /* \"#utility.yul\":14380:14385   */\n      dup3\n        /* \"#utility.yul\":14376:14389   */\n      add\n        /* \"#utility.yul\":14369:14389   */\n      swap1\n      pop\n        /* \"#utility.yul\":14162:14395   */\n      swap2\n      swap1\n      pop\n      jump\t// out\n        /* \"#utility.yul\":14401:14835   */\n    tag_359:\n        /* \"#utility.yul\":14490:14495   */\n      0x00\n        /* \"#utility.yul\":14515:14581   */\n      tag_534\n        /* \"#utility.yul\":14531:14580   */\n      tag_535\n        /* \"#utility.yul\":14573:14579   */\n      dup5\n        /* \"#utility.yul\":14531:14580   */\n      tag_347\n      jump\t// in\n    tag_535:\n        /* \"#utility.yul\":14515:14581   */\n      tag_346\n      jump\t// in\n    tag_534:\n        /* \"#utility.yul\":14506:14581   */\n      swap1\n      pop\n        /* \"#utility.yul\":14604:14610   */\n      dup3\n        /* \"#utility.yul\":14597:14602   */\n      dup2\n        /* \"#utility.yul\":14590:14611   */\n      mstore\n        /* \"#utility.yul\":14642:14646   */\n      0x20\n        /* \"#utility.yul\":14635:14640   */\n      dup2\n        /* \"#utility.yul\":14631:14647   */\n      add\n        /* \"#utility.yul\":14680:14683   */\n      dup5\n        /* \"#utility.yul\":14671:14677   */\n      dup5\n        /* \"#utility.yul\":14666:14669   */\n      dup5\n        /* \"#utility.yul\":14662:14678   */\n      add\n        /* \"#utility.yul\":14659:14684   */\n      gt\n        /* \"#utility.yul\":14656:14768   */\n      iszero\n      tag_536\n      jumpi\n        /* \"#utility.yul\":14687:14766   */\n      tag_537\n      tag_344\n      jump\t// in\n    tag_537:\n        /* \"#utility.yul\":14656:14768   */\n    tag_536:\n        /* \"#utility.yul\":14777:14829   */\n      tag_538\n        /* \"#utility.yul\":14822:14828   */\n      dup5\n        /* \"#utility.yul\":14817:14820   */\n      dup3\n        /* \"#utility.yul\":14812:14815   */\n      dup6\n        /* \"#utility.yul\":14777:14829   */\n      tag_336\n      jump\t// in\n    tag_538:\n        /* \"#utility.yul\":14496:14835   */\n      pop\n        /* \"#utility.yul\":14401:14835   */\n      swap4\n      swap3\n      pop\n      pop\n      pop\n      jump\t// out\n        /* \"#utility.yul\":14855:15210   */\n    tag_360:\n        /* \"#utility.yul\":14922:14927   */\n      0x00\n        /* \"#utility.yul\":14971:14974   */\n      dup3\n        /* \"#utility.yul\":14964:14968   */\n      0x1f\n        /* \"#utility.yul\":14956:14962   */\n      dup4\n        /* \"#utility.yul\":14952:14969   */\n      add\n        /* \"#utility.yul\":14948:14975   */\n      slt\n        /* \"#utility.yul\":14938:15060   */\n      tag_540\n      jumpi\n        /* \"#utility.yul\":14979:15058   */\n      tag_541\n      tag_343\n      jump\t// in\n    tag_541:\n        /* \"#utility.yul\":14938:15060   */\n    tag_540:\n        /* \"#utility.yul\":15089:15095   */\n      dup2\n        /* \"#utility.yul\":15083:15096   */\n      mload\n        /* \"#utility.yul\":15114:15204   */\n      tag_542\n        /* \"#utility.yul\":15200:15203   */\n      dup5\n        /* \"#utility.yul\":15192:15198   */\n      dup3\n        /* \"#utility.yul\":15185:15189   */\n      0x20\n        /* \"#utility.yul\":15177:15183   */\n      dup7\n        /* \"#utility.yul\":15173:15190   */\n      add\n        /* \"#utility.yul\":15114:15204   */\n      tag_359\n      jump\t// in\n    tag_542:\n        /* \"#utility.yul\":15105:15204   */\n      swap2\n      pop\n        /* \"#utility.yul\":14928:15210   */\n      pop\n        /* \"#utility.yul\":14855:15210   */\n      swap3\n      swap2\n      pop\n      pop\n      jump\t// out\n        /* \"#utility.yul\":15216:16728   */\n    tag_104:\n        /* \"#utility.yul\":15353:15359   */\n      0x00\n        /* \"#utility.yul\":15361:15367   */\n      dup1\n        /* \"#utility.yul\":15369:15375   */\n      0x00\n        /* \"#utility.yul\":15377:15383   */\n      dup1\n        /* \"#utility.yul\":15426:15429   */\n      0x80\n        /* \"#utility.yul\":15414:15423   */\n      dup6\n        /* \"#utility.yul\":15405:15412   */\n      dup8\n        /* \"#utility.yul\":15401:15424   */\n      sub\n        /* \"#utility.yul\":15397:15430   */\n      slt\n        /* \"#utility.yul\":15394:15514   */\n      iszero\n      tag_544\n      jumpi\n        /* \"#utility.yul\":15433:15512   */\n      tag_545\n      tag_322\n      jump\t// in\n    tag_545:\n        /* \"#utility.yul\":15394:15514   */\n    tag_544:\n        /* \"#utility.yul\":15574:15575   */\n      0x00\n        /* \"#utility.yul\":15563:15572   */\n      dup6\n        /* \"#utility.yul\":15559:15576   */\n      add\n        /* \"#utility.yul\":15553:15577   */\n      mload\n        /* \"#utility.yul\":15604:15622   */\n      0xffffffffffffffff\n        /* \"#utility.yul\":15596:15602   */\n      dup2\n        /* \"#utility.yul\":15593:15623   */\n      gt\n        /* \"#utility.yul\":15590:15707   */\n      iszero\n      tag_546\n      jumpi\n        /* \"#utility.yul\":15626:15705   */\n      tag_547\n      tag_323\n      jump\t// in\n    tag_547:\n        /* \"#utility.yul\":15590:15707   */\n    tag_546:\n        /* \"#utility.yul\":15731:15805   */\n      tag_548\n        /* \"#utility.yul\":15797:15804   */\n      dup8\n        /* \"#utility.yul\":15788:15794   */\n      dup3\n        /* \"#utility.yul\":15777:15786   */\n      dup9\n        /* \"#utility.yul\":15773:15795   */\n      add\n        /* \"#utility.yul\":15731:15805   */\n      tag_360\n      jump\t// in\n    tag_548:\n        /* \"#utility.yul\":15721:15805   */\n      swap5\n      pop\n        /* \"#utility.yul\":15524:15815   */\n      pop\n        /* \"#utility.yul\":15875:15877   */\n      0x20\n        /* \"#utility.yul\":15864:15873   */\n      dup6\n        /* \"#utility.yul\":15860:15878   */\n      add\n        /* \"#utility.yul\":15854:15879   */\n      mload\n        /* \"#utility.yul\":15906:15924   */\n      0xffffffffffffffff\n        /* \"#utility.yul\":15898:15904   */\n      dup2\n        /* \"#utility.yul\":15895:15925   */\n      gt\n        /* \"#utility.yul\":15892:16009   */\n      iszero\n      tag_549\n      jumpi\n        /* \"#utility.yul\":15928:16007   */\n      tag_550\n      tag_323\n      jump\t// in\n    tag_550:\n        /* \"#utility.yul\":15892:16009   */\n    tag_549:\n        /* \"#utility.yul\":16033:16107   */\n      tag_551\n        /* \"#utility.yul\":16099:16106   */\n      dup8\n        /* \"#utility.yul\":16090:16096   */\n      dup3\n        /* \"#utility.yul\":16079:16088   */\n      dup9\n        /* \"#utility.yul\":16075:16097   */\n      add\n        /* \"#utility.yul\":16033:16107   */\n      tag_360\n      jump\t// in\n    tag_551:\n        /* \"#utility.yul\":16023:16107   */\n      swap4\n      pop\n        /* \"#utility.yul\":15825:16117   */\n      pop\n        /* \"#utility.yul\":16177:16179   */\n      0x40\n        /* \"#utility.yul\":16166:16175   */\n      dup6\n        /* \"#utility.yul\":16162:16180   */\n      add\n        /* \"#utility.yul\":16156:16181   */\n      mload\n        /* \"#utility.yul\":16208:16226   */\n      0xffffffffffffffff\n        /* \"#utility.yul\":16200:16206   */\n      dup2\n        /* \"#utility.yul\":16197:16227   */\n      gt\n        /* \"#utility.yul\":16194:16311   */\n      iszero\n      tag_552\n      jumpi\n        /* \"#utility.yul\":16230:16309   */\n      tag_553\n      tag_323\n      jump\t// in\n    tag_553:\n        /* \"#utility.yul\":16194:16311   */\n    tag_552:\n        /* \"#utility.yul\":16335:16409   */\n      tag_554\n        /* \"#utility.yul\":16401:16408   */\n      dup8\n        /* \"#utility.yul\":16392:16398   */\n      dup3\n        /* \"#utility.yul\":16381:16390   */\n      dup9\n        /* \"#utility.yul\":16377:16399   */\n      add\n        /* \"#utility.yul\":16335:16409   */\n      tag_360\n      jump\t// in\n    tag_554:\n        /* \"#utility.yul\":16325:16409   */\n      swap3\n      pop\n        /* \"#utility.yul\":16127:16419   */\n      pop\n        /* \"#utility.yul\":16479:16481   */\n      0x60\n        /* \"#utility.yul\":16468:16477   */\n      dup6\n        /* \"#utility.yul\":16464:16482   */\n      add\n        /* \"#utility.yul\":16458:16483   */\n      mload\n        /* \"#utility.yul\":16510:16528   */\n      0xffffffffffffffff\n        /* \"#utility.yul\":16502:16508   */\n      dup2\n        /* \"#utility.yul\":16499:16529   */\n      gt\n        /* \"#utility.yul\":16496:16613   */\n      iszero\n      tag_555\n      jumpi\n        /* \"#utility.yul\":16532:16611   */\n      tag_556\n      tag_323\n      jump\t// in\n    tag_556:\n        /* \"#utility.yul\":16496:16613   */\n    tag_555:\n        /* \"#utility.yul\":16637:16711   */\n      tag_557\n        /* \"#utility.yul\":16703:16710   */\n      dup8\n        /* \"#utility.yul\":16694:16700   */\n      dup3\n        /* \"#utility.yul\":16683:16692   */\n      dup9\n        /* \"#utility.yul\":16679:16701   */\n      add\n        /* \"#utility.yul\":16637:16711   */\n      tag_360\n      jump\t// in\n    tag_557:\n        /* \"#utility.yul\":16627:16711   */\n      swap2\n      pop\n        /* \"#utility.yul\":16429:16721   */\n      pop\n        /* \"#utility.yul\":15216:16728   */\n      swap3\n      swap6\n      swap2\n      swap5\n      pop\n      swap3\n      pop\n      jump\t// out\n        /* \"#utility.yul\":16734:16914   */\n    tag_361:\n        /* \"#utility.yul\":16782:16859   */\n      0x4e487b7100000000000000000000000000000000000000000000000000000000\n        /* \"#utility.yul\":16779:16780   */\n      0x00\n        /* \"#utility.yul\":16772:16860   */\n      mstore\n        /* \"#utility.yul\":16879:16883   */\n      0x22\n        /* \"#utility.yul\":16876:16877   */\n      0x04\n        /* \"#utility.yul\":16869:16884   */\n      mstore\n        /* \"#utility.yul\":16903:16907   */\n      0x24\n        /* \"#utility.yul\":16900:16901   */\n      0x00\n        /* \"#utility.yul\":16893:16908   */\n      revert\n        /* \"#utility.yul\":16920:17240   */\n    tag_106:\n        /* \"#utility.yul\":16964:16970   */\n      0x00\n        /* \"#utility.yul\":17001:17002   */\n      0x02\n        /* \"#utility.yul\":16995:16999   */\n      dup3\n        /* \"#utility.yul\":16991:17003   */\n      div\n        /* \"#utility.yul\":16981:17003   */\n      swap1\n      pop\n        /* \"#utility.yul\":17048:17049   */\n      0x01\n        /* \"#utility.yul\":17042:17046   */\n      dup3\n        /* \"#utility.yul\":17038:17050   */\n      and\n        /* \"#utility.yul\":17069:17087   */\n      dup1\n        /* \"#utility.yul\":17059:17140   */\n      tag_560\n      jumpi\n        /* \"#utility.yul\":17125:17129   */\n      0x7f\n        /* \"#utility.yul\":17117:17123   */\n      dup3\n        /* \"#utility.yul\":17113:17130   */\n      and\n        /* \"#utility.yul\":17103:17130   */\n      swap2\n      pop\n        /* \"#utility.yul\":17059:17140   */\n    tag_560:\n        /* \"#utility.yul\":17187:17189   */\n      0x20\n        /* \"#utility.yul\":17179:17185   */\n      dup3\n        /* \"#utility.yul\":17176:17190   */\n      lt\n        /* \"#utility.yul\":17156:17174   */\n      dup2\n        /* \"#utility.yul\":17153:17191   */\n      sub\n        /* \"#utility.yul\":17150:17234   */\n      tag_561\n      jumpi\n        /* \"#utility.yul\":17206:17224   */\n      tag_562\n      tag_361\n      jump\t// in\n    tag_562:\n        /* \"#utility.yul\":17150:17234   */\n    tag_561:\n        /* \"#utility.yul\":16971:17240   */\n      pop\n        /* \"#utility.yul\":16920:17240   */\n      swap2\n      swap1\n      pop\n      jump\t// out\n        /* \"#utility.yul\":17246:17415   */\n    tag_362:\n        /* \"#utility.yul\":17386:17407   */\n      0x4f72646572206973206e6f742061637469766500000000000000000000000000\n        /* \"#utility.yul\":17382:17383   */\n      0x00\n        /* \"#utility.yul\":17374:17380   */\n      dup3\n        /* \"#utility.yul\":17370:17384   */\n      add\n        /* \"#utility.yul\":17363:17408   */\n      mstore\n        /* \"#utility.yul\":17246:17415   */\n      pop\n      jump\t// out\n        /* \"#utility.yul\":17421:17787   */\n    tag_363:\n        /* \"#utility.yul\":17563:17566   */\n      0x00\n        /* \"#utility.yul\":17584:17651   */\n      tag_565\n        /* \"#utility.yul\":17648:17650   */\n      0x13\n        /* \"#utility.yul\":17643:17646   */\n      dup4\n        /* \"#utility.yul\":17584:17651   */\n      tag_352\n      jump\t// in\n    tag_565:\n        /* \"#utility.yul\":17577:17651   */\n      swap2\n      pop\n        /* \"#utility.yul\":17660:17753   */\n      tag_566\n        /* \"#utility.yul\":17749:17752   */\n      dup3\n        /* \"#utility.yul\":17660:17753   */\n      tag_362\n      jump\t// in\n    tag_566:\n        /* \"#utility.yul\":17778:17780   */\n      0x20\n        /* \"#utility.yul\":17773:17776   */\n      dup3\n        /* \"#utility.yul\":17769:17781   */\n      add\n        /* \"#utility.yul\":17762:17781   */\n      swap1\n      pop\n        /* \"#utility.yul\":17421:17787   */\n      swap2\n      swap1\n      pop\n      jump\t// out\n        /* \"#utility.yul\":17793:18212   */\n    tag_117:\n        /* \"#utility.yul\":17959:17963   */\n      0x00\n        /* \"#utility.yul\":17997:17999   */\n      0x20\n        /* \"#utility.yul\":17986:17995   */\n      dup3\n        /* \"#utility.yul\":17982:18000   */\n      add\n        /* \"#utility.yul\":17974:18000   */\n      swap1\n      pop\n        /* \"#utility.yul\":18046:18055   */\n      dup2\n        /* \"#utility.yul\":18040:18044   */\n      dup2\n        /* \"#utility.yul\":18036:18056   */\n      sub\n        /* \"#utility.yul\":18032:18033   */\n      0x00\n        /* \"#utility.yul\":18021:18030   */\n      dup4\n        /* \"#utility.yul\":18017:18034   */\n      add\n        /* \"#utility.yul\":18010:18057   */\n      mstore\n        /* \"#utility.yul\":18074:18205   */\n      tag_568\n        /* \"#utility.yul\":18200:18204   */\n      dup2\n        /* \"#utility.yul\":18074:18205   */\n      tag_363\n      jump\t// in\n    tag_568:\n        /* \"#utility.yul\":18066:18205   */\n      swap1\n      pop\n        /* \"#utility.yul\":17793:18212   */\n      swap2\n      swap1\n      pop\n      jump\t// out\n        /* \"#utility.yul\":18218:18382   */\n    tag_364:\n        /* \"#utility.yul\":18358:18374   */\n      0x4e6f7420796f7572206f72646572000000000000000000000000000000000000\n        /* \"#utility.yul\":18354:18355   */\n      0x00\n        /* \"#utility.yul\":18346:18352   */\n      dup3\n        /* \"#utility.yul\":18342:18356   */\n      add\n        /* \"#utility.yul\":18335:18375   */\n      mstore\n        /* \"#utility.yul\":18218:18382   */\n      pop\n      jump\t// out\n        /* \"#utility.yul\":18388:18754   */\n    tag_365:\n        /* \"#utility.yul\":18530:18533   */\n      0x00\n        /* \"#utility.yul\":18551:18618   */\n      tag_571\n        /* \"#utility.yul\":18615:18617   */\n      0x0e\n        /* \"#utility.yul\":18610:18613   */\n      dup4\n        /* \"#utility.yul\":18551:18618   */\n      tag_352\n      jump\t// in\n    tag_571:\n        /* \"#utility.yul\":18544:18618   */\n      swap2\n      pop\n        /* \"#utility.yul\":18627:18720   */\n      tag_572\n        /* \"#utility.yul\":18716:18719   */\n      dup3\n        /* \"#utility.yul\":18627:18720   */\n      tag_364\n      jump\t// in\n    tag_572:\n        /* \"#utility.yul\":18745:18747   */\n      0x20\n        /* \"#utility.yul\":18740:18743   */\n      dup3\n        /* \"#utility.yul\":18736:18748   */\n      add\n        /* \"#utility.yul\":18729:18748   */\n      swap1\n      pop\n        /* \"#utility.yul\":18388:18754   */\n      swap2\n      swap1\n      pop\n      jump\t// out\n        /* \"#utility.yul\":18760:19179   */\n    tag_120:\n        /* \"#utility.yul\":18926:18930   */\n      0x00\n        /* \"#utility.yul\":18964:18966   */\n      0x20\n        /* \"#utility.yul\":18953:18962   */\n      dup3\n        /* \"#utility.yul\":18949:18967   */\n      add\n        /* \"#utility.yul\":18941:18967   */\n      swap1\n      pop\n        /* \"#utility.yul\":19013:19022   */\n      dup2\n        /* \"#utility.yul\":19007:19011   */\n      dup2\n        /* \"#utility.yul\":19003:19023   */\n      sub\n        /* \"#utility.yul\":18999:19000   */\n      0x00\n        /* \"#utility.yul\":18988:18997   */\n      dup4\n        /* \"#utility.yul\":18984:19001   */\n      add\n        /* \"#utility.yul\":18977:19024   */\n      mstore\n        /* \"#utility.yul\":19041:19172   */\n      tag_574\n        /* \"#utility.yul\":19167:19171   */\n      dup2\n        /* \"#utility.yul\":19041:19172   */\n      tag_365\n      jump\t// in\n    tag_574:\n        /* \"#utility.yul\":19033:19172   */\n      swap1\n      pop\n        /* \"#utility.yul\":18760:19179   */\n      swap2\n      swap1\n      pop\n      jump\t// out\n        /* \"#utility.yul\":19185:19328   */\n    tag_366:\n        /* \"#utility.yul\":19242:19247   */\n      0x00\n        /* \"#utility.yul\":19273:19279   */\n      dup2\n        /* \"#utility.yul\":19267:19280   */\n      mload\n        /* \"#utility.yul\":19258:19280   */\n      swap1\n      pop\n        /* \"#utility.yul\":19289:19322   */\n      tag_576\n        /* \"#utility.yul\":19316:19321   */\n      dup2\n        /* \"#utility.yul\":19289:19322   */\n      tag_356\n      jump\t// in\n    tag_576:\n        /* \"#utility.yul\":19185:19328   */\n      swap3\n      swap2\n      pop\n      pop\n      jump\t// out\n        /* \"#utility.yul\":19334:19685   */\n    tag_132:\n        /* \"#utility.yul\":19404:19410   */\n      0x00\n        /* \"#utility.yul\":19453:19455   */\n      0x20\n        /* \"#utility.yul\":19441:19450   */\n      dup3\n        /* \"#utility.yul\":19432:19439   */\n      dup5\n        /* \"#utility.yul\":19428:19451   */\n      sub\n        /* \"#utility.yul\":19424:19456   */\n      slt\n        /* \"#utility.yul\":19421:19540   */\n      iszero\n      tag_578\n      jumpi\n        /* \"#utility.yul\":19459:19538   */\n      tag_579\n      tag_322\n      jump\t// in\n    tag_579:\n        /* \"#utility.yul\":19421:19540   */\n    tag_578:\n        /* \"#utility.yul\":19579:19580   */\n      0x00\n        /* \"#utility.yul\":19604:19668   */\n      tag_580\n        /* \"#utility.yul\":19660:19667   */\n      dup5\n        /* \"#utility.yul\":19651:19657   */\n      dup3\n        /* \"#utility.yul\":19640:19649   */\n      dup6\n        /* \"#utility.yul\":19636:19658   */\n      add\n        /* \"#utility.yul\":19604:19668   */\n      tag_366\n      jump\t// in\n    tag_580:\n        /* \"#utility.yul\":19594:19668   */\n      swap2\n      pop\n        /* \"#utility.yul\":19550:19678   */\n      pop\n        /* \"#utility.yul\":19334:19685   */\n      swap3\n      swap2\n      pop\n      pop\n      jump\t// out\n        /* \"#utility.yul\":19691:19873   */\n    tag_367:\n        /* \"#utility.yul\":19831:19865   */\n      0x596f7520646f206e6f74206f776e20746865206f66666572656420746f6b656e\n        /* \"#utility.yul\":19827:19828   */\n      0x00\n        /* \"#utility.yul\":19819:19825   */\n      dup3\n        /* \"#utility.yul\":19815:19829   */\n      add\n        /* \"#utility.yul\":19808:19866   */\n      mstore\n        /* \"#utility.yul\":19691:19873   */\n      pop\n      jump\t// out\n        /* \"#utility.yul\":19879:20245   */\n    tag_368:\n        /* \"#utility.yul\":20021:20024   */\n      0x00\n        /* \"#utility.yul\":20042:20109   */\n      tag_583\n        /* \"#utility.yul\":20106:20108   */\n      0x20\n        /* \"#utility.yul\":20101:20104   */\n      dup4\n        /* \"#utility.yul\":20042:20109   */\n      tag_352\n      jump\t// in\n    tag_583:\n        /* \"#utility.yul\":20035:20109   */\n      swap2\n      pop\n        /* \"#utility.yul\":20118:20211   */\n      tag_584\n        /* \"#utility.yul\":20207:20210   */\n      dup3\n        /* \"#utility.yul\":20118:20211   */\n      tag_367\n      jump\t// in\n    tag_584:\n        /* \"#utility.yul\":20236:20238   */\n      0x20\n        /* \"#utility.yul\":20231:20234   */\n      dup3\n        /* \"#utility.yul\":20227:20239   */\n      add\n        /* \"#utility.yul\":20220:20239   */\n      swap1\n      pop\n        /* \"#utility.yul\":19879:20245   */\n      swap2\n      swap1\n      pop\n      jump\t// out\n        /* \"#utility.yul\":20251:20670   */\n    tag_135:\n        /* \"#utility.yul\":20417:20421   */\n      0x00\n        /* \"#utility.yul\":20455:20457   */\n      0x20\n        /* \"#utility.yul\":20444:20453   */\n      dup3\n        /* \"#utility.yul\":20440:20458   */\n      add\n        /* \"#utility.yul\":20432:20458   */\n      swap1\n      pop\n        /* \"#utility.yul\":20504:20513   */\n      dup2\n        /* \"#utility.yul\":20498:20502   */\n      dup2\n        /* \"#utility.yul\":20494:20514   */\n      sub\n        /* \"#utility.yul\":20490:20491   */\n      0x00\n        /* \"#utility.yul\":20479:20488   */\n      dup4\n        /* \"#utility.yul\":20475:20492   */\n      add\n        /* \"#utility.yul\":20468:20515   */\n      mstore\n        /* \"#utility.yul\":20532:20663   */\n      tag_586\n        /* \"#utility.yul\":20658:20662   */\n      dup2\n        /* \"#utility.yul\":20532:20663   */\n      tag_368\n      jump\t// in\n    tag_586:\n        /* \"#utility.yul\":20524:20663   */\n      swap1\n      pop\n        /* \"#utility.yul\":20251:20670   */\n      swap2\n      swap1\n      pop\n      jump\t// out\n        /* \"#utility.yul\":20676:20817   */\n    tag_369:\n        /* \"#utility.yul\":20725:20729   */\n      0x00\n        /* \"#utility.yul\":20748:20751   */\n      dup2\n        /* \"#utility.yul\":20740:20751   */\n      swap1\n      pop\n        /* \"#utility.yul\":20771:20774   */\n      dup2\n        /* \"#utility.yul\":20768:20769   */\n      0x00\n        /* \"#utility.yul\":20761:20775   */\n      mstore\n        /* \"#utility.yul\":20805:20809   */\n      0x20\n        /* \"#utility.yul\":20802:20803   */\n      0x00\n        /* \"#utility.yul\":20792:20810   */\n      keccak256\n        /* \"#utility.yul\":20784:20810   */\n      swap1\n      pop\n        /* \"#utility.yul\":20676:20817   */\n      swap2\n      swap1\n      pop\n      jump\t// out\n        /* \"#utility.yul\":20823:20916   */\n    tag_370:\n        /* \"#utility.yul\":20860:20866   */\n      0x00\n        /* \"#utility.yul\":20907:20909   */\n      0x20\n        /* \"#utility.yul\":20902:20904   */\n      0x1f\n        /* \"#utility.yul\":20895:20900   */\n      dup4\n        /* \"#utility.yul\":20891:20905   */\n      add\n        /* \"#utility.yul\":20887:20910   */\n      div\n        /* \"#utility.yul\":20877:20910   */\n      swap1\n      pop\n        /* \"#utility.yul\":20823:20916   */\n      swap2\n      swap1\n      pop\n      jump\t// out\n        /* \"#utility.yul\":20922:21029   */\n    tag_371:\n        /* \"#utility.yul\":20966:20974   */\n      0x00\n        /* \"#utility.yul\":21016:21021   */\n      dup3\n        /* \"#utility.yul\":21010:21014   */\n      dup3\n        /* \"#utility.yul\":21006:21022   */\n      shl\n        /* \"#utility.yul\":20985:21022   */\n      swap1\n      pop\n        /* \"#utility.yul\":20922:21029   */\n      swap3\n      swap2\n      pop\n      pop\n      jump\t// out\n        /* \"#utility.yul\":21035:21428   */\n    tag_372:\n        /* \"#utility.yul\":21104:21110   */\n      0x00\n        /* \"#utility.yul\":21154:21155   */\n      0x08\n        /* \"#utility.yul\":21142:21152   */\n      dup4\n        /* \"#utility.yul\":21138:21156   */\n      mul\n        /* \"#utility.yul\":21177:21274   */\n      tag_591\n        /* \"#utility.yul\":21207:21273   */\n      0xffffffffffffffffffffffffffffffffffffffffffffffffffffffffffffffff\n        /* \"#utility.yul\":21196:21205   */\n      dup3\n        /* \"#utility.yul\":21177:21274   */\n      tag_371\n      jump\t// in\n    tag_591:\n        /* \"#utility.yul\":21295:21334   */\n      tag_592\n        /* \"#utility.yul\":21325:21333   */\n      dup7\n        /* \"#utility.yul\":21314:21323   */\n      dup4\n        /* \"#utility.yul\":21295:21334   */\n      tag_371\n      jump\t// in\n    tag_592:\n        /* \"#utility.yul\":21283:21334   */\n      swap6\n      pop\n        /* \"#utility.yul\":21367:21371   */\n      dup1\n        /* \"#utility.yul\":21363:21372   */\n      not\n        /* \"#utility.yul\":21356:21361   */\n      dup5\n        /* \"#utility.yul\":21352:21373   */\n      and\n        /* \"#utility.yul\":21343:21373   */\n      swap4\n      pop\n        /* \"#utility.yul\":21416:21420   */\n      dup1\n        /* \"#utility.yul\":21406:21414   */\n      dup7\n        /* \"#utility.yul\":21402:21421   */\n      and\n        /* \"#utility.yul\":21395:21400   */\n      dup5\n        /* \"#utility.yul\":21392:21422   */\n      or\n        /* \"#utility.yul\":21382:21422   */\n      swap3\n      pop\n        /* \"#utility.yul\":21111:21428   */\n      pop\n      pop\n        /* \"#utility.yul\":21035:21428   */\n      swap4\n      swap3\n      pop\n      pop\n      pop\n      jump\t// out\n        /* \"#utility.yul\":21434:21576   */\n    tag_373:\n        /* \"#utility.yul\":21484:21493   */\n      0x00\n        /* \"#utility.yul\":21517:21570   */\n      tag_594\n        /* \"#utility.yul\":21535:21569   */\n      tag_595\n        /* \"#utility.yul\":21544:21568   */\n      tag_596\n        /* \"#utility.yul\":21562:21567   */\n      dup5\n        /* \"#utility.yul\":21544:21568   */\n      tag_324\n      jump\t// in\n    tag_596:\n        /* \"#utility.yul\":21535:21569   */\n      tag_316\n      jump\t// in\n    tag_595:\n        /* \"#utility.yul\":21517:21570   */\n      tag_324\n      jump\t// in\n    tag_594:\n        /* \"#utility.yul\":21504:21570   */\n      swap1\n      pop\n        /* \"#utility.yul\":21434:21576   */\n      swap2\n      swap1\n      pop\n      jump\t// out\n        /* \"#utility.yul\":21582:21657   */\n    tag_374:\n        /* \"#utility.yul\":21625:21628   */\n      0x00\n        /* \"#utility.yul\":21646:21651   */\n      dup2\n        /* \"#utility.yul\":21639:21651   */\n      swap1\n      pop\n        /* \"#utility.yul\":21582:21657   */\n      swap2\n      swap1\n      pop\n      jump\t// out\n        /* \"#utility.yul\":21663:21932   */\n    tag_375:\n        /* \"#utility.yul\":21773:21812   */\n      tag_599\n        /* \"#utility.yul\":21804:21811   */\n      dup4\n        /* \"#utility.yul\":21773:21812   */\n      tag_373\n      jump\t// in\n    tag_599:\n        /* \"#utility.yul\":21834:21925   */\n      tag_600\n        /* \"#utility.yul\":21883:21924   */\n      tag_601\n        /* \"#utility.yul\":21907:21923   */\n      dup3\n        /* \"#utility.yul\":21883:21924   */\n      tag_374\n      jump\t// in\n    tag_601:\n        /* \"#utility.yul\":21875:21881   */\n      dup5\n        /* \"#utility.yul\":21868:21872   */\n      dup5\n        /* \"#utility.yul\":21862:21873   */\n      sload\n        /* \"#utility.yul\":21834:21925   */\n      tag_372\n      jump\t// in\n    tag_600:\n        /* \"#utility.yul\":21828:21832   */\n      dup3\n        /* \"#utility.yul\":21821:21926   */\n      sstore\n        /* \"#utility.yul\":21739:21932   */\n      pop\n        /* \"#utility.yul\":21663:21932   */\n      pop\n      pop\n      pop\n      jump\t// out\n        /* \"#utility.yul\":21938:22011   */\n    tag_376:\n        /* \"#utility.yul\":21983:21986   */\n      0x00\n        /* \"#utility.yul\":21938:22011   */\n      swap1\n      jump\t// out\n        /* \"#utility.yul\":22017:22206   */\n    tag_377:\n        /* \"#utility.yul\":22094:22126   */\n      tag_604\n      tag_376\n      jump\t// in\n    tag_604:\n        /* \"#utility.yul\":22135:22200   */\n      tag_605\n        /* \"#utility.yul\":22193:22199   */\n      dup2\n        /* \"#utility.yul\":22185:22191   */\n      dup5\n        /* \"#utility.yul\":22179:22183   */\n      dup5\n        /* \"#utility.yul\":22135:22200   */\n      tag_375\n      jump\t// in\n    tag_605:\n        /* \"#utility.yul\":22070:22206   */\n      pop\n        /* \"#utility.yul\":22017:22206   */\n      pop\n      pop\n      jump\t// out\n        /* \"#utility.yul\":22212:22398   */\n    tag_378:\n        /* \"#utility.yul\":22272:22392   */\n    tag_607:\n        /* \"#utility.yul\":22289:22292   */\n      dup2\n        /* \"#utility.yul\":22282:22287   */\n      dup2\n        /* \"#utility.yul\":22279:22293   */\n      lt\n        /* \"#utility.yul\":22272:22392   */\n      iszero\n      tag_609\n      jumpi\n        /* \"#utility.yul\":22343:22382   */\n      tag_610\n        /* \"#utility.yul\":22380:22381   */\n      0x00\n        /* \"#utility.yul\":22373:22378   */\n      dup3\n        /* \"#utility.yul\":22343:22382   */\n      tag_377\n      jump\t// in\n    tag_610:\n        /* \"#utility.yul\":22316:22317   */\n      0x01\n        /* \"#utility.yul\":22309:22314   */\n      dup2\n        /* \"#utility.yul\":22305:22318   */\n      add\n        /* \"#utility.yul\":22296:22318   */\n      swap1\n      pop\n        /* \"#utility.yul\":22272:22392   */\n      jump(tag_607)\n    tag_609:\n        /* \"#utility.yul\":22212:22398   */\n      pop\n      pop\n      jump\t// out\n        /* \"#utility.yul\":22404:22947   */\n    tag_379:\n        /* \"#utility.yul\":22505:22507   */\n      0x1f\n        /* \"#utility.yul\":22500:22503   */\n      dup3\n        /* \"#utility.yul\":22497:22508   */\n      gt\n        /* \"#utility.yul\":22494:22940   */\n      iszero\n      tag_612\n      jumpi\n        /* \"#utility.yul\":22539:22577   */\n      tag_613\n        /* \"#utility.yul\":22571:22576   */\n      dup2\n        /* \"#utility.yul\":22539:22577   */\n      tag_369\n      jump\t// in\n    tag_613:\n        /* \"#utility.yul\":22623:22652   */\n      tag_614\n        /* \"#utility.yul\":22641:22651   */\n      dup5\n        /* \"#utility.yul\":22623:22652   */\n      tag_370\n      jump\t// in\n    tag_614:\n        /* \"#utility.yul\":22613:22621   */\n      dup2\n        /* \"#utility.yul\":22609:22653   */\n      add\n        /* \"#utility.yul\":22806:22808   */\n      0x20\n        /* \"#utility.yul\":22794:22804   */\n      dup6\n        /* \"#utility.yul\":22791:22809   */\n      lt\n        /* \"#utility.yul\":22788:22837   */\n      iszero\n      tag_615\n      jumpi\n        /* \"#utility.yul\":22827:22835   */\n      dup2\n        /* \"#utility.yul\":22812:22835   */\n      swap1\n      pop\n        /* \"#utility.yul\":22788:22837   */\n    tag_615:\n        /* \"#utility.yul\":22850:22930   */\n      tag_616\n        /* \"#utility.yul\":22906:22928   */\n      tag_617\n        /* \"#utility.yul\":22924:22927   */\n      dup6\n        /* \"#utility.yul\":22906:22928   */\n      tag_370\n      jump\t// in\n    tag_617:\n        /* \"#utility.yul\":22896:22904   */\n      dup4\n        /* \"#utility.yul\":22892:22929   */\n      add\n        /* \"#utility.yul\":22879:22890   */\n      dup3\n        /* \"#utility.yul\":22850:22930   */\n      tag_378\n      jump\t// in\n    tag_616:\n        /* \"#utility.yul\":22509:22940   */\n      pop\n      pop\n        /* \"#utility.yul\":22494:22940   */\n    tag_612:\n        /* \"#utility.yul\":22404:22947   */\n      pop\n      pop\n      pop\n      jump\t// out\n        /* \"#utility.yul\":22953:23070   */\n    tag_380:\n        /* \"#utility.yul\":23007:23015   */\n      0x00\n        /* \"#utility.yul\":23057:23062   */\n      dup3\n        /* \"#utility.yul\":23051:23055   */\n      dup3\n        /* \"#utility.yul\":23047:23063   */\n      shr\n        /* \"#utility.yul\":23026:23063   */\n      swap1\n      pop\n        /* \"#utility.yul\":22953:23070   */\n      swap3\n      swap2\n      pop\n      pop\n      jump\t// out\n        /* \"#utility.yul\":23076:23245   */\n    tag_381:\n        /* \"#utility.yul\":23120:23126   */\n      0x00\n        /* \"#utility.yul\":23153:23204   */\n      tag_620\n        /* \"#utility.yul\":23201:23202   */\n      0x00\n        /* \"#utility.yul\":23197:23203   */\n      not\n        /* \"#utility.yul\":23189:23194   */\n      dup5\n        /* \"#utility.yul\":23186:23187   */\n      0x08\n        /* \"#utility.yul\":23182:23195   */\n      mul\n        /* \"#utility.yul\":23153:23204   */\n      tag_380\n      jump\t// in\n    tag_620:\n        /* \"#utility.yul\":23149:23205   */\n      not\n        /* \"#utility.yul\":23234:23238   */\n      dup1\n        /* \"#utility.yul\":23228:23232   */\n      dup4\n        /* \"#utility.yul\":23224:23239   */\n      and\n        /* \"#utility.yul\":23214:23239   */\n      swap2\n      pop\n        /* \"#utility.yul\":23127:23245   */\n      pop\n        /* \"#utility.yul\":23076:23245   */\n      swap3\n      swap2\n      pop\n      pop\n      jump\t// out\n        /* \"#utility.yul\":23250:23545   */\n    tag_382:\n        /* \"#utility.yul\":23326:23330   */\n      0x00\n        /* \"#utility.yul\":23472:23501   */\n      tag_622\n        /* \"#utility.yul\":23497:23500   */\n      dup4\n        /* \"#utility.yul\":23491:23495   */\n      dup4\n        /* \"#utility.yul\":23472:23501   */\n      tag_381\n      jump\t// in\n    tag_622:\n        /* \"#utility.yul\":23464:23501   */\n      swap2\n      pop\n        /* \"#utility.yul\":23534:23537   */\n      dup3\n        /* \"#utility.yul\":23531:23532   */\n      0x02\n        /* \"#utility.yul\":23527:23538   */\n      mul\n        /* \"#utility.yul\":23521:23525   */\n      dup3\n        /* \"#utility.yul\":23518:23539   */\n      or\n        /* \"#utility.yul\":23510:23539   */\n      swap1\n      pop\n        /* \"#utility.yul\":23250:23545   */\n      swap3\n      swap2\n      pop\n      pop\n      jump\t// out\n        /* \"#utility.yul\":23550:24945   */\n    tag_138:\n        /* \"#utility.yul\":23667:23704   */\n      tag_624\n        /* \"#utility.yul\":23700:23703   */\n      dup3\n        /* \"#utility.yul\":23667:23704   */\n      tag_334\n      jump\t// in\n    tag_624:\n        /* \"#utility.yul\":23769:23787   */\n      0xffffffffffffffff\n        /* \"#utility.yul\":23761:23767   */\n      dup2\n        /* \"#utility.yul\":23758:23788   */\n      gt\n        /* \"#utility.yul\":23755:23811   */\n      iszero\n      tag_625\n      jumpi\n        /* \"#utility.yul\":23791:23809   */\n      tag_626\n      tag_88\n      jump\t// in\n    tag_626:\n        /* \"#utility.yul\":23755:23811   */\n    tag_625:\n        /* \"#utility.yul\":23835:23873   */\n      tag_627\n        /* \"#utility.yul\":23867:23871   */\n      dup3\n        /* \"#utility.yul\":23861:23872   */\n      sload\n        /* \"#utility.yul\":23835:23873   */\n      tag_106\n      jump\t// in\n    tag_627:\n        /* \"#utility.yul\":23920:23987   */\n      tag_628\n        /* \"#utility.yul\":23980:23986   */\n      dup3\n        /* \"#utility.yul\":23972:23978   */\n      dup3\n        /* \"#utility.yul\":23966:23970   */\n      dup6\n        /* \"#utility.yul\":23920:23987   */\n      tag_379\n      jump\t// in\n    tag_628:\n        /* \"#utility.yul\":24014:24015   */\n      0x00\n        /* \"#utility.yul\":24038:24042   */\n      0x20\n        /* \"#utility.yul\":24025:24042   */\n      swap1\n      pop\n        /* \"#utility.yul\":24070:24072   */\n      0x1f\n        /* \"#utility.yul\":24062:24068   */\n      dup4\n        /* \"#utility.yul\":24059:24073   */\n      gt\n        /* \"#utility.yul\":24087:24088   */\n      0x01\n        /* \"#utility.yul\":24082:24700   */\n      dup2\n      eq\n      tag_630\n      jumpi\n        /* \"#utility.yul\":24744:24745   */\n      0x00\n        /* \"#utility.yul\":24761:24767   */\n      dup5\n        /* \"#utility.yul\":24758:24835   */\n      iszero\n      tag_631\n      jumpi\n        /* \"#utility.yul\":24810:24819   */\n      dup3\n        /* \"#utility.yul\":24805:24808   */\n      dup8\n        /* \"#utility.yul\":24801:24820   */\n      add\n        /* \"#utility.yul\":24795:24821   */\n      mload\n        /* \"#utility.yul\":24786:24821   */\n      swap1\n      pop\n        /* \"#utility.yul\":24758:24835   */\n    tag_631:\n        /* \"#utility.yul\":24861:24928   */\n      tag_632\n        /* \"#utility.yul\":24921:24927   */\n      dup6\n        /* \"#utility.yul\":24914:24919   */\n      dup3\n        /* \"#utility.yul\":24861:24928   */\n      tag_382\n      jump\t// in\n    tag_632:\n        /* \"#utility.yul\":24855:24859   */\n      dup7\n        /* \"#utility.yul\":24848:24929   */\n      sstore\n        /* \"#utility.yul\":24717:24939   */\n      pop\n        /* \"#utility.yul\":24052:24939   */\n      jump(tag_629)\n        /* \"#utility.yul\":24082:24700   */\n    tag_630:\n        /* \"#utility.yul\":24134:24138   */\n      0x1f\n        /* \"#utility.yul\":24130:24139   */\n      not\n        /* \"#utility.yul\":24122:24128   */\n      dup5\n        /* \"#utility.yul\":24118:24140   */\n      and\n        /* \"#utility.yul\":24168:24205   */\n      tag_633\n        /* \"#utility.yul\":24200:24204   */\n      dup7\n        /* \"#utility.yul\":24168:24205   */\n      tag_369\n      jump\t// in\n    tag_633:\n        /* \"#utility.yul\":24227:24228   */\n      0x00\n        /* \"#utility.yul\":24241:24449   */\n    tag_634:\n        /* \"#utility.yul\":24255:24262   */\n      dup3\n        /* \"#utility.yul\":24252:24253   */\n      dup2\n        /* \"#utility.yul\":24249:24263   */\n      lt\n        /* \"#utility.yul\":24241:24449   */\n      iszero\n      tag_636\n      jumpi\n        /* \"#utility.yul\":24334:24343   */\n      dup5\n        /* \"#utility.yul\":24329:24332   */\n      dup10\n        /* \"#utility.yul\":24325:24344   */\n      add\n        /* \"#utility.yul\":24319:24345   */\n      mload\n        /* \"#utility.yul\":24311:24317   */\n      dup3\n        /* \"#utility.yul\":24304:24346   */\n      sstore\n        /* \"#utility.yul\":24385:24386   */\n      0x01\n        /* \"#utility.yul\":24377:24383   */\n      dup3\n        /* \"#utility.yul\":24373:24387   */\n      add\n        /* \"#utility.yul\":24363:24387   */\n      swap2\n      pop\n        /* \"#utility.yul\":24432:24434   */\n      0x20\n        /* \"#utility.yul\":24421:24430   */\n      dup6\n        /* \"#utility.yul\":24417:24435   */\n      add\n        /* \"#utility.yul\":24404:24435   */\n      swap5\n      pop\n        /* \"#utility.yul\":24278:24282   */\n      0x20\n        /* \"#utility.yul\":24275:24276   */\n      dup2\n        /* \"#utility.yul\":24271:24283   */\n      add\n        /* \"#utility.yul\":24266:24283   */\n      swap1\n      pop\n        /* \"#utility.yul\":24241:24449   */\n      jump(tag_634)\n    tag_636:\n        /* \"#utility.yul\":24477:24483   */\n      dup7\n        /* \"#utility.yul\":24468:24475   */\n      dup4\n        /* \"#utility.yul\":24465:24484   */\n      lt\n        /* \"#utility.yul\":24462:24641   */\n      iszero\n      tag_637\n      jumpi\n        /* \"#utility.yul\":24535:24544   */\n      dup5\n        /* \"#utility.yul\":24530:24533   */\n      dup10\n        /* \"#utility.yul\":24526:24545   */\n      add\n        /* \"#utility.yul\":24520:24546   */\n      mload\n        /* \"#utility.yul\":24578:24626   */\n      tag_638\n        /* \"#utility.yul\":24620:24624   */\n      0x1f\n        /* \"#utility.yul\":24612:24618   */\n      dup10\n        /* \"#utility.yul\":24608:24625   */\n      and\n        /* \"#utility.yul\":24597:24606   */\n      dup3\n        /* \"#utility.yul\":24578:24626   */\n      tag_381\n      jump\t// in\n    tag_638:\n        /* \"#utility.yul\":24570:24576   */\n      dup4\n        /* \"#utility.yul\":24563:24627   */\n      sstore\n        /* \"#utility.yul\":24485:24641   */\n      pop\n        /* \"#utility.yul\":24462:24641   */\n    tag_637:\n        /* \"#utility.yul\":24687:24688   */\n      0x01\n        /* \"#utility.yul\":24683:24684   */\n      0x02\n        /* \"#utility.yul\":24675:24681   */\n      dup9\n        /* \"#utility.yul\":24671:24685   */\n      mul\n        /* \"#utility.yul\":24667:24689   */\n      add\n        /* \"#utility.yul\":24661:24665   */\n      dup9\n        /* \"#utility.yul\":24654:24690   */\n      sstore\n        /* \"#utility.yul\":24089:24700   */\n      pop\n      pop\n      pop\n        /* \"#utility.yul\":24052:24939   */\n    tag_629:\n      pop\n        /* \"#utility.yul\":23642:24945   */\n      pop\n      pop\n      pop\n        /* \"#utility.yul\":23550:24945   */\n      pop\n      pop\n      jump\t// out\n        /* \"#utility.yul\":24951:25484   */\n    tag_141:\n        /* \"#utility.yul\":25120:25124   */\n      0x00\n        /* \"#utility.yul\":25158:25160   */\n      0x60\n        /* \"#utility.yul\":25147:25156   */\n      dup3\n        /* \"#utility.yul\":25143:25161   */\n      add\n        /* \"#utility.yul\":25135:25161   */\n      swap1\n      pop\n        /* \"#utility.yul\":25171:25242   */\n      tag_640\n        /* \"#utility.yul\":25239:25240   */\n      0x00\n        /* \"#utility.yul\":25228:25237   */\n      dup4\n        /* \"#utility.yul\":25224:25241   */\n      add\n        /* \"#utility.yul\":25215:25221   */\n      dup7\n        /* \"#utility.yul\":25171:25242   */\n      tag_327\n      jump\t// in\n    tag_640:\n        /* \"#utility.yul\":25252:25324   */\n      tag_641\n        /* \"#utility.yul\":25320:25322   */\n      0x20\n        /* \"#utility.yul\":25309:25318   */\n      dup4\n        /* \"#utility.yul\":25305:25323   */\n      add\n        /* \"#utility.yul\":25296:25302   */\n      dup6\n        /* \"#utility.yul\":25252:25324   */\n      tag_327\n      jump\t// in\n    tag_641:\n        /* \"#utility.yul\":25371:25380   */\n      dup2\n        /* \"#utility.yul\":25365:25369   */\n      dup2\n        /* \"#utility.yul\":25361:25381   */\n      sub\n        /* \"#utility.yul\":25356:25358   */\n      0x40\n        /* \"#utility.yul\":25345:25354   */\n      dup4\n        /* \"#utility.yul\":25341:25359   */\n      add\n        /* \"#utility.yul\":25334:25382   */\n      mstore\n        /* \"#utility.yul\":25399:25477   */\n      tag_642\n        /* \"#utility.yul\":25472:25476   */\n      dup2\n        /* \"#utility.yul\":25463:25469   */\n      dup5\n        /* \"#utility.yul\":25399:25477   */\n      tag_353\n      jump\t// in\n    tag_642:\n        /* \"#utility.yul\":25391:25477   */\n      swap1\n      pop\n        /* \"#utility.yul\":24951:25484   */\n      swap5\n      swap4\n      pop\n      pop\n      pop\n      pop\n      jump\t// out\n        /* \"#utility.yul\":25490:25715   */\n    tag_383:\n        /* \"#utility.yul\":25630:25664   */\n      0x4f776e61626c653a206e6577206f776e657220697320746865207a65726f2061\n        /* \"#utility.yul\":25626:25627   */\n      0x00\n        /* \"#utility.yul\":25618:25624   */\n      dup3\n        /* \"#utility.yul\":25614:25628   */\n      add\n        /* \"#utility.yul\":25607:25665   */\n      mstore\n        /* \"#utility.yul\":25699:25707   */\n      0x6464726573730000000000000000000000000000000000000000000000000000\n        /* \"#utility.yul\":25694:25696   */\n      0x20\n        /* \"#utility.yul\":25686:25692   */\n      dup3\n        /* \"#utility.yul\":25682:25697   */\n      add\n        /* \"#utility.yul\":25675:25708   */\n      mstore\n        /* \"#utility.yul\":25490:25715   */\n      pop\n      jump\t// out\n        /* \"#utility.yul\":25721:26087   */\n    tag_384:\n        /* \"#utility.yul\":25863:25866   */\n      0x00\n        /* \"#utility.yul\":25884:25951   */\n      tag_645\n        /* \"#utility.yul\":25948:25950   */\n      0x26\n        /* \"#utility.yul\":25943:25946   */\n      dup4\n        /* \"#utility.yul\":25884:25951   */\n      tag_352\n      jump\t// in\n    tag_645:\n        /* \"#utility.yul\":25877:25951   */\n      swap2\n      pop\n        /* \"#utility.yul\":25960:26053   */\n      tag_646\n        /* \"#utility.yul\":26049:26052   */\n      dup3\n        /* \"#utility.yul\":25960:26053   */\n      tag_383\n      jump\t// in\n    tag_646:\n        /* \"#utility.yul\":26078:26080   */\n      0x40\n        /* \"#utility.yul\":26073:26076   */\n      dup3\n        /* \"#utility.yul\":26069:26081   */\n      add\n        /* \"#utility.yul\":26062:26081   */\n      swap1\n      pop\n        /* \"#utility.yul\":25721:26087   */\n      swap2\n      swap1\n      pop\n      jump\t// out\n        /* \"#utility.yul\":26093:26512   */\n    tag_153:\n        /* \"#utility.yul\":26259:26263   */\n      0x00\n        /* \"#utility.yul\":26297:26299   */\n      0x20\n        /* \"#utility.yul\":26286:26295   */\n      dup3\n        /* \"#utility.yul\":26282:26300   */\n      add\n        /* \"#utility.yul\":26274:26300   */\n      swap1\n      pop\n        /* \"#utility.yul\":26346:26355   */\n      dup2\n        /* \"#utility.yul\":26340:26344   */\n      dup2\n        /* \"#utility.yul\":26336:26356   */\n      sub\n        /* \"#utility.yul\":26332:26333   */\n      0x00\n        /* \"#utility.yul\":26321:26330   */\n      dup4\n        /* \"#utility.yul\":26317:26334   */\n      add\n        /* \"#utility.yul\":26310:26357   */\n      mstore\n        /* \"#utility.yul\":26374:26505   */\n      tag_648\n        /* \"#utility.yul\":26500:26504   */\n      dup2\n        /* \"#utility.yul\":26374:26505   */\n      tag_384\n      jump\t// in\n    tag_648:\n        /* \"#utility.yul\":26366:26505   */\n      swap1\n      pop\n        /* \"#utility.yul\":26093:26512   */\n      swap2\n      swap1\n      pop\n      jump\t// out\n        /* \"#utility.yul\":26518:26709   */\n    tag_173:\n        /* \"#utility.yul\":26558:26561   */\n      0x00\n        /* \"#utility.yul\":26577:26597   */\n      tag_650\n        /* \"#utility.yul\":26595:26596   */\n      dup3\n        /* \"#utility.yul\":26577:26597   */\n      tag_324\n      jump\t// in\n    tag_650:\n        /* \"#utility.yul\":26572:26597   */\n      swap2\n      pop\n        /* \"#utility.yul\":26611:26631   */\n      tag_651\n        /* \"#utility.yul\":26629:26630   */\n      dup4\n        /* \"#utility.yul\":26611:26631   */\n      tag_324\n      jump\t// in\n    tag_651:\n        /* \"#utility.yul\":26606:26631   */\n      swap3\n      pop\n        /* \"#utility.yul\":26654:26655   */\n      dup3\n        /* \"#utility.yul\":26651:26652   */\n      dup3\n        /* \"#utility.yul\":26647:26656   */\n      add\n        /* \"#utility.yul\":26640:26656   */\n      swap1\n      pop\n        /* \"#utility.yul\":26675:26678   */\n      dup1\n        /* \"#utility.yul\":26672:26673   */\n      dup3\n        /* \"#utility.yul\":26669:26679   */\n      gt\n        /* \"#utility.yul\":26666:26702   */\n      iszero\n      tag_652\n      jumpi\n        /* \"#utility.yul\":26682:26700   */\n      tag_653\n      tag_358\n      jump\t// in\n    tag_653:\n        /* \"#utility.yul\":26666:26702   */\n    tag_652:\n        /* \"#utility.yul\":26518:26709   */\n      swap3\n      swap2\n      pop\n      pop\n      jump\t// out\n        /* \"#utility.yul\":26715:26891   */\n    tag_385:\n        /* \"#utility.yul\":26855:26883   */\n      0x4f776e6572206d69736d6174636820666f7220746f6b656e2031000000000000\n        /* \"#utility.yul\":26851:26852   */\n      0x00\n        /* \"#utility.yul\":26843:26849   */\n      dup3\n        /* \"#utility.yul\":26839:26853   */\n      add\n        /* \"#utility.yul\":26832:26884   */\n      mstore\n        /* \"#utility.yul\":26715:26891   */\n      pop\n      jump\t// out\n        /* \"#utility.yul\":26897:27263   */\n    tag_386:\n        /* \"#utility.yul\":27039:27042   */\n      0x00\n        /* \"#utility.yul\":27060:27127   */\n      tag_656\n        /* \"#utility.yul\":27124:27126   */\n      0x1a\n        /* \"#utility.yul\":27119:27122   */\n      dup4\n        /* \"#utility.yul\":27060:27127   */\n      tag_352\n      jump\t// in\n    tag_656:\n        /* \"#utility.yul\":27053:27127   */\n      swap2\n      pop\n        /* \"#utility.yul\":27136:27229   */\n      tag_657\n        /* \"#utility.yul\":27225:27228   */\n      dup3\n        /* \"#utility.yul\":27136:27229   */\n      tag_385\n      jump\t// in\n    tag_657:\n        /* \"#utility.yul\":27254:27256   */\n      0x20\n        /* \"#utility.yul\":27249:27252   */\n      dup3\n        /* \"#utility.yul\":27245:27257   */\n      add\n        /* \"#utility.yul\":27238:27257   */\n      swap1\n      pop\n        /* \"#utility.yul\":26897:27263   */\n      swap2\n      swap1\n      pop\n      jump\t// out\n        /* \"#utility.yul\":27269:27688   */\n    tag_203:\n        /* \"#utility.yul\":27435:27439   */\n      0x00\n        /* \"#utility.yul\":27473:27475   */\n      0x20\n        /* \"#utility.yul\":27462:27471   */\n      dup3\n        /* \"#utility.yul\":27458:27476   */\n      add\n        /* \"#utility.yul\":27450:27476   */\n      swap1\n      pop\n        /* \"#utility.yul\":27522:27531   */\n      dup2\n        /* \"#utility.yul\":27516:27520   */\n      dup2\n        /* \"#utility.yul\":27512:27532   */\n      sub\n        /* \"#utility.yul\":27508:27509   */\n      0x00\n        /* \"#utility.yul\":27497:27506   */\n      dup4\n        /* \"#utility.yul\":27493:27510   */\n      add\n        /* \"#utility.yul\":27486:27533   */\n      mstore\n        /* \"#utility.yul\":27550:27681   */\n      tag_659\n        /* \"#utility.yul\":27676:27680   */\n      dup2\n        /* \"#utility.yul\":27550:27681   */\n      tag_386\n      jump\t// in\n    tag_659:\n        /* \"#utility.yul\":27542:27681   */\n      swap1\n      pop\n        /* \"#utility.yul\":27269:27688   */\n      swap2\n      swap1\n      pop\n      jump\t// out\n        /* \"#utility.yul\":27694:27870   */\n    tag_387:\n        /* \"#utility.yul\":27834:27862   */\n      0x4f776e6572206d69736d6174636820666f7220746f6b656e2032000000000000\n        /* \"#utility.yul\":27830:27831   */\n      0x00\n        /* \"#utility.yul\":27822:27828   */\n      dup3\n        /* \"#utility.yul\":27818:27832   */\n      add\n        /* \"#utility.yul\":27811:27863   */\n      mstore\n        /* \"#utility.yul\":27694:27870   */\n      pop\n      jump\t// out\n        /* \"#utility.yul\":27876:28242   */\n    tag_388:\n        /* \"#utility.yul\":28018:28021   */\n      0x00\n        /* \"#utility.yul\":28039:28106   */\n      tag_662\n        /* \"#utility.yul\":28103:28105   */\n      0x1a\n        /* \"#utility.yul\":28098:28101   */\n      dup4\n        /* \"#utility.yul\":28039:28106   */\n      tag_352\n      jump\t// in\n    tag_662:\n        /* \"#utility.yul\":28032:28106   */\n      swap2\n      pop\n        /* \"#utility.yul\":28115:28208   */\n      tag_663\n        /* \"#utility.yul\":28204:28207   */\n      dup3\n        /* \"#utility.yul\":28115:28208   */\n      tag_387\n      jump\t// in\n    tag_663:\n        /* \"#utility.yul\":28233:28235   */\n      0x20\n        /* \"#utility.yul\":28228:28231   */\n      dup3\n        /* \"#utility.yul\":28224:28236   */\n      add\n        /* \"#utility.yul\":28217:28236   */\n      swap1\n      pop\n        /* \"#utility.yul\":27876:28242   */\n      swap2\n      swap1\n      pop\n      jump\t// out\n        /* \"#utility.yul\":28248:28667   */\n    tag_210:\n        /* \"#utility.yul\":28414:28418   */\n      0x00\n        /* \"#utility.yul\":28452:28454   */\n      0x20\n        /* \"#utility.yul\":28441:28450   */\n      dup3\n        /* \"#utility.yul\":28437:28455   */\n      add\n        /* \"#utility.yul\":28429:28455   */\n      swap1\n      pop\n        /* \"#utility.yul\":28501:28510   */\n      dup2\n        /* \"#utility.yul\":28495:28499   */\n      dup2\n        /* \"#utility.yul\":28491:28511   */\n      sub\n        /* \"#utility.yul\":28487:28488   */\n      0x00\n        /* \"#utility.yul\":28476:28485   */\n      dup4\n        /* \"#utility.yul\":28472:28489   */\n      add\n        /* \"#utility.yul\":28465:28512   */\n      mstore\n        /* \"#utility.yul\":28529:28660   */\n      tag_665\n        /* \"#utility.yul\":28655:28659   */\n      dup2\n        /* \"#utility.yul\":28529:28660   */\n      tag_388\n      jump\t// in\n    tag_665:\n        /* \"#utility.yul\":28521:28660   */\n      swap1\n      pop\n        /* \"#utility.yul\":28248:28667   */\n      swap2\n      swap1\n      pop\n      jump\t// out\n        /* \"#utility.yul\":28673:29115   */\n    tag_222:\n        /* \"#utility.yul\":28822:28826   */\n      0x00\n        /* \"#utility.yul\":28860:28862   */\n      0x60\n        /* \"#utility.yul\":28849:28858   */\n      dup3\n        /* \"#utility.yul\":28845:28863   */\n      add\n        /* \"#utility.yul\":28837:28863   */\n      swap1\n      pop\n        /* \"#utility.yul\":28873:28944   */\n      tag_667\n        /* \"#utility.yul\":28941:28942   */\n      0x00\n        /* \"#utility.yul\":28930:28939   */\n      dup4\n        /* \"#utility.yul\":28926:28943   */\n      add\n        /* \"#utility.yul\":28917:28923   */\n      dup7\n        /* \"#utility.yul\":28873:28944   */\n      tag_351\n      jump\t// in\n    tag_667:\n        /* \"#utility.yul\":28954:29026   */\n      tag_668\n        /* \"#utility.yul\":29022:29024   */\n      0x20\n        /* \"#utility.yul\":29011:29020   */\n      dup4\n        /* \"#utility.yul\":29007:29025   */\n      add\n        /* \"#utility.yul\":28998:29004   */\n      dup6\n        /* \"#utility.yul\":28954:29026   */\n      tag_351\n      jump\t// in\n    tag_668:\n        /* \"#utility.yul\":29036:29108   */\n      tag_669\n        /* \"#utility.yul\":29104:29106   */\n      0x40\n        /* \"#utility.yul\":29093:29102   */\n      dup4\n        /* \"#utility.yul\":29089:29107   */\n      add\n        /* \"#utility.yul\":29080:29086   */\n      dup5\n        /* \"#utility.yul\":29036:29108   */\n      tag_327\n      jump\t// in\n    tag_669:\n        /* \"#utility.yul\":28673:29115   */\n      swap5\n      swap4\n      pop\n      pop\n      pop\n      pop\n      jump\t// out\n        /* \"#utility.yul\":29121:29674   */\n    tag_231:\n        /* \"#utility.yul\":29298:29302   */\n      0x00\n        /* \"#utility.yul\":29336:29339   */\n      0x80\n        /* \"#utility.yul\":29325:29334   */\n      dup3\n        /* \"#utility.yul\":29321:29340   */\n      add\n        /* \"#utility.yul\":29313:29340   */\n      swap1\n      pop\n        /* \"#utility.yul\":29350:29421   */\n      tag_671\n        /* \"#utility.yul\":29418:29419   */\n      0x00\n        /* \"#utility.yul\":29407:29416   */\n      dup4\n        /* \"#utility.yul\":29403:29420   */\n      add\n        /* \"#utility.yul\":29394:29400   */\n      dup8\n        /* \"#utility.yul\":29350:29421   */\n      tag_327\n      jump\t// in\n    tag_671:\n        /* \"#utility.yul\":29431:29503   */\n      tag_672\n        /* \"#utility.yul\":29499:29501   */\n      0x20\n        /* \"#utility.yul\":29488:29497   */\n      dup4\n        /* \"#utility.yul\":29484:29502   */\n      add\n        /* \"#utility.yul\":29475:29481   */\n      dup7\n        /* \"#utility.yul\":29431:29503   */\n      tag_327\n      jump\t// in\n    tag_672:\n        /* \"#utility.yul\":29513:29585   */\n      tag_673\n        /* \"#utility.yul\":29581:29583   */\n      0x40\n        /* \"#utility.yul\":29570:29579   */\n      dup4\n        /* \"#utility.yul\":29566:29584   */\n      add\n        /* \"#utility.yul\":29557:29563   */\n      dup6\n        /* \"#utility.yul\":29513:29585   */\n      tag_327\n      jump\t// in\n    tag_673:\n        /* \"#utility.yul\":29595:29667   */\n      tag_674\n        /* \"#utility.yul\":29663:29665   */\n      0x60\n        /* \"#utility.yul\":29652:29661   */\n      dup4\n        /* \"#utility.yul\":29648:29666   */\n      add\n        /* \"#utility.yul\":29639:29645   */\n      dup5\n        /* \"#utility.yul\":29595:29667   */\n      tag_327\n      jump\t// in\n    tag_674:\n        /* \"#utility.yul\":29121:29674   */\n      swap6\n      swap5\n      pop\n      pop\n      pop\n      pop\n      pop\n      jump\t// out\n        /* \"#utility.yul\":29680:31041   */\n    tag_241:\n        /* \"#utility.yul\":30049:30053   */\n      0x00\n        /* \"#utility.yul\":30087:30090   */\n      0x0100\n        /* \"#utility.yul\":30076:30085   */\n      dup3\n        /* \"#utility.yul\":30072:30091   */\n      add\n        /* \"#utility.yul\":30064:30091   */\n      swap1\n      pop\n        /* \"#utility.yul\":30101:30172   */\n      tag_676\n        /* \"#utility.yul\":30169:30170   */\n      0x00\n        /* \"#utility.yul\":30158:30167   */\n      dup4\n        /* \"#utility.yul\":30154:30171   */\n      add\n        /* \"#utility.yul\":30145:30151   */\n      dup12\n        /* \"#utility.yul\":30101:30172   */\n      tag_327\n      jump\t// in\n    tag_676:\n        /* \"#utility.yul\":30182:30254   */\n      tag_677\n        /* \"#utility.yul\":30250:30252   */\n      0x20\n        /* \"#utility.yul\":30239:30248   */\n      dup4\n        /* \"#utility.yul\":30235:30253   */\n      add\n        /* \"#utility.yul\":30226:30232   */\n      dup11\n        /* \"#utility.yul\":30182:30254   */\n      tag_351\n      jump\t// in\n    tag_677:\n        /* \"#utility.yul\":30301:30310   */\n      dup2\n        /* \"#utility.yul\":30295:30299   */\n      dup2\n        /* \"#utility.yul\":30291:30311   */\n      sub\n        /* \"#utility.yul\":30286:30288   */\n      0x40\n        /* \"#utility.yul\":30275:30284   */\n      dup4\n        /* \"#utility.yul\":30271:30289   */\n      add\n        /* \"#utility.yul\":30264:30312   */\n      mstore\n        /* \"#utility.yul\":30329:30407   */\n      tag_678\n        /* \"#utility.yul\":30402:30406   */\n      dup2\n        /* \"#utility.yul\":30393:30399   */\n      dup10\n        /* \"#utility.yul\":30329:30407   */\n      tag_353\n      jump\t// in\n    tag_678:\n        /* \"#utility.yul\":30321:30407   */\n      swap1\n      pop\n        /* \"#utility.yul\":30454:30463   */\n      dup2\n        /* \"#utility.yul\":30448:30452   */\n      dup2\n        /* \"#utility.yul\":30444:30464   */\n      sub\n        /* \"#utility.yul\":30439:30441   */\n      0x60\n        /* \"#utility.yul\":30428:30437   */\n      dup4\n        /* \"#utility.yul\":30424:30442   */\n      add\n        /* \"#utility.yul\":30417:30465   */\n      mstore\n        /* \"#utility.yul\":30482:30560   */\n      tag_679\n        /* \"#utility.yul\":30555:30559   */\n      dup2\n        /* \"#utility.yul\":30546:30552   */\n      dup9\n        /* \"#utility.yul\":30482:30560   */\n      tag_353\n      jump\t// in\n    tag_679:\n        /* \"#utility.yul\":30474:30560   */\n      swap1\n      pop\n        /* \"#utility.yul\":30570:30643   */\n      tag_680\n        /* \"#utility.yul\":30638:30641   */\n      0x80\n        /* \"#utility.yul\":30627:30636   */\n      dup4\n        /* \"#utility.yul\":30623:30642   */\n      add\n        /* \"#utility.yul\":30614:30620   */\n      dup8\n        /* \"#utility.yul\":30570:30643   */\n      tag_327\n      jump\t// in\n    tag_680:\n        /* \"#utility.yul\":30653:30726   */\n      tag_681\n        /* \"#utility.yul\":30721:30724   */\n      0xa0\n        /* \"#utility.yul\":30710:30719   */\n      dup4\n        /* \"#utility.yul\":30706:30725   */\n      add\n        /* \"#utility.yul\":30697:30703   */\n      dup7\n        /* \"#utility.yul\":30653:30726   */\n      tag_351\n      jump\t// in\n    tag_681:\n        /* \"#utility.yul\":30774:30783   */\n      dup2\n        /* \"#utility.yul\":30768:30772   */\n      dup2\n        /* \"#utility.yul\":30764:30784   */\n      sub\n        /* \"#utility.yul\":30758:30761   */\n      0xc0\n        /* \"#utility.yul\":30747:30756   */\n      dup4\n        /* \"#utility.yul\":30743:30762   */\n      add\n        /* \"#utility.yul\":30736:30785   */\n      mstore\n        /* \"#utility.yul\":30802:30880   */\n      tag_682\n        /* \"#utility.yul\":30875:30879   */\n      dup2\n        /* \"#utility.yul\":30866:30872   */\n      dup6\n        /* \"#utility.yul\":30802:30880   */\n      tag_353\n      jump\t// in\n    tag_682:\n        /* \"#utility.yul\":30794:30880   */\n      swap1\n      pop\n        /* \"#utility.yul\":30928:30937   */\n      dup2\n        /* \"#utility.yul\":30922:30926   */\n      dup2\n        /* \"#utility.yul\":30918:30938   */\n      sub\n        /* \"#utility.yul\":30912:30915   */\n      0xe0\n        /* \"#utility.yul\":30901:30910   */\n      dup4\n        /* \"#utility.yul\":30897:30916   */\n      add\n        /* \"#utility.yul\":30890:30939   */\n      mstore\n        /* \"#utility.yul\":30956:31034   */\n      tag_683\n        /* \"#utility.yul\":31029:31033   */\n      dup2\n        /* \"#utility.yul\":31020:31026   */\n      dup5\n        /* \"#utility.yul\":30956:31034   */\n      tag_353\n      jump\t// in\n    tag_683:\n        /* \"#utility.yul\":30948:31034   */\n      swap1\n      pop\n        /* \"#utility.yul\":29680:31041   */\n      swap10\n      swap9\n      pop\n      pop\n      pop\n      pop\n      pop\n      pop\n      pop\n      pop\n      pop\n      jump\t// out\n        /* \"#utility.yul\":31047:31229   */\n    tag_389:\n        /* \"#utility.yul\":31187:31221   */\n      0x4f776e61626c653a2063616c6c6572206973206e6f7420746865206f776e6572\n        /* \"#utility.yul\":31183:31184   */\n      0x00\n        /* \"#utility.yul\":31175:31181   */\n      dup3\n        /* \"#utility.yul\":31171:31185   */\n      add\n        /* \"#utility.yul\":31164:31222   */\n      mstore\n        /* \"#utility.yul\":31047:31229   */\n      pop\n      jump\t// out\n        /* \"#utility.yul\":31235:31601   */\n    tag_390:\n        /* \"#utility.yul\":31377:31380   */\n      0x00\n        /* \"#utility.yul\":31398:31465   */\n      tag_686\n        /* \"#utility.yul\":31462:31464   */\n      0x20\n        /* \"#utility.yul\":31457:31460   */\n      dup4\n        /* \"#utility.yul\":31398:31465   */\n      tag_352\n      jump\t// in\n    tag_686:\n        /* \"#utility.yul\":31391:31465   */\n      swap2\n      pop\n        /* \"#utility.yul\":31474:31567   */\n      tag_687\n        /* \"#utility.yul\":31563:31566   */\n      dup3\n        /* \"#utility.yul\":31474:31567   */\n      tag_389\n      jump\t// in\n    tag_687:\n        /* \"#utility.yul\":31592:31594   */\n      0x20\n        /* \"#utility.yul\":31587:31590   */\n      dup3\n        /* \"#utility.yul\":31583:31595   */\n      add\n        /* \"#utility.yul\":31576:31595   */\n      swap1\n      pop\n        /* \"#utility.yul\":31235:31601   */\n      swap2\n      swap1\n      pop\n      jump\t// out\n        /* \"#utility.yul\":31607:32026   */\n    tag_248:\n        /* \"#utility.yul\":31773:31777   */\n      0x00\n        /* \"#utility.yul\":31811:31813   */\n      0x20\n        /* \"#utility.yul\":31800:31809   */\n      dup3\n        /* \"#utility.yul\":31796:31814   */\n      add\n        /* \"#utility.yul\":31788:31814   */\n      swap1\n      pop\n        /* \"#utility.yul\":31860:31869   */\n      dup2\n        /* \"#utility.yul\":31854:31858   */\n      dup2\n        /* \"#utility.yul\":31850:31870   */\n      sub\n        /* \"#utility.yul\":31846:31847   */\n      0x00\n        /* \"#utility.yul\":31835:31844   */\n      dup4\n        /* \"#utility.yul\":31831:31848   */\n      add\n        /* \"#utility.yul\":31824:31871   */\n      mstore\n        /* \"#utility.yul\":31888:32019   */\n      tag_689\n        /* \"#utility.yul\":32014:32018   */\n      dup2\n        /* \"#utility.yul\":31888:32019   */\n      tag_390\n      jump\t// in\n    tag_689:\n        /* \"#utility.yul\":31880:32019   */\n      swap1\n      pop\n        /* \"#utility.yul\":31607:32026   */\n      swap2\n      swap1\n      pop\n      jump\t// out\n        /* \"#utility.yul\":32032:32180   */\n    tag_391:\n        /* \"#utility.yul\":32134:32145   */\n      0x00\n        /* \"#utility.yul\":32171:32174   */\n      dup2\n        /* \"#utility.yul\":32156:32174   */\n      swap1\n      pop\n        /* \"#utility.yul\":32032:32180   */\n      swap3\n      swap2\n      pop\n      pop\n      jump\t// out\n        /* \"#utility.yul\":32186:32576   */\n    tag_392:\n        /* \"#utility.yul\":32292:32295   */\n      0x00\n        /* \"#utility.yul\":32320:32359   */\n      tag_692\n        /* \"#utility.yul\":32353:32358   */\n      dup3\n        /* \"#utility.yul\":32320:32359   */\n      tag_334\n      jump\t// in\n    tag_692:\n        /* \"#utility.yul\":32375:32464   */\n      tag_693\n        /* \"#utility.yul\":32457:32463   */\n      dup2\n        /* \"#utility.yul\":32452:32455   */\n      dup6\n        /* \"#utility.yul\":32375:32464   */\n      tag_391\n      jump\t// in\n    tag_693:\n        /* \"#utility.yul\":32368:32464   */\n      swap4\n      pop\n        /* \"#utility.yul\":32473:32538   */\n      tag_694\n        /* \"#utility.yul\":32531:32537   */\n      dup2\n        /* \"#utility.yul\":32526:32529   */\n      dup6\n        /* \"#utility.yul\":32519:32523   */\n      0x20\n        /* \"#utility.yul\":32512:32517   */\n      dup7\n        /* \"#utility.yul\":32508:32524   */\n      add\n        /* \"#utility.yul\":32473:32538   */\n      tag_336\n      jump\t// in\n    tag_694:\n        /* \"#utility.yul\":32563:32569   */\n      dup1\n        /* \"#utility.yul\":32558:32561   */\n      dup5\n        /* \"#utility.yul\":32554:32570   */\n      add\n        /* \"#utility.yul\":32547:32570   */\n      swap2\n      pop\n        /* \"#utility.yul\":32296:32576   */\n      pop\n        /* \"#utility.yul\":32186:32576   */\n      swap3\n      swap2\n      pop\n      pop\n      jump\t// out\n        /* \"#utility.yul\":32582:32857   */\n    tag_252:\n        /* \"#utility.yul\":32714:32717   */\n      0x00\n        /* \"#utility.yul\":32736:32831   */\n      tag_696\n        /* \"#utility.yul\":32827:32830   */\n      dup3\n        /* \"#utility.yul\":32818:32824   */\n      dup5\n        /* \"#utility.yul\":32736:32831   */\n      tag_392\n      jump\t// in\n    tag_696:\n        /* \"#utility.yul\":32729:32831   */\n      swap2\n      pop\n        /* \"#utility.yul\":32848:32851   */\n      dup2\n        /* \"#utility.yul\":32841:32851   */\n      swap1\n      pop\n        /* \"#utility.yul\":32582:32857   */\n      swap3\n      swap2\n      pop\n      pop\n      jump\t// out\n        /* \"#utility.yul\":32863:33006   */\n    tag_393:\n        /* \"#utility.yul\":32920:32925   */\n      0x00\n        /* \"#utility.yul\":32951:32957   */\n      dup2\n        /* \"#utility.yul\":32945:32958   */\n      mload\n        /* \"#utility.yul\":32936:32958   */\n      swap1\n      pop\n        /* \"#utility.yul\":32967:33000   */\n      tag_698\n        /* \"#utility.yul\":32994:32999   */\n      dup2\n        /* \"#utility.yul\":32967:33000   */\n      tag_325\n      jump\t// in\n    tag_698:\n        /* \"#utility.yul\":32863:33006   */\n      swap3\n      swap2\n      pop\n      pop\n      jump\t// out\n        /* \"#utility.yul\":33012:33363   */\n    tag_301:\n        /* \"#utility.yul\":33082:33088   */\n      0x00\n        /* \"#utility.yul\":33131:33133   */\n      0x20\n        /* \"#utility.yul\":33119:33128   */\n      dup3\n        /* \"#utility.yul\":33110:33117   */\n      dup5\n        /* \"#utility.yul\":33106:33129   */\n      sub\n        /* \"#utility.yul\":33102:33134   */\n      slt\n        /* \"#utility.yul\":33099:33218   */\n      iszero\n      tag_700\n      jumpi\n        /* \"#utility.yul\":33137:33216   */\n      tag_701\n      tag_322\n      jump\t// in\n    tag_701:\n        /* \"#utility.yul\":33099:33218   */\n    tag_700:\n        /* \"#utility.yul\":33257:33258   */\n      0x00\n        /* \"#utility.yul\":33282:33346   */\n      tag_702\n        /* \"#utility.yul\":33338:33345   */\n      dup5\n        /* \"#utility.yul\":33329:33335   */\n      dup3\n        /* \"#utility.yul\":33318:33327   */\n      dup6\n        /* \"#utility.yul\":33314:33336   */\n      add\n        /* \"#utility.yul\":33282:33346   */\n      tag_393\n      jump\t// in\n    tag_702:\n        /* \"#utility.yul\":33272:33346   */\n      swap2\n      pop\n        /* \"#utility.yul\":33228:33356   */\n      pop\n        /* \"#utility.yul\":33012:33363   */\n      swap3\n      swap2\n      pop\n      pop\n      jump\t// out\n        /* \"#utility.yul\":33369:33701   */\n    tag_309:\n        /* \"#utility.yul\":33490:33494   */\n      0x00\n        /* \"#utility.yul\":33528:33530   */\n      0x40\n        /* \"#utility.yul\":33517:33526   */\n      dup3\n        /* \"#utility.yul\":33513:33531   */\n      add\n        /* \"#utility.yul\":33505:33531   */\n      swap1\n      pop\n        /* \"#utility.yul\":33541:33612   */\n      tag_704\n        /* \"#utility.yul\":33609:33610   */\n      0x00\n        /* \"#utility.yul\":33598:33607   */\n      dup4\n        /* \"#utility.yul\":33594:33611   */\n      add\n        /* \"#utility.yul\":33585:33591   */\n      dup6\n        /* \"#utility.yul\":33541:33612   */\n      tag_351\n      jump\t// in\n    tag_704:\n        /* \"#utility.yul\":33622:33694   */\n      tag_705\n        /* \"#utility.yul\":33690:33692   */\n      0x20\n        /* \"#utility.yul\":33679:33688   */\n      dup4\n        /* \"#utility.yul\":33675:33693   */\n      add\n        /* \"#utility.yul\":33666:33672   */\n      dup5\n        /* \"#utility.yul\":33622:33694   */\n      tag_327\n      jump\t// in\n    tag_705:\n        /* \"#utility.yul\":33369:33701   */\n      swap4\n      swap3\n      pop\n      pop\n      pop\n      jump\t// out\n\n    auxdata: 0xa26469706673582212208d147ee9f2a2d24e2c1137a6707a10c890490355eb2c0058083db3e0029ee8ec64736f6c634300081a0033\n}\n",
				"bytecode": {
					"linkReferences": {},
					"object": "608060405234801561000f575f80fd5b50604051612f61380380612f61833981810160405281019061003191906101b9565b61004d61004261009360201b60201c565b61009a60201b60201c565b8060015f6101000a81548173ffffffffffffffffffffffffffffffffffffffff021916908373ffffffffffffffffffffffffffffffffffffffff160217905550506101e4565b5f33905090565b5f805f9054906101000a900473ffffffffffffffffffffffffffffffffffffffff169050815f806101000a81548173ffffffffffffffffffffffffffffffffffffffff021916908373ffffffffffffffffffffffffffffffffffffffff1602179055508173ffffffffffffffffffffffffffffffffffffffff168173ffffffffffffffffffffffffffffffffffffffff167f8be0079c531659141344cd1fd0a4f28419497f9722a3daafe3b4186f6b6457e060405160405180910390a35050565b5f80fd5b5f73ffffffffffffffffffffffffffffffffffffffff82169050919050565b5f6101888261015f565b9050919050565b6101988161017e565b81146101a2575f80fd5b50565b5f815190506101b38161018f565b92915050565b5f602082840312156101ce576101cd61015b565b5b5f6101db848285016101a5565b91505092915050565b612d70806101f15f395ff3fe608060405234801561000f575f80fd5b50600436106100b2575f3560e01c80638d22d4461161006f5780638d22d446146101525780638da5cb5b1461016e578063a85c38ef1461018c578063b789bf52146101c0578063f2fde38b146101de578063ffe7dc4e146101fa576100b2565b8063028afabf146100b657806305462c6d146100c057806323722084146100de57806332603f2d1461010e578063514fcac71461012c578063715018a614610148575b5f80fd5b6100be610204565b005b6100c861031f565b6040516100d59190611d75565b60405180910390f35b6100f860048036038101906100f39190611dd2565b610344565b6040516101059190611e0c565b60405180910390f35b610116610364565b6040516101239190612048565b60405180910390f35b61014660048036038101906101419190611dd2565b610698565b005b6101506107fa565b005b61016c60048036038101906101679190612194565b61080d565b005b610176610a8f565b60405161018391906121fd565b60405180910390f35b6101a660048036038101906101a19190611dd2565b610ab6565b6040516101b7959493929190612278565b60405180910390f35b6101c8610b99565b6040516101d59190611e0c565b60405180910390f35b6101f860048036038101906101f391906122fa565b610b9f565b005b610202610c21565b005b61020c61159d565b5f5b60048054905081101561031c575f600482815481106102305761022f612325565b5b905f5260205f200154905060035f8281526020019081526020015f206004015f9054906101000a900460ff161561030e575f60035f8381526020019081526020015f206004015f6101000a81548160ff02191690831515021790555060035f8281526020019081526020015f206001015f9054906101000a900473ffffffffffffffffffffffffffffffffffffffff1673ffffffffffffffffffffffffffffffffffffffff167fc0362da6f2ff36b382b34aec0814f6b3cdf89f5ef282a1d1f114d0c0b036d596826040516103059190611e0c565b60405180910390a25b50808060010191505061020e565b50565b60015f9054906101000a900473ffffffffffffffffffffffffffffffffffffffff1681565b60048181548110610353575f80fd5b905f5260205f20015f915090505481565b606061036e61159d565b5f805b6004805490508110156103dc5760035f6004838154811061039557610394612325565b5b905f5260205f20015481526020019081526020015f206004015f9054906101000a900460ff16156103cf5781806103cb9061237f565b9250505b8080600101915050610371565b505f8167ffffffffffffffff8111156103f8576103f7612070565b5b60405190808252806020026020018201604052801561043157816020015b61041e611ca3565b8152602001906001900390816104165790505b5090505f805b60048054905081101561068e575f6004828154811061045957610458612325565b5b905f5260205f200154905060035f8281526020019081526020015f206004015f9054906101000a900460ff1615610680575f60035f8381526020019081526020015f2090505f805f8060015f9054906101000a900473ffffffffffffffffffffffffffffffffffffffff1673ffffffffffffffffffffffffffffffffffffffff1663d1be530986600201546040518263ffffffff1660e01b81526004016105009190611e0c565b5f60405180830381865afa15801561051a573d5f803e3d5ffd5b505050506040513d5f823e3d601f19601f820116820180604052508101906105429190612434565b9350935093509350604051806101000160405280865f01548152602001866001015f9054906101000a900473ffffffffffffffffffffffffffffffffffffffff1673ffffffffffffffffffffffffffffffffffffffff168152602001866002015481526020018660030180546105b790612535565b80601f01602080910402602001604051908101604052809291908181526020018280546105e390612535565b801561062e5780601f106106055761010080835404028352916020019161062e565b820191905f5260205f20905b81548152906001019060200180831161061157829003601f168201915b505050505081526020018581526020018481526020018381526020018281525089898151811061066157610660612325565b5b602002602001018190525087806106779061237f565b98505050505050505b508080600101915050610437565b5081935050505090565b5f60035f8381526020019081526020015f209050806004015f9054906101000a900460ff166106fc576040517f08c379a00000000000000000000000000000000000000000000000000000000081526004016106f3906125af565b60405180910390fd5b3373ffffffffffffffffffffffffffffffffffffffff16816001015f9054906101000a900473ffffffffffffffffffffffffffffffffffffffff1673ffffffffffffffffffffffffffffffffffffffff161461078d576040517f08c379a000000000000000000000000000000000000000000000000000000000815260040161078490612617565b60405180910390fd5b5f816004015f6101000a81548160ff0219169083151502179055503373ffffffffffffffffffffffffffffffffffffffff167fc0362da6f2ff36b382b34aec0814f6b3cdf89f5ef282a1d1f114d0c0b036d596836040516107ee9190611e0c565b60405180910390a25050565b61080261159d565b61080b5f61161b565b565b3373ffffffffffffffffffffffffffffffffffffffff1660015f9054906101000a900473ffffffffffffffffffffffffffffffffffffffff1673ffffffffffffffffffffffffffffffffffffffff16636352211e846040518263ffffffff1660e01b815260040161087e9190611e0c565b602060405180830381865afa158015610899573d5f803e3d5ffd5b505050506040513d601f19601f820116820180604052508101906108bd9190612649565b73ffffffffffffffffffffffffffffffffffffffff1614610913576040517f08c379a000000000000000000000000000000000000000000000000000000000815260040161090a906126be565b60405180910390fd5b60025f8154809291906109259061237f565b91905055506040518060a0016040528060025481526020013373ffffffffffffffffffffffffffffffffffffffff1681526020018381526020018281526020016001151581525060035f60025481526020019081526020015f205f820151815f01556020820151816001015f6101000a81548173ffffffffffffffffffffffffffffffffffffffff021916908373ffffffffffffffffffffffffffffffffffffffff1602179055506040820151816002015560608201518160030190816109ec9190612870565b506080820151816004015f6101000a81548160ff0219169083151502179055509050506004600254908060018154018082558091505060019003905f5260205f20015f90919091909150553373ffffffffffffffffffffffffffffffffffffffff167fce5223d849377a0f55f7f8906570ae74f4031b0fe42160b9c14828a4284473336002548484604051610a839392919061293f565b60405180910390a25050565b5f805f9054906101000a900473ffffffffffffffffffffffffffffffffffffffff16905090565b6003602052805f5260405f205f91509050805f015490806001015f9054906101000a900473ffffffffffffffffffffffffffffffffffffffff1690806002015490806003018054610b0690612535565b80601f0160208091040260200160405190810160405280929190818152602001828054610b3290612535565b8015610b7d5780601f10610b5457610100808354040283529160200191610b7d565b820191905f5260205f20905b815481529060010190602001808311610b6057829003601f168201915b505050505090806004015f9054906101000a900460ff16905085565b60025481565b610ba761159d565b5f73ffffffffffffffffffffffffffffffffffffffff168173ffffffffffffffffffffffffffffffffffffffff1603610c15576040517f08c379a0000000000000000000000000000000000000000000000000000000008152600401610c0c906129eb565b60405180910390fd5b610c1e8161161b565b50565b610c2961159d565b5f60048054905090505f5b81811015611599575f60048281548110610c5157610c50612325565b5b905f5260205f200154905060035f8281526020019081526020015f206004015f9054906101000a900460ff16610c87575061158c565b5f60035f8381526020019081526020015f2090505f60015f9054906101000a900473ffffffffffffffffffffffffffffffffffffffff1673ffffffffffffffffffffffffffffffffffffffff1663d1be530983600201546040518263ffffffff1660e01b8152600401610cfa9190611e0c565b5f60405180830381865afa158015610d14573d5f803e3d5ffd5b505050506040513d5f823e3d601f19601f82011682018060405250810190610d3c9190612434565b50505090505f600185610d4f9190612a09565b90505b85811015611587575f60048281548110610d6f57610d6e612325565b5b905f5260205f200154905060035f8281526020019081526020015f206004015f9054906101000a900460ff16610da5575061157a565b5f60035f8381526020019081526020015f2090505f60015f9054906101000a900473ffffffffffffffffffffffffffffffffffffffff1673ffffffffffffffffffffffffffffffffffffffff1663d1be530983600201546040518263ffffffff1660e01b8152600401610e189190611e0c565b5f60405180830381865afa158015610e32573d5f803e3d5ffd5b505050506040513d5f823e3d601f19601f82011682018060405250810190610e5a9190612434565b5050509050610ef3866003018054610e7190612535565b80601f0160208091040260200160405190810160405280929190818152602001828054610e9d90612535565b8015610ee85780601f10610ebf57610100808354040283529160200191610ee8565b820191905f5260205f20905b815481529060010190602001808311610ecb57829003601f168201915b5050505050826116dc565b8015610f8f5750610f8e826003018054610f0c90612535565b80601f0160208091040260200160405190810160405280929190818152602001828054610f3890612535565b8015610f835780601f10610f5a57610100808354040283529160200191610f83565b820191905f5260205f20905b815481529060010190602001808311610f6657829003601f168201915b5050505050866116dc565b5b15611576575f866001015f9054906101000a900473ffffffffffffffffffffffffffffffffffffffff1690505f836001015f9054906101000a900473ffffffffffffffffffffffffffffffffffffffff1690505f886002015490505f856002015490508373ffffffffffffffffffffffffffffffffffffffff1660015f9054906101000a900473ffffffffffffffffffffffffffffffffffffffff1673ffffffffffffffffffffffffffffffffffffffff16636352211e846040518263ffffffff1660e01b81526004016110639190611e0c565b602060405180830381865afa15801561107e573d5f803e3d5ffd5b505050506040513d601f19601f820116820180604052508101906110a29190612649565b73ffffffffffffffffffffffffffffffffffffffff16146110f8576040517f08c379a00000000000000000000000000000000000000000000000000000000081526004016110ef90612a86565b60405180910390fd5b8273ffffffffffffffffffffffffffffffffffffffff1660015f9054906101000a900473ffffffffffffffffffffffffffffffffffffffff1673ffffffffffffffffffffffffffffffffffffffff16636352211e836040518263ffffffff1660e01b81526004016111699190611e0c565b602060405180830381865afa158015611184573d5f803e3d5ffd5b505050506040513d601f19601f820116820180604052508101906111a89190612649565b73ffffffffffffffffffffffffffffffffffffffff16146111fe576040517f08c379a00000000000000000000000000000000000000000000000000000000081526004016111f590612aee565b60405180910390fd5b611209848383611734565b8061121b575061121a838284611734565b5b8061122d575061122c848383611905565b5b8061123f575061123e838284611905565b5b15611250575050505050505061157a565b60015f9054906101000a900473ffffffffffffffffffffffffffffffffffffffff1673ffffffffffffffffffffffffffffffffffffffff166342842e0e8585856040518463ffffffff1660e01b81526004016112ae93929190612b0c565b5f604051808303815f87803b1580156112c5575f80fd5b505af11580156112d7573d5f803e3d5ffd5b5050505060015f9054906101000a900473ffffffffffffffffffffffffffffffffffffffff1673ffffffffffffffffffffffffffffffffffffffff166342842e0e8486846040518463ffffffff1660e01b815260040161133993929190612b0c565b5f604051808303815f87803b158015611350575f80fd5b505af1158015611362573d5f803e3d5ffd5b505050505f8a6004015f6101000a81548160ff0219169083151502179055505f866004015f6101000a81548160ff0219169083151502179055507fabed9c2bf91a3043c0b147978b27b3272de63d4ccdcbcb8ba15ff32b078c5be38b8884846040516113d19493929190612b41565b60405180910390a15f8060015f9054906101000a900473ffffffffffffffffffffffffffffffffffffffff1673ffffffffffffffffffffffffffffffffffffffff1663d1be5309856040518263ffffffff1660e01b81526004016114359190611e0c565b5f60405180830381865afa15801561144f573d5f803e3d5ffd5b505050506040513d5f823e3d601f19601f820116820180604052508101906114779190612434565b5050915091505f8060015f9054906101000a900473ffffffffffffffffffffffffffffffffffffffff1673ffffffffffffffffffffffffffffffffffffffff1663d1be5309866040518263ffffffff1660e01b81526004016114d99190611e0c565b5f60405180830381865afa1580156114f3573d5f803e3d5ffd5b505050506040513d5f823e3d601f19601f8201168201806040525081019061151b9190612434565b5050915091507f9fe4a655c0746bee9930f95157c5b5dd064d1694237b1a3a016a4125a579bf0b8f8986868f8c888860405161155e989796959493929190612b84565b60405180910390a15050505050505050505050611587565b5050505b8080600101915050610d52565b505050505b8080600101915050610c34565b5050565b6115a5611ad6565b73ffffffffffffffffffffffffffffffffffffffff166115c3610a8f565b73ffffffffffffffffffffffffffffffffffffffff1614611619576040517f08c379a000000000000000000000000000000000000000000000000000000000815260040161161090612c66565b60405180910390fd5b565b5f805f9054906101000a900473ffffffffffffffffffffffffffffffffffffffff169050815f806101000a81548173ffffffffffffffffffffffffffffffffffffffff021916908373ffffffffffffffffffffffffffffffffffffffff1602179055508173ffffffffffffffffffffffffffffffffffffffff168173ffffffffffffffffffffffffffffffffffffffff167f8be0079c531659141344cd1fd0a4f28419497f9722a3daafe3b4186f6b6457e060405160405180910390a35050565b5f816040516020016116ee9190612cbe565b60405160208183030381529060405280519060200120836040516020016117159190612cbe565b6040516020818303038152906040528051906020012014905092915050565b5f8061173f85611add565b90505f60015f9054906101000a900473ffffffffffffffffffffffffffffffffffffffff1673ffffffffffffffffffffffffffffffffffffffff1663d1be5309856040518263ffffffff1660e01b815260040161179c9190611e0c565b5f60405180830381865afa1580156117b6573d5f803e3d5ffd5b505050506040513d5f823e3d601f19601f820116820180604052508101906117de9190612434565b50925050505f5b82518110156118f7578583828151811061180257611801612325565b5b602002602001015103156118ea575f60015f9054906101000a900473ffffffffffffffffffffffffffffffffffffffff1673ffffffffffffffffffffffffffffffffffffffff1663d1be530985848151811061186157611860612325565b5b60200260200101516040518263ffffffff1660e01b81526004016118859190611e0c565b5f60405180830381865afa15801561189f573d5f803e3d5ffd5b505050506040513d5f823e3d601f19601f820116820180604052508101906118c79190612434565b50925050506118d681846116dc565b156118e85760019450505050506118fe565b505b80806001019150506117e5565b505f925050505b9392505050565b5f8061191085611add565b90505f60015f9054906101000a900473ffffffffffffffffffffffffffffffffffffffff1673ffffffffffffffffffffffffffffffffffffffff1663d1be5309856040518263ffffffff1660e01b815260040161196d9190611e0c565b5f60405180830381865afa158015611987573d5f803e3d5ffd5b505050506040513d5f823e3d601f19601f820116820180604052508101906119af9190612434565b50505090505f5b8251811015611ac857858382815181106119d3576119d2612325565b5b60200260200101510315611abb575f60015f9054906101000a900473ffffffffffffffffffffffffffffffffffffffff1673ffffffffffffffffffffffffffffffffffffffff1663d1be5309858481518110611a3257611a31612325565b5b60200260200101516040518263ffffffff1660e01b8152600401611a569190611e0c565b5f60405180830381865afa158015611a70573d5f803e3d5ffd5b505050506040513d5f823e3d601f19601f82011682018060405250810190611a989190612434565b5050509050611aa781846116dc565b15611ab9576001945050505050611acf565b505b80806001019150506119b6565b505f925050505b9392505050565b5f33905090565b60605f60015f9054906101000a900473ffffffffffffffffffffffffffffffffffffffff1673ffffffffffffffffffffffffffffffffffffffff166370a08231846040518263ffffffff1660e01b8152600401611b3a91906121fd565b602060405180830381865afa158015611b55573d5f803e3d5ffd5b505050506040513d601f19601f82011682018060405250810190611b799190612ce8565b90505f8167ffffffffffffffff811115611b9657611b95612070565b5b604051908082528060200260200182016040528015611bc45781602001602082028036833780820191505090505b5090505f5b82811015611c985760015f9054906101000a900473ffffffffffffffffffffffffffffffffffffffff1673ffffffffffffffffffffffffffffffffffffffff16632f745c5986836040518363ffffffff1660e01b8152600401611c2d929190612d13565b602060405180830381865afa158015611c48573d5f803e3d5ffd5b505050506040513d601f19601f82011682018060405250810190611c6c9190612ce8565b828281518110611c7f57611c7e612325565b5b6020026020010181815250508080600101915050611bc9565b508092505050919050565b6040518061010001604052805f81526020015f73ffffffffffffffffffffffffffffffffffffffff1681526020015f815260200160608152602001606081526020016060815260200160608152602001606081525090565b5f73ffffffffffffffffffffffffffffffffffffffff82169050919050565b5f819050919050565b5f611d3d611d38611d3384611cfb565b611d1a565b611cfb565b9050919050565b5f611d4e82611d23565b9050919050565b5f611d5f82611d44565b9050919050565b611d6f81611d55565b82525050565b5f602082019050611d885f830184611d66565b92915050565b5f604051905090565b5f80fd5b5f80fd5b5f819050919050565b611db181611d9f565b8114611dbb575f80fd5b50565b5f81359050611dcc81611da8565b92915050565b5f60208284031215611de757611de6611d97565b5b5f611df484828501611dbe565b91505092915050565b611e0681611d9f565b82525050565b5f602082019050611e1f5f830184611dfd565b92915050565b5f81519050919050565b5f82825260208201905092915050565b5f819050602082019050919050565b611e5781611d9f565b82525050565b5f611e6782611cfb565b9050919050565b611e7781611e5d565b82525050565b5f81519050919050565b5f82825260208201905092915050565b8281835e5f83830152505050565b5f601f19601f8301169050919050565b5f611ebf82611e7d565b611ec98185611e87565b9350611ed9818560208601611e97565b611ee281611ea5565b840191505092915050565b5f61010083015f830151611f035f860182611e4e565b506020830151611f166020860182611e6e565b506040830151611f296040860182611e4e565b5060608301518482036060860152611f418282611eb5565b91505060808301518482036080860152611f5b8282611eb5565b91505060a083015184820360a0860152611f758282611eb5565b91505060c083015184820360c0860152611f8f8282611eb5565b91505060e083015184820360e0860152611fa98282611eb5565b9150508091505092915050565b5f611fc18383611eed565b905092915050565b5f602082019050919050565b5f611fdf82611e25565b611fe98185611e2f565b935083602082028501611ffb85611e3f565b805f5b8581101561203657848403895281516120178582611fb6565b945061202283611fc9565b925060208a01995050600181019050611ffe565b50829750879550505050505092915050565b5f6020820190508181035f8301526120608184611fd5565b905092915050565b5f80fd5b5f80fd5b7f4e487b71000000000000000000000000000000000000000000000000000000005f52604160045260245ffd5b6120a682611ea5565b810181811067ffffffffffffffff821117156120c5576120c4612070565b5b80604052505050565b5f6120d7611d8e565b90506120e3828261209d565b919050565b5f67ffffffffffffffff82111561210257612101612070565b5b61210b82611ea5565b9050602081019050919050565b828183375f83830152505050565b5f612138612133846120e8565b6120ce565b9050828152602081018484840111156121545761215361206c565b5b61215f848285612118565b509392505050565b5f82601f83011261217b5761217a612068565b5b813561218b848260208601612126565b91505092915050565b5f80604083850312156121aa576121a9611d97565b5b5f6121b785828601611dbe565b925050602083013567ffffffffffffffff8111156121d8576121d7611d9b565b5b6121e485828601612167565b9150509250929050565b6121f781611e5d565b82525050565b5f6020820190506122105f8301846121ee565b92915050565b5f82825260208201905092915050565b5f61223082611e7d565b61223a8185612216565b935061224a818560208601611e97565b61225381611ea5565b840191505092915050565b5f8115159050919050565b6122728161225e565b82525050565b5f60a08201905061228b5f830188611dfd565b61229860208301876121ee565b6122a56040830186611dfd565b81810360608301526122b78185612226565b90506122c66080830184612269565b9695505050505050565b6122d981611e5d565b81146122e3575f80fd5b50565b5f813590506122f4816122d0565b92915050565b5f6020828403121561230f5761230e611d97565b5b5f61231c848285016122e6565b91505092915050565b7f4e487b71000000000000000000000000000000000000000000000000000000005f52603260045260245ffd5b7f4e487b71000000000000000000000000000000000000000000000000000000005f52601160045260245ffd5b5f61238982611d9f565b91507fffffffffffffffffffffffffffffffffffffffffffffffffffffffffffffffff82036123bb576123ba612352565b5b600182019050919050565b5f6123d86123d3846120e8565b6120ce565b9050828152602081018484840111156123f4576123f361206c565b5b6123ff848285611e97565b509392505050565b5f82601f83011261241b5761241a612068565b5b815161242b8482602086016123c6565b91505092915050565b5f805f806080858703121561244c5761244b611d97565b5b5f85015167ffffffffffffffff81111561246957612468611d9b565b5b61247587828801612407565b945050602085015167ffffffffffffffff81111561249657612495611d9b565b5b6124a287828801612407565b935050604085015167ffffffffffffffff8111156124c3576124c2611d9b565b5b6124cf87828801612407565b925050606085015167ffffffffffffffff8111156124f0576124ef611d9b565b5b6124fc87828801612407565b91505092959194509250565b7f4e487b71000000000000000000000000000000000000000000000000000000005f52602260045260245ffd5b5f600282049050600182168061254c57607f821691505b60208210810361255f5761255e612508565b5b50919050565b7f4f72646572206973206e6f7420616374697665000000000000000000000000005f82015250565b5f612599601383612216565b91506125a482612565565b602082019050919050565b5f6020820190508181035f8301526125c68161258d565b9050919050565b7f4e6f7420796f7572206f726465720000000000000000000000000000000000005f82015250565b5f612601600e83612216565b915061260c826125cd565b602082019050919050565b5f6020820190508181035f83015261262e816125f5565b9050919050565b5f81519050612643816122d0565b92915050565b5f6020828403121561265e5761265d611d97565b5b5f61266b84828501612635565b91505092915050565b7f596f7520646f206e6f74206f776e20746865206f66666572656420746f6b656e5f82015250565b5f6126a8602083612216565b91506126b382612674565b602082019050919050565b5f6020820190508181035f8301526126d58161269c565b9050919050565b5f819050815f5260205f209050919050565b5f6020601f8301049050919050565b5f82821b905092915050565b5f600883026127387fffffffffffffffffffffffffffffffffffffffffffffffffffffffffffffffff826126fd565b61274286836126fd565b95508019841693508086168417925050509392505050565b5f61277461276f61276a84611d9f565b611d1a565b611d9f565b9050919050565b5f819050919050565b61278d8361275a565b6127a16127998261277b565b848454612709565b825550505050565b5f90565b6127b56127a9565b6127c0818484612784565b505050565b5b818110156127e3576127d85f826127ad565b6001810190506127c6565b5050565b601f821115612828576127f9816126dc565b612802846126ee565b81016020851015612811578190505b61282561281d856126ee565b8301826127c5565b50505b505050565b5f82821c905092915050565b5f6128485f198460080261282d565b1980831691505092915050565b5f6128608383612839565b9150826002028217905092915050565b61287982611e7d565b67ffffffffffffffff81111561289257612891612070565b5b61289c8254612535565b6128a78282856127e7565b5f60209050601f8311600181146128d8575f84156128c6578287015190505b6128d08582612855565b865550612937565b601f1984166128e6866126dc565b5f5b8281101561290d578489015182556001820191506020850194506020810190506128e8565b8683101561292a5784890151612926601f891682612839565b8355505b6001600288020188555050505b505050505050565b5f6060820190506129525f830186611dfd565b61295f6020830185611dfd565b81810360408301526129718184612226565b9050949350505050565b7f4f776e61626c653a206e6577206f776e657220697320746865207a65726f20615f8201527f6464726573730000000000000000000000000000000000000000000000000000602082015250565b5f6129d5602683612216565b91506129e08261297b565b604082019050919050565b5f6020820190508181035f830152612a02816129c9565b9050919050565b5f612a1382611d9f565b9150612a1e83611d9f565b9250828201905080821115612a3657612a35612352565b5b92915050565b7f4f776e6572206d69736d6174636820666f7220746f6b656e20310000000000005f82015250565b5f612a70601a83612216565b9150612a7b82612a3c565b602082019050919050565b5f6020820190508181035f830152612a9d81612a64565b9050919050565b7f4f776e6572206d69736d6174636820666f7220746f6b656e20320000000000005f82015250565b5f612ad8601a83612216565b9150612ae382612aa4565b602082019050919050565b5f6020820190508181035f830152612b0581612acc565b9050919050565b5f606082019050612b1f5f8301866121ee565b612b2c60208301856121ee565b612b396040830184611dfd565b949350505050565b5f608082019050612b545f830187611dfd565b612b616020830186611dfd565b612b6e6040830185611dfd565b612b7b6060830184611dfd565b95945050505050565b5f61010082019050612b985f83018b611dfd565b612ba5602083018a6121ee565b8181036040830152612bb78189612226565b90508181036060830152612bcb8188612226565b9050612bda6080830187611dfd565b612be760a08301866121ee565b81810360c0830152612bf98185612226565b905081810360e0830152612c0d8184612226565b90509998505050505050505050565b7f4f776e61626c653a2063616c6c6572206973206e6f7420746865206f776e65725f82015250565b5f612c50602083612216565b9150612c5b82612c1c565b602082019050919050565b5f6020820190508181035f830152612c7d81612c44565b9050919050565b5f81905092915050565b5f612c9882611e7d565b612ca28185612c84565b9350612cb2818560208601611e97565b80840191505092915050565b5f612cc98284612c8e565b915081905092915050565b5f81519050612ce281611da8565b92915050565b5f60208284031215612cfd57612cfc611d97565b5b5f612d0a84828501612cd4565b91505092915050565b5f604082019050612d265f8301856121ee565b612d336020830184611dfd565b939250505056fea26469706673582212208d147ee9f2a2d24e2c1137a6707a10c890490355eb2c0058083db3e0029ee8ec64736f6c634300081a0033",
					"opcodes": "PUSH1 0x80 PUSH1 0x40 MSTORE CALLVALUE DUP1 ISZERO PUSH2 0xF JUMPI PUSH0 DUP1 REVERT JUMPDEST POP PUSH1 0x40 MLOAD PUSH2 0x2F61 CODESIZE SUB DUP1 PUSH2 0x2F61 DUP4 CODECOPY DUP2 DUP2 ADD PUSH1 0x40 MSTORE DUP2 ADD SWAP1 PUSH2 0x31 SWAP2 SWAP1 PUSH2 0x1B9 JUMP JUMPDEST PUSH2 0x4D PUSH2 0x42 PUSH2 0x93 PUSH1 0x20 SHL PUSH1 0x20 SHR JUMP JUMPDEST PUSH2 0x9A PUSH1 0x20 SHL PUSH1 0x20 SHR JUMP JUMPDEST DUP1 PUSH1 0x1 PUSH0 PUSH2 0x100 EXP DUP2 SLOAD DUP2 PUSH20 0xFFFFFFFFFFFFFFFFFFFFFFFFFFFFFFFFFFFFFFFF MUL NOT AND SWAP1 DUP4 PUSH20 0xFFFFFFFFFFFFFFFFFFFFFFFFFFFFFFFFFFFFFFFF AND MUL OR SWAP1 SSTORE POP POP PUSH2 0x1E4 JUMP JUMPDEST PUSH0 CALLER SWAP1 POP SWAP1 JUMP JUMPDEST PUSH0 DUP1 PUSH0 SWAP1 SLOAD SWAP1 PUSH2 0x100 EXP SWAP1 DIV PUSH20 0xFFFFFFFFFFFFFFFFFFFFFFFFFFFFFFFFFFFFFFFF AND SWAP1 POP DUP2 PUSH0 DUP1 PUSH2 0x100 EXP DUP2 SLOAD DUP2 PUSH20 0xFFFFFFFFFFFFFFFFFFFFFFFFFFFFFFFFFFFFFFFF MUL NOT AND SWAP1 DUP4 PUSH20 0xFFFFFFFFFFFFFFFFFFFFFFFFFFFFFFFFFFFFFFFF AND MUL OR SWAP1 SSTORE POP DUP2 PUSH20 0xFFFFFFFFFFFFFFFFFFFFFFFFFFFFFFFFFFFFFFFF AND DUP2 PUSH20 0xFFFFFFFFFFFFFFFFFFFFFFFFFFFFFFFFFFFFFFFF AND PUSH32 0x8BE0079C531659141344CD1FD0A4F28419497F9722A3DAAFE3B4186F6B6457E0 PUSH1 0x40 MLOAD PUSH1 0x40 MLOAD DUP1 SWAP2 SUB SWAP1 LOG3 POP POP JUMP JUMPDEST PUSH0 DUP1 REVERT JUMPDEST PUSH0 PUSH20 0xFFFFFFFFFFFFFFFFFFFFFFFFFFFFFFFFFFFFFFFF DUP3 AND SWAP1 POP SWAP2 SWAP1 POP JUMP JUMPDEST PUSH0 PUSH2 0x188 DUP3 PUSH2 0x15F JUMP JUMPDEST SWAP1 POP SWAP2 SWAP1 POP JUMP JUMPDEST PUSH2 0x198 DUP2 PUSH2 0x17E JUMP JUMPDEST DUP2 EQ PUSH2 0x1A2 JUMPI PUSH0 DUP1 REVERT JUMPDEST POP JUMP JUMPDEST PUSH0 DUP2 MLOAD SWAP1 POP PUSH2 0x1B3 DUP2 PUSH2 0x18F JUMP JUMPDEST SWAP3 SWAP2 POP POP JUMP JUMPDEST PUSH0 PUSH1 0x20 DUP3 DUP5 SUB SLT ISZERO PUSH2 0x1CE JUMPI PUSH2 0x1CD PUSH2 0x15B JUMP JUMPDEST JUMPDEST PUSH0 PUSH2 0x1DB DUP5 DUP3 DUP6 ADD PUSH2 0x1A5 JUMP JUMPDEST SWAP2 POP POP SWAP3 SWAP2 POP POP JUMP JUMPDEST PUSH2 0x2D70 DUP1 PUSH2 0x1F1 PUSH0 CODECOPY PUSH0 RETURN INVALID PUSH1 0x80 PUSH1 0x40 MSTORE CALLVALUE DUP1 ISZERO PUSH2 0xF JUMPI PUSH0 DUP1 REVERT JUMPDEST POP PUSH1 0x4 CALLDATASIZE LT PUSH2 0xB2 JUMPI PUSH0 CALLDATALOAD PUSH1 0xE0 SHR DUP1 PUSH4 0x8D22D446 GT PUSH2 0x6F JUMPI DUP1 PUSH4 0x8D22D446 EQ PUSH2 0x152 JUMPI DUP1 PUSH4 0x8DA5CB5B EQ PUSH2 0x16E JUMPI DUP1 PUSH4 0xA85C38EF EQ PUSH2 0x18C JUMPI DUP1 PUSH4 0xB789BF52 EQ PUSH2 0x1C0 JUMPI DUP1 PUSH4 0xF2FDE38B EQ PUSH2 0x1DE JUMPI DUP1 PUSH4 0xFFE7DC4E EQ PUSH2 0x1FA JUMPI PUSH2 0xB2 JUMP JUMPDEST DUP1 PUSH4 0x28AFABF EQ PUSH2 0xB6 JUMPI DUP1 PUSH4 0x5462C6D EQ PUSH2 0xC0 JUMPI DUP1 PUSH4 0x23722084 EQ PUSH2 0xDE JUMPI DUP1 PUSH4 0x32603F2D EQ PUSH2 0x10E JUMPI DUP1 PUSH4 0x514FCAC7 EQ PUSH2 0x12C JUMPI DUP1 PUSH4 0x715018A6 EQ PUSH2 0x148 JUMPI JUMPDEST PUSH0 DUP1 REVERT JUMPDEST PUSH2 0xBE PUSH2 0x204 JUMP JUMPDEST STOP JUMPDEST PUSH2 0xC8 PUSH2 0x31F JUMP JUMPDEST PUSH1 0x40 MLOAD PUSH2 0xD5 SWAP2 SWAP1 PUSH2 0x1D75 JUMP JUMPDEST PUSH1 0x40 MLOAD DUP1 SWAP2 SUB SWAP1 RETURN JUMPDEST PUSH2 0xF8 PUSH1 0x4 DUP1 CALLDATASIZE SUB DUP2 ADD SWAP1 PUSH2 0xF3 SWAP2 SWAP1 PUSH2 0x1DD2 JUMP JUMPDEST PUSH2 0x344 JUMP JUMPDEST PUSH1 0x40 MLOAD PUSH2 0x105 SWAP2 SWAP1 PUSH2 0x1E0C JUMP JUMPDEST PUSH1 0x40 MLOAD DUP1 SWAP2 SUB SWAP1 RETURN JUMPDEST PUSH2 0x116 PUSH2 0x364 JUMP JUMPDEST PUSH1 0x40 MLOAD PUSH2 0x123 SWAP2 SWAP1 PUSH2 0x2048 JUMP JUMPDEST PUSH1 0x40 MLOAD DUP1 SWAP2 SUB SWAP1 RETURN JUMPDEST PUSH2 0x146 PUSH1 0x4 DUP1 CALLDATASIZE SUB DUP2 ADD SWAP1 PUSH2 0x141 SWAP2 SWAP1 PUSH2 0x1DD2 JUMP JUMPDEST PUSH2 0x698 JUMP JUMPDEST STOP JUMPDEST PUSH2 0x150 PUSH2 0x7FA JUMP JUMPDEST STOP JUMPDEST PUSH2 0x16C PUSH1 0x4 DUP1 CALLDATASIZE SUB DUP2 ADD SWAP1 PUSH2 0x167 SWAP2 SWAP1 PUSH2 0x2194 JUMP JUMPDEST PUSH2 0x80D JUMP JUMPDEST STOP JUMPDEST PUSH2 0x176 PUSH2 0xA8F JUMP JUMPDEST PUSH1 0x40 MLOAD PUSH2 0x183 SWAP2 SWAP1 PUSH2 0x21FD JUMP JUMPDEST PUSH1 0x40 MLOAD DUP1 SWAP2 SUB SWAP1 RETURN JUMPDEST PUSH2 0x1A6 PUSH1 0x4 DUP1 CALLDATASIZE SUB DUP2 ADD SWAP1 PUSH2 0x1A1 SWAP2 SWAP1 PUSH2 0x1DD2 JUMP JUMPDEST PUSH2 0xAB6 JUMP JUMPDEST PUSH1 0x40 MLOAD PUSH2 0x1B7 SWAP6 SWAP5 SWAP4 SWAP3 SWAP2 SWAP1 PUSH2 0x2278 JUMP JUMPDEST PUSH1 0x40 MLOAD DUP1 SWAP2 SUB SWAP1 RETURN JUMPDEST PUSH2 0x1C8 PUSH2 0xB99 JUMP JUMPDEST PUSH1 0x40 MLOAD PUSH2 0x1D5 SWAP2 SWAP1 PUSH2 0x1E0C JUMP JUMPDEST PUSH1 0x40 MLOAD DUP1 SWAP2 SUB SWAP1 RETURN JUMPDEST PUSH2 0x1F8 PUSH1 0x4 DUP1 CALLDATASIZE SUB DUP2 ADD SWAP1 PUSH2 0x1F3 SWAP2 SWAP1 PUSH2 0x22FA JUMP JUMPDEST PUSH2 0xB9F JUMP JUMPDEST STOP JUMPDEST PUSH2 0x202 PUSH2 0xC21 JUMP JUMPDEST STOP JUMPDEST PUSH2 0x20C PUSH2 0x159D JUMP JUMPDEST PUSH0 JUMPDEST PUSH1 0x4 DUP1 SLOAD SWAP1 POP DUP2 LT ISZERO PUSH2 0x31C JUMPI PUSH0 PUSH1 0x4 DUP3 DUP2 SLOAD DUP2 LT PUSH2 0x230 JUMPI PUSH2 0x22F PUSH2 0x2325 JUMP JUMPDEST JUMPDEST SWAP1 PUSH0 MSTORE PUSH1 0x20 PUSH0 KECCAK256 ADD SLOAD SWAP1 POP PUSH1 0x3 PUSH0 DUP3 DUP2 MSTORE PUSH1 0x20 ADD SWAP1 DUP2 MSTORE PUSH1 0x20 ADD PUSH0 KECCAK256 PUSH1 0x4 ADD PUSH0 SWAP1 SLOAD SWAP1 PUSH2 0x100 EXP SWAP1 DIV PUSH1 0xFF AND ISZERO PUSH2 0x30E JUMPI PUSH0 PUSH1 0x3 PUSH0 DUP4 DUP2 MSTORE PUSH1 0x20 ADD SWAP1 DUP2 MSTORE PUSH1 0x20 ADD PUSH0 KECCAK256 PUSH1 0x4 ADD PUSH0 PUSH2 0x100 EXP DUP2 SLOAD DUP2 PUSH1 0xFF MUL NOT AND SWAP1 DUP4 ISZERO ISZERO MUL OR SWAP1 SSTORE POP PUSH1 0x3 PUSH0 DUP3 DUP2 MSTORE PUSH1 0x20 ADD SWAP1 DUP2 MSTORE PUSH1 0x20 ADD PUSH0 KECCAK256 PUSH1 0x1 ADD PUSH0 SWAP1 SLOAD SWAP1 PUSH2 0x100 EXP SWAP1 DIV PUSH20 0xFFFFFFFFFFFFFFFFFFFFFFFFFFFFFFFFFFFFFFFF AND PUSH20 0xFFFFFFFFFFFFFFFFFFFFFFFFFFFFFFFFFFFFFFFF AND PUSH32 0xC0362DA6F2FF36B382B34AEC0814F6B3CDF89F5EF282A1D1F114D0C0B036D596 DUP3 PUSH1 0x40 MLOAD PUSH2 0x305 SWAP2 SWAP1 PUSH2 0x1E0C JUMP JUMPDEST PUSH1 0x40 MLOAD DUP1 SWAP2 SUB SWAP1 LOG2 JUMPDEST POP DUP1 DUP1 PUSH1 0x1 ADD SWAP2 POP POP PUSH2 0x20E JUMP JUMPDEST POP JUMP JUMPDEST PUSH1 0x1 PUSH0 SWAP1 SLOAD SWAP1 PUSH2 0x100 EXP SWAP1 DIV PUSH20 0xFFFFFFFFFFFFFFFFFFFFFFFFFFFFFFFFFFFFFFFF AND DUP2 JUMP JUMPDEST PUSH1 0x4 DUP2 DUP2 SLOAD DUP2 LT PUSH2 0x353 JUMPI PUSH0 DUP1 REVERT JUMPDEST SWAP1 PUSH0 MSTORE PUSH1 0x20 PUSH0 KECCAK256 ADD PUSH0 SWAP2 POP SWAP1 POP SLOAD DUP2 JUMP JUMPDEST PUSH1 0x60 PUSH2 0x36E PUSH2 0x159D JUMP JUMPDEST PUSH0 DUP1 JUMPDEST PUSH1 0x4 DUP1 SLOAD SWAP1 POP DUP2 LT ISZERO PUSH2 0x3DC JUMPI PUSH1 0x3 PUSH0 PUSH1 0x4 DUP4 DUP2 SLOAD DUP2 LT PUSH2 0x395 JUMPI PUSH2 0x394 PUSH2 0x2325 JUMP JUMPDEST JUMPDEST SWAP1 PUSH0 MSTORE PUSH1 0x20 PUSH0 KECCAK256 ADD SLOAD DUP2 MSTORE PUSH1 0x20 ADD SWAP1 DUP2 MSTORE PUSH1 0x20 ADD PUSH0 KECCAK256 PUSH1 0x4 ADD PUSH0 SWAP1 SLOAD SWAP1 PUSH2 0x100 EXP SWAP1 DIV PUSH1 0xFF AND ISZERO PUSH2 0x3CF JUMPI DUP2 DUP1 PUSH2 0x3CB SWAP1 PUSH2 0x237F JUMP JUMPDEST SWAP3 POP POP JUMPDEST DUP1 DUP1 PUSH1 0x1 ADD SWAP2 POP POP PUSH2 0x371 JUMP JUMPDEST POP PUSH0 DUP2 PUSH8 0xFFFFFFFFFFFFFFFF DUP2 GT ISZERO PUSH2 0x3F8 JUMPI PUSH2 0x3F7 PUSH2 0x2070 JUMP JUMPDEST JUMPDEST PUSH1 0x40 MLOAD SWAP1 DUP1 DUP3 MSTORE DUP1 PUSH1 0x20 MUL PUSH1 0x20 ADD DUP3 ADD PUSH1 0x40 MSTORE DUP1 ISZERO PUSH2 0x431 JUMPI DUP2 PUSH1 0x20 ADD JUMPDEST PUSH2 0x41E PUSH2 0x1CA3 JUMP JUMPDEST DUP2 MSTORE PUSH1 0x20 ADD SWAP1 PUSH1 0x1 SWAP1 SUB SWAP1 DUP2 PUSH2 0x416 JUMPI SWAP1 POP JUMPDEST POP SWAP1 POP PUSH0 DUP1 JUMPDEST PUSH1 0x4 DUP1 SLOAD SWAP1 POP DUP2 LT ISZERO PUSH2 0x68E JUMPI PUSH0 PUSH1 0x4 DUP3 DUP2 SLOAD DUP2 LT PUSH2 0x459 JUMPI PUSH2 0x458 PUSH2 0x2325 JUMP JUMPDEST JUMPDEST SWAP1 PUSH0 MSTORE PUSH1 0x20 PUSH0 KECCAK256 ADD SLOAD SWAP1 POP PUSH1 0x3 PUSH0 DUP3 DUP2 MSTORE PUSH1 0x20 ADD SWAP1 DUP2 MSTORE PUSH1 0x20 ADD PUSH0 KECCAK256 PUSH1 0x4 ADD PUSH0 SWAP1 SLOAD SWAP1 PUSH2 0x100 EXP SWAP1 DIV PUSH1 0xFF AND ISZERO PUSH2 0x680 JUMPI PUSH0 PUSH1 0x3 PUSH0 DUP4 DUP2 MSTORE PUSH1 0x20 ADD SWAP1 DUP2 MSTORE PUSH1 0x20 ADD PUSH0 KECCAK256 SWAP1 POP PUSH0 DUP1 PUSH0 DUP1 PUSH1 0x1 PUSH0 SWAP1 SLOAD SWAP1 PUSH2 0x100 EXP SWAP1 DIV PUSH20 0xFFFFFFFFFFFFFFFFFFFFFFFFFFFFFFFFFFFFFFFF AND PUSH20 0xFFFFFFFFFFFFFFFFFFFFFFFFFFFFFFFFFFFFFFFF AND PUSH4 0xD1BE5309 DUP7 PUSH1 0x2 ADD SLOAD PUSH1 0x40 MLOAD DUP3 PUSH4 0xFFFFFFFF AND PUSH1 0xE0 SHL DUP2 MSTORE PUSH1 0x4 ADD PUSH2 0x500 SWAP2 SWAP1 PUSH2 0x1E0C JUMP JUMPDEST PUSH0 PUSH1 0x40 MLOAD DUP1 DUP4 SUB DUP2 DUP7 GAS STATICCALL ISZERO DUP1 ISZERO PUSH2 0x51A JUMPI RETURNDATASIZE PUSH0 DUP1 RETURNDATACOPY RETURNDATASIZE PUSH0 REVERT JUMPDEST POP POP POP POP PUSH1 0x40 MLOAD RETURNDATASIZE PUSH0 DUP3 RETURNDATACOPY RETURNDATASIZE PUSH1 0x1F NOT PUSH1 0x1F DUP3 ADD AND DUP3 ADD DUP1 PUSH1 0x40 MSTORE POP DUP2 ADD SWAP1 PUSH2 0x542 SWAP2 SWAP1 PUSH2 0x2434 JUMP JUMPDEST SWAP4 POP SWAP4 POP SWAP4 POP SWAP4 POP PUSH1 0x40 MLOAD DUP1 PUSH2 0x100 ADD PUSH1 0x40 MSTORE DUP1 DUP7 PUSH0 ADD SLOAD DUP2 MSTORE PUSH1 0x20 ADD DUP7 PUSH1 0x1 ADD PUSH0 SWAP1 SLOAD SWAP1 PUSH2 0x100 EXP SWAP1 DIV PUSH20 0xFFFFFFFFFFFFFFFFFFFFFFFFFFFFFFFFFFFFFFFF AND PUSH20 0xFFFFFFFFFFFFFFFFFFFFFFFFFFFFFFFFFFFFFFFF AND DUP2 MSTORE PUSH1 0x20 ADD DUP7 PUSH1 0x2 ADD SLOAD DUP2 MSTORE PUSH1 0x20 ADD DUP7 PUSH1 0x3 ADD DUP1 SLOAD PUSH2 0x5B7 SWAP1 PUSH2 0x2535 JUMP JUMPDEST DUP1 PUSH1 0x1F ADD PUSH1 0x20 DUP1 SWAP2 DIV MUL PUSH1 0x20 ADD PUSH1 0x40 MLOAD SWAP1 DUP2 ADD PUSH1 0x40 MSTORE DUP1 SWAP3 SWAP2 SWAP1 DUP2 DUP2 MSTORE PUSH1 0x20 ADD DUP3 DUP1 SLOAD PUSH2 0x5E3 SWAP1 PUSH2 0x2535 JUMP JUMPDEST DUP1 ISZERO PUSH2 0x62E JUMPI DUP1 PUSH1 0x1F LT PUSH2 0x605 JUMPI PUSH2 0x100 DUP1 DUP4 SLOAD DIV MUL DUP4 MSTORE SWAP2 PUSH1 0x20 ADD SWAP2 PUSH2 0x62E JUMP JUMPDEST DUP3 ADD SWAP2 SWAP1 PUSH0 MSTORE PUSH1 0x20 PUSH0 KECCAK256 SWAP1 JUMPDEST DUP2 SLOAD DUP2 MSTORE SWAP1 PUSH1 0x1 ADD SWAP1 PUSH1 0x20 ADD DUP1 DUP4 GT PUSH2 0x611 JUMPI DUP3 SWAP1 SUB PUSH1 0x1F AND DUP3 ADD SWAP2 JUMPDEST POP POP POP POP POP DUP2 MSTORE PUSH1 0x20 ADD DUP6 DUP2 MSTORE PUSH1 0x20 ADD DUP5 DUP2 MSTORE PUSH1 0x20 ADD DUP4 DUP2 MSTORE PUSH1 0x20 ADD DUP3 DUP2 MSTORE POP DUP10 DUP10 DUP2 MLOAD DUP2 LT PUSH2 0x661 JUMPI PUSH2 0x660 PUSH2 0x2325 JUMP JUMPDEST JUMPDEST PUSH1 0x20 MUL PUSH1 0x20 ADD ADD DUP2 SWAP1 MSTORE POP DUP8 DUP1 PUSH2 0x677 SWAP1 PUSH2 0x237F JUMP JUMPDEST SWAP9 POP POP POP POP POP POP POP JUMPDEST POP DUP1 DUP1 PUSH1 0x1 ADD SWAP2 POP POP PUSH2 0x437 JUMP JUMPDEST POP DUP2 SWAP4 POP POP POP POP SWAP1 JUMP JUMPDEST PUSH0 PUSH1 0x3 PUSH0 DUP4 DUP2 MSTORE PUSH1 0x20 ADD SWAP1 DUP2 MSTORE PUSH1 0x20 ADD PUSH0 KECCAK256 SWAP1 POP DUP1 PUSH1 0x4 ADD PUSH0 SWAP1 SLOAD SWAP1 PUSH2 0x100 EXP SWAP1 DIV PUSH1 0xFF AND PUSH2 0x6FC JUMPI PUSH1 0x40 MLOAD PUSH32 0x8C379A000000000000000000000000000000000000000000000000000000000 DUP2 MSTORE PUSH1 0x4 ADD PUSH2 0x6F3 SWAP1 PUSH2 0x25AF JUMP JUMPDEST PUSH1 0x40 MLOAD DUP1 SWAP2 SUB SWAP1 REVERT JUMPDEST CALLER PUSH20 0xFFFFFFFFFFFFFFFFFFFFFFFFFFFFFFFFFFFFFFFF AND DUP2 PUSH1 0x1 ADD PUSH0 SWAP1 SLOAD SWAP1 PUSH2 0x100 EXP SWAP1 DIV PUSH20 0xFFFFFFFFFFFFFFFFFFFFFFFFFFFFFFFFFFFFFFFF AND PUSH20 0xFFFFFFFFFFFFFFFFFFFFFFFFFFFFFFFFFFFFFFFF AND EQ PUSH2 0x78D JUMPI PUSH1 0x40 MLOAD PUSH32 0x8C379A000000000000000000000000000000000000000000000000000000000 DUP2 MSTORE PUSH1 0x4 ADD PUSH2 0x784 SWAP1 PUSH2 0x2617 JUMP JUMPDEST PUSH1 0x40 MLOAD DUP1 SWAP2 SUB SWAP1 REVERT JUMPDEST PUSH0 DUP2 PUSH1 0x4 ADD PUSH0 PUSH2 0x100 EXP DUP2 SLOAD DUP2 PUSH1 0xFF MUL NOT AND SWAP1 DUP4 ISZERO ISZERO MUL OR SWAP1 SSTORE POP CALLER PUSH20 0xFFFFFFFFFFFFFFFFFFFFFFFFFFFFFFFFFFFFFFFF AND PUSH32 0xC0362DA6F2FF36B382B34AEC0814F6B3CDF89F5EF282A1D1F114D0C0B036D596 DUP4 PUSH1 0x40 MLOAD PUSH2 0x7EE SWAP2 SWAP1 PUSH2 0x1E0C JUMP JUMPDEST PUSH1 0x40 MLOAD DUP1 SWAP2 SUB SWAP1 LOG2 POP POP JUMP JUMPDEST PUSH2 0x802 PUSH2 0x159D JUMP JUMPDEST PUSH2 0x80B PUSH0 PUSH2 0x161B JUMP JUMPDEST JUMP JUMPDEST CALLER PUSH20 0xFFFFFFFFFFFFFFFFFFFFFFFFFFFFFFFFFFFFFFFF AND PUSH1 0x1 PUSH0 SWAP1 SLOAD SWAP1 PUSH2 0x100 EXP SWAP1 DIV PUSH20 0xFFFFFFFFFFFFFFFFFFFFFFFFFFFFFFFFFFFFFFFF AND PUSH20 0xFFFFFFFFFFFFFFFFFFFFFFFFFFFFFFFFFFFFFFFF AND PUSH4 0x6352211E DUP5 PUSH1 0x40 MLOAD DUP3 PUSH4 0xFFFFFFFF AND PUSH1 0xE0 SHL DUP2 MSTORE PUSH1 0x4 ADD PUSH2 0x87E SWAP2 SWAP1 PUSH2 0x1E0C JUMP JUMPDEST PUSH1 0x20 PUSH1 0x40 MLOAD DUP1 DUP4 SUB DUP2 DUP7 GAS STATICCALL ISZERO DUP1 ISZERO PUSH2 0x899 JUMPI RETURNDATASIZE PUSH0 DUP1 RETURNDATACOPY RETURNDATASIZE PUSH0 REVERT JUMPDEST POP POP POP POP PUSH1 0x40 MLOAD RETURNDATASIZE PUSH1 0x1F NOT PUSH1 0x1F DUP3 ADD AND DUP3 ADD DUP1 PUSH1 0x40 MSTORE POP DUP2 ADD SWAP1 PUSH2 0x8BD SWAP2 SWAP1 PUSH2 0x2649 JUMP JUMPDEST PUSH20 0xFFFFFFFFFFFFFFFFFFFFFFFFFFFFFFFFFFFFFFFF AND EQ PUSH2 0x913 JUMPI PUSH1 0x40 MLOAD PUSH32 0x8C379A000000000000000000000000000000000000000000000000000000000 DUP2 MSTORE PUSH1 0x4 ADD PUSH2 0x90A SWAP1 PUSH2 0x26BE JUMP JUMPDEST PUSH1 0x40 MLOAD DUP1 SWAP2 SUB SWAP1 REVERT JUMPDEST PUSH1 0x2 PUSH0 DUP2 SLOAD DUP1 SWAP3 SWAP2 SWAP1 PUSH2 0x925 SWAP1 PUSH2 0x237F JUMP JUMPDEST SWAP2 SWAP1 POP SSTORE POP PUSH1 0x40 MLOAD DUP1 PUSH1 0xA0 ADD PUSH1 0x40 MSTORE DUP1 PUSH1 0x2 SLOAD DUP2 MSTORE PUSH1 0x20 ADD CALLER PUSH20 0xFFFFFFFFFFFFFFFFFFFFFFFFFFFFFFFFFFFFFFFF AND DUP2 MSTORE PUSH1 0x20 ADD DUP4 DUP2 MSTORE PUSH1 0x20 ADD DUP3 DUP2 MSTORE PUSH1 0x20 ADD PUSH1 0x1 ISZERO ISZERO DUP2 MSTORE POP PUSH1 0x3 PUSH0 PUSH1 0x2 SLOAD DUP2 MSTORE PUSH1 0x20 ADD SWAP1 DUP2 MSTORE PUSH1 0x20 ADD PUSH0 KECCAK256 PUSH0 DUP3 ADD MLOAD DUP2 PUSH0 ADD SSTORE PUSH1 0x20 DUP3 ADD MLOAD DUP2 PUSH1 0x1 ADD PUSH0 PUSH2 0x100 EXP DUP2 SLOAD DUP2 PUSH20 0xFFFFFFFFFFFFFFFFFFFFFFFFFFFFFFFFFFFFFFFF MUL NOT AND SWAP1 DUP4 PUSH20 0xFFFFFFFFFFFFFFFFFFFFFFFFFFFFFFFFFFFFFFFF AND MUL OR SWAP1 SSTORE POP PUSH1 0x40 DUP3 ADD MLOAD DUP2 PUSH1 0x2 ADD SSTORE PUSH1 0x60 DUP3 ADD MLOAD DUP2 PUSH1 0x3 ADD SWAP1 DUP2 PUSH2 0x9EC SWAP2 SWAP1 PUSH2 0x2870 JUMP JUMPDEST POP PUSH1 0x80 DUP3 ADD MLOAD DUP2 PUSH1 0x4 ADD PUSH0 PUSH2 0x100 EXP DUP2 SLOAD DUP2 PUSH1 0xFF MUL NOT AND SWAP1 DUP4 ISZERO ISZERO MUL OR SWAP1 SSTORE POP SWAP1 POP POP PUSH1 0x4 PUSH1 0x2 SLOAD SWAP1 DUP1 PUSH1 0x1 DUP2 SLOAD ADD DUP1 DUP3 SSTORE DUP1 SWAP2 POP POP PUSH1 0x1 SWAP1 SUB SWAP1 PUSH0 MSTORE PUSH1 0x20 PUSH0 KECCAK256 ADD PUSH0 SWAP1 SWAP2 SWAP1 SWAP2 SWAP1 SWAP2 POP SSTORE CALLER PUSH20 0xFFFFFFFFFFFFFFFFFFFFFFFFFFFFFFFFFFFFFFFF AND PUSH32 0xCE5223D849377A0F55F7F8906570AE74F4031B0FE42160B9C14828A428447333 PUSH1 0x2 SLOAD DUP5 DUP5 PUSH1 0x40 MLOAD PUSH2 0xA83 SWAP4 SWAP3 SWAP2 SWAP1 PUSH2 0x293F JUMP JUMPDEST PUSH1 0x40 MLOAD DUP1 SWAP2 SUB SWAP1 LOG2 POP POP JUMP JUMPDEST PUSH0 DUP1 PUSH0 SWAP1 SLOAD SWAP1 PUSH2 0x100 EXP SWAP1 DIV PUSH20 0xFFFFFFFFFFFFFFFFFFFFFFFFFFFFFFFFFFFFFFFF AND SWAP1 POP SWAP1 JUMP JUMPDEST PUSH1 0x3 PUSH1 0x20 MSTORE DUP1 PUSH0 MSTORE PUSH1 0x40 PUSH0 KECCAK256 PUSH0 SWAP2 POP SWAP1 POP DUP1 PUSH0 ADD SLOAD SWAP1 DUP1 PUSH1 0x1 ADD PUSH0 SWAP1 SLOAD SWAP1 PUSH2 0x100 EXP SWAP1 DIV PUSH20 0xFFFFFFFFFFFFFFFFFFFFFFFFFFFFFFFFFFFFFFFF AND SWAP1 DUP1 PUSH1 0x2 ADD SLOAD SWAP1 DUP1 PUSH1 0x3 ADD DUP1 SLOAD PUSH2 0xB06 SWAP1 PUSH2 0x2535 JUMP JUMPDEST DUP1 PUSH1 0x1F ADD PUSH1 0x20 DUP1 SWAP2 DIV MUL PUSH1 0x20 ADD PUSH1 0x40 MLOAD SWAP1 DUP2 ADD PUSH1 0x40 MSTORE DUP1 SWAP3 SWAP2 SWAP1 DUP2 DUP2 MSTORE PUSH1 0x20 ADD DUP3 DUP1 SLOAD PUSH2 0xB32 SWAP1 PUSH2 0x2535 JUMP JUMPDEST DUP1 ISZERO PUSH2 0xB7D JUMPI DUP1 PUSH1 0x1F LT PUSH2 0xB54 JUMPI PUSH2 0x100 DUP1 DUP4 SLOAD DIV MUL DUP4 MSTORE SWAP2 PUSH1 0x20 ADD SWAP2 PUSH2 0xB7D JUMP JUMPDEST DUP3 ADD SWAP2 SWAP1 PUSH0 MSTORE PUSH1 0x20 PUSH0 KECCAK256 SWAP1 JUMPDEST DUP2 SLOAD DUP2 MSTORE SWAP1 PUSH1 0x1 ADD SWAP1 PUSH1 0x20 ADD DUP1 DUP4 GT PUSH2 0xB60 JUMPI DUP3 SWAP1 SUB PUSH1 0x1F AND DUP3 ADD SWAP2 JUMPDEST POP POP POP POP POP SWAP1 DUP1 PUSH1 0x4 ADD PUSH0 SWAP1 SLOAD SWAP1 PUSH2 0x100 EXP SWAP1 DIV PUSH1 0xFF AND SWAP1 POP DUP6 JUMP JUMPDEST PUSH1 0x2 SLOAD DUP2 JUMP JUMPDEST PUSH2 0xBA7 PUSH2 0x159D JUMP JUMPDEST PUSH0 PUSH20 0xFFFFFFFFFFFFFFFFFFFFFFFFFFFFFFFFFFFFFFFF AND DUP2 PUSH20 0xFFFFFFFFFFFFFFFFFFFFFFFFFFFFFFFFFFFFFFFF AND SUB PUSH2 0xC15 JUMPI PUSH1 0x40 MLOAD PUSH32 0x8C379A000000000000000000000000000000000000000000000000000000000 DUP2 MSTORE PUSH1 0x4 ADD PUSH2 0xC0C SWAP1 PUSH2 0x29EB JUMP JUMPDEST PUSH1 0x40 MLOAD DUP1 SWAP2 SUB SWAP1 REVERT JUMPDEST PUSH2 0xC1E DUP2 PUSH2 0x161B JUMP JUMPDEST POP JUMP JUMPDEST PUSH2 0xC29 PUSH2 0x159D JUMP JUMPDEST PUSH0 PUSH1 0x4 DUP1 SLOAD SWAP1 POP SWAP1 POP PUSH0 JUMPDEST DUP2 DUP2 LT ISZERO PUSH2 0x1599 JUMPI PUSH0 PUSH1 0x4 DUP3 DUP2 SLOAD DUP2 LT PUSH2 0xC51 JUMPI PUSH2 0xC50 PUSH2 0x2325 JUMP JUMPDEST JUMPDEST SWAP1 PUSH0 MSTORE PUSH1 0x20 PUSH0 KECCAK256 ADD SLOAD SWAP1 POP PUSH1 0x3 PUSH0 DUP3 DUP2 MSTORE PUSH1 0x20 ADD SWAP1 DUP2 MSTORE PUSH1 0x20 ADD PUSH0 KECCAK256 PUSH1 0x4 ADD PUSH0 SWAP1 SLOAD SWAP1 PUSH2 0x100 EXP SWAP1 DIV PUSH1 0xFF AND PUSH2 0xC87 JUMPI POP PUSH2 0x158C JUMP JUMPDEST PUSH0 PUSH1 0x3 PUSH0 DUP4 DUP2 MSTORE PUSH1 0x20 ADD SWAP1 DUP2 MSTORE PUSH1 0x20 ADD PUSH0 KECCAK256 SWAP1 POP PUSH0 PUSH1 0x1 PUSH0 SWAP1 SLOAD SWAP1 PUSH2 0x100 EXP SWAP1 DIV PUSH20 0xFFFFFFFFFFFFFFFFFFFFFFFFFFFFFFFFFFFFFFFF AND PUSH20 0xFFFFFFFFFFFFFFFFFFFFFFFFFFFFFFFFFFFFFFFF AND PUSH4 0xD1BE5309 DUP4 PUSH1 0x2 ADD SLOAD PUSH1 0x40 MLOAD DUP3 PUSH4 0xFFFFFFFF AND PUSH1 0xE0 SHL DUP2 MSTORE PUSH1 0x4 ADD PUSH2 0xCFA SWAP2 SWAP1 PUSH2 0x1E0C JUMP JUMPDEST PUSH0 PUSH1 0x40 MLOAD DUP1 DUP4 SUB DUP2 DUP7 GAS STATICCALL ISZERO DUP1 ISZERO PUSH2 0xD14 JUMPI RETURNDATASIZE PUSH0 DUP1 RETURNDATACOPY RETURNDATASIZE PUSH0 REVERT JUMPDEST POP POP POP POP PUSH1 0x40 MLOAD RETURNDATASIZE PUSH0 DUP3 RETURNDATACOPY RETURNDATASIZE PUSH1 0x1F NOT PUSH1 0x1F DUP3 ADD AND DUP3 ADD DUP1 PUSH1 0x40 MSTORE POP DUP2 ADD SWAP1 PUSH2 0xD3C SWAP2 SWAP1 PUSH2 0x2434 JUMP JUMPDEST POP POP POP SWAP1 POP PUSH0 PUSH1 0x1 DUP6 PUSH2 0xD4F SWAP2 SWAP1 PUSH2 0x2A09 JUMP JUMPDEST SWAP1 POP JUMPDEST DUP6 DUP2 LT ISZERO PUSH2 0x1587 JUMPI PUSH0 PUSH1 0x4 DUP3 DUP2 SLOAD DUP2 LT PUSH2 0xD6F JUMPI PUSH2 0xD6E PUSH2 0x2325 JUMP JUMPDEST JUMPDEST SWAP1 PUSH0 MSTORE PUSH1 0x20 PUSH0 KECCAK256 ADD SLOAD SWAP1 POP PUSH1 0x3 PUSH0 DUP3 DUP2 MSTORE PUSH1 0x20 ADD SWAP1 DUP2 MSTORE PUSH1 0x20 ADD PUSH0 KECCAK256 PUSH1 0x4 ADD PUSH0 SWAP1 SLOAD SWAP1 PUSH2 0x100 EXP SWAP1 DIV PUSH1 0xFF AND PUSH2 0xDA5 JUMPI POP PUSH2 0x157A JUMP JUMPDEST PUSH0 PUSH1 0x3 PUSH0 DUP4 DUP2 MSTORE PUSH1 0x20 ADD SWAP1 DUP2 MSTORE PUSH1 0x20 ADD PUSH0 KECCAK256 SWAP1 POP PUSH0 PUSH1 0x1 PUSH0 SWAP1 SLOAD SWAP1 PUSH2 0x100 EXP SWAP1 DIV PUSH20 0xFFFFFFFFFFFFFFFFFFFFFFFFFFFFFFFFFFFFFFFF AND PUSH20 0xFFFFFFFFFFFFFFFFFFFFFFFFFFFFFFFFFFFFFFFF AND PUSH4 0xD1BE5309 DUP4 PUSH1 0x2 ADD SLOAD PUSH1 0x40 MLOAD DUP3 PUSH4 0xFFFFFFFF AND PUSH1 0xE0 SHL DUP2 MSTORE PUSH1 0x4 ADD PUSH2 0xE18 SWAP2 SWAP1 PUSH2 0x1E0C JUMP JUMPDEST PUSH0 PUSH1 0x40 MLOAD DUP1 DUP4 SUB DUP2 DUP7 GAS STATICCALL ISZERO DUP1 ISZERO PUSH2 0xE32 JUMPI RETURNDATASIZE PUSH0 DUP1 RETURNDATACOPY RETURNDATASIZE PUSH0 REVERT JUMPDEST POP POP POP POP PUSH1 0x40 MLOAD RETURNDATASIZE PUSH0 DUP3 RETURNDATACOPY RETURNDATASIZE PUSH1 0x1F NOT PUSH1 0x1F DUP3 ADD AND DUP3 ADD DUP1 PUSH1 0x40 MSTORE POP DUP2 ADD SWAP1 PUSH2 0xE5A SWAP2 SWAP1 PUSH2 0x2434 JUMP JUMPDEST POP POP POP SWAP1 POP PUSH2 0xEF3 DUP7 PUSH1 0x3 ADD DUP1 SLOAD PUSH2 0xE71 SWAP1 PUSH2 0x2535 JUMP JUMPDEST DUP1 PUSH1 0x1F ADD PUSH1 0x20 DUP1 SWAP2 DIV MUL PUSH1 0x20 ADD PUSH1 0x40 MLOAD SWAP1 DUP2 ADD PUSH1 0x40 MSTORE DUP1 SWAP3 SWAP2 SWAP1 DUP2 DUP2 MSTORE PUSH1 0x20 ADD DUP3 DUP1 SLOAD PUSH2 0xE9D SWAP1 PUSH2 0x2535 JUMP JUMPDEST DUP1 ISZERO PUSH2 0xEE8 JUMPI DUP1 PUSH1 0x1F LT PUSH2 0xEBF JUMPI PUSH2 0x100 DUP1 DUP4 SLOAD DIV MUL DUP4 MSTORE SWAP2 PUSH1 0x20 ADD SWAP2 PUSH2 0xEE8 JUMP JUMPDEST DUP3 ADD SWAP2 SWAP1 PUSH0 MSTORE PUSH1 0x20 PUSH0 KECCAK256 SWAP1 JUMPDEST DUP2 SLOAD DUP2 MSTORE SWAP1 PUSH1 0x1 ADD SWAP1 PUSH1 0x20 ADD DUP1 DUP4 GT PUSH2 0xECB JUMPI DUP3 SWAP1 SUB PUSH1 0x1F AND DUP3 ADD SWAP2 JUMPDEST POP POP POP POP POP DUP3 PUSH2 0x16DC JUMP JUMPDEST DUP1 ISZERO PUSH2 0xF8F JUMPI POP PUSH2 0xF8E DUP3 PUSH1 0x3 ADD DUP1 SLOAD PUSH2 0xF0C SWAP1 PUSH2 0x2535 JUMP JUMPDEST DUP1 PUSH1 0x1F ADD PUSH1 0x20 DUP1 SWAP2 DIV MUL PUSH1 0x20 ADD PUSH1 0x40 MLOAD SWAP1 DUP2 ADD PUSH1 0x40 MSTORE DUP1 SWAP3 SWAP2 SWAP1 DUP2 DUP2 MSTORE PUSH1 0x20 ADD DUP3 DUP1 SLOAD PUSH2 0xF38 SWAP1 PUSH2 0x2535 JUMP JUMPDEST DUP1 ISZERO PUSH2 0xF83 JUMPI DUP1 PUSH1 0x1F LT PUSH2 0xF5A JUMPI PUSH2 0x100 DUP1 DUP4 SLOAD DIV MUL DUP4 MSTORE SWAP2 PUSH1 0x20 ADD SWAP2 PUSH2 0xF83 JUMP JUMPDEST DUP3 ADD SWAP2 SWAP1 PUSH0 MSTORE PUSH1 0x20 PUSH0 KECCAK256 SWAP1 JUMPDEST DUP2 SLOAD DUP2 MSTORE SWAP1 PUSH1 0x1 ADD SWAP1 PUSH1 0x20 ADD DUP1 DUP4 GT PUSH2 0xF66 JUMPI DUP3 SWAP1 SUB PUSH1 0x1F AND DUP3 ADD SWAP2 JUMPDEST POP POP POP POP POP DUP7 PUSH2 0x16DC JUMP JUMPDEST JUMPDEST ISZERO PUSH2 0x1576 JUMPI PUSH0 DUP7 PUSH1 0x1 ADD PUSH0 SWAP1 SLOAD SWAP1 PUSH2 0x100 EXP SWAP1 DIV PUSH20 0xFFFFFFFFFFFFFFFFFFFFFFFFFFFFFFFFFFFFFFFF AND SWAP1 POP PUSH0 DUP4 PUSH1 0x1 ADD PUSH0 SWAP1 SLOAD SWAP1 PUSH2 0x100 EXP SWAP1 DIV PUSH20 0xFFFFFFFFFFFFFFFFFFFFFFFFFFFFFFFFFFFFFFFF AND SWAP1 POP PUSH0 DUP9 PUSH1 0x2 ADD SLOAD SWAP1 POP PUSH0 DUP6 PUSH1 0x2 ADD SLOAD SWAP1 POP DUP4 PUSH20 0xFFFFFFFFFFFFFFFFFFFFFFFFFFFFFFFFFFFFFFFF AND PUSH1 0x1 PUSH0 SWAP1 SLOAD SWAP1 PUSH2 0x100 EXP SWAP1 DIV PUSH20 0xFFFFFFFFFFFFFFFFFFFFFFFFFFFFFFFFFFFFFFFF AND PUSH20 0xFFFFFFFFFFFFFFFFFFFFFFFFFFFFFFFFFFFFFFFF AND PUSH4 0x6352211E DUP5 PUSH1 0x40 MLOAD DUP3 PUSH4 0xFFFFFFFF AND PUSH1 0xE0 SHL DUP2 MSTORE PUSH1 0x4 ADD PUSH2 0x1063 SWAP2 SWAP1 PUSH2 0x1E0C JUMP JUMPDEST PUSH1 0x20 PUSH1 0x40 MLOAD DUP1 DUP4 SUB DUP2 DUP7 GAS STATICCALL ISZERO DUP1 ISZERO PUSH2 0x107E JUMPI RETURNDATASIZE PUSH0 DUP1 RETURNDATACOPY RETURNDATASIZE PUSH0 REVERT JUMPDEST POP POP POP POP PUSH1 0x40 MLOAD RETURNDATASIZE PUSH1 0x1F NOT PUSH1 0x1F DUP3 ADD AND DUP3 ADD DUP1 PUSH1 0x40 MSTORE POP DUP2 ADD SWAP1 PUSH2 0x10A2 SWAP2 SWAP1 PUSH2 0x2649 JUMP JUMPDEST PUSH20 0xFFFFFFFFFFFFFFFFFFFFFFFFFFFFFFFFFFFFFFFF AND EQ PUSH2 0x10F8 JUMPI PUSH1 0x40 MLOAD PUSH32 0x8C379A000000000000000000000000000000000000000000000000000000000 DUP2 MSTORE PUSH1 0x4 ADD PUSH2 0x10EF SWAP1 PUSH2 0x2A86 JUMP JUMPDEST PUSH1 0x40 MLOAD DUP1 SWAP2 SUB SWAP1 REVERT JUMPDEST DUP3 PUSH20 0xFFFFFFFFFFFFFFFFFFFFFFFFFFFFFFFFFFFFFFFF AND PUSH1 0x1 PUSH0 SWAP1 SLOAD SWAP1 PUSH2 0x100 EXP SWAP1 DIV PUSH20 0xFFFFFFFFFFFFFFFFFFFFFFFFFFFFFFFFFFFFFFFF AND PUSH20 0xFFFFFFFFFFFFFFFFFFFFFFFFFFFFFFFFFFFFFFFF AND PUSH4 0x6352211E DUP4 PUSH1 0x40 MLOAD DUP3 PUSH4 0xFFFFFFFF AND PUSH1 0xE0 SHL DUP2 MSTORE PUSH1 0x4 ADD PUSH2 0x1169 SWAP2 SWAP1 PUSH2 0x1E0C JUMP JUMPDEST PUSH1 0x20 PUSH1 0x40 MLOAD DUP1 DUP4 SUB DUP2 DUP7 GAS STATICCALL ISZERO DUP1 ISZERO PUSH2 0x1184 JUMPI RETURNDATASIZE PUSH0 DUP1 RETURNDATACOPY RETURNDATASIZE PUSH0 REVERT JUMPDEST POP POP POP POP PUSH1 0x40 MLOAD RETURNDATASIZE PUSH1 0x1F NOT PUSH1 0x1F DUP3 ADD AND DUP3 ADD DUP1 PUSH1 0x40 MSTORE POP DUP2 ADD SWAP1 PUSH2 0x11A8 SWAP2 SWAP1 PUSH2 0x2649 JUMP JUMPDEST PUSH20 0xFFFFFFFFFFFFFFFFFFFFFFFFFFFFFFFFFFFFFFFF AND EQ PUSH2 0x11FE JUMPI PUSH1 0x40 MLOAD PUSH32 0x8C379A000000000000000000000000000000000000000000000000000000000 DUP2 MSTORE PUSH1 0x4 ADD PUSH2 0x11F5 SWAP1 PUSH2 0x2AEE JUMP JUMPDEST PUSH1 0x40 MLOAD DUP1 SWAP2 SUB SWAP1 REVERT JUMPDEST PUSH2 0x1209 DUP5 DUP4 DUP4 PUSH2 0x1734 JUMP JUMPDEST DUP1 PUSH2 0x121B JUMPI POP PUSH2 0x121A DUP4 DUP3 DUP5 PUSH2 0x1734 JUMP JUMPDEST JUMPDEST DUP1 PUSH2 0x122D JUMPI POP PUSH2 0x122C DUP5 DUP4 DUP4 PUSH2 0x1905 JUMP JUMPDEST JUMPDEST DUP1 PUSH2 0x123F JUMPI POP PUSH2 0x123E DUP4 DUP3 DUP5 PUSH2 0x1905 JUMP JUMPDEST JUMPDEST ISZERO PUSH2 0x1250 JUMPI POP POP POP POP POP POP POP PUSH2 0x157A JUMP JUMPDEST PUSH1 0x1 PUSH0 SWAP1 SLOAD SWAP1 PUSH2 0x100 EXP SWAP1 DIV PUSH20 0xFFFFFFFFFFFFFFFFFFFFFFFFFFFFFFFFFFFFFFFF AND PUSH20 0xFFFFFFFFFFFFFFFFFFFFFFFFFFFFFFFFFFFFFFFF AND PUSH4 0x42842E0E DUP6 DUP6 DUP6 PUSH1 0x40 MLOAD DUP5 PUSH4 0xFFFFFFFF AND PUSH1 0xE0 SHL DUP2 MSTORE PUSH1 0x4 ADD PUSH2 0x12AE SWAP4 SWAP3 SWAP2 SWAP1 PUSH2 0x2B0C JUMP JUMPDEST PUSH0 PUSH1 0x40 MLOAD DUP1 DUP4 SUB DUP2 PUSH0 DUP8 DUP1 EXTCODESIZE ISZERO DUP1 ISZERO PUSH2 0x12C5 JUMPI PUSH0 DUP1 REVERT JUMPDEST POP GAS CALL ISZERO DUP1 ISZERO PUSH2 0x12D7 JUMPI RETURNDATASIZE PUSH0 DUP1 RETURNDATACOPY RETURNDATASIZE PUSH0 REVERT JUMPDEST POP POP POP POP PUSH1 0x1 PUSH0 SWAP1 SLOAD SWAP1 PUSH2 0x100 EXP SWAP1 DIV PUSH20 0xFFFFFFFFFFFFFFFFFFFFFFFFFFFFFFFFFFFFFFFF AND PUSH20 0xFFFFFFFFFFFFFFFFFFFFFFFFFFFFFFFFFFFFFFFF AND PUSH4 0x42842E0E DUP5 DUP7 DUP5 PUSH1 0x40 MLOAD DUP5 PUSH4 0xFFFFFFFF AND PUSH1 0xE0 SHL DUP2 MSTORE PUSH1 0x4 ADD PUSH2 0x1339 SWAP4 SWAP3 SWAP2 SWAP1 PUSH2 0x2B0C JUMP JUMPDEST PUSH0 PUSH1 0x40 MLOAD DUP1 DUP4 SUB DUP2 PUSH0 DUP8 DUP1 EXTCODESIZE ISZERO DUP1 ISZERO PUSH2 0x1350 JUMPI PUSH0 DUP1 REVERT JUMPDEST POP GAS CALL ISZERO DUP1 ISZERO PUSH2 0x1362 JUMPI RETURNDATASIZE PUSH0 DUP1 RETURNDATACOPY RETURNDATASIZE PUSH0 REVERT JUMPDEST POP POP POP POP PUSH0 DUP11 PUSH1 0x4 ADD PUSH0 PUSH2 0x100 EXP DUP2 SLOAD DUP2 PUSH1 0xFF MUL NOT AND SWAP1 DUP4 ISZERO ISZERO MUL OR SWAP1 SSTORE POP PUSH0 DUP7 PUSH1 0x4 ADD PUSH0 PUSH2 0x100 EXP DUP2 SLOAD DUP2 PUSH1 0xFF MUL NOT AND SWAP1 DUP4 ISZERO ISZERO MUL OR SWAP1 SSTORE POP PUSH32 0xABED9C2BF91A3043C0B147978B27B3272DE63D4CCDCBCB8BA15FF32B078C5BE3 DUP12 DUP9 DUP5 DUP5 PUSH1 0x40 MLOAD PUSH2 0x13D1 SWAP5 SWAP4 SWAP3 SWAP2 SWAP1 PUSH2 0x2B41 JUMP JUMPDEST PUSH1 0x40 MLOAD DUP1 SWAP2 SUB SWAP1 LOG1 PUSH0 DUP1 PUSH1 0x1 PUSH0 SWAP1 SLOAD SWAP1 PUSH2 0x100 EXP SWAP1 DIV PUSH20 0xFFFFFFFFFFFFFFFFFFFFFFFFFFFFFFFFFFFFFFFF AND PUSH20 0xFFFFFFFFFFFFFFFFFFFFFFFFFFFFFFFFFFFFFFFF AND PUSH4 0xD1BE5309 DUP6 PUSH1 0x40 MLOAD DUP3 PUSH4 0xFFFFFFFF AND PUSH1 0xE0 SHL DUP2 MSTORE PUSH1 0x4 ADD PUSH2 0x1435 SWAP2 SWAP1 PUSH2 0x1E0C JUMP JUMPDEST PUSH0 PUSH1 0x40 MLOAD DUP1 DUP4 SUB DUP2 DUP7 GAS STATICCALL ISZERO DUP1 ISZERO PUSH2 0x144F JUMPI RETURNDATASIZE PUSH0 DUP1 RETURNDATACOPY RETURNDATASIZE PUSH0 REVERT JUMPDEST POP POP POP POP PUSH1 0x40 MLOAD RETURNDATASIZE PUSH0 DUP3 RETURNDATACOPY RETURNDATASIZE PUSH1 0x1F NOT PUSH1 0x1F DUP3 ADD AND DUP3 ADD DUP1 PUSH1 0x40 MSTORE POP DUP2 ADD SWAP1 PUSH2 0x1477 SWAP2 SWAP1 PUSH2 0x2434 JUMP JUMPDEST POP POP SWAP2 POP SWAP2 POP PUSH0 DUP1 PUSH1 0x1 PUSH0 SWAP1 SLOAD SWAP1 PUSH2 0x100 EXP SWAP1 DIV PUSH20 0xFFFFFFFFFFFFFFFFFFFFFFFFFFFFFFFFFFFFFFFF AND PUSH20 0xFFFFFFFFFFFFFFFFFFFFFFFFFFFFFFFFFFFFFFFF AND PUSH4 0xD1BE5309 DUP7 PUSH1 0x40 MLOAD DUP3 PUSH4 0xFFFFFFFF AND PUSH1 0xE0 SHL DUP2 MSTORE PUSH1 0x4 ADD PUSH2 0x14D9 SWAP2 SWAP1 PUSH2 0x1E0C JUMP JUMPDEST PUSH0 PUSH1 0x40 MLOAD DUP1 DUP4 SUB DUP2 DUP7 GAS STATICCALL ISZERO DUP1 ISZERO PUSH2 0x14F3 JUMPI RETURNDATASIZE PUSH0 DUP1 RETURNDATACOPY RETURNDATASIZE PUSH0 REVERT JUMPDEST POP POP POP POP PUSH1 0x40 MLOAD RETURNDATASIZE PUSH0 DUP3 RETURNDATACOPY RETURNDATASIZE PUSH1 0x1F NOT PUSH1 0x1F DUP3 ADD AND DUP3 ADD DUP1 PUSH1 0x40 MSTORE POP DUP2 ADD SWAP1 PUSH2 0x151B SWAP2 SWAP1 PUSH2 0x2434 JUMP JUMPDEST POP POP SWAP2 POP SWAP2 POP PUSH32 0x9FE4A655C0746BEE9930F95157C5B5DD064D1694237B1A3A016A4125A579BF0B DUP16 DUP10 DUP7 DUP7 DUP16 DUP13 DUP9 DUP9 PUSH1 0x40 MLOAD PUSH2 0x155E SWAP9 SWAP8 SWAP7 SWAP6 SWAP5 SWAP4 SWAP3 SWAP2 SWAP1 PUSH2 0x2B84 JUMP JUMPDEST PUSH1 0x40 MLOAD DUP1 SWAP2 SUB SWAP1 LOG1 POP POP POP POP POP POP POP POP POP POP POP PUSH2 0x1587 JUMP JUMPDEST POP POP POP JUMPDEST DUP1 DUP1 PUSH1 0x1 ADD SWAP2 POP POP PUSH2 0xD52 JUMP JUMPDEST POP POP POP POP JUMPDEST DUP1 DUP1 PUSH1 0x1 ADD SWAP2 POP POP PUSH2 0xC34 JUMP JUMPDEST POP POP JUMP JUMPDEST PUSH2 0x15A5 PUSH2 0x1AD6 JUMP JUMPDEST PUSH20 0xFFFFFFFFFFFFFFFFFFFFFFFFFFFFFFFFFFFFFFFF AND PUSH2 0x15C3 PUSH2 0xA8F JUMP JUMPDEST PUSH20 0xFFFFFFFFFFFFFFFFFFFFFFFFFFFFFFFFFFFFFFFF AND EQ PUSH2 0x1619 JUMPI PUSH1 0x40 MLOAD PUSH32 0x8C379A000000000000000000000000000000000000000000000000000000000 DUP2 MSTORE PUSH1 0x4 ADD PUSH2 0x1610 SWAP1 PUSH2 0x2C66 JUMP JUMPDEST PUSH1 0x40 MLOAD DUP1 SWAP2 SUB SWAP1 REVERT JUMPDEST JUMP JUMPDEST PUSH0 DUP1 PUSH0 SWAP1 SLOAD SWAP1 PUSH2 0x100 EXP SWAP1 DIV PUSH20 0xFFFFFFFFFFFFFFFFFFFFFFFFFFFFFFFFFFFFFFFF AND SWAP1 POP DUP2 PUSH0 DUP1 PUSH2 0x100 EXP DUP2 SLOAD DUP2 PUSH20 0xFFFFFFFFFFFFFFFFFFFFFFFFFFFFFFFFFFFFFFFF MUL NOT AND SWAP1 DUP4 PUSH20 0xFFFFFFFFFFFFFFFFFFFFFFFFFFFFFFFFFFFFFFFF AND MUL OR SWAP1 SSTORE POP DUP2 PUSH20 0xFFFFFFFFFFFFFFFFFFFFFFFFFFFFFFFFFFFFFFFF AND DUP2 PUSH20 0xFFFFFFFFFFFFFFFFFFFFFFFFFFFFFFFFFFFFFFFF AND PUSH32 0x8BE0079C531659141344CD1FD0A4F28419497F9722A3DAAFE3B4186F6B6457E0 PUSH1 0x40 MLOAD PUSH1 0x40 MLOAD DUP1 SWAP2 SUB SWAP1 LOG3 POP POP JUMP JUMPDEST PUSH0 DUP2 PUSH1 0x40 MLOAD PUSH1 0x20 ADD PUSH2 0x16EE SWAP2 SWAP1 PUSH2 0x2CBE JUMP JUMPDEST PUSH1 0x40 MLOAD PUSH1 0x20 DUP2 DUP4 SUB SUB DUP2 MSTORE SWAP1 PUSH1 0x40 MSTORE DUP1 MLOAD SWAP1 PUSH1 0x20 ADD KECCAK256 DUP4 PUSH1 0x40 MLOAD PUSH1 0x20 ADD PUSH2 0x1715 SWAP2 SWAP1 PUSH2 0x2CBE JUMP JUMPDEST PUSH1 0x40 MLOAD PUSH1 0x20 DUP2 DUP4 SUB SUB DUP2 MSTORE SWAP1 PUSH1 0x40 MSTORE DUP1 MLOAD SWAP1 PUSH1 0x20 ADD KECCAK256 EQ SWAP1 POP SWAP3 SWAP2 POP POP JUMP JUMPDEST PUSH0 DUP1 PUSH2 0x173F DUP6 PUSH2 0x1ADD JUMP JUMPDEST SWAP1 POP PUSH0 PUSH1 0x1 PUSH0 SWAP1 SLOAD SWAP1 PUSH2 0x100 EXP SWAP1 DIV PUSH20 0xFFFFFFFFFFFFFFFFFFFFFFFFFFFFFFFFFFFFFFFF AND PUSH20 0xFFFFFFFFFFFFFFFFFFFFFFFFFFFFFFFFFFFFFFFF AND PUSH4 0xD1BE5309 DUP6 PUSH1 0x40 MLOAD DUP3 PUSH4 0xFFFFFFFF AND PUSH1 0xE0 SHL DUP2 MSTORE PUSH1 0x4 ADD PUSH2 0x179C SWAP2 SWAP1 PUSH2 0x1E0C JUMP JUMPDEST PUSH0 PUSH1 0x40 MLOAD DUP1 DUP4 SUB DUP2 DUP7 GAS STATICCALL ISZERO DUP1 ISZERO PUSH2 0x17B6 JUMPI RETURNDATASIZE PUSH0 DUP1 RETURNDATACOPY RETURNDATASIZE PUSH0 REVERT JUMPDEST POP POP POP POP PUSH1 0x40 MLOAD RETURNDATASIZE PUSH0 DUP3 RETURNDATACOPY RETURNDATASIZE PUSH1 0x1F NOT PUSH1 0x1F DUP3 ADD AND DUP3 ADD DUP1 PUSH1 0x40 MSTORE POP DUP2 ADD SWAP1 PUSH2 0x17DE SWAP2 SWAP1 PUSH2 0x2434 JUMP JUMPDEST POP SWAP3 POP POP POP PUSH0 JUMPDEST DUP3 MLOAD DUP2 LT ISZERO PUSH2 0x18F7 JUMPI DUP6 DUP4 DUP3 DUP2 MLOAD DUP2 LT PUSH2 0x1802 JUMPI PUSH2 0x1801 PUSH2 0x2325 JUMP JUMPDEST JUMPDEST PUSH1 0x20 MUL PUSH1 0x20 ADD ADD MLOAD SUB ISZERO PUSH2 0x18EA JUMPI PUSH0 PUSH1 0x1 PUSH0 SWAP1 SLOAD SWAP1 PUSH2 0x100 EXP SWAP1 DIV PUSH20 0xFFFFFFFFFFFFFFFFFFFFFFFFFFFFFFFFFFFFFFFF AND PUSH20 0xFFFFFFFFFFFFFFFFFFFFFFFFFFFFFFFFFFFFFFFF AND PUSH4 0xD1BE5309 DUP6 DUP5 DUP2 MLOAD DUP2 LT PUSH2 0x1861 JUMPI PUSH2 0x1860 PUSH2 0x2325 JUMP JUMPDEST JUMPDEST PUSH1 0x20 MUL PUSH1 0x20 ADD ADD MLOAD PUSH1 0x40 MLOAD DUP3 PUSH4 0xFFFFFFFF AND PUSH1 0xE0 SHL DUP2 MSTORE PUSH1 0x4 ADD PUSH2 0x1885 SWAP2 SWAP1 PUSH2 0x1E0C JUMP JUMPDEST PUSH0 PUSH1 0x40 MLOAD DUP1 DUP4 SUB DUP2 DUP7 GAS STATICCALL ISZERO DUP1 ISZERO PUSH2 0x189F JUMPI RETURNDATASIZE PUSH0 DUP1 RETURNDATACOPY RETURNDATASIZE PUSH0 REVERT JUMPDEST POP POP POP POP PUSH1 0x40 MLOAD RETURNDATASIZE PUSH0 DUP3 RETURNDATACOPY RETURNDATASIZE PUSH1 0x1F NOT PUSH1 0x1F DUP3 ADD AND DUP3 ADD DUP1 PUSH1 0x40 MSTORE POP DUP2 ADD SWAP1 PUSH2 0x18C7 SWAP2 SWAP1 PUSH2 0x2434 JUMP JUMPDEST POP SWAP3 POP POP POP PUSH2 0x18D6 DUP2 DUP5 PUSH2 0x16DC JUMP JUMPDEST ISZERO PUSH2 0x18E8 JUMPI PUSH1 0x1 SWAP5 POP POP POP POP POP PUSH2 0x18FE JUMP JUMPDEST POP JUMPDEST DUP1 DUP1 PUSH1 0x1 ADD SWAP2 POP POP PUSH2 0x17E5 JUMP JUMPDEST POP PUSH0 SWAP3 POP POP POP JUMPDEST SWAP4 SWAP3 POP POP POP JUMP JUMPDEST PUSH0 DUP1 PUSH2 0x1910 DUP6 PUSH2 0x1ADD JUMP JUMPDEST SWAP1 POP PUSH0 PUSH1 0x1 PUSH0 SWAP1 SLOAD SWAP1 PUSH2 0x100 EXP SWAP1 DIV PUSH20 0xFFFFFFFFFFFFFFFFFFFFFFFFFFFFFFFFFFFFFFFF AND PUSH20 0xFFFFFFFFFFFFFFFFFFFFFFFFFFFFFFFFFFFFFFFF AND PUSH4 0xD1BE5309 DUP6 PUSH1 0x40 MLOAD DUP3 PUSH4 0xFFFFFFFF AND PUSH1 0xE0 SHL DUP2 MSTORE PUSH1 0x4 ADD PUSH2 0x196D SWAP2 SWAP1 PUSH2 0x1E0C JUMP JUMPDEST PUSH0 PUSH1 0x40 MLOAD DUP1 DUP4 SUB DUP2 DUP7 GAS STATICCALL ISZERO DUP1 ISZERO PUSH2 0x1987 JUMPI RETURNDATASIZE PUSH0 DUP1 RETURNDATACOPY RETURNDATASIZE PUSH0 REVERT JUMPDEST POP POP POP POP PUSH1 0x40 MLOAD RETURNDATASIZE PUSH0 DUP3 RETURNDATACOPY RETURNDATASIZE PUSH1 0x1F NOT PUSH1 0x1F DUP3 ADD AND DUP3 ADD DUP1 PUSH1 0x40 MSTORE POP DUP2 ADD SWAP1 PUSH2 0x19AF SWAP2 SWAP1 PUSH2 0x2434 JUMP JUMPDEST POP POP POP SWAP1 POP PUSH0 JUMPDEST DUP3 MLOAD DUP2 LT ISZERO PUSH2 0x1AC8 JUMPI DUP6 DUP4 DUP3 DUP2 MLOAD DUP2 LT PUSH2 0x19D3 JUMPI PUSH2 0x19D2 PUSH2 0x2325 JUMP JUMPDEST JUMPDEST PUSH1 0x20 MUL PUSH1 0x20 ADD ADD MLOAD SUB ISZERO PUSH2 0x1ABB JUMPI PUSH0 PUSH1 0x1 PUSH0 SWAP1 SLOAD SWAP1 PUSH2 0x100 EXP SWAP1 DIV PUSH20 0xFFFFFFFFFFFFFFFFFFFFFFFFFFFFFFFFFFFFFFFF AND PUSH20 0xFFFFFFFFFFFFFFFFFFFFFFFFFFFFFFFFFFFFFFFF AND PUSH4 0xD1BE5309 DUP6 DUP5 DUP2 MLOAD DUP2 LT PUSH2 0x1A32 JUMPI PUSH2 0x1A31 PUSH2 0x2325 JUMP JUMPDEST JUMPDEST PUSH1 0x20 MUL PUSH1 0x20 ADD ADD MLOAD PUSH1 0x40 MLOAD DUP3 PUSH4 0xFFFFFFFF AND PUSH1 0xE0 SHL DUP2 MSTORE PUSH1 0x4 ADD PUSH2 0x1A56 SWAP2 SWAP1 PUSH2 0x1E0C JUMP JUMPDEST PUSH0 PUSH1 0x40 MLOAD DUP1 DUP4 SUB DUP2 DUP7 GAS STATICCALL ISZERO DUP1 ISZERO PUSH2 0x1A70 JUMPI RETURNDATASIZE PUSH0 DUP1 RETURNDATACOPY RETURNDATASIZE PUSH0 REVERT JUMPDEST POP POP POP POP PUSH1 0x40 MLOAD RETURNDATASIZE PUSH0 DUP3 RETURNDATACOPY RETURNDATASIZE PUSH1 0x1F NOT PUSH1 0x1F DUP3 ADD AND DUP3 ADD DUP1 PUSH1 0x40 MSTORE POP DUP2 ADD SWAP1 PUSH2 0x1A98 SWAP2 SWAP1 PUSH2 0x2434 JUMP JUMPDEST POP POP POP SWAP1 POP PUSH2 0x1AA7 DUP2 DUP5 PUSH2 0x16DC JUMP JUMPDEST ISZERO PUSH2 0x1AB9 JUMPI PUSH1 0x1 SWAP5 POP POP POP POP POP PUSH2 0x1ACF JUMP JUMPDEST POP JUMPDEST DUP1 DUP1 PUSH1 0x1 ADD SWAP2 POP POP PUSH2 0x19B6 JUMP JUMPDEST POP PUSH0 SWAP3 POP POP POP JUMPDEST SWAP4 SWAP3 POP POP POP JUMP JUMPDEST PUSH0 CALLER SWAP1 POP SWAP1 JUMP JUMPDEST PUSH1 0x60 PUSH0 PUSH1 0x1 PUSH0 SWAP1 SLOAD SWAP1 PUSH2 0x100 EXP SWAP1 DIV PUSH20 0xFFFFFFFFFFFFFFFFFFFFFFFFFFFFFFFFFFFFFFFF AND PUSH20 0xFFFFFFFFFFFFFFFFFFFFFFFFFFFFFFFFFFFFFFFF AND PUSH4 0x70A08231 DUP5 PUSH1 0x40 MLOAD DUP3 PUSH4 0xFFFFFFFF AND PUSH1 0xE0 SHL DUP2 MSTORE PUSH1 0x4 ADD PUSH2 0x1B3A SWAP2 SWAP1 PUSH2 0x21FD JUMP JUMPDEST PUSH1 0x20 PUSH1 0x40 MLOAD DUP1 DUP4 SUB DUP2 DUP7 GAS STATICCALL ISZERO DUP1 ISZERO PUSH2 0x1B55 JUMPI RETURNDATASIZE PUSH0 DUP1 RETURNDATACOPY RETURNDATASIZE PUSH0 REVERT JUMPDEST POP POP POP POP PUSH1 0x40 MLOAD RETURNDATASIZE PUSH1 0x1F NOT PUSH1 0x1F DUP3 ADD AND DUP3 ADD DUP1 PUSH1 0x40 MSTORE POP DUP2 ADD SWAP1 PUSH2 0x1B79 SWAP2 SWAP1 PUSH2 0x2CE8 JUMP JUMPDEST SWAP1 POP PUSH0 DUP2 PUSH8 0xFFFFFFFFFFFFFFFF DUP2 GT ISZERO PUSH2 0x1B96 JUMPI PUSH2 0x1B95 PUSH2 0x2070 JUMP JUMPDEST JUMPDEST PUSH1 0x40 MLOAD SWAP1 DUP1 DUP3 MSTORE DUP1 PUSH1 0x20 MUL PUSH1 0x20 ADD DUP3 ADD PUSH1 0x40 MSTORE DUP1 ISZERO PUSH2 0x1BC4 JUMPI DUP2 PUSH1 0x20 ADD PUSH1 0x20 DUP3 MUL DUP1 CALLDATASIZE DUP4 CALLDATACOPY DUP1 DUP3 ADD SWAP2 POP POP SWAP1 POP JUMPDEST POP SWAP1 POP PUSH0 JUMPDEST DUP3 DUP2 LT ISZERO PUSH2 0x1C98 JUMPI PUSH1 0x1 PUSH0 SWAP1 SLOAD SWAP1 PUSH2 0x100 EXP SWAP1 DIV PUSH20 0xFFFFFFFFFFFFFFFFFFFFFFFFFFFFFFFFFFFFFFFF AND PUSH20 0xFFFFFFFFFFFFFFFFFFFFFFFFFFFFFFFFFFFFFFFF AND PUSH4 0x2F745C59 DUP7 DUP4 PUSH1 0x40 MLOAD DUP4 PUSH4 0xFFFFFFFF AND PUSH1 0xE0 SHL DUP2 MSTORE PUSH1 0x4 ADD PUSH2 0x1C2D SWAP3 SWAP2 SWAP1 PUSH2 0x2D13 JUMP JUMPDEST PUSH1 0x20 PUSH1 0x40 MLOAD DUP1 DUP4 SUB DUP2 DUP7 GAS STATICCALL ISZERO DUP1 ISZERO PUSH2 0x1C48 JUMPI RETURNDATASIZE PUSH0 DUP1 RETURNDATACOPY RETURNDATASIZE PUSH0 REVERT JUMPDEST POP POP POP POP PUSH1 0x40 MLOAD RETURNDATASIZE PUSH1 0x1F NOT PUSH1 0x1F DUP3 ADD AND DUP3 ADD DUP1 PUSH1 0x40 MSTORE POP DUP2 ADD SWAP1 PUSH2 0x1C6C SWAP2 SWAP1 PUSH2 0x2CE8 JUMP JUMPDEST DUP3 DUP3 DUP2 MLOAD DUP2 LT PUSH2 0x1C7F JUMPI PUSH2 0x1C7E PUSH2 0x2325 JUMP JUMPDEST JUMPDEST PUSH1 0x20 MUL PUSH1 0x20 ADD ADD DUP2 DUP2 MSTORE POP POP DUP1 DUP1 PUSH1 0x1 ADD SWAP2 POP POP PUSH2 0x1BC9 JUMP JUMPDEST POP DUP1 SWAP3 POP POP POP SWAP2 SWAP1 POP JUMP JUMPDEST PUSH1 0x40 MLOAD DUP1 PUSH2 0x100 ADD PUSH1 0x40 MSTORE DUP1 PUSH0 DUP2 MSTORE PUSH1 0x20 ADD PUSH0 PUSH20 0xFFFFFFFFFFFFFFFFFFFFFFFFFFFFFFFFFFFFFFFF AND DUP2 MSTORE PUSH1 0x20 ADD PUSH0 DUP2 MSTORE PUSH1 0x20 ADD PUSH1 0x60 DUP2 MSTORE PUSH1 0x20 ADD PUSH1 0x60 DUP2 MSTORE PUSH1 0x20 ADD PUSH1 0x60 DUP2 MSTORE PUSH1 0x20 ADD PUSH1 0x60 DUP2 MSTORE PUSH1 0x20 ADD PUSH1 0x60 DUP2 MSTORE POP SWAP1 JUMP JUMPDEST PUSH0 PUSH20 0xFFFFFFFFFFFFFFFFFFFFFFFFFFFFFFFFFFFFFFFF DUP3 AND SWAP1 POP SWAP2 SWAP1 POP JUMP JUMPDEST PUSH0 DUP2 SWAP1 POP SWAP2 SWAP1 POP JUMP JUMPDEST PUSH0 PUSH2 0x1D3D PUSH2 0x1D38 PUSH2 0x1D33 DUP5 PUSH2 0x1CFB JUMP JUMPDEST PUSH2 0x1D1A JUMP JUMPDEST PUSH2 0x1CFB JUMP JUMPDEST SWAP1 POP SWAP2 SWAP1 POP JUMP JUMPDEST PUSH0 PUSH2 0x1D4E DUP3 PUSH2 0x1D23 JUMP JUMPDEST SWAP1 POP SWAP2 SWAP1 POP JUMP JUMPDEST PUSH0 PUSH2 0x1D5F DUP3 PUSH2 0x1D44 JUMP JUMPDEST SWAP1 POP SWAP2 SWAP1 POP JUMP JUMPDEST PUSH2 0x1D6F DUP2 PUSH2 0x1D55 JUMP JUMPDEST DUP3 MSTORE POP POP JUMP JUMPDEST PUSH0 PUSH1 0x20 DUP3 ADD SWAP1 POP PUSH2 0x1D88 PUSH0 DUP4 ADD DUP5 PUSH2 0x1D66 JUMP JUMPDEST SWAP3 SWAP2 POP POP JUMP JUMPDEST PUSH0 PUSH1 0x40 MLOAD SWAP1 POP SWAP1 JUMP JUMPDEST PUSH0 DUP1 REVERT JUMPDEST PUSH0 DUP1 REVERT JUMPDEST PUSH0 DUP2 SWAP1 POP SWAP2 SWAP1 POP JUMP JUMPDEST PUSH2 0x1DB1 DUP2 PUSH2 0x1D9F JUMP JUMPDEST DUP2 EQ PUSH2 0x1DBB JUMPI PUSH0 DUP1 REVERT JUMPDEST POP JUMP JUMPDEST PUSH0 DUP2 CALLDATALOAD SWAP1 POP PUSH2 0x1DCC DUP2 PUSH2 0x1DA8 JUMP JUMPDEST SWAP3 SWAP2 POP POP JUMP JUMPDEST PUSH0 PUSH1 0x20 DUP3 DUP5 SUB SLT ISZERO PUSH2 0x1DE7 JUMPI PUSH2 0x1DE6 PUSH2 0x1D97 JUMP JUMPDEST JUMPDEST PUSH0 PUSH2 0x1DF4 DUP5 DUP3 DUP6 ADD PUSH2 0x1DBE JUMP JUMPDEST SWAP2 POP POP SWAP3 SWAP2 POP POP JUMP JUMPDEST PUSH2 0x1E06 DUP2 PUSH2 0x1D9F JUMP JUMPDEST DUP3 MSTORE POP POP JUMP JUMPDEST PUSH0 PUSH1 0x20 DUP3 ADD SWAP1 POP PUSH2 0x1E1F PUSH0 DUP4 ADD DUP5 PUSH2 0x1DFD JUMP JUMPDEST SWAP3 SWAP2 POP POP JUMP JUMPDEST PUSH0 DUP2 MLOAD SWAP1 POP SWAP2 SWAP1 POP JUMP JUMPDEST PUSH0 DUP3 DUP3 MSTORE PUSH1 0x20 DUP3 ADD SWAP1 POP SWAP3 SWAP2 POP POP JUMP JUMPDEST PUSH0 DUP2 SWAP1 POP PUSH1 0x20 DUP3 ADD SWAP1 POP SWAP2 SWAP1 POP JUMP JUMPDEST PUSH2 0x1E57 DUP2 PUSH2 0x1D9F JUMP JUMPDEST DUP3 MSTORE POP POP JUMP JUMPDEST PUSH0 PUSH2 0x1E67 DUP3 PUSH2 0x1CFB JUMP JUMPDEST SWAP1 POP SWAP2 SWAP1 POP JUMP JUMPDEST PUSH2 0x1E77 DUP2 PUSH2 0x1E5D JUMP JUMPDEST DUP3 MSTORE POP POP JUMP JUMPDEST PUSH0 DUP2 MLOAD SWAP1 POP SWAP2 SWAP1 POP JUMP JUMPDEST PUSH0 DUP3 DUP3 MSTORE PUSH1 0x20 DUP3 ADD SWAP1 POP SWAP3 SWAP2 POP POP JUMP JUMPDEST DUP3 DUP2 DUP4 MCOPY PUSH0 DUP4 DUP4 ADD MSTORE POP POP POP JUMP JUMPDEST PUSH0 PUSH1 0x1F NOT PUSH1 0x1F DUP4 ADD AND SWAP1 POP SWAP2 SWAP1 POP JUMP JUMPDEST PUSH0 PUSH2 0x1EBF DUP3 PUSH2 0x1E7D JUMP JUMPDEST PUSH2 0x1EC9 DUP2 DUP6 PUSH2 0x1E87 JUMP JUMPDEST SWAP4 POP PUSH2 0x1ED9 DUP2 DUP6 PUSH1 0x20 DUP7 ADD PUSH2 0x1E97 JUMP JUMPDEST PUSH2 0x1EE2 DUP2 PUSH2 0x1EA5 JUMP JUMPDEST DUP5 ADD SWAP2 POP POP SWAP3 SWAP2 POP POP JUMP JUMPDEST PUSH0 PUSH2 0x100 DUP4 ADD PUSH0 DUP4 ADD MLOAD PUSH2 0x1F03 PUSH0 DUP7 ADD DUP3 PUSH2 0x1E4E JUMP JUMPDEST POP PUSH1 0x20 DUP4 ADD MLOAD PUSH2 0x1F16 PUSH1 0x20 DUP7 ADD DUP3 PUSH2 0x1E6E JUMP JUMPDEST POP PUSH1 0x40 DUP4 ADD MLOAD PUSH2 0x1F29 PUSH1 0x40 DUP7 ADD DUP3 PUSH2 0x1E4E JUMP JUMPDEST POP PUSH1 0x60 DUP4 ADD MLOAD DUP5 DUP3 SUB PUSH1 0x60 DUP7 ADD MSTORE PUSH2 0x1F41 DUP3 DUP3 PUSH2 0x1EB5 JUMP JUMPDEST SWAP2 POP POP PUSH1 0x80 DUP4 ADD MLOAD DUP5 DUP3 SUB PUSH1 0x80 DUP7 ADD MSTORE PUSH2 0x1F5B DUP3 DUP3 PUSH2 0x1EB5 JUMP JUMPDEST SWAP2 POP POP PUSH1 0xA0 DUP4 ADD MLOAD DUP5 DUP3 SUB PUSH1 0xA0 DUP7 ADD MSTORE PUSH2 0x1F75 DUP3 DUP3 PUSH2 0x1EB5 JUMP JUMPDEST SWAP2 POP POP PUSH1 0xC0 DUP4 ADD MLOAD DUP5 DUP3 SUB PUSH1 0xC0 DUP7 ADD MSTORE PUSH2 0x1F8F DUP3 DUP3 PUSH2 0x1EB5 JUMP JUMPDEST SWAP2 POP POP PUSH1 0xE0 DUP4 ADD MLOAD DUP5 DUP3 SUB PUSH1 0xE0 DUP7 ADD MSTORE PUSH2 0x1FA9 DUP3 DUP3 PUSH2 0x1EB5 JUMP JUMPDEST SWAP2 POP POP DUP1 SWAP2 POP POP SWAP3 SWAP2 POP POP JUMP JUMPDEST PUSH0 PUSH2 0x1FC1 DUP4 DUP4 PUSH2 0x1EED JUMP JUMPDEST SWAP1 POP SWAP3 SWAP2 POP POP JUMP JUMPDEST PUSH0 PUSH1 0x20 DUP3 ADD SWAP1 POP SWAP2 SWAP1 POP JUMP JUMPDEST PUSH0 PUSH2 0x1FDF DUP3 PUSH2 0x1E25 JUMP JUMPDEST PUSH2 0x1FE9 DUP2 DUP6 PUSH2 0x1E2F JUMP JUMPDEST SWAP4 POP DUP4 PUSH1 0x20 DUP3 MUL DUP6 ADD PUSH2 0x1FFB DUP6 PUSH2 0x1E3F JUMP JUMPDEST DUP1 PUSH0 JUMPDEST DUP6 DUP2 LT ISZERO PUSH2 0x2036 JUMPI DUP5 DUP5 SUB DUP10 MSTORE DUP2 MLOAD PUSH2 0x2017 DUP6 DUP3 PUSH2 0x1FB6 JUMP JUMPDEST SWAP5 POP PUSH2 0x2022 DUP4 PUSH2 0x1FC9 JUMP JUMPDEST SWAP3 POP PUSH1 0x20 DUP11 ADD SWAP10 POP POP PUSH1 0x1 DUP2 ADD SWAP1 POP PUSH2 0x1FFE JUMP JUMPDEST POP DUP3 SWAP8 POP DUP8 SWAP6 POP POP POP POP POP POP SWAP3 SWAP2 POP POP JUMP JUMPDEST PUSH0 PUSH1 0x20 DUP3 ADD SWAP1 POP DUP2 DUP2 SUB PUSH0 DUP4 ADD MSTORE PUSH2 0x2060 DUP2 DUP5 PUSH2 0x1FD5 JUMP JUMPDEST SWAP1 POP SWAP3 SWAP2 POP POP JUMP JUMPDEST PUSH0 DUP1 REVERT JUMPDEST PUSH0 DUP1 REVERT JUMPDEST PUSH32 0x4E487B7100000000000000000000000000000000000000000000000000000000 PUSH0 MSTORE PUSH1 0x41 PUSH1 0x4 MSTORE PUSH1 0x24 PUSH0 REVERT JUMPDEST PUSH2 0x20A6 DUP3 PUSH2 0x1EA5 JUMP JUMPDEST DUP2 ADD DUP2 DUP2 LT PUSH8 0xFFFFFFFFFFFFFFFF DUP3 GT OR ISZERO PUSH2 0x20C5 JUMPI PUSH2 0x20C4 PUSH2 0x2070 JUMP JUMPDEST JUMPDEST DUP1 PUSH1 0x40 MSTORE POP POP POP JUMP JUMPDEST PUSH0 PUSH2 0x20D7 PUSH2 0x1D8E JUMP JUMPDEST SWAP1 POP PUSH2 0x20E3 DUP3 DUP3 PUSH2 0x209D JUMP JUMPDEST SWAP2 SWAP1 POP JUMP JUMPDEST PUSH0 PUSH8 0xFFFFFFFFFFFFFFFF DUP3 GT ISZERO PUSH2 0x2102 JUMPI PUSH2 0x2101 PUSH2 0x2070 JUMP JUMPDEST JUMPDEST PUSH2 0x210B DUP3 PUSH2 0x1EA5 JUMP JUMPDEST SWAP1 POP PUSH1 0x20 DUP2 ADD SWAP1 POP SWAP2 SWAP1 POP JUMP JUMPDEST DUP3 DUP2 DUP4 CALLDATACOPY PUSH0 DUP4 DUP4 ADD MSTORE POP POP POP JUMP JUMPDEST PUSH0 PUSH2 0x2138 PUSH2 0x2133 DUP5 PUSH2 0x20E8 JUMP JUMPDEST PUSH2 0x20CE JUMP JUMPDEST SWAP1 POP DUP3 DUP2 MSTORE PUSH1 0x20 DUP2 ADD DUP5 DUP5 DUP5 ADD GT ISZERO PUSH2 0x2154 JUMPI PUSH2 0x2153 PUSH2 0x206C JUMP JUMPDEST JUMPDEST PUSH2 0x215F DUP5 DUP3 DUP6 PUSH2 0x2118 JUMP JUMPDEST POP SWAP4 SWAP3 POP POP POP JUMP JUMPDEST PUSH0 DUP3 PUSH1 0x1F DUP4 ADD SLT PUSH2 0x217B JUMPI PUSH2 0x217A PUSH2 0x2068 JUMP JUMPDEST JUMPDEST DUP2 CALLDATALOAD PUSH2 0x218B DUP5 DUP3 PUSH1 0x20 DUP7 ADD PUSH2 0x2126 JUMP JUMPDEST SWAP2 POP POP SWAP3 SWAP2 POP POP JUMP JUMPDEST PUSH0 DUP1 PUSH1 0x40 DUP4 DUP6 SUB SLT ISZERO PUSH2 0x21AA JUMPI PUSH2 0x21A9 PUSH2 0x1D97 JUMP JUMPDEST JUMPDEST PUSH0 PUSH2 0x21B7 DUP6 DUP3 DUP7 ADD PUSH2 0x1DBE JUMP JUMPDEST SWAP3 POP POP PUSH1 0x20 DUP4 ADD CALLDATALOAD PUSH8 0xFFFFFFFFFFFFFFFF DUP2 GT ISZERO PUSH2 0x21D8 JUMPI PUSH2 0x21D7 PUSH2 0x1D9B JUMP JUMPDEST JUMPDEST PUSH2 0x21E4 DUP6 DUP3 DUP7 ADD PUSH2 0x2167 JUMP JUMPDEST SWAP2 POP POP SWAP3 POP SWAP3 SWAP1 POP JUMP JUMPDEST PUSH2 0x21F7 DUP2 PUSH2 0x1E5D JUMP JUMPDEST DUP3 MSTORE POP POP JUMP JUMPDEST PUSH0 PUSH1 0x20 DUP3 ADD SWAP1 POP PUSH2 0x2210 PUSH0 DUP4 ADD DUP5 PUSH2 0x21EE JUMP JUMPDEST SWAP3 SWAP2 POP POP JUMP JUMPDEST PUSH0 DUP3 DUP3 MSTORE PUSH1 0x20 DUP3 ADD SWAP1 POP SWAP3 SWAP2 POP POP JUMP JUMPDEST PUSH0 PUSH2 0x2230 DUP3 PUSH2 0x1E7D JUMP JUMPDEST PUSH2 0x223A DUP2 DUP6 PUSH2 0x2216 JUMP JUMPDEST SWAP4 POP PUSH2 0x224A DUP2 DUP6 PUSH1 0x20 DUP7 ADD PUSH2 0x1E97 JUMP JUMPDEST PUSH2 0x2253 DUP2 PUSH2 0x1EA5 JUMP JUMPDEST DUP5 ADD SWAP2 POP POP SWAP3 SWAP2 POP POP JUMP JUMPDEST PUSH0 DUP2 ISZERO ISZERO SWAP1 POP SWAP2 SWAP1 POP JUMP JUMPDEST PUSH2 0x2272 DUP2 PUSH2 0x225E JUMP JUMPDEST DUP3 MSTORE POP POP JUMP JUMPDEST PUSH0 PUSH1 0xA0 DUP3 ADD SWAP1 POP PUSH2 0x228B PUSH0 DUP4 ADD DUP9 PUSH2 0x1DFD JUMP JUMPDEST PUSH2 0x2298 PUSH1 0x20 DUP4 ADD DUP8 PUSH2 0x21EE JUMP JUMPDEST PUSH2 0x22A5 PUSH1 0x40 DUP4 ADD DUP7 PUSH2 0x1DFD JUMP JUMPDEST DUP2 DUP2 SUB PUSH1 0x60 DUP4 ADD MSTORE PUSH2 0x22B7 DUP2 DUP6 PUSH2 0x2226 JUMP JUMPDEST SWAP1 POP PUSH2 0x22C6 PUSH1 0x80 DUP4 ADD DUP5 PUSH2 0x2269 JUMP JUMPDEST SWAP7 SWAP6 POP POP POP POP POP POP JUMP JUMPDEST PUSH2 0x22D9 DUP2 PUSH2 0x1E5D JUMP JUMPDEST DUP2 EQ PUSH2 0x22E3 JUMPI PUSH0 DUP1 REVERT JUMPDEST POP JUMP JUMPDEST PUSH0 DUP2 CALLDATALOAD SWAP1 POP PUSH2 0x22F4 DUP2 PUSH2 0x22D0 JUMP JUMPDEST SWAP3 SWAP2 POP POP JUMP JUMPDEST PUSH0 PUSH1 0x20 DUP3 DUP5 SUB SLT ISZERO PUSH2 0x230F JUMPI PUSH2 0x230E PUSH2 0x1D97 JUMP JUMPDEST JUMPDEST PUSH0 PUSH2 0x231C DUP5 DUP3 DUP6 ADD PUSH2 0x22E6 JUMP JUMPDEST SWAP2 POP POP SWAP3 SWAP2 POP POP JUMP JUMPDEST PUSH32 0x4E487B7100000000000000000000000000000000000000000000000000000000 PUSH0 MSTORE PUSH1 0x32 PUSH1 0x4 MSTORE PUSH1 0x24 PUSH0 REVERT JUMPDEST PUSH32 0x4E487B7100000000000000000000000000000000000000000000000000000000 PUSH0 MSTORE PUSH1 0x11 PUSH1 0x4 MSTORE PUSH1 0x24 PUSH0 REVERT JUMPDEST PUSH0 PUSH2 0x2389 DUP3 PUSH2 0x1D9F JUMP JUMPDEST SWAP2 POP PUSH32 0xFFFFFFFFFFFFFFFFFFFFFFFFFFFFFFFFFFFFFFFFFFFFFFFFFFFFFFFFFFFFFFFF DUP3 SUB PUSH2 0x23BB JUMPI PUSH2 0x23BA PUSH2 0x2352 JUMP JUMPDEST JUMPDEST PUSH1 0x1 DUP3 ADD SWAP1 POP SWAP2 SWAP1 POP JUMP JUMPDEST PUSH0 PUSH2 0x23D8 PUSH2 0x23D3 DUP5 PUSH2 0x20E8 JUMP JUMPDEST PUSH2 0x20CE JUMP JUMPDEST SWAP1 POP DUP3 DUP2 MSTORE PUSH1 0x20 DUP2 ADD DUP5 DUP5 DUP5 ADD GT ISZERO PUSH2 0x23F4 JUMPI PUSH2 0x23F3 PUSH2 0x206C JUMP JUMPDEST JUMPDEST PUSH2 0x23FF DUP5 DUP3 DUP6 PUSH2 0x1E97 JUMP JUMPDEST POP SWAP4 SWAP3 POP POP POP JUMP JUMPDEST PUSH0 DUP3 PUSH1 0x1F DUP4 ADD SLT PUSH2 0x241B JUMPI PUSH2 0x241A PUSH2 0x2068 JUMP JUMPDEST JUMPDEST DUP2 MLOAD PUSH2 0x242B DUP5 DUP3 PUSH1 0x20 DUP7 ADD PUSH2 0x23C6 JUMP JUMPDEST SWAP2 POP POP SWAP3 SWAP2 POP POP JUMP JUMPDEST PUSH0 DUP1 PUSH0 DUP1 PUSH1 0x80 DUP6 DUP8 SUB SLT ISZERO PUSH2 0x244C JUMPI PUSH2 0x244B PUSH2 0x1D97 JUMP JUMPDEST JUMPDEST PUSH0 DUP6 ADD MLOAD PUSH8 0xFFFFFFFFFFFFFFFF DUP2 GT ISZERO PUSH2 0x2469 JUMPI PUSH2 0x2468 PUSH2 0x1D9B JUMP JUMPDEST JUMPDEST PUSH2 0x2475 DUP8 DUP3 DUP9 ADD PUSH2 0x2407 JUMP JUMPDEST SWAP5 POP POP PUSH1 0x20 DUP6 ADD MLOAD PUSH8 0xFFFFFFFFFFFFFFFF DUP2 GT ISZERO PUSH2 0x2496 JUMPI PUSH2 0x2495 PUSH2 0x1D9B JUMP JUMPDEST JUMPDEST PUSH2 0x24A2 DUP8 DUP3 DUP9 ADD PUSH2 0x2407 JUMP JUMPDEST SWAP4 POP POP PUSH1 0x40 DUP6 ADD MLOAD PUSH8 0xFFFFFFFFFFFFFFFF DUP2 GT ISZERO PUSH2 0x24C3 JUMPI PUSH2 0x24C2 PUSH2 0x1D9B JUMP JUMPDEST JUMPDEST PUSH2 0x24CF DUP8 DUP3 DUP9 ADD PUSH2 0x2407 JUMP JUMPDEST SWAP3 POP POP PUSH1 0x60 DUP6 ADD MLOAD PUSH8 0xFFFFFFFFFFFFFFFF DUP2 GT ISZERO PUSH2 0x24F0 JUMPI PUSH2 0x24EF PUSH2 0x1D9B JUMP JUMPDEST JUMPDEST PUSH2 0x24FC DUP8 DUP3 DUP9 ADD PUSH2 0x2407 JUMP JUMPDEST SWAP2 POP POP SWAP3 SWAP6 SWAP2 SWAP5 POP SWAP3 POP JUMP JUMPDEST PUSH32 0x4E487B7100000000000000000000000000000000000000000000000000000000 PUSH0 MSTORE PUSH1 0x22 PUSH1 0x4 MSTORE PUSH1 0x24 PUSH0 REVERT JUMPDEST PUSH0 PUSH1 0x2 DUP3 DIV SWAP1 POP PUSH1 0x1 DUP3 AND DUP1 PUSH2 0x254C JUMPI PUSH1 0x7F DUP3 AND SWAP2 POP JUMPDEST PUSH1 0x20 DUP3 LT DUP2 SUB PUSH2 0x255F JUMPI PUSH2 0x255E PUSH2 0x2508 JUMP JUMPDEST JUMPDEST POP SWAP2 SWAP1 POP JUMP JUMPDEST PUSH32 0x4F72646572206973206E6F742061637469766500000000000000000000000000 PUSH0 DUP3 ADD MSTORE POP JUMP JUMPDEST PUSH0 PUSH2 0x2599 PUSH1 0x13 DUP4 PUSH2 0x2216 JUMP JUMPDEST SWAP2 POP PUSH2 0x25A4 DUP3 PUSH2 0x2565 JUMP JUMPDEST PUSH1 0x20 DUP3 ADD SWAP1 POP SWAP2 SWAP1 POP JUMP JUMPDEST PUSH0 PUSH1 0x20 DUP3 ADD SWAP1 POP DUP2 DUP2 SUB PUSH0 DUP4 ADD MSTORE PUSH2 0x25C6 DUP2 PUSH2 0x258D JUMP JUMPDEST SWAP1 POP SWAP2 SWAP1 POP JUMP JUMPDEST PUSH32 0x4E6F7420796F7572206F72646572000000000000000000000000000000000000 PUSH0 DUP3 ADD MSTORE POP JUMP JUMPDEST PUSH0 PUSH2 0x2601 PUSH1 0xE DUP4 PUSH2 0x2216 JUMP JUMPDEST SWAP2 POP PUSH2 0x260C DUP3 PUSH2 0x25CD JUMP JUMPDEST PUSH1 0x20 DUP3 ADD SWAP1 POP SWAP2 SWAP1 POP JUMP JUMPDEST PUSH0 PUSH1 0x20 DUP3 ADD SWAP1 POP DUP2 DUP2 SUB PUSH0 DUP4 ADD MSTORE PUSH2 0x262E DUP2 PUSH2 0x25F5 JUMP JUMPDEST SWAP1 POP SWAP2 SWAP1 POP JUMP JUMPDEST PUSH0 DUP2 MLOAD SWAP1 POP PUSH2 0x2643 DUP2 PUSH2 0x22D0 JUMP JUMPDEST SWAP3 SWAP2 POP POP JUMP JUMPDEST PUSH0 PUSH1 0x20 DUP3 DUP5 SUB SLT ISZERO PUSH2 0x265E JUMPI PUSH2 0x265D PUSH2 0x1D97 JUMP JUMPDEST JUMPDEST PUSH0 PUSH2 0x266B DUP5 DUP3 DUP6 ADD PUSH2 0x2635 JUMP JUMPDEST SWAP2 POP POP SWAP3 SWAP2 POP POP JUMP JUMPDEST PUSH32 0x596F7520646F206E6F74206F776E20746865206F66666572656420746F6B656E PUSH0 DUP3 ADD MSTORE POP JUMP JUMPDEST PUSH0 PUSH2 0x26A8 PUSH1 0x20 DUP4 PUSH2 0x2216 JUMP JUMPDEST SWAP2 POP PUSH2 0x26B3 DUP3 PUSH2 0x2674 JUMP JUMPDEST PUSH1 0x20 DUP3 ADD SWAP1 POP SWAP2 SWAP1 POP JUMP JUMPDEST PUSH0 PUSH1 0x20 DUP3 ADD SWAP1 POP DUP2 DUP2 SUB PUSH0 DUP4 ADD MSTORE PUSH2 0x26D5 DUP2 PUSH2 0x269C JUMP JUMPDEST SWAP1 POP SWAP2 SWAP1 POP JUMP JUMPDEST PUSH0 DUP2 SWAP1 POP DUP2 PUSH0 MSTORE PUSH1 0x20 PUSH0 KECCAK256 SWAP1 POP SWAP2 SWAP1 POP JUMP JUMPDEST PUSH0 PUSH1 0x20 PUSH1 0x1F DUP4 ADD DIV SWAP1 POP SWAP2 SWAP1 POP JUMP JUMPDEST PUSH0 DUP3 DUP3 SHL SWAP1 POP SWAP3 SWAP2 POP POP JUMP JUMPDEST PUSH0 PUSH1 0x8 DUP4 MUL PUSH2 0x2738 PUSH32 0xFFFFFFFFFFFFFFFFFFFFFFFFFFFFFFFFFFFFFFFFFFFFFFFFFFFFFFFFFFFFFFFF DUP3 PUSH2 0x26FD JUMP JUMPDEST PUSH2 0x2742 DUP7 DUP4 PUSH2 0x26FD JUMP JUMPDEST SWAP6 POP DUP1 NOT DUP5 AND SWAP4 POP DUP1 DUP7 AND DUP5 OR SWAP3 POP POP POP SWAP4 SWAP3 POP POP POP JUMP JUMPDEST PUSH0 PUSH2 0x2774 PUSH2 0x276F PUSH2 0x276A DUP5 PUSH2 0x1D9F JUMP JUMPDEST PUSH2 0x1D1A JUMP JUMPDEST PUSH2 0x1D9F JUMP JUMPDEST SWAP1 POP SWAP2 SWAP1 POP JUMP JUMPDEST PUSH0 DUP2 SWAP1 POP SWAP2 SWAP1 POP JUMP JUMPDEST PUSH2 0x278D DUP4 PUSH2 0x275A JUMP JUMPDEST PUSH2 0x27A1 PUSH2 0x2799 DUP3 PUSH2 0x277B JUMP JUMPDEST DUP5 DUP5 SLOAD PUSH2 0x2709 JUMP JUMPDEST DUP3 SSTORE POP POP POP POP JUMP JUMPDEST PUSH0 SWAP1 JUMP JUMPDEST PUSH2 0x27B5 PUSH2 0x27A9 JUMP JUMPDEST PUSH2 0x27C0 DUP2 DUP5 DUP5 PUSH2 0x2784 JUMP JUMPDEST POP POP POP JUMP JUMPDEST JUMPDEST DUP2 DUP2 LT ISZERO PUSH2 0x27E3 JUMPI PUSH2 0x27D8 PUSH0 DUP3 PUSH2 0x27AD JUMP JUMPDEST PUSH1 0x1 DUP2 ADD SWAP1 POP PUSH2 0x27C6 JUMP JUMPDEST POP POP JUMP JUMPDEST PUSH1 0x1F DUP3 GT ISZERO PUSH2 0x2828 JUMPI PUSH2 0x27F9 DUP2 PUSH2 0x26DC JUMP JUMPDEST PUSH2 0x2802 DUP5 PUSH2 0x26EE JUMP JUMPDEST DUP2 ADD PUSH1 0x20 DUP6 LT ISZERO PUSH2 0x2811 JUMPI DUP2 SWAP1 POP JUMPDEST PUSH2 0x2825 PUSH2 0x281D DUP6 PUSH2 0x26EE JUMP JUMPDEST DUP4 ADD DUP3 PUSH2 0x27C5 JUMP JUMPDEST POP POP JUMPDEST POP POP POP JUMP JUMPDEST PUSH0 DUP3 DUP3 SHR SWAP1 POP SWAP3 SWAP2 POP POP JUMP JUMPDEST PUSH0 PUSH2 0x2848 PUSH0 NOT DUP5 PUSH1 0x8 MUL PUSH2 0x282D JUMP JUMPDEST NOT DUP1 DUP4 AND SWAP2 POP POP SWAP3 SWAP2 POP POP JUMP JUMPDEST PUSH0 PUSH2 0x2860 DUP4 DUP4 PUSH2 0x2839 JUMP JUMPDEST SWAP2 POP DUP3 PUSH1 0x2 MUL DUP3 OR SWAP1 POP SWAP3 SWAP2 POP POP JUMP JUMPDEST PUSH2 0x2879 DUP3 PUSH2 0x1E7D JUMP JUMPDEST PUSH8 0xFFFFFFFFFFFFFFFF DUP2 GT ISZERO PUSH2 0x2892 JUMPI PUSH2 0x2891 PUSH2 0x2070 JUMP JUMPDEST JUMPDEST PUSH2 0x289C DUP3 SLOAD PUSH2 0x2535 JUMP JUMPDEST PUSH2 0x28A7 DUP3 DUP3 DUP6 PUSH2 0x27E7 JUMP JUMPDEST PUSH0 PUSH1 0x20 SWAP1 POP PUSH1 0x1F DUP4 GT PUSH1 0x1 DUP2 EQ PUSH2 0x28D8 JUMPI PUSH0 DUP5 ISZERO PUSH2 0x28C6 JUMPI DUP3 DUP8 ADD MLOAD SWAP1 POP JUMPDEST PUSH2 0x28D0 DUP6 DUP3 PUSH2 0x2855 JUMP JUMPDEST DUP7 SSTORE POP PUSH2 0x2937 JUMP JUMPDEST PUSH1 0x1F NOT DUP5 AND PUSH2 0x28E6 DUP7 PUSH2 0x26DC JUMP JUMPDEST PUSH0 JUMPDEST DUP3 DUP2 LT ISZERO PUSH2 0x290D JUMPI DUP5 DUP10 ADD MLOAD DUP3 SSTORE PUSH1 0x1 DUP3 ADD SWAP2 POP PUSH1 0x20 DUP6 ADD SWAP5 POP PUSH1 0x20 DUP2 ADD SWAP1 POP PUSH2 0x28E8 JUMP JUMPDEST DUP7 DUP4 LT ISZERO PUSH2 0x292A JUMPI DUP5 DUP10 ADD MLOAD PUSH2 0x2926 PUSH1 0x1F DUP10 AND DUP3 PUSH2 0x2839 JUMP JUMPDEST DUP4 SSTORE POP JUMPDEST PUSH1 0x1 PUSH1 0x2 DUP9 MUL ADD DUP9 SSTORE POP POP POP JUMPDEST POP POP POP POP POP POP JUMP JUMPDEST PUSH0 PUSH1 0x60 DUP3 ADD SWAP1 POP PUSH2 0x2952 PUSH0 DUP4 ADD DUP7 PUSH2 0x1DFD JUMP JUMPDEST PUSH2 0x295F PUSH1 0x20 DUP4 ADD DUP6 PUSH2 0x1DFD JUMP JUMPDEST DUP2 DUP2 SUB PUSH1 0x40 DUP4 ADD MSTORE PUSH2 0x2971 DUP2 DUP5 PUSH2 0x2226 JUMP JUMPDEST SWAP1 POP SWAP5 SWAP4 POP POP POP POP JUMP JUMPDEST PUSH32 0x4F776E61626C653A206E6577206F776E657220697320746865207A65726F2061 PUSH0 DUP3 ADD MSTORE PUSH32 0x6464726573730000000000000000000000000000000000000000000000000000 PUSH1 0x20 DUP3 ADD MSTORE POP JUMP JUMPDEST PUSH0 PUSH2 0x29D5 PUSH1 0x26 DUP4 PUSH2 0x2216 JUMP JUMPDEST SWAP2 POP PUSH2 0x29E0 DUP3 PUSH2 0x297B JUMP JUMPDEST PUSH1 0x40 DUP3 ADD SWAP1 POP SWAP2 SWAP1 POP JUMP JUMPDEST PUSH0 PUSH1 0x20 DUP3 ADD SWAP1 POP DUP2 DUP2 SUB PUSH0 DUP4 ADD MSTORE PUSH2 0x2A02 DUP2 PUSH2 0x29C9 JUMP JUMPDEST SWAP1 POP SWAP2 SWAP1 POP JUMP JUMPDEST PUSH0 PUSH2 0x2A13 DUP3 PUSH2 0x1D9F JUMP JUMPDEST SWAP2 POP PUSH2 0x2A1E DUP4 PUSH2 0x1D9F JUMP JUMPDEST SWAP3 POP DUP3 DUP3 ADD SWAP1 POP DUP1 DUP3 GT ISZERO PUSH2 0x2A36 JUMPI PUSH2 0x2A35 PUSH2 0x2352 JUMP JUMPDEST JUMPDEST SWAP3 SWAP2 POP POP JUMP JUMPDEST PUSH32 0x4F776E6572206D69736D6174636820666F7220746F6B656E2031000000000000 PUSH0 DUP3 ADD MSTORE POP JUMP JUMPDEST PUSH0 PUSH2 0x2A70 PUSH1 0x1A DUP4 PUSH2 0x2216 JUMP JUMPDEST SWAP2 POP PUSH2 0x2A7B DUP3 PUSH2 0x2A3C JUMP JUMPDEST PUSH1 0x20 DUP3 ADD SWAP1 POP SWAP2 SWAP1 POP JUMP JUMPDEST PUSH0 PUSH1 0x20 DUP3 ADD SWAP1 POP DUP2 DUP2 SUB PUSH0 DUP4 ADD MSTORE PUSH2 0x2A9D DUP2 PUSH2 0x2A64 JUMP JUMPDEST SWAP1 POP SWAP2 SWAP1 POP JUMP JUMPDEST PUSH32 0x4F776E6572206D69736D6174636820666F7220746F6B656E2032000000000000 PUSH0 DUP3 ADD MSTORE POP JUMP JUMPDEST PUSH0 PUSH2 0x2AD8 PUSH1 0x1A DUP4 PUSH2 0x2216 JUMP JUMPDEST SWAP2 POP PUSH2 0x2AE3 DUP3 PUSH2 0x2AA4 JUMP JUMPDEST PUSH1 0x20 DUP3 ADD SWAP1 POP SWAP2 SWAP1 POP JUMP JUMPDEST PUSH0 PUSH1 0x20 DUP3 ADD SWAP1 POP DUP2 DUP2 SUB PUSH0 DUP4 ADD MSTORE PUSH2 0x2B05 DUP2 PUSH2 0x2ACC JUMP JUMPDEST SWAP1 POP SWAP2 SWAP1 POP JUMP JUMPDEST PUSH0 PUSH1 0x60 DUP3 ADD SWAP1 POP PUSH2 0x2B1F PUSH0 DUP4 ADD DUP7 PUSH2 0x21EE JUMP JUMPDEST PUSH2 0x2B2C PUSH1 0x20 DUP4 ADD DUP6 PUSH2 0x21EE JUMP JUMPDEST PUSH2 0x2B39 PUSH1 0x40 DUP4 ADD DUP5 PUSH2 0x1DFD JUMP JUMPDEST SWAP5 SWAP4 POP POP POP POP JUMP JUMPDEST PUSH0 PUSH1 0x80 DUP3 ADD SWAP1 POP PUSH2 0x2B54 PUSH0 DUP4 ADD DUP8 PUSH2 0x1DFD JUMP JUMPDEST PUSH2 0x2B61 PUSH1 0x20 DUP4 ADD DUP7 PUSH2 0x1DFD JUMP JUMPDEST PUSH2 0x2B6E PUSH1 0x40 DUP4 ADD DUP6 PUSH2 0x1DFD JUMP JUMPDEST PUSH2 0x2B7B PUSH1 0x60 DUP4 ADD DUP5 PUSH2 0x1DFD JUMP JUMPDEST SWAP6 SWAP5 POP POP POP POP POP JUMP JUMPDEST PUSH0 PUSH2 0x100 DUP3 ADD SWAP1 POP PUSH2 0x2B98 PUSH0 DUP4 ADD DUP12 PUSH2 0x1DFD JUMP JUMPDEST PUSH2 0x2BA5 PUSH1 0x20 DUP4 ADD DUP11 PUSH2 0x21EE JUMP JUMPDEST DUP2 DUP2 SUB PUSH1 0x40 DUP4 ADD MSTORE PUSH2 0x2BB7 DUP2 DUP10 PUSH2 0x2226 JUMP JUMPDEST SWAP1 POP DUP2 DUP2 SUB PUSH1 0x60 DUP4 ADD MSTORE PUSH2 0x2BCB DUP2 DUP9 PUSH2 0x2226 JUMP JUMPDEST SWAP1 POP PUSH2 0x2BDA PUSH1 0x80 DUP4 ADD DUP8 PUSH2 0x1DFD JUMP JUMPDEST PUSH2 0x2BE7 PUSH1 0xA0 DUP4 ADD DUP7 PUSH2 0x21EE JUMP JUMPDEST DUP2 DUP2 SUB PUSH1 0xC0 DUP4 ADD MSTORE PUSH2 0x2BF9 DUP2 DUP6 PUSH2 0x2226 JUMP JUMPDEST SWAP1 POP DUP2 DUP2 SUB PUSH1 0xE0 DUP4 ADD MSTORE PUSH2 0x2C0D DUP2 DUP5 PUSH2 0x2226 JUMP JUMPDEST SWAP1 POP SWAP10 SWAP9 POP POP POP POP POP POP POP POP POP JUMP JUMPDEST PUSH32 0x4F776E61626C653A2063616C6C6572206973206E6F7420746865206F776E6572 PUSH0 DUP3 ADD MSTORE POP JUMP JUMPDEST PUSH0 PUSH2 0x2C50 PUSH1 0x20 DUP4 PUSH2 0x2216 JUMP JUMPDEST SWAP2 POP PUSH2 0x2C5B DUP3 PUSH2 0x2C1C JUMP JUMPDEST PUSH1 0x20 DUP3 ADD SWAP1 POP SWAP2 SWAP1 POP JUMP JUMPDEST PUSH0 PUSH1 0x20 DUP3 ADD SWAP1 POP DUP2 DUP2 SUB PUSH0 DUP4 ADD MSTORE PUSH2 0x2C7D DUP2 PUSH2 0x2C44 JUMP JUMPDEST SWAP1 POP SWAP2 SWAP1 POP JUMP JUMPDEST PUSH0 DUP2 SWAP1 POP SWAP3 SWAP2 POP POP JUMP JUMPDEST PUSH0 PUSH2 0x2C98 DUP3 PUSH2 0x1E7D JUMP JUMPDEST PUSH2 0x2CA2 DUP2 DUP6 PUSH2 0x2C84 JUMP JUMPDEST SWAP4 POP PUSH2 0x2CB2 DUP2 DUP6 PUSH1 0x20 DUP7 ADD PUSH2 0x1E97 JUMP JUMPDEST DUP1 DUP5 ADD SWAP2 POP POP SWAP3 SWAP2 POP POP JUMP JUMPDEST PUSH0 PUSH2 0x2CC9 DUP3 DUP5 PUSH2 0x2C8E JUMP JUMPDEST SWAP2 POP DUP2 SWAP1 POP SWAP3 SWAP2 POP POP JUMP JUMPDEST PUSH0 DUP2 MLOAD SWAP1 POP PUSH2 0x2CE2 DUP2 PUSH2 0x1DA8 JUMP JUMPDEST SWAP3 SWAP2 POP POP JUMP JUMPDEST PUSH0 PUSH1 0x20 DUP3 DUP5 SUB SLT ISZERO PUSH2 0x2CFD JUMPI PUSH2 0x2CFC PUSH2 0x1D97 JUMP JUMPDEST JUMPDEST PUSH0 PUSH2 0x2D0A DUP5 DUP3 DUP6 ADD PUSH2 0x2CD4 JUMP JUMPDEST SWAP2 POP POP SWAP3 SWAP2 POP POP JUMP JUMPDEST PUSH0 PUSH1 0x40 DUP3 ADD SWAP1 POP PUSH2 0x2D26 PUSH0 DUP4 ADD DUP6 PUSH2 0x21EE JUMP JUMPDEST PUSH2 0x2D33 PUSH1 0x20 DUP4 ADD DUP5 PUSH2 0x1DFD JUMP JUMPDEST SWAP4 SWAP3 POP POP POP JUMP INVALID LOG2 PUSH5 0x6970667358 0x22 SLT KECCAK256 DUP14 EQ PUSH31 0xE9F2A2D24E2C1137A6707A10C890490355EB2C0058083DB3E0029EE8EC6473 PUSH16 0x6C634300081A00330000000000000000 "
				},
				"gasEstimates": {
					"creation": {
						"codeDepositCost": "2326400",
						"executionCost": "infinite",
						"totalCost": "infinite"
					},
					"external": {
						"cancelAllOrders()": "infinite",
						"cancelOrder(uint256)": "infinite",
						"courseToken()": "infinite",
						"executeSwaps()": "infinite",
						"getActiveOrdersWithMetadata()": "infinite",
						"orderCounter()": "2491",
						"orderIds(uint256)": "infinite",
						"orders(uint256)": "infinite",
						"owner()": "2537",
						"renounceOwnership()": "30501",
						"submitOrder(uint256,string)": "infinite",
						"transferOwnership(address)": "30819"
					},
					"internal": {
						"compareStrings(string memory,string memory)": "infinite",
						"getTokensOfOwner(address)": "infinite",
						"hasCourseConflict(address,uint256,uint256)": "infinite",
						"hasTimingConflict(address,uint256,uint256)": "infinite"
					}
				},
				"methodIdentifiers": {
					"cancelAllOrders()": "028afabf",
					"cancelOrder(uint256)": "514fcac7",
					"courseToken()": "05462c6d",
					"executeSwaps()": "ffe7dc4e",
					"getActiveOrdersWithMetadata()": "32603f2d",
					"orderCounter()": "b789bf52",
					"orderIds(uint256)": "23722084",
					"orders(uint256)": "a85c38ef",
					"owner()": "8da5cb5b",
					"renounceOwnership()": "715018a6",
					"submitOrder(uint256,string)": "8d22d446",
					"transferOwnership(address)": "f2fde38b"
				}
			},
			"storageLayout": {
				"storage": [
					{
						"astId": 868,
						"contract": "contracts/Swap.sol:Swap",
						"label": "_owner",
						"offset": 0,
						"slot": "0",
						"type": "t_address"
					},
					{
						"astId": 82,
						"contract": "contracts/Swap.sol:Swap",
						"label": "courseToken",
						"offset": 0,
						"slot": "1",
						"type": "t_contract(ICourseTokenEnumerable)49"
					},
					{
						"astId": 84,
						"contract": "contracts/Swap.sol:Swap",
						"label": "orderCounter",
						"offset": 0,
						"slot": "2",
						"type": "t_uint256"
					},
					{
						"astId": 89,
						"contract": "contracts/Swap.sol:Swap",
						"label": "orders",
						"offset": 0,
						"slot": "3",
						"type": "t_mapping(t_uint256,t_struct(Order)62_storage)"
					},
					{
						"astId": 92,
						"contract": "contracts/Swap.sol:Swap",
						"label": "orderIds",
						"offset": 0,
						"slot": "4",
						"type": "t_array(t_uint256)dyn_storage"
					}
				],
				"types": {
					"t_address": {
						"encoding": "inplace",
						"label": "address",
						"numberOfBytes": "20"
					},
					"t_array(t_uint256)dyn_storage": {
						"base": "t_uint256",
						"encoding": "dynamic_array",
						"label": "uint256[]",
						"numberOfBytes": "32"
					},
					"t_bool": {
						"encoding": "inplace",
						"label": "bool",
						"numberOfBytes": "1"
					},
					"t_contract(ICourseTokenEnumerable)49": {
						"encoding": "inplace",
						"label": "contract ICourseTokenEnumerable",
						"numberOfBytes": "20"
					},
					"t_mapping(t_uint256,t_struct(Order)62_storage)": {
						"encoding": "mapping",
						"key": "t_uint256",
						"label": "mapping(uint256 => struct Swap.Order)",
						"numberOfBytes": "32",
						"value": "t_struct(Order)62_storage"
					},
					"t_string_storage": {
						"encoding": "bytes",
						"label": "string",
						"numberOfBytes": "32"
					},
					"t_struct(Order)62_storage": {
						"encoding": "inplace",
						"label": "struct Swap.Order",
						"members": [
							{
								"astId": 53,
								"contract": "contracts/Swap.sol:Swap",
								"label": "orderId",
								"offset": 0,
								"slot": "0",
								"type": "t_uint256"
							},
							{
								"astId": 55,
								"contract": "contracts/Swap.sol:Swap",
								"label": "student",
								"offset": 0,
								"slot": "1",
								"type": "t_address"
							},
							{
								"astId": 57,
								"contract": "contracts/Swap.sol:Swap",
								"label": "offeredTokenId",
								"offset": 0,
								"slot": "2",
								"type": "t_uint256"
							},
							{
								"astId": 59,
								"contract": "contracts/Swap.sol:Swap",
								"label": "requestedCourseID",
								"offset": 0,
								"slot": "3",
								"type": "t_string_storage"
							},
							{
								"astId": 61,
								"contract": "contracts/Swap.sol:Swap",
								"label": "active",
								"offset": 0,
								"slot": "4",
								"type": "t_bool"
							}
						],
						"numberOfBytes": "160"
					},
					"t_uint256": {
						"encoding": "inplace",
						"label": "uint256",
						"numberOfBytes": "32"
					}
				}
			},
			"userdoc": {
				"kind": "user",
				"methods": {},
				"version": 1
			}
		}
	}
}