{
  "contractName": "CourseToken",
  "abi": [
    {
      "inputs": [],
      "stateMutability": "nonpayable",
      "type": "constructor"
    },
    {
      "anonymous": false,
      "inputs": [
        {
          "indexed": true,
          "internalType": "address",
          "name": "owner",
          "type": "address"
        },
        {
          "indexed": true,
          "internalType": "address",
          "name": "approved",
          "type": "address"
        },
        {
          "indexed": true,
          "internalType": "uint256",
          "name": "tokenId",
          "type": "uint256"
        }
      ],
      "name": "Approval",
      "type": "event"
    },
    {
      "anonymous": false,
      "inputs": [
        {
          "indexed": true,
          "internalType": "address",
          "name": "owner",
          "type": "address"
        },
        {
          "indexed": true,
          "internalType": "address",
          "name": "operator",
          "type": "address"
        },
        {
          "indexed": false,
          "internalType": "bool",
          "name": "approved",
          "type": "bool"
        }
      ],
      "name": "ApprovalForAll",
      "type": "event"
    },
    {
      "anonymous": false,
      "inputs": [
        {
          "indexed": true,
          "internalType": "address",
          "name": "previousOwner",
          "type": "address"
        },
        {
          "indexed": true,
          "internalType": "address",
          "name": "newOwner",
          "type": "address"
        }
      ],
      "name": "OwnershipTransferred",
      "type": "event"
    },
    {
      "anonymous": false,
      "inputs": [
        {
          "indexed": true,
          "internalType": "address",
          "name": "from",
          "type": "address"
        },
        {
          "indexed": true,
          "internalType": "address",
          "name": "to",
          "type": "address"
        },
        {
          "indexed": true,
          "internalType": "uint256",
          "name": "tokenId",
          "type": "uint256"
        }
      ],
      "name": "Transfer",
      "type": "event"
    },
    {
      "inputs": [
        {
          "internalType": "address",
          "name": "to",
          "type": "address"
        },
        {
          "internalType": "uint256",
          "name": "tokenId",
          "type": "uint256"
        }
      ],
      "name": "approve",
      "outputs": [],
      "stateMutability": "nonpayable",
      "type": "function"
    },
    {
      "inputs": [
        {
          "internalType": "address",
          "name": "owner",
          "type": "address"
        }
      ],
      "name": "balanceOf",
      "outputs": [
        {
          "internalType": "uint256",
          "name": "",
          "type": "uint256"
        }
      ],
      "stateMutability": "view",
      "type": "function"
    },
    {
      "inputs": [
        {
          "internalType": "uint256",
          "name": "tokenId",
          "type": "uint256"
        }
      ],
      "name": "getApproved",
      "outputs": [
        {
          "internalType": "address",
          "name": "",
          "type": "address"
        }
      ],
      "stateMutability": "view",
      "type": "function"
    },
    {
      "inputs": [
        {
          "internalType": "address",
          "name": "owner",
          "type": "address"
        },
        {
          "internalType": "address",
          "name": "operator",
          "type": "address"
        }
      ],
      "name": "isApprovedForAll",
      "outputs": [
        {
          "internalType": "bool",
          "name": "",
          "type": "bool"
        }
      ],
      "stateMutability": "view",
      "type": "function"
    },
    {
      "inputs": [],
      "name": "name",
      "outputs": [
        {
          "internalType": "string",
          "name": "",
          "type": "string"
        }
      ],
      "stateMutability": "view",
      "type": "function"
    },
    {
      "inputs": [],
      "name": "owner",
      "outputs": [
        {
          "internalType": "address",
          "name": "",
          "type": "address"
        }
      ],
      "stateMutability": "view",
      "type": "function"
    },
    {
      "inputs": [
        {
          "internalType": "uint256",
          "name": "tokenId",
          "type": "uint256"
        }
      ],
      "name": "ownerOf",
      "outputs": [
        {
          "internalType": "address",
          "name": "",
          "type": "address"
        }
      ],
      "stateMutability": "view",
      "type": "function"
    },
    {
      "inputs": [],
      "name": "renounceOwnership",
      "outputs": [],
      "stateMutability": "nonpayable",
      "type": "function"
    },
    {
      "inputs": [
        {
          "internalType": "address",
          "name": "from",
          "type": "address"
        },
        {
          "internalType": "address",
          "name": "to",
          "type": "address"
        },
        {
          "internalType": "uint256",
          "name": "tokenId",
          "type": "uint256"
        }
      ],
      "name": "safeTransferFrom",
      "outputs": [],
      "stateMutability": "nonpayable",
      "type": "function"
    },
    {
      "inputs": [
        {
          "internalType": "address",
          "name": "from",
          "type": "address"
        },
        {
          "internalType": "address",
          "name": "to",
          "type": "address"
        },
        {
          "internalType": "uint256",
          "name": "tokenId",
          "type": "uint256"
        },
        {
          "internalType": "bytes",
          "name": "data",
          "type": "bytes"
        }
      ],
      "name": "safeTransferFrom",
      "outputs": [],
      "stateMutability": "nonpayable",
      "type": "function"
    },
    {
      "inputs": [
        {
          "internalType": "address",
          "name": "operator",
          "type": "address"
        },
        {
          "internalType": "bool",
          "name": "approved",
          "type": "bool"
        }
      ],
      "name": "setApprovalForAll",
      "outputs": [],
      "stateMutability": "nonpayable",
      "type": "function"
    },
    {
      "inputs": [
        {
          "internalType": "bytes4",
          "name": "interfaceId",
          "type": "bytes4"
        }
      ],
      "name": "supportsInterface",
      "outputs": [
        {
          "internalType": "bool",
          "name": "",
          "type": "bool"
        }
      ],
      "stateMutability": "view",
      "type": "function"
    },
    {
      "inputs": [],
      "name": "symbol",
      "outputs": [
        {
          "internalType": "string",
          "name": "",
          "type": "string"
        }
      ],
      "stateMutability": "view",
      "type": "function"
    },
    {
      "inputs": [
        {
          "internalType": "uint256",
          "name": "",
          "type": "uint256"
        }
      ],
      "name": "tokenMeta",
      "outputs": [
        {
          "internalType": "string",
          "name": "courseID",
          "type": "string"
        },
        {
          "internalType": "string",
          "name": "preceptID",
          "type": "string"
        },
        {
          "internalType": "string",
          "name": "timing",
          "type": "string"
        },
        {
          "internalType": "string",
          "name": "coursePageURL",
          "type": "string"
        }
      ],
      "stateMutability": "view",
      "type": "function"
    },
    {
      "inputs": [
        {
          "internalType": "address",
          "name": "from",
          "type": "address"
        },
        {
          "internalType": "address",
          "name": "to",
          "type": "address"
        },
        {
          "internalType": "uint256",
          "name": "tokenId",
          "type": "uint256"
        }
      ],
      "name": "transferFrom",
      "outputs": [],
      "stateMutability": "nonpayable",
      "type": "function"
    },
    {
      "inputs": [
        {
          "internalType": "address",
          "name": "newOwner",
          "type": "address"
        }
      ],
      "name": "transferOwnership",
      "outputs": [],
      "stateMutability": "nonpayable",
      "type": "function"
    },
    {
      "inputs": [
        {
          "internalType": "address",
          "name": "to",
          "type": "address"
        },
        {
          "internalType": "string",
          "name": "_courseID",
          "type": "string"
        },
        {
          "internalType": "string",
          "name": "_preceptID",
          "type": "string"
        },
        {
          "internalType": "string",
          "name": "_timing",
          "type": "string"
        },
        {
          "internalType": "string",
          "name": "_coursePageURL",
          "type": "string"
        }
      ],
      "name": "mintCourseToken",
      "outputs": [],
      "stateMutability": "nonpayable",
      "type": "function"
    },
    {
      "inputs": [
        {
          "internalType": "uint256",
          "name": "tokenId",
          "type": "uint256"
        }
      ],
      "name": "burnCourseToken",
      "outputs": [],
      "stateMutability": "nonpayable",
      "type": "function"
    },
    {
      "inputs": [
        {
          "internalType": "uint256",
          "name": "tokenId",
          "type": "uint256"
        }
      ],
      "name": "courseDetails",
      "outputs": [
        {
          "internalType": "string",
          "name": "",
          "type": "string"
        },
        {
          "internalType": "string",
          "name": "",
          "type": "string"
        },
        {
          "internalType": "string",
          "name": "",
          "type": "string"
        },
        {
          "internalType": "string",
          "name": "",
          "type": "string"
        }
      ],
      "stateMutability": "view",
      "type": "function"
    },
    {
      "inputs": [
        {
          "internalType": "address",
          "name": "owner",
          "type": "address"
        }
      ],
      "name": "tokensOfOwner",
      "outputs": [
        {
          "internalType": "uint256[]",
          "name": "",
          "type": "uint256[]"
        }
      ],
      "stateMutability": "view",
      "type": "function"
    },
    {
      "inputs": [
        {
          "internalType": "address",
          "name": "owner",
          "type": "address"
        }
      ],
      "name": "tokensAndMetadataOfOwner",
      "outputs": [
        {
          "components": [
            {
              "internalType": "string",
              "name": "courseID",
              "type": "string"
            },
            {
              "internalType": "string",
              "name": "preceptID",
              "type": "string"
            },
            {
              "internalType": "string",
              "name": "timing",
              "type": "string"
            },
            {
              "internalType": "string",
              "name": "coursePageURL",
              "type": "string"
            }
          ],
          "internalType": "struct CourseToken.CourseMetadata[]",
          "name": "",
          "type": "tuple[]"
        }
      ],
      "stateMutability": "view",
      "type": "function"
    },
    {
      "inputs": [
        {
          "internalType": "uint256",
          "name": "tokenId",
          "type": "uint256"
        }
      ],
      "name": "tokenURI",
      "outputs": [
        {
          "internalType": "string",
          "name": "",
          "type": "string"
        }
      ],
      "stateMutability": "view",
      "type": "function"
    }
  ],
  "bytecode": "0x6080604052600160085534801562000015575f80fd5b506040518060400160405280600b81526020016a21b7bab939b2aa37b5b2b760a91b8152506040518060400160405280600481526020016321aa25a760e11b815250815f90816200006791906200018e565b5060016200007682826200018e565b505050620000936200008d6200009960201b60201c565b6200009d565b62000256565b3390565b600680546001600160a01b038381166001600160a01b0319831681179093556040519116919082907f8be0079c531659141344cd1fd0a4f28419497f9722a3daafe3b4186f6b6457e0905f90a35050565b634e487b7160e01b5f52604160045260245ffd5b600181811c908216806200011757607f821691505b6020821081036200013657634e487b7160e01b5f52602260045260245ffd5b50919050565b601f82111562000189575f81815260208120601f850160051c81016020861015620001645750805b601f850160051c820191505b81811015620001855782815560010162000170565b5050505b505050565b81516001600160401b03811115620001aa57620001aa620000ee565b620001c281620001bb845462000102565b846200013c565b602080601f831160018114620001f8575f8415620001e05750858301515b5f19600386901b1c1916600185901b17855562000185565b5f85815260208120601f198616915b82811015620002285788860151825594840194600190910190840162000207565b50858210156200024657878501515f19600388901b60f8161c191681555b5050505050600190811b01905550565b612cb680620002645f395ff3fe608060405234801561000f575f80fd5b506004361061013d575f3560e01c80638da5cb5b116100b4578063c4ea997211610079578063c4ea9972146102c2578063c87b56dd146102d5578063d1be5309146102e8578063db9161e8146102fb578063e985e9c51461030e578063f2fde38b14610321575f80fd5b80638da5cb5b1461026357806395d89b4114610274578063a22cb4651461027c578063b61b642a1461028f578063b88d4fde146102af575f80fd5b806323b872dd1161010557806323b872dd146101e157806342842e0e146101f45780636352211e1461020757806370a082311461021a578063715018a61461023b5780638462151c14610243575f80fd5b806301ffc9a71461014157806306fdde0314610169578063081812fc1461017e578063095ea7b3146101a95780630ae7a310146101be575b5f80fd5b61015461014f366004611fd2565b610334565b60405190151581526020015b60405180910390f35b610171610385565b6040516101609190612041565b61019161018c366004612053565b610414565b6040516001600160a01b039091168152602001610160565b6101bc6101b7366004612085565b610439565b005b6101d16101cc366004612053565b610552565b60405161016094939291906120ad565b6101bc6101ef366004612104565b610791565b6101bc610202366004612104565b6107c2565b610191610215366004612053565b6107dc565b61022d61022836600461213d565b61083b565b604051908152602001610160565b6101bc6108bf565b61025661025136600461213d565b6108d2565b6040516101609190612156565b6006546001600160a01b0316610191565b6101716109ba565b6101bc61028a366004612199565b6109c9565b6102a261029d36600461213d565b6109d8565b60405161016091906121d2565b6101bc6102bd366004612313565b610d40565b6101bc6102d0366004612053565b610d78565b6101716102e3366004612053565b610e14565b6101d16102f6366004612053565b611206565b6101bc6103093660046123a8565b6114d2565b61015461031c36600461245e565b611582565b6101bc61032f36600461213d565b6115af565b5f6001600160e01b031982166380ac58cd60e01b148061036457506001600160e01b03198216635b5e139f60e01b145b8061037f57506301ffc9a760e01b6001600160e01b03198316145b92915050565b60605f80546103939061248f565b80601f01602080910402602001604051908101604052809291908181526020018280546103bf9061248f565b801561040a5780601f106103e15761010080835404028352916020019161040a565b820191905f5260205f20905b8154815290600101906020018083116103ed57829003601f168201915b5050505050905090565b5f61041e82611628565b505f908152600460205260409020546001600160a01b031690565b5f610443826107dc565b9050806001600160a01b0316836001600160a01b0316036104b55760405162461bcd60e51b815260206004820152602160248201527f4552433732313a20617070726f76616c20746f2063757272656e74206f776e656044820152603960f91b60648201526084015b60405180910390fd5b336001600160a01b03821614806104d157506104d18133611582565b6105435760405162461bcd60e51b815260206004820152603d60248201527f4552433732313a20617070726f76652063616c6c6572206973206e6f7420746f60448201527f6b656e206f776e6572206f7220617070726f76656420666f7220616c6c00000060648201526084016104ac565b61054d8383611678565b505050565b60076020525f908152604090208054819061056c9061248f565b80601f01602080910402602001604051908101604052809291908181526020018280546105989061248f565b80156105e35780601f106105ba576101008083540402835291602001916105e3565b820191905f5260205f20905b8154815290600101906020018083116105c657829003601f168201915b5050505050908060010180546105f89061248f565b80601f01602080910402602001604051908101604052809291908181526020018280546106249061248f565b801561066f5780601f106106465761010080835404028352916020019161066f565b820191905f5260205f20905b81548152906001019060200180831161065257829003601f168201915b5050505050908060020180546106849061248f565b80601f01602080910402602001604051908101604052809291908181526020018280546106b09061248f565b80156106fb5780601f106106d2576101008083540402835291602001916106fb565b820191905f5260205f20905b8154815290600101906020018083116106de57829003601f168201915b5050505050908060030180546107109061248f565b80601f016020809104026020016040519081016040528092919081815260200182805461073c9061248f565b80156107875780601f1061075e57610100808354040283529160200191610787565b820191905f5260205f20905b81548152906001019060200180831161076a57829003601f168201915b5050505050905084565b61079b33826116e5565b6107b75760405162461bcd60e51b81526004016104ac906124c7565b61054d838383611743565b61054d83838360405180602001604052805f815250610d40565b5f818152600260205260408120546001600160a01b03168061037f5760405162461bcd60e51b8152602060048201526018602482015277115490cdcc8c4e881a5b9d985b1a59081d1bdad95b88125160421b60448201526064016104ac565b5f6001600160a01b0382166108a45760405162461bcd60e51b815260206004820152602960248201527f4552433732313a2061646472657373207a65726f206973206e6f7420612076616044820152683634b21037bbb732b960b91b60648201526084016104ac565b506001600160a01b03165f9081526003602052604090205490565b6108c76118b2565b6108d05f61190c565b565b60605f6108de8361083b565b90505f8167ffffffffffffffff8111156108fa576108fa61228c565b604051908082528060200260200182016040528015610923578160200160208202803683370190505b5090505f60015b838210801561093a575060085481105b156109b0576109488161195d565b801561096d5750856001600160a01b0316610962826107dc565b6001600160a01b0316145b1561099e578083838151811061098557610985612514565b60209081029190910101528161099a8161253c565b9250505b806109a88161253c565b91505061092a565b5090949350505050565b6060600180546103939061248f565b6109d4338383611979565b5050565b60605f6109e48361083b565b90505f8167ffffffffffffffff811115610a0057610a0061228c565b604051908082528060200260200182016040528015610a5c57816020015b610a496040518060800160405280606081526020016060815260200160608152602001606081525090565b815260200190600190039081610a1e5790505b5090505f60015b8382108015610a73575060085481105b156109b057610a818161195d565b8015610aa65750856001600160a01b0316610a9b826107dc565b6001600160a01b0316145b15610d2e575f8181526007602052604090819020815160808101909252805482908290610ad29061248f565b80601f0160208091040260200160405190810160405280929190818152602001828054610afe9061248f565b8015610b495780601f10610b2057610100808354040283529160200191610b49565b820191905f5260205f20905b815481529060010190602001808311610b2c57829003601f168201915b50505050508152602001600182018054610b629061248f565b80601f0160208091040260200160405190810160405280929190818152602001828054610b8e9061248f565b8015610bd95780601f10610bb057610100808354040283529160200191610bd9565b820191905f5260205f20905b815481529060010190602001808311610bbc57829003601f168201915b50505050508152602001600282018054610bf29061248f565b80601f0160208091040260200160405190810160405280929190818152602001828054610c1e9061248f565b8015610c695780601f10610c4057610100808354040283529160200191610c69565b820191905f5260205f20905b815481529060010190602001808311610c4c57829003601f168201915b50505050508152602001600382018054610c829061248f565b80601f0160208091040260200160405190810160405280929190818152602001828054610cae9061248f565b8015610cf95780601f10610cd057610100808354040283529160200191610cf9565b820191905f5260205f20905b815481529060010190602001808311610cdc57829003601f168201915b505050505081525050838381518110610d1457610d14612514565b60200260200101819052508180610d2a9061253c565b9250505b80610d388161253c565b915050610a63565b610d4a33836116e5565b610d665760405162461bcd60e51b81526004016104ac906124c7565b610d7284848484611a46565b50505050565b610d806118b2565b610d898161195d565b610dcc5760405162461bcd60e51b8152602060048201526014602482015273151bdad95b88191bd95cc81b9bdd08195e1a5cdd60621b60448201526064016104ac565b610dd581611a79565b5f81815260076020526040812090610ded8282611f73565b610dfa600183015f611f73565b610e07600283015f611f73565b61054d600383015f611f73565b6060610e1f8261195d565b610e835760405162461bcd60e51b815260206004820152602f60248201527f4552433732314d657461646174613a2055524920717565727920666f72206e6f60448201526e3732bc34b9ba32b73a103a37b5b2b760891b60648201526084016104ac565b5f82815260076020526040808220815160808101909252805482908290610ea99061248f565b80601f0160208091040260200160405190810160405280929190818152602001828054610ed59061248f565b8015610f205780601f10610ef757610100808354040283529160200191610f20565b820191905f5260205f20905b815481529060010190602001808311610f0357829003601f168201915b50505050508152602001600182018054610f399061248f565b80601f0160208091040260200160405190810160405280929190818152602001828054610f659061248f565b8015610fb05780601f10610f8757610100808354040283529160200191610fb0565b820191905f5260205f20905b815481529060010190602001808311610f9357829003601f168201915b50505050508152602001600282018054610fc99061248f565b80601f0160208091040260200160405190810160405280929190818152602001828054610ff59061248f565b80156110405780601f1061101757610100808354040283529160200191611040565b820191905f5260205f20905b81548152906001019060200180831161102357829003601f168201915b505050505081526020016003820180546110599061248f565b80601f01602080910402602001604051908101604052809291908181526020018280546110859061248f565b80156110d05780601f106110a7576101008083540402835291602001916110d0565b820191905f5260205f20905b8154815290600101906020018083116110b357829003601f168201915b50505050508152505090505f815f015182602001516040516020016110f692919061256f565b60408051601f1981840301815282825284516020868101519387015160608801519396505f9561112a9593949192016125b2565b60408051601f198184030181528282528551602087810151938801519295505f946111589492939101612666565b60405160208183030381529060405290505f61117382611b18565b90505f8160405160200161118791906127dd565b60408051601f19818403018152828252885160208a810151938b01519295505f946111ba948b948b948994909301612821565b60405160208183030381529060405290505f6111d582611b18565b9050806040516020016111e891906129a9565b60405160208183030381529060405298505050505050505050919050565b6060806060806112158561195d565b6112585760405162461bcd60e51b8152602060048201526014602482015273151bdad95b88191bd95cc81b9bdd08195e1a5cdd60621b60448201526064016104ac565b5f8581526007602052604080822081516080810190925280548290829061127e9061248f565b80601f01602080910402602001604051908101604052809291908181526020018280546112aa9061248f565b80156112f55780601f106112cc576101008083540402835291602001916112f5565b820191905f5260205f20905b8154815290600101906020018083116112d857829003601f168201915b5050505050815260200160018201805461130e9061248f565b80601f016020809104026020016040519081016040528092919081815260200182805461133a9061248f565b80156113855780601f1061135c57610100808354040283529160200191611385565b820191905f5260205f20905b81548152906001019060200180831161136857829003601f168201915b5050505050815260200160028201805461139e9061248f565b80601f01602080910402602001604051908101604052809291908181526020018280546113ca9061248f565b80156114155780601f106113ec57610100808354040283529160200191611415565b820191905f5260205f20905b8154815290600101906020018083116113f857829003601f168201915b5050505050815260200160038201805461142e9061248f565b80601f016020809104026020016040519081016040528092919081815260200182805461145a9061248f565b80156114a55780601f1061147c576101008083540402835291602001916114a5565b820191905f5260205f20905b81548152906001019060200180831161148857829003601f168201915b505050919092525050815160208301516040840151606090940151919a9099509297509550909350505050565b6114da6118b2565b6008546114e78682611c77565b604080516080810182528681526020808201879052818301869052606082018590525f848152600790915291909120815181906115249082612a3a565b50602082015160018201906115399082612a3a565b506040820151600282019061154e9082612a3a565b50606082015160038201906115639082612a3a565b50506008805491505f6115758361253c565b9190505550505050505050565b6001600160a01b039182165f90815260056020908152604080832093909416825291909152205460ff1690565b6115b76118b2565b6001600160a01b03811661161c5760405162461bcd60e51b815260206004820152602660248201527f4f776e61626c653a206e6577206f776e657220697320746865207a65726f206160448201526564647265737360d01b60648201526084016104ac565b6116258161190c565b50565b6116318161195d565b6116255760405162461bcd60e51b8152602060048201526018602482015277115490cdcc8c4e881a5b9d985b1a59081d1bdad95b88125160421b60448201526064016104ac565b5f81815260046020526040902080546001600160a01b0319166001600160a01b03841690811790915581906116ac826107dc565b6001600160a01b03167f8c5be1e5ebec7d5bd14f71427d1e84f3dd0314c0f7b2291e5b200ac8c7c3b92560405160405180910390a45050565b5f806116f0836107dc565b9050806001600160a01b0316846001600160a01b0316148061171757506117178185611582565b8061173b5750836001600160a01b031661173084610414565b6001600160a01b0316145b949350505050565b826001600160a01b0316611756826107dc565b6001600160a01b03161461177c5760405162461bcd60e51b81526004016104ac90612af6565b6001600160a01b0382166117de5760405162461bcd60e51b8152602060048201526024808201527f4552433732313a207472616e7366657220746f20746865207a65726f206164646044820152637265737360e01b60648201526084016104ac565b6117eb8383836001611df0565b826001600160a01b03166117fe826107dc565b6001600160a01b0316146118245760405162461bcd60e51b81526004016104ac90612af6565b5f81815260046020908152604080832080546001600160a01b03199081169091556001600160a01b038781168086526003855283862080545f1901905590871680865283862080546001019055868652600290945282852080549092168417909155905184937fddf252ad1be2c89b69c2b068fc378daa952ba7f163c4a11628f55a4df523b3ef91a4505050565b6006546001600160a01b031633146108d05760405162461bcd60e51b815260206004820181905260248201527f4f776e61626c653a2063616c6c6572206973206e6f7420746865206f776e657260448201526064016104ac565b600680546001600160a01b038381166001600160a01b0319831681179093556040519116919082907f8be0079c531659141344cd1fd0a4f28419497f9722a3daafe3b4186f6b6457e0905f90a35050565b5f908152600260205260409020546001600160a01b0316151590565b816001600160a01b0316836001600160a01b0316036119da5760405162461bcd60e51b815260206004820152601960248201527f4552433732313a20617070726f766520746f2063616c6c65720000000000000060448201526064016104ac565b6001600160a01b038381165f81815260056020908152604080832094871680845294825291829020805460ff191686151590811790915591519182527f17307eab39ab6107e8899845ad3d59bd9653f200f220920489ca2b5937696c31910160405180910390a3505050565b611a51848484611743565b611a5d84848484611e76565b610d725760405162461bcd60e51b81526004016104ac90612b3b565b5f611a83826107dc565b9050611a92815f846001611df0565b611a9b826107dc565b5f83815260046020908152604080832080546001600160a01b03199081169091556001600160a01b0385168085526003845282852080545f190190558785526002909352818420805490911690555192935084927fddf252ad1be2c89b69c2b068fc378daa952ba7f163c4a11628f55a4df523b3ef908390a45050565b606081515f03611b3557505060408051602081019091525f815290565b5f604051806060016040528060408152602001612c416040913990505f600384516002611b629190612b8d565b611b6c9190612ba0565b611b77906004612bbf565b90505f611b85826020612b8d565b67ffffffffffffffff811115611b9d57611b9d61228c565b6040519080825280601f01601f191660200182016040528015611bc7576020820181803683370190505b509050818152600183018586518101602084015b81831015611c33576003830192508251603f8160121c168501518253600182019150603f81600c1c168501518253600182019150603f8160061c168501518253600182019150603f8116850151825350600101611bdb565b600389510660018114611c4d5760028114611c5e57611c69565b613d3d60f01b600119830152611c69565b603d60f81b5f198301525b509398975050505050505050565b6001600160a01b038216611ccd5760405162461bcd60e51b815260206004820181905260248201527f4552433732313a206d696e7420746f20746865207a65726f206164647265737360448201526064016104ac565b611cd68161195d565b15611d235760405162461bcd60e51b815260206004820152601c60248201527f4552433732313a20746f6b656e20616c7265616479206d696e7465640000000060448201526064016104ac565b611d305f83836001611df0565b611d398161195d565b15611d865760405162461bcd60e51b815260206004820152601c60248201527f4552433732313a20746f6b656e20616c7265616479206d696e7465640000000060448201526064016104ac565b6001600160a01b0382165f81815260036020908152604080832080546001019055848352600290915280822080546001600160a01b0319168417905551839291907fddf252ad1be2c89b69c2b068fc378daa952ba7f163c4a11628f55a4df523b3ef908290a45050565b6001811115610d72576001600160a01b03841615611e35576001600160a01b0384165f9081526003602052604081208054839290611e2f908490612bd6565b90915550505b6001600160a01b03831615610d72576001600160a01b0383165f9081526003602052604081208054839290611e6b908490612b8d565b909155505050505050565b5f6001600160a01b0384163b15611f6857604051630a85bd0160e11b81526001600160a01b0385169063150b7a0290611eb9903390899088908890600401612be9565b6020604051808303815f875af1925050508015611ef3575060408051601f3d908101601f19168201909252611ef091810190612c25565b60015b611f4e573d808015611f20576040519150601f19603f3d011682016040523d82523d5f602084013e611f25565b606091505b5080515f03611f465760405162461bcd60e51b81526004016104ac90612b3b565b805181602001fd5b6001600160e01b031916630a85bd0160e11b14905061173b565b506001949350505050565b508054611f7f9061248f565b5f825580601f10611f8e575050565b601f0160209004905f5260205f209081019061162591905b80821115611fb9575f8155600101611fa6565b5090565b6001600160e01b031981168114611625575f80fd5b5f60208284031215611fe2575f80fd5b8135611fed81611fbd565b9392505050565b5f5b8381101561200e578181015183820152602001611ff6565b50505f910152565b5f815180845261202d816020860160208601611ff4565b601f01601f19169290920160200192915050565b602081525f611fed6020830184612016565b5f60208284031215612063575f80fd5b5035919050565b80356001600160a01b0381168114612080575f80fd5b919050565b5f8060408385031215612096575f80fd5b61209f8361206a565b946020939093013593505050565b608081525f6120bf6080830187612016565b82810360208401526120d18187612016565b905082810360408401526120e58186612016565b905082810360608401526120f98185612016565b979650505050505050565b5f805f60608486031215612116575f80fd5b61211f8461206a565b925061212d6020850161206a565b9150604084013590509250925092565b5f6020828403121561214d575f80fd5b611fed8261206a565b602080825282518282018190525f9190848201906040850190845b8181101561218d57835183529284019291840191600101612171565b50909695505050505050565b5f80604083850312156121aa575f80fd5b6121b38361206a565b9150602083013580151581146121c7575f80fd5b809150509250929050565b5f6020808301818452808551808352604092508286019150828160051b8701018488015f5b8381101561227e57603f1989840301855281516080815181865261221d82870182612016565b915050888201518582038a8701526122358282612016565b915050878201518582038987015261224d8282612016565b9150506060808301519250858203818701525061226a8183612016565b9689019694505050908601906001016121f7565b509098975050505050505050565b634e487b7160e01b5f52604160045260245ffd5b5f67ffffffffffffffff808411156122ba576122ba61228c565b604051601f8501601f19908116603f011681019082821181831017156122e2576122e261228c565b816040528093508581528686860111156122fa575f80fd5b858560208301375f602087830101525050509392505050565b5f805f8060808587031215612326575f80fd5b61232f8561206a565b935061233d6020860161206a565b925060408501359150606085013567ffffffffffffffff81111561235f575f80fd5b8501601f8101871361236f575f80fd5b61237e878235602084016122a0565b91505092959194509250565b5f82601f830112612399575f80fd5b611fed838335602085016122a0565b5f805f805f60a086880312156123bc575f80fd5b6123c58661206a565b9450602086013567ffffffffffffffff808211156123e1575f80fd5b6123ed89838a0161238a565b95506040880135915080821115612402575f80fd5b61240e89838a0161238a565b94506060880135915080821115612423575f80fd5b61242f89838a0161238a565b93506080880135915080821115612444575f80fd5b506124518882890161238a565b9150509295509295909350565b5f806040838503121561246f575f80fd5b6124788361206a565b91506124866020840161206a565b90509250929050565b600181811c908216806124a357607f821691505b6020821081036124c157634e487b7160e01b5f52602260045260245ffd5b50919050565b6020808252602d908201527f4552433732313a2063616c6c6572206973206e6f7420746f6b656e206f776e6560408201526c1c881bdc88185c1c1c9bdd9959609a1b606082015260800190565b634e487b7160e01b5f52603260045260245ffd5b634e487b7160e01b5f52601160045260245ffd5b5f6001820161254d5761254d612528565b5060010190565b5f8151612565818560208601611ff4565b9290920192915050565b5f8351612580818460208801611ff4565b68010283932b1b2b83a160bd1b90830190815283516125a6816009840160208801611ff4565b01600901949350505050565b67021b7bab939b29d160c51b81525f85516125d4816008850160208a01611ff4565b6a01610283932b1b2b83a1d160ad1b60089184019182015285516125ff816013840160208a01611ff4565b69016102a34b6b4b7339d160b51b60139290910191820152845161262a81601d840160208901611ff4565b6c0171026b7b9329034b733379d1609d1b601d9290910191820152835161265881602a840160208801611ff4565b01602a019695505050505050565b7f3c73766720786d6c6e733d27687474703a2f2f7777772e77332e6f72672f323081527f30302f737667272077696474683d2733353027206865696768743d273335302760208201527f207374796c653d276261636b67726f756e642d636f6c6f723a6f72616e67653b60408201525f61139f60f11b8060608401527f3c7465787420783d273530252720793d27353025272066696c6c3d277768697460628401527f652720646f6d696e616e742d626173656c696e653d276d6964646c652720746560828401527f78742d616e63686f723d276d6964646c652720666f6e742d73697a653d27313660a28401528060c284015250845161276e8160c4850160208901611ff4565b6201016960ed1b60c49184019182015284516127918160c7840160208901611ff4565b6120f96127c46127b76127b160c78587010161040560f31b815260020190565b88612554565b602960f81b815260010190565b6c1e17ba32bc3a1f1e17b9bb339f60991b8152600d0190565b7f646174613a696d6167652f7376672b786d6c3b6261736536342c00000000000081525f825161281481601a850160208701611ff4565b91909101601a0192915050565b683d913730b6b2911d1160b91b815286515f90612845816009850160208c01611ff4565b701116113232b9b1b934b83a34b7b7111d1160791b600991840191820152875161287681601a840160208c01611ff4565b6a11161134b6b0b3b2911d1160a91b601a929091019182015286516128a2816025840160208b01611ff4565b7f222c2261747472696275746573223a5b7b2274726169745f74797065223a2243602592909101918201527237bab939b29024a21116113b30b63ab2911d1160691b604582015285516128fc816058840160208a01611ff4565b61299b61298b61298561295061294a6058868801017f227d2c7b2274726169745f74797065223a2250726563657074204944222c227681526630b63ab2911d1160c91b602082015260270190565b8a612554565b7f227d2c7b2274726169745f74797065223a2254696d696e67222c2276616c7565815262111d1160e91b602082015260230190565b87612554565b63227d5d7d60e01b815260040190565b9a9950505050505050505050565b7f646174613a6170706c69636174696f6e2f6a736f6e3b6261736536342c00000081525f82516129e081601d850160208701611ff4565b91909101601d0192915050565b601f82111561054d575f81815260208120601f850160051c81016020861015612a135750805b601f850160051c820191505b81811015612a3257828155600101612a1f565b505050505050565b815167ffffffffffffffff811115612a5457612a5461228c565b612a6881612a62845461248f565b846129ed565b602080601f831160018114612a9b575f8415612a845750858301515b5f19600386901b1c1916600185901b178555612a32565b5f85815260208120601f198616915b82811015612ac957888601518255948401946001909101908401612aaa565b5085821015612ae657878501515f19600388901b60f8161c191681555b5050505050600190811b01905550565b60208082526025908201527f4552433732313a207472616e736665722066726f6d20696e636f72726563742060408201526437bbb732b960d91b606082015260800190565b60208082526032908201527f4552433732313a207472616e7366657220746f206e6f6e20455243373231526560408201527131b2b4bb32b91034b6b83632b6b2b73a32b960711b606082015260800190565b8082018082111561037f5761037f612528565b5f82612bba57634e487b7160e01b5f52601260045260245ffd5b500490565b808202811582820484141761037f5761037f612528565b8181038181111561037f5761037f612528565b6001600160a01b03858116825284166020820152604081018390526080606082018190525f90612c1b90830184612016565b9695505050505050565b5f60208284031215612c35575f80fd5b8151611fed81611fbd56fe4142434445464748494a4b4c4d4e4f505152535455565758595a6162636465666768696a6b6c6d6e6f707172737475767778797a303132333435363738392b2fa2646970667358221220b6a599a5132bed1a979f44afee639e5aa171380280065d1a1f104476611ed86064736f6c63430008140033",
  "immutableReferences": {},
  "source": "// SPDX-License-Identifier: MIT\r\npragma solidity ^0.8.0;\r\n\r\nimport \"@openzeppelin/contracts/token/ERC721/ERC721.sol\";\r\nimport \"@openzeppelin/contracts/access/Ownable.sol\";\r\nimport \"./Base64.sol\";\r\n\r\ncontract CourseToken is ERC721, Ownable {\r\n    struct CourseMetadata {\r\n        string courseID;\r\n        string preceptID;\r\n        string timing;\r\n        string coursePageURL;\r\n    }\r\n\r\n    mapping(uint256 => CourseMetadata) public tokenMeta;\r\n    uint256 private nextTokenId = 1;\r\n\r\n    constructor() ERC721(\"CourseToken\", \"CTKN\") {}\r\n\r\n    function mintCourseToken(\r\n        address to,\r\n        string memory _courseID,\r\n        string memory _preceptID,\r\n        string memory _timing,\r\n        string memory _coursePageURL\r\n    ) public onlyOwner {\r\n        uint256 tokenId = nextTokenId;\r\n        _mint(to, tokenId);\r\n        tokenMeta[tokenId] = CourseMetadata(_courseID, _preceptID, _timing, _coursePageURL);\r\n        nextTokenId++;\r\n    }\r\n\r\n    function burnCourseToken(uint256 tokenId) public onlyOwner {\r\n        require(_exists(tokenId), \"Token does not exist\");\r\n        _burn(tokenId);\r\n        delete tokenMeta[tokenId];\r\n    }\r\n\r\n    function courseDetails(uint256 tokenId)\r\n        public\r\n        view\r\n        returns (string memory, string memory, string memory, string memory)\r\n    {\r\n        require(_exists(tokenId), \"Token does not exist\");\r\n        CourseMetadata memory meta = tokenMeta[tokenId];\r\n        return (meta.courseID, meta.preceptID, meta.timing, meta.coursePageURL);\r\n    }\r\n\r\n    // Reimplemented without ERC721Enumerable\r\n    function tokensOfOwner(address owner) public view returns (uint256[] memory) {\r\n        uint256 count = balanceOf(owner);\r\n        uint256[] memory tokenIds = new uint256[](count);\r\n        uint256 found = 0;\r\n        for (uint256 i = 1; found < count && i < nextTokenId; i++) {\r\n            if (_exists(i) && ownerOf(i) == owner) {\r\n                tokenIds[found] = i;\r\n                found++;\r\n            }\r\n        }\r\n        return tokenIds;\r\n    }\r\n\r\n    function tokensAndMetadataOfOwner(address owner) public view returns (CourseMetadata[] memory) {\r\n        uint256 count = balanceOf(owner);\r\n        CourseMetadata[] memory metadataList = new CourseMetadata[](count);\r\n        uint256 found = 0;\r\n        for (uint256 i = 1; found < count && i < nextTokenId; i++) {\r\n            if (_exists(i) && ownerOf(i) == owner) {\r\n                metadataList[found] = tokenMeta[i];\r\n                found++;\r\n            }\r\n        }\r\n        return metadataList;\r\n    }\r\n\r\n    function tokenURI(uint256 tokenId) public view override returns (string memory) {\r\n        require(_exists(tokenId), \"ERC721Metadata: URI query for nonexistent token\");\r\n        CourseMetadata memory meta = tokenMeta[tokenId];\r\n\r\n        string memory name = string(abi.encodePacked(meta.courseID, \" Precept \", meta.preceptID));\r\n        string memory description = string(\r\n            abi.encodePacked(\r\n                \"Course: \", meta.courseID,\r\n                \", Precept: \", meta.preceptID,\r\n                \", Timing: \", meta.timing,\r\n                \". More info: \", meta.coursePageURL\r\n            )\r\n        );\r\n\r\n        string memory svgImage = string(\r\n            abi.encodePacked(\r\n                \"<svg xmlns='http://www.w3.org/2000/svg' width='350' height='350' style='background-color:orange;'>\",\r\n                \"<text x='50%' y='50%' fill='white' dominant-baseline='middle' text-anchor='middle' font-size='16'>\",\r\n                meta.courseID, \" - \", meta.preceptID, \" (\", meta.timing, \")\",\r\n                \"</text></svg>\"\r\n            )\r\n        );\r\n\r\n        string memory imageBase64 = Base64.encode(bytes(svgImage));\r\n        string memory imageURI = string(abi.encodePacked(\"data:image/svg+xml;base64,\", imageBase64));\r\n\r\n        string memory json = string(\r\n            abi.encodePacked(\r\n                '{\"name\":\"', name,\r\n                '\",\"description\":\"', description,\r\n                '\",\"image\":\"', imageURI,\r\n                '\",\"attributes\":[{\"trait_type\":\"Course ID\",\"value\":\"', meta.courseID,\r\n                '\"},{\"trait_type\":\"Precept ID\",\"value\":\"', meta.preceptID,\r\n                '\"},{\"trait_type\":\"Timing\",\"value\":\"', meta.timing,\r\n                '\"}]}'\r\n            )\r\n        );\r\n\r\n        string memory jsonBase64 = Base64.encode(bytes(json));\r\n        return string(abi.encodePacked(\"data:application/json;base64,\", jsonBase64));\r\n    }\r\n}\r\n",
  "sourcePath": "C:\\Users\\User\\Downloads\\TigerSwap\\contracts\\CourseToken.sol",
  "compiler": {
    "name": "solc",
    "version": "0.8.20+commit.a1b79de6.Emscripten.clang"
  },
  "schemaVersion": "3.4.16",
  "updatedAt": "2025-04-17T02:32:24.412Z",
  "devdoc": {
    "events": {
      "Approval(address,address,uint256)": {
        "details": "Emitted when `owner` enables `approved` to manage the `tokenId` token."
      },
      "ApprovalForAll(address,address,bool)": {
        "details": "Emitted when `owner` enables or disables (`approved`) `operator` to manage all of its assets."
      },
      "Transfer(address,address,uint256)": {
        "details": "Emitted when `tokenId` token is transferred from `from` to `to`."
      }
    },
    "kind": "dev",
    "methods": {
      "approve(address,uint256)": {
        "details": "See {IERC721-approve}."
      },
      "balanceOf(address)": {
        "details": "See {IERC721-balanceOf}."
      },
      "getApproved(uint256)": {
        "details": "See {IERC721-getApproved}."
      },
      "isApprovedForAll(address,address)": {
        "details": "See {IERC721-isApprovedForAll}."
      },
      "name()": {
        "details": "See {IERC721Metadata-name}."
      },
      "owner()": {
        "details": "Returns the address of the current owner."
      },
      "ownerOf(uint256)": {
        "details": "See {IERC721-ownerOf}."
      },
      "renounceOwnership()": {
        "details": "Leaves the contract without owner. It will not be possible to call `onlyOwner` functions anymore. Can only be called by the current owner. NOTE: Renouncing ownership will leave the contract without an owner, thereby removing any functionality that is only available to the owner."
      },
      "safeTransferFrom(address,address,uint256)": {
        "details": "See {IERC721-safeTransferFrom}."
      },
      "safeTransferFrom(address,address,uint256,bytes)": {
        "details": "See {IERC721-safeTransferFrom}."
      },
      "setApprovalForAll(address,bool)": {
        "details": "See {IERC721-setApprovalForAll}."
      },
      "supportsInterface(bytes4)": {
        "details": "See {IERC165-supportsInterface}."
      },
      "symbol()": {
        "details": "See {IERC721Metadata-symbol}."
      },
      "tokenURI(uint256)": {
        "details": "See {IERC721Metadata-tokenURI}."
      },
      "transferFrom(address,address,uint256)": {
        "details": "See {IERC721-transferFrom}."
      },
      "transferOwnership(address)": {
        "details": "Transfers ownership of the contract to a new account (`newOwner`). Can only be called by the current owner."
      }
    },
    "version": 1
  },
  "userdoc": {
    "kind": "user",
    "methods": {},
    "version": 1
  }
}