{
  "contractName": "Swap3Brute",
  "abi": [
    {
      "inputs": [
        {
          "internalType": "address",
          "name": "_courseTokenAddress",
          "type": "address"
        }
      ],
      "stateMutability": "nonpayable",
      "type": "constructor"
    },
    {
      "anonymous": false,
      "inputs": [],
      "name": "NoThreeWaySwapFound",
      "type": "event"
    },
    {
      "anonymous": false,
      "inputs": [
        {
          "indexed": false,
          "internalType": "uint256",
          "name": "orderId",
          "type": "uint256"
        },
        {
          "indexed": true,
          "internalType": "address",
          "name": "student",
          "type": "address"
        }
      ],
      "name": "OrderCancelled",
      "type": "event"
    },
    {
      "anonymous": false,
      "inputs": [
        {
          "indexed": false,
          "internalType": "uint256",
          "name": "orderId",
          "type": "uint256"
        },
        {
          "indexed": true,
          "internalType": "address",
          "name": "student",
          "type": "address"
        },
        {
          "indexed": false,
          "internalType": "uint256",
          "name": "offeredTokenId",
          "type": "uint256"
        },
        {
          "indexed": false,
          "internalType": "string",
          "name": "requestedCourseID",
          "type": "string"
        }
      ],
      "name": "OrderSubmitted",
      "type": "event"
    },
    {
      "anonymous": false,
      "inputs": [
        {
          "indexed": true,
          "internalType": "address",
          "name": "previousOwner",
          "type": "address"
        },
        {
          "indexed": true,
          "internalType": "address",
          "name": "newOwner",
          "type": "address"
        }
      ],
      "name": "OwnershipTransferred",
      "type": "event"
    },
    {
      "anonymous": false,
      "inputs": [
        {
          "indexed": false,
          "internalType": "uint256",
          "name": "orderId1",
          "type": "uint256"
        },
        {
          "indexed": false,
          "internalType": "uint256",
          "name": "orderId2",
          "type": "uint256"
        },
        {
          "indexed": false,
          "internalType": "uint256",
          "name": "tokenId1",
          "type": "uint256"
        },
        {
          "indexed": false,
          "internalType": "uint256",
          "name": "tokenId2",
          "type": "uint256"
        }
      ],
      "name": "SwapExecuted",
      "type": "event"
    },
    {
      "anonymous": false,
      "inputs": [
        {
          "indexed": false,
          "internalType": "uint256",
          "name": "orderId1",
          "type": "uint256"
        },
        {
          "indexed": false,
          "internalType": "address",
          "name": "student1",
          "type": "address"
        },
        {
          "indexed": false,
          "internalType": "string",
          "name": "courseID1",
          "type": "string"
        },
        {
          "indexed": false,
          "internalType": "string",
          "name": "preceptID1",
          "type": "string"
        },
        {
          "indexed": false,
          "internalType": "uint256",
          "name": "orderId2",
          "type": "uint256"
        },
        {
          "indexed": false,
          "internalType": "address",
          "name": "student2",
          "type": "address"
        },
        {
          "indexed": false,
          "internalType": "string",
          "name": "courseID2",
          "type": "string"
        },
        {
          "indexed": false,
          "internalType": "string",
          "name": "preceptID2",
          "type": "string"
        }
      ],
      "name": "SwapExecutedVerbose",
      "type": "event"
    },
    {
      "anonymous": false,
      "inputs": [
        {
          "indexed": false,
          "internalType": "uint256",
          "name": "orderId1",
          "type": "uint256"
        },
        {
          "indexed": false,
          "internalType": "address",
          "name": "student1",
          "type": "address"
        },
        {
          "indexed": false,
          "internalType": "uint256",
          "name": "tokenId1",
          "type": "uint256"
        },
        {
          "indexed": false,
          "internalType": "uint256",
          "name": "orderId2",
          "type": "uint256"
        },
        {
          "indexed": false,
          "internalType": "address",
          "name": "student2",
          "type": "address"
        },
        {
          "indexed": false,
          "internalType": "uint256",
          "name": "tokenId2",
          "type": "uint256"
        },
        {
          "indexed": false,
          "internalType": "uint256",
          "name": "orderId3",
          "type": "uint256"
        },
        {
          "indexed": false,
          "internalType": "address",
          "name": "student3",
          "type": "address"
        },
        {
          "indexed": false,
          "internalType": "uint256",
          "name": "tokenId3",
          "type": "uint256"
        }
      ],
      "name": "ThreeWaySwapExecuted",
      "type": "event"
    },
    {
      "anonymous": false,
      "inputs": [],
      "name": "TwoWaySwapCompleted",
      "type": "event"
    },
    {
      "inputs": [],
      "name": "cancelAllOrders",
      "outputs": [],
      "stateMutability": "nonpayable",
      "type": "function"
    },
    {
      "inputs": [
        {
          "internalType": "uint256",
          "name": "orderId",
          "type": "uint256"
        }
      ],
      "name": "cancelOrder",
      "outputs": [],
      "stateMutability": "nonpayable",
      "type": "function"
    },
    {
      "inputs": [],
      "name": "courseToken",
      "outputs": [
        {
          "internalType": "contract ICourseToken",
          "name": "",
          "type": "address"
        }
      ],
      "stateMutability": "view",
      "type": "function"
    },
    {
      "inputs": [],
      "name": "executeSwaps",
      "outputs": [],
      "stateMutability": "nonpayable",
      "type": "function"
    },
    {
      "inputs": [],
      "name": "getActiveOrdersWithMetadata",
      "outputs": [
        {
          "components": [
            {
              "internalType": "uint256",
              "name": "orderId",
              "type": "uint256"
            },
            {
              "internalType": "address",
              "name": "student",
              "type": "address"
            },
            {
              "internalType": "uint256",
              "name": "offeredTokenId",
              "type": "uint256"
            },
            {
              "internalType": "string",
              "name": "requestedCourseID",
              "type": "string"
            },
            {
              "internalType": "string",
              "name": "courseID",
              "type": "string"
            },
            {
              "internalType": "string",
              "name": "preceptID",
              "type": "string"
            },
            {
              "internalType": "string",
              "name": "timing",
              "type": "string"
            },
            {
              "internalType": "string",
              "name": "coursePageURL",
              "type": "string"
            }
          ],
          "internalType": "struct Swap.OrderWithMetadata[]",
          "name": "",
          "type": "tuple[]"
        }
      ],
      "stateMutability": "view",
      "type": "function"
    },
    {
      "inputs": [],
      "name": "orderCounter",
      "outputs": [
        {
          "internalType": "uint256",
          "name": "",
          "type": "uint256"
        }
      ],
      "stateMutability": "view",
      "type": "function"
    },
    {
      "inputs": [
        {
          "internalType": "uint256",
          "name": "",
          "type": "uint256"
        }
      ],
      "name": "orderIds",
      "outputs": [
        {
          "internalType": "uint256",
          "name": "",
          "type": "uint256"
        }
      ],
      "stateMutability": "view",
      "type": "function"
    },
    {
      "inputs": [
        {
          "internalType": "uint256",
          "name": "",
          "type": "uint256"
        }
      ],
      "name": "orders",
      "outputs": [
        {
          "internalType": "uint256",
          "name": "orderId",
          "type": "uint256"
        },
        {
          "internalType": "address",
          "name": "student",
          "type": "address"
        },
        {
          "internalType": "uint256",
          "name": "offeredTokenId",
          "type": "uint256"
        },
        {
          "internalType": "string",
          "name": "requestedCourseID",
          "type": "string"
        },
        {
          "internalType": "bool",
          "name": "active",
          "type": "bool"
        }
      ],
      "stateMutability": "view",
      "type": "function"
    },
    {
      "inputs": [],
      "name": "owner",
      "outputs": [
        {
          "internalType": "address",
          "name": "",
          "type": "address"
        }
      ],
      "stateMutability": "view",
      "type": "function"
    },
    {
      "inputs": [],
      "name": "renounceOwnership",
      "outputs": [],
      "stateMutability": "nonpayable",
      "type": "function"
    },
    {
      "inputs": [
        {
          "internalType": "uint256",
          "name": "offeredTokenId",
          "type": "uint256"
        },
        {
          "internalType": "string",
          "name": "requestedCourseID",
          "type": "string"
        }
      ],
      "name": "submitOrder",
      "outputs": [],
      "stateMutability": "nonpayable",
      "type": "function"
    },
    {
      "inputs": [
        {
          "internalType": "address",
          "name": "newOwner",
          "type": "address"
        }
      ],
      "name": "transferOwnership",
      "outputs": [],
      "stateMutability": "nonpayable",
      "type": "function"
    },
    {
      "inputs": [],
      "name": "executeThreeWaySwaps",
      "outputs": [],
      "stateMutability": "nonpayable",
      "type": "function"
    },
    {
      "inputs": [],
      "name": "executeTwoWaySwaps",
      "outputs": [],
      "stateMutability": "nonpayable",
      "type": "function"
    }
  ],
  "bytecode": "0x608060405234801562000010575f80fd5b506040516200283d3803806200283d8339810160408190526200003391620000b5565b806200003f3362000066565b600180546001600160a01b0319166001600160a01b039290921691909117905550620000e4565b5f80546001600160a01b038381166001600160a01b0319831681178455604051919092169283917f8be0079c531659141344cd1fd0a4f28419497f9722a3daafe3b4186f6b6457e09190a35050565b5f60208284031215620000c6575f80fd5b81516001600160a01b0381168114620000dd575f80fd5b9392505050565b61274b80620000f25f395ff3fe608060405234801561000f575f80fd5b50600436106100e5575f3560e01c80638da5cb5b11610088578063c9b90b1b11610063578063c9b90b1b146101c4578063e117e51d146101cc578063f2fde38b146101d4578063ffe7dc4e146101e7575f80fd5b80638da5cb5b14610187578063a85c38ef14610197578063b789bf52146101bb575f80fd5b806332603f2d116100c357806332603f2d14610144578063514fcac714610159578063715018a61461016c5780638d22d44614610174575f80fd5b8063028afabf146100e957806305462c6d146100f35780632372208414610123575b5f80fd5b6100f16101ef565b005b600154610106906001600160a01b031681565b6040516001600160a01b0390911681526020015b60405180910390f35b610136610131366004611fcc565b6102b4565b60405190815260200161011a565b61014c6102d3565b60405161011a9190612030565b6100f1610167366004611fcc565b6105ea565b6100f16106d9565b6100f161018236600461219f565b6106ec565b5f546001600160a01b0316610106565b6101aa6101a5366004611fcc565b6108ca565b60405161011a959493929190612223565b61013660025481565b6100f161098e565b6100f16109c8565b6100f16101e2366004612277565b61124a565b6100f16112c0565b6101f7611949565b5f5b6004548110156102b1575f6004828154811061021757610217612292565b5f918252602080832090910154808352600390915260409091206004015490915060ff161561029e575f8181526003602090815260409182902060048101805460ff191690556001015491518381526001600160a01b03909216917fc0362da6f2ff36b382b34aec0814f6b3cdf89f5ef282a1d1f114d0c0b036d596910160405180910390a25b50806102a9816122ba565b9150506101f9565b50565b600481815481106102c3575f80fd5b5f91825260209091200154905081565b60606102dd611949565b5f805b6004548110156103465760035f6004838154811061030057610300612292565b5f918252602080832090910154835282019290925260400190206004015460ff16156103345781610330816122ba565b9250505b8061033e816122ba565b9150506102e0565b505f8167ffffffffffffffff81111561036157610361612133565b6040519080825280602002602001820160405280156103e057816020015b6103cd6040518061010001604052805f81526020015f6001600160a01b031681526020015f815260200160608152602001606081526020016060815260200160608152602001606081525090565b81526020019060019003908161037f5790505b5090505f805b6004548110156105e1575f6004828154811061040457610404612292565b5f918252602080832090910154808352600390915260409091206004015490915060ff1661043257506105cf565b5f818152600360205260408082206001546002820154925163d1be530960e01b815260048101939093529092918291829182916001600160a01b03169063d1be5309906024015f60405180830381865afa158015610492573d5f803e3d5ffd5b505050506040513d5f823e601f3d908101601f191682016040526104b9919081019061231c565b60408051610100810182528a54815260018b01546001600160a01b0316602082015260028b01549181019190915260038a018054959950939750919550935091606083019190610508906123c2565b80601f0160208091040260200160405190810160405280929190818152602001828054610534906123c2565b801561057f5780601f106105565761010080835404028352916020019161057f565b820191905f5260205f20905b81548152906001019060200180831161056257829003601f168201915b50505050508152602001858152602001848152602001838152602001828152508989806105ab906122ba565b9a50815181106105bd576105bd612292565b60200260200101819052505050505050505b806105d9816122ba565b9150506103e6565b50909250505090565b5f818152600360205260409020600481015460ff166106465760405162461bcd60e51b81526020600482015260136024820152724f72646572206973206e6f742061637469766560681b60448201526064015b60405180910390fd5b60018101546001600160a01b031633146106935760405162461bcd60e51b815260206004820152600e60248201526d2737ba103cb7bab91037b93232b960911b604482015260640161063d565b60048101805460ff1916905560405182815233907fc0362da6f2ff36b382b34aec0814f6b3cdf89f5ef282a1d1f114d0c0b036d596906020015b60405180910390a25050565b6106e1611949565b6106ea5f6119a2565b565b6001546040516331a9108f60e11b81526004810184905233916001600160a01b031690636352211e90602401602060405180830381865afa158015610733573d5f803e3d5ffd5b505050506040513d601f19601f8201168201806040525081019061075791906123fa565b6001600160a01b0316146107ad5760405162461bcd60e51b815260206004820181905260248201527f596f7520646f206e6f74206f776e20746865206f66666572656420746f6b656e604482015260640161063d565b60028054905f6107bc836122ba565b90915550506040805160a08101825260028054808352336020808501918252848601888152606086018881526001608088018190525f9586526003938490529790942086518155925196830180546001600160a01b0319166001600160a01b03909816979097179096559451928101929092555191929091908201906108429082612463565b50608091909101516004918201805460ff191691151591909117905560025481546001810183555f929092527f8a35acfbc15ff81a39ae7d344fd709f28e8600b4aa8c65c6b64bfe7fe36bd19b90910181905560405133917fce5223d849377a0f55f7f8906570ae74f4031b0fe42160b9c14828a428447333916106cd91908690869061251f565b600360208190525f9182526040909120805460018201546002830154938301805492946001600160a01b03909216939192610904906123c2565b80601f0160208091040260200160405190810160405280929190818152602001828054610930906123c2565b801561097b5780601f106109525761010080835404028352916020019161097b565b820191905f5260205f20905b81548152906001019060200180831161095e57829003601f168201915b5050506004909301549192505060ff1685565b610996611949565b61099e6112c0565b6040517f3a59334227f69cc6b7a76a6a062132cd2ef20044f6550533ea1d2d1782bdccc7905f90a1565b6109d0611949565b6004545f90815b818110156112175760035f600483815481106109f5576109f5612292565b5f918252602080832090910154835282019290925260400190206004015460ff1615611205575f610a27826001612546565b90505b828110156112035760035f60048381548110610a4857610a48612292565b5f918252602080832090910154835282019290925260400190206004015460ff16156111f1575f610a7a826001612546565b90505b838110156111ef5760035f60048381548110610a9b57610a9b612292565b5f918252602080832090910154835282019290925260400190206004015460ff16156111dd575f60035f60048681548110610ad857610ad8612292565b905f5260205f20015481526020019081526020015f2090505f60035f60048681548110610b0757610b07612292565b905f5260205f20015481526020019081526020015f2090505f60035f60048681548110610b3657610b36612292565b5f9182526020808320909101548352820192909252604090810182206001546002870154925163d1be530960e01b81529194506001600160a01b03169163d1be530991610b8a919060040190815260200190565b5f60405180830381865afa158015610ba4573d5f803e3d5ffd5b505050506040513d5f823e601f3d908101601f19168201604052610bcb919081019061231c565b5050600154600286015460405163d1be530960e01b815260048101919091529293505f926001600160a01b03909116915063d1be5309906024015f60405180830381865afa158015610c1f573d5f803e3d5ffd5b505050506040513d5f823e601f3d908101601f19168201604052610c46919081019061231c565b5050600154600286015460405163d1be530960e01b815260048101919091529293505f926001600160a01b03909116915063d1be5309906024015f60405180830381865afa158015610c9a573d5f803e3d5ffd5b505050506040513d5f823e601f3d908101601f19168201604052610cc1919081019061231c565b5050509050818051906020012086600301604051610cdf9190612559565b6040518091039020148015610d11575080516020820120604051610d07906003880190612559565b6040518091039020145b8015610d3a575082516020840120604051610d30906003870190612559565b6040518091039020145b156111d6576040805160a0810182528754815260018801546001600160a01b03166020820152600288015491810191909152600387018054610fc492918991606084019190610d88906123c2565b80601f0160208091040260200160405190810160405280929190818152602001828054610db4906123c2565b8015610dff5780601f10610dd657610100808354040283529160200191610dff565b820191905f5260205f20905b815481529060010190602001808311610de257829003601f168201915b50505091835250506004919091015460ff1615156020918201526040805160a0810182528954815260018a01546001600160a01b03169281019290925260028901549082015260038801805489916060840191610e5b906123c2565b80601f0160208091040260200160405190810160405280929190818152602001828054610e87906123c2565b8015610ed25780601f10610ea957610100808354040283529160200191610ed2565b820191905f5260205f20905b815481529060010190602001808311610eb557829003601f168201915b50505091835250506004919091015460ff1615156020918201526040805160a0810182528954815260018a01546001600160a01b03169281019290925260028901549082015260038801805489916060840191610f2e906123c2565b80601f0160208091040260200160405190810160405280929190818152602001828054610f5a906123c2565b8015610fa55780601f10610f7c57610100808354040283529160200191610fa5565b820191905f5260205f20905b815481529060010190602001808311610f8857829003601f168201915b50505091835250506004919091015460ff1615156020909101526119f1565b156111d6576001805487820154918601546002890154604051632142170760e11b81526001600160a01b03938416946342842e0e9461100c94918116939116916004016125cb565b5f604051808303815f87803b158015611023575f80fd5b505af1158015611035573d5f803e3d5ffd5b50506001805488820154918a015460028a0154604051632142170760e11b81526001600160a01b0393841696506342842e0e955061107c94841693909216916004016125cb565b5f604051808303815f87803b158015611093575f80fd5b505af11580156110a5573d5f803e3d5ffd5b50506001805487820154918901546002890154604051632142170760e11b81526001600160a01b0393841696506342842e0e95506110ec94841693909216916004016125cb565b5f604051808303815f87803b158015611103575f80fd5b505af1158015611115573d5f803e3d5ffd5b505050506004868101805460ff199081169091558682018054821690559085018054909116905585546001808801546002808a015489548a850154838c01548b54968c0154948c015460408051998a526001600160a01b0397881660208b015289019490945260608801929092528416608087015260a086015260c08501939093521660e08301526101008201527f5dacc7d79298319d123b4f2811231807e4da95a77fb37917ac9412793b458ad0906101200160405180910390a160019a505b5050505050505b806111e7816122ba565b915050610a7d565b505b806111fb816122ba565b915050610a2a565b505b8061120f816122ba565b9150506109d7565b5081611246576040517f812c55dbbf1bb3065de67f6002d7ba3898a63705ac8f40bd986d5e7fa2174435905f90a15b5050565b611252611949565b6001600160a01b0381166112b75760405162461bcd60e51b815260206004820152602660248201527f4f776e61626c653a206e6577206f776e657220697320746865207a65726f206160448201526564647265737360d01b606482015260840161063d565b6102b1816119a2565b6112c8611949565b6004545f5b81811015611246575f600482815481106112e9576112e9612292565b5f918252602080832090910154808352600390915260409091206004015490915060ff166113175750611937565b5f818152600360205260408082206001546002820154925163d1be530960e01b81529193926001600160a01b039091169163d1be53099161135e9160040190815260200190565b5f60405180830381865afa158015611378573d5f803e3d5ffd5b505050506040513d5f823e601f3d908101601f1916820160405261139f919081019061231c565b50505090505f8460016113b29190612546565b90505b85811015611932575f600482815481106113d1576113d1612292565b5f918252602080832090910154808352600390915260409091206004015490915060ff166113ff5750611920565b5f818152600360205260408082206001546002820154925163d1be530960e01b81529193926001600160a01b039091169163d1be5309916114469160040190815260200190565b5f60405180830381865afa158015611460573d5f803e3d5ffd5b505050506040513d5f823e601f3d908101601f19168201604052611487919081019061231c565b50505090508080519060200120866003016040516114a59190612559565b60405180910390201480156114d75750845160208601206040516114cd906003850190612559565b6040518091039020145b1561191c57600186810154838201546002808a01549086015493546040516331a9108f60e11b8152600481018390526001600160a01b03948516959385169492939286921690636352211e90602401602060405180830381865afa158015611541573d5f803e3d5ffd5b505050506040513d601f19601f8201168201806040525081019061156591906123fa565b6001600160a01b0316146115af5760405162461bcd60e51b81526020600482015260116024820152704f776e6572206d69736d6174636820743160781b604482015260640161063d565b6001546040516331a9108f60e11b8152600481018390526001600160a01b03858116921690636352211e90602401602060405180830381865afa1580156115f8573d5f803e3d5ffd5b505050506040513d601f19601f8201168201806040525081019061161c91906123fa565b6001600160a01b0316146116665760405162461bcd60e51b815260206004820152601160248201527027bbb732b91036b4b9b6b0ba31b4103a1960791b604482015260640161063d565b611671848383611c59565b806116825750611682838284611c59565b806116935750611693848383611dde565b806116a457506116a4838284611dde565b156116b55750505050505050611920565b600154604051632142170760e11b81526001600160a01b03909116906342842e0e906116e9908790879087906004016125cb565b5f604051808303815f87803b158015611700575f80fd5b505af1158015611712573d5f803e3d5ffd5b5050600154604051632142170760e11b81526001600160a01b0390911692506342842e0e915061174a908690889086906004016125cb565b5f604051808303815f87803b158015611761575f80fd5b505af1158015611773573d5f803e3d5ffd5b5050505060048a8101805460ff1990811690915590870180549091169055604080518c815260208101899052908101839052606081018290527fabed9c2bf91a3043c0b147978b27b3272de63d4ccdcbcb8ba15ff32b078c5be39060800160405180910390a160015460405163d1be530960e01b8152600481018490525f9182916001600160a01b039091169063d1be5309906024015f60405180830381865afa158015611823573d5f803e3d5ffd5b505050506040513d5f823e601f3d908101601f1916820160405261184a919081019061231c565b505060015460405163d1be530960e01b8152600481018790529294509092505f9182916001600160a01b03169063d1be5309906024015f60405180830381865afa15801561189a573d5f803e3d5ffd5b505050506040513d5f823e601f3d908101601f191682016040526118c1919081019061231c565b5050915091507f9fe4a655c0746bee9930f95157c5b5dd064d1694237b1a3a016a4125a579bf0b8f8986868f8c88886040516119049897969594939291906125ef565b60405180910390a15050505050505050505050611932565b5050505b8061192a816122ba565b9150506113b5565b505050505b80611941816122ba565b9150506112cd565b5f546001600160a01b031633146106ea5760405162461bcd60e51b815260206004820181905260248201527f4f776e61626c653a2063616c6c6572206973206e6f7420746865206f776e6572604482015260640161063d565b5f80546001600160a01b038381166001600160a01b0319831681178455604051919092169283917f8be0079c531659141344cd1fd0a4f28419497f9722a3daafe3b4186f6b6457e09190a35050565b602083015160015460408086015190516331a9108f60e11b815260048101919091525f926001600160a01b03908116921690636352211e90602401602060405180830381865afa158015611a47573d5f803e3d5ffd5b505050506040513d601f19601f82011682018060405250810190611a6b91906123fa565b6001600160a01b0316141580611b025750602083015160015460408086015190516331a9108f60e11b815260048101919091526001600160a01b039283169290911690636352211e90602401602060405180830381865afa158015611ad2573d5f803e3d5ffd5b505050506040513d601f19601f82011682018060405250810190611af691906123fa565b6001600160a01b031614155b80611b8e5750602082015160015460408085015190516331a9108f60e11b815260048101919091526001600160a01b039283169290911690636352211e90602401602060405180830381865afa158015611b5e573d5f803e3d5ffd5b505050506040513d601f19601f82011682018060405250810190611b8291906123fa565b6001600160a01b031614155b15611b9a57505f611c52565b611bb1846020015185604001518560400151611c59565b80611bce5750611bce836020015184604001518460400151611c59565b80611beb5750611beb826020015183604001518660400151611c59565b80611c085750611c08846020015185604001518560400151611dde565b80611c255750611c25836020015184604001518460400151611dde565b80611c425750611c42826020015183604001518660400151611dde565b15611c4e57505f611c52565b5060015b9392505050565b5f80611c6485611f57565b60015460405163d1be530960e01b8152600481018690529192505f916001600160a01b039091169063d1be5309906024015f60405180830381865afa158015611caf573d5f803e3d5ffd5b505050506040513d5f823e601f3d908101601f19168201604052611cd6919081019061231c565b50925050505f5b8251811015611dd25785838281518110611cf957611cf9612292565b60200260200101510315611dc05760015483515f916001600160a01b03169063d1be530990869085908110611d3057611d30612292565b60200260200101516040518263ffffffff1660e01b8152600401611d5691815260200190565b5f60405180830381865afa158015611d70573d5f803e3d5ffd5b505050506040513d5f823e601f3d908101601f19168201604052611d97919081019061231c565b50925050508280519060200120818051906020012003611dbe576001945050505050611c52565b505b80611dca816122ba565b915050611cdd565b505f9695505050505050565b5f80611de985611f57565b60015460405163d1be530960e01b8152600481018690529192505f916001600160a01b039091169063d1be5309906024015f60405180830381865afa158015611e34573d5f803e3d5ffd5b505050506040513d5f823e601f3d908101601f19168201604052611e5b919081019061231c565b50505090505f5b8251811015611dd25785838281518110611e7e57611e7e612292565b60200260200101510315611f455760015483515f916001600160a01b03169063d1be530990869085908110611eb557611eb5612292565b60200260200101516040518263ffffffff1660e01b8152600401611edb91815260200190565b5f60405180830381865afa158015611ef5573d5f803e3d5ffd5b505050506040513d5f823e601f3d908101601f19168201604052611f1c919081019061231c565b50505090508280519060200120818051906020012003611f43576001945050505050611c52565b505b80611f4f816122ba565b915050611e62565b600154604051632118854760e21b81526001600160a01b0383811660048301526060921690638462151c906024015f60405180830381865afa158015611f9f573d5f803e3d5ffd5b505050506040513d5f823e601f3d908101601f19168201604052611fc69190810190612674565b92915050565b5f60208284031215611fdc575f80fd5b5035919050565b5f5b83811015611ffd578181015183820152602001611fe5565b50505f910152565b5f815180845261201c816020860160208601611fe3565b601f01601f19169290920160200192915050565b5f6020808301818452808551808352604092508286019150828160051b8701018488015f5b8381101561212557888303603f19018552815180518452878101516001600160a01b038116898601526101009050878201518886015260608083015182828801526120a283880182612005565b92505050608080830151868303828801526120bd8382612005565b9250505060a080830151868303828801526120d88382612005565b9250505060c080830151868303828801526120f38382612005565b9250505060e080830151925085820381870152506121118183612005565b968901969450505090860190600101612055565b509098975050505050505050565b634e487b7160e01b5f52604160045260245ffd5b604051601f8201601f1916810167ffffffffffffffff8111828210171561217057612170612133565b604052919050565b5f67ffffffffffffffff82111561219157612191612133565b50601f01601f191660200190565b5f80604083850312156121b0575f80fd5b82359150602083013567ffffffffffffffff8111156121cd575f80fd5b8301601f810185136121dd575f80fd5b80356121f06121eb82612178565b612147565b818152866020838501011115612204575f80fd5b816020840160208301375f602083830101528093505050509250929050565b85815260018060a01b038516602082015283604082015260a060608201525f61224f60a0830185612005565b905082151560808301529695505050505050565b6001600160a01b03811681146102b1575f80fd5b5f60208284031215612287575f80fd5b8135611c5281612263565b634e487b7160e01b5f52603260045260245ffd5b634e487b7160e01b5f52601160045260245ffd5b5f600182016122cb576122cb6122a6565b5060010190565b5f82601f8301126122e1575f80fd5b81516122ef6121eb82612178565b818152846020838601011115612303575f80fd5b612314826020830160208701611fe3565b949350505050565b5f805f806080858703121561232f575f80fd5b845167ffffffffffffffff80821115612346575f80fd5b612352888389016122d2565b95506020870151915080821115612367575f80fd5b612373888389016122d2565b94506040870151915080821115612388575f80fd5b612394888389016122d2565b935060608701519150808211156123a9575f80fd5b506123b6878288016122d2565b91505092959194509250565b600181811c908216806123d657607f821691505b6020821081036123f457634e487b7160e01b5f52602260045260245ffd5b50919050565b5f6020828403121561240a575f80fd5b8151611c5281612263565b601f82111561245e575f81815260208120601f850160051c8101602086101561243b5750805b601f850160051c820191505b8181101561245a57828155600101612447565b5050505b505050565b815167ffffffffffffffff81111561247d5761247d612133565b6124918161248b84546123c2565b84612415565b602080601f8311600181146124c4575f84156124ad5750858301515b5f19600386901b1c1916600185901b17855561245a565b5f85815260208120601f198616915b828110156124f2578886015182559484019460019091019084016124d3565b508582101561250f57878501515f19600388901b60f8161c191681555b5050505050600190811b01905550565b838152826020820152606060408201525f61253d6060830184612005565b95945050505050565b80820180821115611fc657611fc66122a6565b5f808354612566816123c2565b6001828116801561257e5760018114612593576125bf565b60ff19841687528215158302870194506125bf565b875f526020805f205f5b858110156125b65781548a82015290840190820161259d565b50505082870194505b50929695505050505050565b6001600160a01b039384168152919092166020820152604081019190915260600190565b8881526001600160a01b038881166020830152610100604083018190525f9161261a8483018b612005565b9150838203606085015261262e828a612005565b915087608085015280871660a08501525082810360c08401526126518186612005565b905082810360e08401526126658185612005565b9b9a5050505050505050505050565b5f6020808385031215612685575f80fd5b825167ffffffffffffffff8082111561269c575f80fd5b818501915085601f8301126126af575f80fd5b8151818111156126c1576126c1612133565b8060051b91506126d2848301612147565b81815291830184019184810190888411156126eb575f80fd5b938501935b83851015612709578451825293850193908501906126f0565b9897505050505050505056fea26469706673582212201cee8714ed945adc9b539d088e8f7fd6ba503049615edc609b50d6d611d9246664736f6c63430008140033",
  "immutableReferences": {},
  "source": "// SPDX-License-Identifier: MIT\r\npragma solidity ^0.8.0;\r\n\r\nimport \"./Swap.sol\";\r\n\r\ncontract Swap3Brute is Swap {\r\n    event ThreeWaySwapExecuted(\r\n        uint256 orderId1, address student1, uint256 tokenId1,\r\n        uint256 orderId2, address student2, uint256 tokenId2,\r\n        uint256 orderId3, address student3, uint256 tokenId3\r\n    );\r\n    event NoThreeWaySwapFound();\r\n    event TwoWaySwapCompleted();\r\n\r\n    constructor(address _courseTokenAddress) Swap(_courseTokenAddress) {}\r\n\r\n    function executeThreeWaySwaps() public onlyOwner {\r\n        bool found;\r\n        uint256 n = orderIds.length;\r\n\r\n        for (uint i = 0; i < n; i++) {\r\n            if (!orders[orderIds[i]].active) continue;\r\n            for (uint j = i + 1; j < n; j++) {\r\n                if (!orders[orderIds[j]].active) continue;\r\n                for (uint k = j + 1; k < n; k++) {\r\n                    if (!orders[orderIds[k]].active) continue;\r\n\r\n                    Order storage A = orders[orderIds[i]];\r\n                    Order storage B = orders[orderIds[j]];\r\n                    Order storage C = orders[orderIds[k]];\r\n\r\n                    (string memory cA, , , ) = courseToken.courseDetails(A.offeredTokenId);\r\n                    (string memory cB, , , ) = courseToken.courseDetails(B.offeredTokenId);\r\n                    (string memory cC, , , ) = courseToken.courseDetails(C.offeredTokenId);\r\n\r\n                    if (\r\n                        keccak256(bytes(A.requestedCourseID)) == keccak256(bytes(cB)) &&\r\n                        keccak256(bytes(B.requestedCourseID)) == keccak256(bytes(cC)) &&\r\n                        keccak256(bytes(C.requestedCourseID)) == keccak256(bytes(cA))\r\n                    ) {\r\n                        // validate ownership & conflicts\r\n                        if (_validateThree(A, B, C)) {\r\n                            // circular swap\r\n                            courseToken.safeTransferFrom(A.student, C.student, A.offeredTokenId);\r\n                            courseToken.safeTransferFrom(B.student, A.student, B.offeredTokenId);\r\n                            courseToken.safeTransferFrom(C.student, B.student, C.offeredTokenId);\r\n\r\n                            A.active = false;\r\n                            B.active = false;\r\n                            C.active = false;\r\n\r\n                            emit ThreeWaySwapExecuted(\r\n                                A.orderId, A.student, A.offeredTokenId,\r\n                                B.orderId, B.student, B.offeredTokenId,\r\n                                C.orderId, C.student, C.offeredTokenId\r\n                            );\r\n                            found = true;\r\n                        }\r\n                    }\r\n                }\r\n            }\r\n        }\r\n\r\n        if (!found) emit NoThreeWaySwapFound();\r\n    }\r\n\r\n    function executeTwoWaySwaps() public onlyOwner {\r\n        super.executeSwaps();\r\n        emit TwoWaySwapCompleted();\r\n    }\r\n\r\n    function _validateThree(\r\n        Order memory A,\r\n        Order memory B,\r\n        Order memory C\r\n    ) internal view returns (bool) {\r\n        // ownership\r\n        if (\r\n            courseToken.ownerOf(A.offeredTokenId) != A.student ||\r\n            courseToken.ownerOf(B.offeredTokenId) != B.student ||\r\n            courseToken.ownerOf(C.offeredTokenId) != C.student\r\n        ) return false;\r\n\r\n        // timing & duplicates\r\n        if (\r\n            _hasTimingConflict(A.student, A.offeredTokenId, B.offeredTokenId) ||\r\n            _hasTimingConflict(B.student, B.offeredTokenId, C.offeredTokenId) ||\r\n            _hasTimingConflict(C.student, C.offeredTokenId, A.offeredTokenId) ||\r\n            _hasCourseConflict(A.student, A.offeredTokenId, B.offeredTokenId) ||\r\n            _hasCourseConflict(B.student, B.offeredTokenId, C.offeredTokenId) ||\r\n            _hasCourseConflict(C.student, C.offeredTokenId, A.offeredTokenId)\r\n        ) return false;\r\n\r\n        return true;\r\n    }\r\n}\r\n",
  "sourcePath": "C:\\Users\\User\\Downloads\\TigerSwap\\contracts\\Swap3Brute.sol",
  "compiler": {
    "name": "solc",
    "version": "0.8.20+commit.a1b79de6.Emscripten.clang"
  },
  "schemaVersion": "3.4.16",
  "updatedAt": "2025-04-17T02:32:24.513Z",
  "devdoc": {
    "kind": "dev",
    "methods": {
      "owner()": {
        "details": "Returns the address of the current owner."
      },
      "renounceOwnership()": {
        "details": "Leaves the contract without owner. It will not be possible to call `onlyOwner` functions anymore. Can only be called by the current owner. NOTE: Renouncing ownership will leave the contract without an owner, thereby removing any functionality that is only available to the owner."
      },
      "transferOwnership(address)": {
        "details": "Transfers ownership of the contract to a new account (`newOwner`). Can only be called by the current owner."
      }
    },
    "version": 1
  },
  "userdoc": {
    "kind": "user",
    "methods": {},
    "version": 1
  }
}