{
  "contractName": "Swap3Adj",
  "abi": [
    {
      "inputs": [
        {
          "internalType": "address",
          "name": "_courseTokenAddress",
          "type": "address"
        }
      ],
      "stateMutability": "nonpayable",
      "type": "constructor"
    },
    {
      "anonymous": false,
      "inputs": [],
      "name": "NoThreeWaySwapFound",
      "type": "event"
    },
    {
      "anonymous": false,
      "inputs": [
        {
          "indexed": false,
          "internalType": "uint256",
          "name": "orderId",
          "type": "uint256"
        },
        {
          "indexed": true,
          "internalType": "address",
          "name": "student",
          "type": "address"
        }
      ],
      "name": "OrderCancelled",
      "type": "event"
    },
    {
      "anonymous": false,
      "inputs": [
        {
          "indexed": false,
          "internalType": "uint256",
          "name": "orderId",
          "type": "uint256"
        },
        {
          "indexed": true,
          "internalType": "address",
          "name": "student",
          "type": "address"
        },
        {
          "indexed": false,
          "internalType": "uint256",
          "name": "offeredTokenId",
          "type": "uint256"
        },
        {
          "indexed": false,
          "internalType": "string",
          "name": "requestedCourseID",
          "type": "string"
        }
      ],
      "name": "OrderSubmitted",
      "type": "event"
    },
    {
      "anonymous": false,
      "inputs": [
        {
          "indexed": true,
          "internalType": "address",
          "name": "previousOwner",
          "type": "address"
        },
        {
          "indexed": true,
          "internalType": "address",
          "name": "newOwner",
          "type": "address"
        }
      ],
      "name": "OwnershipTransferred",
      "type": "event"
    },
    {
      "anonymous": false,
      "inputs": [
        {
          "indexed": false,
          "internalType": "uint256",
          "name": "orderId1",
          "type": "uint256"
        },
        {
          "indexed": false,
          "internalType": "uint256",
          "name": "orderId2",
          "type": "uint256"
        },
        {
          "indexed": false,
          "internalType": "uint256",
          "name": "tokenId1",
          "type": "uint256"
        },
        {
          "indexed": false,
          "internalType": "uint256",
          "name": "tokenId2",
          "type": "uint256"
        }
      ],
      "name": "SwapExecuted",
      "type": "event"
    },
    {
      "anonymous": false,
      "inputs": [
        {
          "indexed": false,
          "internalType": "uint256",
          "name": "orderId1",
          "type": "uint256"
        },
        {
          "indexed": false,
          "internalType": "address",
          "name": "student1",
          "type": "address"
        },
        {
          "indexed": false,
          "internalType": "string",
          "name": "courseID1",
          "type": "string"
        },
        {
          "indexed": false,
          "internalType": "string",
          "name": "preceptID1",
          "type": "string"
        },
        {
          "indexed": false,
          "internalType": "uint256",
          "name": "orderId2",
          "type": "uint256"
        },
        {
          "indexed": false,
          "internalType": "address",
          "name": "student2",
          "type": "address"
        },
        {
          "indexed": false,
          "internalType": "string",
          "name": "courseID2",
          "type": "string"
        },
        {
          "indexed": false,
          "internalType": "string",
          "name": "preceptID2",
          "type": "string"
        }
      ],
      "name": "SwapExecutedVerbose",
      "type": "event"
    },
    {
      "anonymous": false,
      "inputs": [
        {
          "indexed": false,
          "internalType": "uint256",
          "name": "orderId1",
          "type": "uint256"
        },
        {
          "indexed": false,
          "internalType": "address",
          "name": "student1",
          "type": "address"
        },
        {
          "indexed": false,
          "internalType": "uint256",
          "name": "tokenId1",
          "type": "uint256"
        },
        {
          "indexed": false,
          "internalType": "uint256",
          "name": "orderId2",
          "type": "uint256"
        },
        {
          "indexed": false,
          "internalType": "address",
          "name": "student2",
          "type": "address"
        },
        {
          "indexed": false,
          "internalType": "uint256",
          "name": "tokenId2",
          "type": "uint256"
        },
        {
          "indexed": false,
          "internalType": "uint256",
          "name": "orderId3",
          "type": "uint256"
        },
        {
          "indexed": false,
          "internalType": "address",
          "name": "student3",
          "type": "address"
        },
        {
          "indexed": false,
          "internalType": "uint256",
          "name": "tokenId3",
          "type": "uint256"
        }
      ],
      "name": "ThreeWaySwapExecuted",
      "type": "event"
    },
    {
      "anonymous": false,
      "inputs": [],
      "name": "TwoWaySwapCompleted",
      "type": "event"
    },
    {
      "inputs": [],
      "name": "cancelAllOrders",
      "outputs": [],
      "stateMutability": "nonpayable",
      "type": "function"
    },
    {
      "inputs": [
        {
          "internalType": "uint256",
          "name": "orderId",
          "type": "uint256"
        }
      ],
      "name": "cancelOrder",
      "outputs": [],
      "stateMutability": "nonpayable",
      "type": "function"
    },
    {
      "inputs": [],
      "name": "courseToken",
      "outputs": [
        {
          "internalType": "contract ICourseToken",
          "name": "",
          "type": "address"
        }
      ],
      "stateMutability": "view",
      "type": "function"
    },
    {
      "inputs": [],
      "name": "executeSwaps",
      "outputs": [],
      "stateMutability": "nonpayable",
      "type": "function"
    },
    {
      "inputs": [],
      "name": "getActiveOrdersWithMetadata",
      "outputs": [
        {
          "components": [
            {
              "internalType": "uint256",
              "name": "orderId",
              "type": "uint256"
            },
            {
              "internalType": "address",
              "name": "student",
              "type": "address"
            },
            {
              "internalType": "uint256",
              "name": "offeredTokenId",
              "type": "uint256"
            },
            {
              "internalType": "string",
              "name": "requestedCourseID",
              "type": "string"
            },
            {
              "internalType": "string",
              "name": "courseID",
              "type": "string"
            },
            {
              "internalType": "string",
              "name": "preceptID",
              "type": "string"
            },
            {
              "internalType": "string",
              "name": "timing",
              "type": "string"
            },
            {
              "internalType": "string",
              "name": "coursePageURL",
              "type": "string"
            }
          ],
          "internalType": "struct Swap.OrderWithMetadata[]",
          "name": "",
          "type": "tuple[]"
        }
      ],
      "stateMutability": "view",
      "type": "function"
    },
    {
      "inputs": [],
      "name": "orderCounter",
      "outputs": [
        {
          "internalType": "uint256",
          "name": "",
          "type": "uint256"
        }
      ],
      "stateMutability": "view",
      "type": "function"
    },
    {
      "inputs": [
        {
          "internalType": "uint256",
          "name": "",
          "type": "uint256"
        }
      ],
      "name": "orderIds",
      "outputs": [
        {
          "internalType": "uint256",
          "name": "",
          "type": "uint256"
        }
      ],
      "stateMutability": "view",
      "type": "function"
    },
    {
      "inputs": [
        {
          "internalType": "uint256",
          "name": "",
          "type": "uint256"
        }
      ],
      "name": "orders",
      "outputs": [
        {
          "internalType": "uint256",
          "name": "orderId",
          "type": "uint256"
        },
        {
          "internalType": "address",
          "name": "student",
          "type": "address"
        },
        {
          "internalType": "uint256",
          "name": "offeredTokenId",
          "type": "uint256"
        },
        {
          "internalType": "string",
          "name": "requestedCourseID",
          "type": "string"
        },
        {
          "internalType": "bool",
          "name": "active",
          "type": "bool"
        }
      ],
      "stateMutability": "view",
      "type": "function"
    },
    {
      "inputs": [],
      "name": "owner",
      "outputs": [
        {
          "internalType": "address",
          "name": "",
          "type": "address"
        }
      ],
      "stateMutability": "view",
      "type": "function"
    },
    {
      "inputs": [],
      "name": "renounceOwnership",
      "outputs": [],
      "stateMutability": "nonpayable",
      "type": "function"
    },
    {
      "inputs": [
        {
          "internalType": "uint256",
          "name": "offeredTokenId",
          "type": "uint256"
        },
        {
          "internalType": "string",
          "name": "requestedCourseID",
          "type": "string"
        }
      ],
      "name": "submitOrder",
      "outputs": [],
      "stateMutability": "nonpayable",
      "type": "function"
    },
    {
      "inputs": [
        {
          "internalType": "address",
          "name": "newOwner",
          "type": "address"
        }
      ],
      "name": "transferOwnership",
      "outputs": [],
      "stateMutability": "nonpayable",
      "type": "function"
    },
    {
      "inputs": [],
      "name": "executeThreeWaySwaps",
      "outputs": [],
      "stateMutability": "nonpayable",
      "type": "function"
    },
    {
      "inputs": [],
      "name": "executeTwoWaySwaps",
      "outputs": [],
      "stateMutability": "nonpayable",
      "type": "function"
    }
  ],
  "bytecode": "0x608060405234801562000010575f80fd5b5060405162002884380380620028848339810160408190526200003391620000b5565b806200003f3362000066565b600180546001600160a01b0319166001600160a01b039290921691909117905550620000e4565b5f80546001600160a01b038381166001600160a01b0319831681178455604051919092169283917f8be0079c531659141344cd1fd0a4f28419497f9722a3daafe3b4186f6b6457e09190a35050565b5f60208284031215620000c6575f80fd5b81516001600160a01b0381168114620000dd575f80fd5b9392505050565b61279280620000f25f395ff3fe608060405234801561000f575f80fd5b50600436106100e5575f3560e01c80638da5cb5b11610088578063c9b90b1b11610063578063c9b90b1b146101c4578063e117e51d146101cc578063f2fde38b146101d4578063ffe7dc4e146101e7575f80fd5b80638da5cb5b14610187578063a85c38ef14610197578063b789bf52146101bb575f80fd5b806332603f2d116100c357806332603f2d14610144578063514fcac714610159578063715018a61461016c5780638d22d44614610174575f80fd5b8063028afabf146100e957806305462c6d146100f35780632372208414610123575b5f80fd5b6100f16101ef565b005b600154610106906001600160a01b031681565b6040516001600160a01b0390911681526020015b60405180910390f35b610136610131366004612013565b6102b4565b60405190815260200161011a565b61014c6102d3565b60405161011a9190612077565b6100f1610167366004612013565b6105ea565b6100f16106d9565b6100f16101823660046121e6565b6106ec565b5f546001600160a01b0316610106565b6101aa6101a5366004612013565b6108ca565b60405161011a95949392919061226a565b61013660025481565b6100f161098e565b6100f16109c8565b6100f16101e23660046122be565b611291565b6100f1611307565b6101f7611990565b5f5b6004548110156102b1575f60048281548110610217576102176122d9565b5f918252602080832090910154808352600390915260409091206004015490915060ff161561029e575f8181526003602090815260409182902060048101805460ff191690556001015491518381526001600160a01b03909216917fc0362da6f2ff36b382b34aec0814f6b3cdf89f5ef282a1d1f114d0c0b036d596910160405180910390a25b50806102a981612301565b9150506101f9565b50565b600481815481106102c3575f80fd5b5f91825260209091200154905081565b60606102dd611990565b5f805b6004548110156103465760035f60048381548110610300576103006122d9565b5f918252602080832090910154835282019290925260400190206004015460ff1615610334578161033081612301565b9250505b8061033e81612301565b9150506102e0565b505f8167ffffffffffffffff8111156103615761036161217a565b6040519080825280602002602001820160405280156103e057816020015b6103cd6040518061010001604052805f81526020015f6001600160a01b031681526020015f815260200160608152602001606081526020016060815260200160608152602001606081525090565b81526020019060019003908161037f5790505b5090505f805b6004548110156105e1575f60048281548110610404576104046122d9565b5f918252602080832090910154808352600390915260409091206004015490915060ff1661043257506105cf565b5f818152600360205260408082206001546002820154925163d1be530960e01b815260048101939093529092918291829182916001600160a01b03169063d1be5309906024015f60405180830381865afa158015610492573d5f803e3d5ffd5b505050506040513d5f823e601f3d908101601f191682016040526104b99190810190612363565b60408051610100810182528a54815260018b01546001600160a01b0316602082015260028b01549181019190915260038a01805495995093975091955093509160608301919061050890612409565b80601f016020809104026020016040519081016040528092919081815260200182805461053490612409565b801561057f5780601f106105565761010080835404028352916020019161057f565b820191905f5260205f20905b81548152906001019060200180831161056257829003601f168201915b50505050508152602001858152602001848152602001838152602001828152508989806105ab90612301565b9a50815181106105bd576105bd6122d9565b60200260200101819052505050505050505b806105d981612301565b9150506103e6565b50909250505090565b5f818152600360205260409020600481015460ff166106465760405162461bcd60e51b81526020600482015260136024820152724f72646572206973206e6f742061637469766560681b60448201526064015b60405180910390fd5b60018101546001600160a01b031633146106935760405162461bcd60e51b815260206004820152600e60248201526d2737ba103cb7bab91037b93232b960911b604482015260640161063d565b60048101805460ff1916905560405182815233907fc0362da6f2ff36b382b34aec0814f6b3cdf89f5ef282a1d1f114d0c0b036d596906020015b60405180910390a25050565b6106e1611990565b6106ea5f6119e9565b565b6001546040516331a9108f60e11b81526004810184905233916001600160a01b031690636352211e90602401602060405180830381865afa158015610733573d5f803e3d5ffd5b505050506040513d601f19601f820116820180604052508101906107579190612441565b6001600160a01b0316146107ad5760405162461bcd60e51b815260206004820181905260248201527f596f7520646f206e6f74206f776e20746865206f66666572656420746f6b656e604482015260640161063d565b60028054905f6107bc83612301565b90915550506040805160a08101825260028054808352336020808501918252848601888152606086018881526001608088018190525f9586526003938490529790942086518155925196830180546001600160a01b0319166001600160a01b039098169790971790965594519281019290925551919290919082019061084290826124aa565b50608091909101516004918201805460ff191691151591909117905560025481546001810183555f929092527f8a35acfbc15ff81a39ae7d344fd709f28e8600b4aa8c65c6b64bfe7fe36bd19b90910181905560405133917fce5223d849377a0f55f7f8906570ae74f4031b0fe42160b9c14828a428447333916106cd919086908690612566565b600360208190525f9182526040909120805460018201546002830154938301805492946001600160a01b0390921693919261090490612409565b80601f016020809104026020016040519081016040528092919081815260200182805461093090612409565b801561097b5780601f106109525761010080835404028352916020019161097b565b820191905f5260205f20905b81548152906001019060200180831161095e57829003601f168201915b5050506004909301549192505060ff1685565b610996611990565b61099e611307565b6040517f3a59334227f69cc6b7a76a6a062132cd2ef20044f6550533ea1d2d1782bdccc7905f90a1565b6109d0611990565b6004545f90815b8181101561125e575f600482815481106109f3576109f36122d9565b5f9182526020808320909101548083526003909152604090912060048101549192509060ff16610a2457505061124c565b600154600282015460405163d1be530960e01b815260048101919091525f916001600160a01b03169063d1be5309906024015f60405180830381865afa158015610a70573d5f803e3d5ffd5b505050506040513d5f823e601f3d908101601f19168201604052610a979190810190612363565b50505090505f82600301604051610aae919061258d565b604051809103902090505f5b86811015611246575f60048281548110610ad657610ad66122d9565b905f5260205f2001549050858103610aee5750611234565b5f818152600360205260409020600481015460ff16610b0e575050611234565b600154600282015460405163d1be530960e01b815260048101919091525f916001600160a01b03169063d1be5309906024015f60405180830381865afa158015610b5a573d5f803e3d5ffd5b505050506040513d5f823e601f3d908101601f19168201604052610b819190810190612363565b505050905084818051906020012014610b9c57505050611234565b5f82600301604051610bae919061258d565b604051809103902090505f5b8b81101561122e575f60048281548110610bd657610bd66122d9565b905f5260205f20015490508a811480610bee57508581145b15610bf9575061121c565b5f818152600360205260409020600481015460ff16610c1957505061121c565b600154600282015460405163d1be530960e01b815260048101919091525f916001600160a01b03169063d1be5309906024015f60405180830381865afa158015610c65573d5f803e3d5ffd5b505050506040513d5f823e601f3d908101601f19168201604052610c8c9190810190612363565b505050905084818051906020012014610ca75750505061121c565b8a5160208c0120604051610cbf90600385019061258d565b604051809103902014610cd45750505061121c565b6040805160a0810182528d54815260018e01546001600160a01b0316602082015260028e01549181019190915260038d018054610f5992918f91606084019190610d1d90612409565b80601f0160208091040260200160405190810160405280929190818152602001828054610d4990612409565b8015610d945780601f10610d6b57610100808354040283529160200191610d94565b820191905f5260205f20905b815481529060010190602001808311610d7757829003601f168201915b50505091835250506004919091015460ff1615156020918201526040805160a0810182528b54815260018c01546001600160a01b03169281019290925260028b01549082015260038a0180548b916060840191610df090612409565b80601f0160208091040260200160405190810160405280929190818152602001828054610e1c90612409565b8015610e675780601f10610e3e57610100808354040283529160200191610e67565b820191905f5260205f20905b815481529060010190602001808311610e4a57829003601f168201915b50505091835250506004919091015460ff1615156020918201526040805160a0810182528754815260018801546001600160a01b03169281019290925260028701549082015260038601805487916060840191610ec390612409565b80601f0160208091040260200160405190810160405280929190818152602001828054610eef90612409565b8015610f3a5780601f10610f1157610100808354040283529160200191610f3a565b820191905f5260205f20905b815481529060010190602001808311610f1d57829003601f168201915b50505091835250506004919091015460ff161515602090910152611a38565b1561121857600180548d8201549184015460028f0154604051632142170760e11b81526001600160a01b03938416946342842e0e94610fa194918116939116916004016125ff565b5f604051808303815f87803b158015610fb8575f80fd5b505af1158015610fca573d5f803e3d5ffd5b5050505060015f9054906101000a90046001600160a01b03166001600160a01b03166342842e0e886001015f9054906101000a90046001600160a01b03168e6001015f9054906101000a90046001600160a01b03168a600201546040518463ffffffff1660e01b8152600401611042939291906125ff565b5f604051808303815f87803b158015611059575f80fd5b505af115801561106b573d5f803e3d5ffd5b50506001805485820154918b01546002870154604051632142170760e11b81526001600160a01b0393841696506342842e0e95506110b294841693909216916004016125ff565b5f604051808303815f87803b1580156110c9575f80fd5b505af11580156110db573d5f803e3d5ffd5b505050505f8c6004015f6101000a81548160ff0219169083151502179055505f876004015f6101000a81548160ff0219169083151502179055505f826004015f6101000a81548160ff0219169083151502179055507f5dacc7d79298319d123b4f2811231807e4da95a77fb37917ac9412793b458ad08c5f01548d6001015f9054906101000a90046001600160a01b03168e600201548a5f01548b6001015f9054906101000a90046001600160a01b03168c60020154885f0154896001015f9054906101000a90046001600160a01b03168a6002015460405161120b999897969594939291909889526001600160a01b0397881660208a015260408901969096526060880194909452918516608087015260a086015260c085015290911660e08301526101008201526101200190565b60405180910390a160019f505b5050505b8061122681612301565b915050610bba565b50505050505b8061123e81612301565b915050610aba565b50505050505b8061125681612301565b9150506109d7565b508161128d576040517f812c55dbbf1bb3065de67f6002d7ba3898a63705ac8f40bd986d5e7fa2174435905f90a15b5050565b611299611990565b6001600160a01b0381166112fe5760405162461bcd60e51b815260206004820152602660248201527f4f776e61626c653a206e6577206f776e657220697320746865207a65726f206160448201526564647265737360d01b606482015260840161063d565b6102b1816119e9565b61130f611990565b6004545f5b8181101561128d575f60048281548110611330576113306122d9565b5f918252602080832090910154808352600390915260409091206004015490915060ff1661135e575061197e565b5f818152600360205260408082206001546002820154925163d1be530960e01b81529193926001600160a01b039091169163d1be5309916113a59160040190815260200190565b5f60405180830381865afa1580156113bf573d5f803e3d5ffd5b505050506040513d5f823e601f3d908101601f191682016040526113e69190810190612363565b50505090505f8460016113f99190612623565b90505b85811015611979575f60048281548110611418576114186122d9565b5f918252602080832090910154808352600390915260409091206004015490915060ff166114465750611967565b5f818152600360205260408082206001546002820154925163d1be530960e01b81529193926001600160a01b039091169163d1be53099161148d9160040190815260200190565b5f60405180830381865afa1580156114a7573d5f803e3d5ffd5b505050506040513d5f823e601f3d908101601f191682016040526114ce9190810190612363565b50505090508080519060200120866003016040516114ec919061258d565b604051809103902014801561151e57508451602086012060405161151490600385019061258d565b6040518091039020145b1561196357600186810154838201546002808a01549086015493546040516331a9108f60e11b8152600481018390526001600160a01b03948516959385169492939286921690636352211e90602401602060405180830381865afa158015611588573d5f803e3d5ffd5b505050506040513d601f19601f820116820180604052508101906115ac9190612441565b6001600160a01b0316146115f65760405162461bcd60e51b81526020600482015260116024820152704f776e6572206d69736d6174636820743160781b604482015260640161063d565b6001546040516331a9108f60e11b8152600481018390526001600160a01b03858116921690636352211e90602401602060405180830381865afa15801561163f573d5f803e3d5ffd5b505050506040513d601f19601f820116820180604052508101906116639190612441565b6001600160a01b0316146116ad5760405162461bcd60e51b815260206004820152601160248201527027bbb732b91036b4b9b6b0ba31b4103a1960791b604482015260640161063d565b6116b8848383611ca0565b806116c957506116c9838284611ca0565b806116da57506116da848383611e25565b806116eb57506116eb838284611e25565b156116fc5750505050505050611967565b600154604051632142170760e11b81526001600160a01b03909116906342842e0e90611730908790879087906004016125ff565b5f604051808303815f87803b158015611747575f80fd5b505af1158015611759573d5f803e3d5ffd5b5050600154604051632142170760e11b81526001600160a01b0390911692506342842e0e9150611791908690889086906004016125ff565b5f604051808303815f87803b1580156117a8575f80fd5b505af11580156117ba573d5f803e3d5ffd5b5050505060048a8101805460ff1990811690915590870180549091169055604080518c815260208101899052908101839052606081018290527fabed9c2bf91a3043c0b147978b27b3272de63d4ccdcbcb8ba15ff32b078c5be39060800160405180910390a160015460405163d1be530960e01b8152600481018490525f9182916001600160a01b039091169063d1be5309906024015f60405180830381865afa15801561186a573d5f803e3d5ffd5b505050506040513d5f823e601f3d908101601f191682016040526118919190810190612363565b505060015460405163d1be530960e01b8152600481018790529294509092505f9182916001600160a01b03169063d1be5309906024015f60405180830381865afa1580156118e1573d5f803e3d5ffd5b505050506040513d5f823e601f3d908101601f191682016040526119089190810190612363565b5050915091507f9fe4a655c0746bee9930f95157c5b5dd064d1694237b1a3a016a4125a579bf0b8f8986868f8c888860405161194b989796959493929190612636565b60405180910390a15050505050505050505050611979565b5050505b8061197181612301565b9150506113fc565b505050505b8061198881612301565b915050611314565b5f546001600160a01b031633146106ea5760405162461bcd60e51b815260206004820181905260248201527f4f776e61626c653a2063616c6c6572206973206e6f7420746865206f776e6572604482015260640161063d565b5f80546001600160a01b038381166001600160a01b0319831681178455604051919092169283917f8be0079c531659141344cd1fd0a4f28419497f9722a3daafe3b4186f6b6457e09190a35050565b602083015160015460408086015190516331a9108f60e11b815260048101919091525f926001600160a01b03908116921690636352211e90602401602060405180830381865afa158015611a8e573d5f803e3d5ffd5b505050506040513d601f19601f82011682018060405250810190611ab29190612441565b6001600160a01b0316141580611b495750602083015160015460408086015190516331a9108f60e11b815260048101919091526001600160a01b039283169290911690636352211e90602401602060405180830381865afa158015611b19573d5f803e3d5ffd5b505050506040513d601f19601f82011682018060405250810190611b3d9190612441565b6001600160a01b031614155b80611bd55750602082015160015460408085015190516331a9108f60e11b815260048101919091526001600160a01b039283169290911690636352211e90602401602060405180830381865afa158015611ba5573d5f803e3d5ffd5b505050506040513d601f19601f82011682018060405250810190611bc99190612441565b6001600160a01b031614155b15611be157505f611c99565b611bf8846020015185604001518560400151611ca0565b80611c155750611c15836020015184604001518460400151611ca0565b80611c325750611c32826020015183604001518660400151611ca0565b80611c4f5750611c4f846020015185604001518560400151611e25565b80611c6c5750611c6c836020015184604001518460400151611e25565b80611c895750611c89826020015183604001518660400151611e25565b15611c9557505f611c99565b5060015b9392505050565b5f80611cab85611f9e565b60015460405163d1be530960e01b8152600481018690529192505f916001600160a01b039091169063d1be5309906024015f60405180830381865afa158015611cf6573d5f803e3d5ffd5b505050506040513d5f823e601f3d908101601f19168201604052611d1d9190810190612363565b50925050505f5b8251811015611e195785838281518110611d4057611d406122d9565b60200260200101510315611e075760015483515f916001600160a01b03169063d1be530990869085908110611d7757611d776122d9565b60200260200101516040518263ffffffff1660e01b8152600401611d9d91815260200190565b5f60405180830381865afa158015611db7573d5f803e3d5ffd5b505050506040513d5f823e601f3d908101601f19168201604052611dde9190810190612363565b50925050508280519060200120818051906020012003611e05576001945050505050611c99565b505b80611e1181612301565b915050611d24565b505f9695505050505050565b5f80611e3085611f9e565b60015460405163d1be530960e01b8152600481018690529192505f916001600160a01b039091169063d1be5309906024015f60405180830381865afa158015611e7b573d5f803e3d5ffd5b505050506040513d5f823e601f3d908101601f19168201604052611ea29190810190612363565b50505090505f5b8251811015611e195785838281518110611ec557611ec56122d9565b60200260200101510315611f8c5760015483515f916001600160a01b03169063d1be530990869085908110611efc57611efc6122d9565b60200260200101516040518263ffffffff1660e01b8152600401611f2291815260200190565b5f60405180830381865afa158015611f3c573d5f803e3d5ffd5b505050506040513d5f823e601f3d908101601f19168201604052611f639190810190612363565b50505090508280519060200120818051906020012003611f8a576001945050505050611c99565b505b80611f9681612301565b915050611ea9565b600154604051632118854760e21b81526001600160a01b0383811660048301526060921690638462151c906024015f60405180830381865afa158015611fe6573d5f803e3d5ffd5b505050506040513d5f823e601f3d908101601f1916820160405261200d91908101906126bb565b92915050565b5f60208284031215612023575f80fd5b5035919050565b5f5b8381101561204457818101518382015260200161202c565b50505f910152565b5f815180845261206381602086016020860161202a565b601f01601f19169290920160200192915050565b5f6020808301818452808551808352604092508286019150828160051b8701018488015f5b8381101561216c57888303603f19018552815180518452878101516001600160a01b038116898601526101009050878201518886015260608083015182828801526120e98388018261204c565b9250505060808083015186830382880152612104838261204c565b9250505060a0808301518683038288015261211f838261204c565b9250505060c0808301518683038288015261213a838261204c565b9250505060e08083015192508582038187015250612158818361204c565b96890196945050509086019060010161209c565b509098975050505050505050565b634e487b7160e01b5f52604160045260245ffd5b604051601f8201601f1916810167ffffffffffffffff811182821017156121b7576121b761217a565b604052919050565b5f67ffffffffffffffff8211156121d8576121d861217a565b50601f01601f191660200190565b5f80604083850312156121f7575f80fd5b82359150602083013567ffffffffffffffff811115612214575f80fd5b8301601f81018513612224575f80fd5b8035612237612232826121bf565b61218e565b81815286602083850101111561224b575f80fd5b816020840160208301375f602083830101528093505050509250929050565b85815260018060a01b038516602082015283604082015260a060608201525f61229660a083018561204c565b905082151560808301529695505050505050565b6001600160a01b03811681146102b1575f80fd5b5f602082840312156122ce575f80fd5b8135611c99816122aa565b634e487b7160e01b5f52603260045260245ffd5b634e487b7160e01b5f52601160045260245ffd5b5f60018201612312576123126122ed565b5060010190565b5f82601f830112612328575f80fd5b8151612336612232826121bf565b81815284602083860101111561234a575f80fd5b61235b82602083016020870161202a565b949350505050565b5f805f8060808587031215612376575f80fd5b845167ffffffffffffffff8082111561238d575f80fd5b61239988838901612319565b955060208701519150808211156123ae575f80fd5b6123ba88838901612319565b945060408701519150808211156123cf575f80fd5b6123db88838901612319565b935060608701519150808211156123f0575f80fd5b506123fd87828801612319565b91505092959194509250565b600181811c9082168061241d57607f821691505b60208210810361243b57634e487b7160e01b5f52602260045260245ffd5b50919050565b5f60208284031215612451575f80fd5b8151611c99816122aa565b601f8211156124a5575f81815260208120601f850160051c810160208610156124825750805b601f850160051c820191505b818110156124a15782815560010161248e565b5050505b505050565b815167ffffffffffffffff8111156124c4576124c461217a565b6124d8816124d28454612409565b8461245c565b602080601f83116001811461250b575f84156124f45750858301515b5f19600386901b1c1916600185901b1785556124a1565b5f85815260208120601f198616915b828110156125395788860151825594840194600190910190840161251a565b508582101561255657878501515f19600388901b60f8161c191681555b5050505050600190811b01905550565b838152826020820152606060408201525f612584606083018461204c565b95945050505050565b5f80835461259a81612409565b600182811680156125b257600181146125c7576125f3565b60ff19841687528215158302870194506125f3565b875f526020805f205f5b858110156125ea5781548a8201529084019082016125d1565b50505082870194505b50929695505050505050565b6001600160a01b039384168152919092166020820152604081019190915260600190565b8082018082111561200d5761200d6122ed565b8881526001600160a01b038881166020830152610100604083018190525f916126618483018b61204c565b91508382036060850152612675828a61204c565b915087608085015280871660a08501525082810360c0840152612698818661204c565b905082810360e08401526126ac818561204c565b9b9a5050505050505050505050565b5f60208083850312156126cc575f80fd5b825167ffffffffffffffff808211156126e3575f80fd5b818501915085601f8301126126f6575f80fd5b8151818111156127085761270861217a565b8060051b915061271984830161218e565b8181529183018401918481019088841115612732575f80fd5b938501935b8385101561275057845182529385019390850190612737565b9897505050505050505056fea26469706673582212204af751fb21e6e859c805ba493af11faa60ef53b9442906c8c3e04f081684b23b64736f6c63430008140033",
  "immutableReferences": {},
  "source": "// SPDX-License-Identifier: MIT\r\npragma solidity ^0.8.0;\r\n\r\nimport \"./Swap.sol\";\r\n\r\ncontract Swap3Adj is Swap {\r\n    event ThreeWaySwapExecuted(\r\n        uint256 orderId1, address student1, uint256 tokenId1,\r\n        uint256 orderId2, address student2, uint256 tokenId2,\r\n        uint256 orderId3, address student3, uint256 tokenId3\r\n    );\r\n    event NoThreeWaySwapFound();\r\n    event TwoWaySwapCompleted();\r\n\r\n    constructor(address _courseTokenAddress) Swap(_courseTokenAddress) {}\r\n\r\n    /**\r\n    * @dev Find and execute all 3way cycles by pruning on offeredrequested adjacency.\r\n    */\r\n    function executeThreeWaySwaps() public onlyOwner {\r\n        bool found = false;\r\n        uint256 n = orderIds.length;\r\n\r\n        // Outer loop: pick A\r\n        for (uint256 i = 0; i < n; i++) {\r\n            uint256 idA = orderIds[i];\r\n            Order storage A = orders[idA];\r\n            if (!A.active) continue;\r\n\r\n            // Cache As offered course for final check\r\n            (string memory offeredA, , , ) = courseToken.courseDetails(A.offeredTokenId);\r\n            // Hash of the course A requests\r\n            bytes32 wantA = keccak256(bytes(A.requestedCourseID));\r\n\r\n            // Middle loop: pick B among orders offering exactly wantA\r\n            for (uint256 j = 0; j < n; j++) {\r\n                uint256 idB = orderIds[j];\r\n                if (idB == idA) continue;\r\n                Order storage B = orders[idB];\r\n                if (!B.active) continue;\r\n\r\n                // Does B offer what A wants?\r\n                (string memory offeredB, , , ) = courseToken.courseDetails(B.offeredTokenId);\r\n                if (keccak256(bytes(offeredB)) != wantA) continue;\r\n\r\n                // Hash of the course B requests\r\n                bytes32 wantB = keccak256(bytes(B.requestedCourseID));\r\n\r\n                // Inner loop: pick C among orders offering exactly wantB\r\n                for (uint256 k = 0; k < n; k++) {\r\n                    uint256 idC = orderIds[k];\r\n                    if (idC == idA || idC == idB) continue;\r\n                    Order storage C = orders[idC];\r\n                    if (!C.active) continue;\r\n\r\n                    // Does C offer what B wants?\r\n                    (string memory offeredC, , , ) = courseToken.courseDetails(C.offeredTokenId);\r\n                    if (keccak256(bytes(offeredC)) != wantB) continue;\r\n\r\n                    // Finally, does C request As offered course?\r\n                    if (keccak256(bytes(C.requestedCourseID)) != keccak256(bytes(offeredA))) {\r\n                        continue;\r\n                    }\r\n\r\n                    // All three point in a cycle; validate conflicts & ownership\r\n                    if (_validateThree(A, B, C)) {\r\n                        // Execute the 3way circular swap\r\n                        courseToken.safeTransferFrom(A.student, C.student, A.offeredTokenId);\r\n                        courseToken.safeTransferFrom(B.student, A.student, B.offeredTokenId);\r\n                        courseToken.safeTransferFrom(C.student, B.student, C.offeredTokenId);\r\n\r\n                        // Mark inactive\r\n                        A.active = false;\r\n                        B.active = false;\r\n                        C.active = false;\r\n\r\n                        emit ThreeWaySwapExecuted(\r\n                            A.orderId, A.student, A.offeredTokenId,\r\n                            B.orderId, B.student, B.offeredTokenId,\r\n                            C.orderId, C.student, C.offeredTokenId\r\n                        );\r\n                        found = true;\r\n                    }\r\n                }\r\n            }\r\n        }\r\n\r\n        if (!found) {\r\n            emit NoThreeWaySwapFound();\r\n        }\r\n    }\r\n\r\n    function executeTwoWaySwaps() public onlyOwner {\r\n        super.executeSwaps();\r\n        emit TwoWaySwapCompleted();\r\n    }\r\n\r\n    function _validateThree(\r\n        Order memory A,\r\n        Order memory B,\r\n        Order memory C\r\n    ) internal view returns (bool) {\r\n        // ownership\r\n        if (\r\n            courseToken.ownerOf(A.offeredTokenId) != A.student ||\r\n            courseToken.ownerOf(B.offeredTokenId) != B.student ||\r\n            courseToken.ownerOf(C.offeredTokenId) != C.student\r\n        ) return false;\r\n\r\n        // timing & duplicates\r\n        if (\r\n            _hasTimingConflict(A.student, A.offeredTokenId, B.offeredTokenId) ||\r\n            _hasTimingConflict(B.student, B.offeredTokenId, C.offeredTokenId) ||\r\n            _hasTimingConflict(C.student, C.offeredTokenId, A.offeredTokenId) ||\r\n            _hasCourseConflict(A.student, A.offeredTokenId, B.offeredTokenId) ||\r\n            _hasCourseConflict(B.student, B.offeredTokenId, C.offeredTokenId) ||\r\n            _hasCourseConflict(C.student, C.offeredTokenId, A.offeredTokenId)\r\n        ) return false;\r\n\r\n        return true;\r\n    }\r\n}\r\n",
  "sourcePath": "C:\\Users\\User\\Downloads\\TigerSwap\\contracts\\Swap3Adj.sol",
  "compiler": {
    "name": "solc",
    "version": "0.8.20+commit.a1b79de6.Emscripten.clang"
  },
  "schemaVersion": "3.4.16",
  "updatedAt": "2025-04-17T02:32:24.485Z",
  "devdoc": {
    "kind": "dev",
    "methods": {
      "executeThreeWaySwaps()": {
        "details": "Find and execute all 3way cycles by pruning on offeredrequested adjacency."
      },
      "owner()": {
        "details": "Returns the address of the current owner."
      },
      "renounceOwnership()": {
        "details": "Leaves the contract without owner. It will not be possible to call `onlyOwner` functions anymore. Can only be called by the current owner. NOTE: Renouncing ownership will leave the contract without an owner, thereby removing any functionality that is only available to the owner."
      },
      "transferOwnership(address)": {
        "details": "Transfers ownership of the contract to a new account (`newOwner`). Can only be called by the current owner."
      }
    },
    "version": 1
  },
  "userdoc": {
    "kind": "user",
    "methods": {},
    "version": 1
  }
}