{
  "contractName": "Swap",
  "abi": [
    {
      "inputs": [
        {
          "internalType": "address",
          "name": "_courseTokenAddress",
          "type": "address"
        }
      ],
      "stateMutability": "nonpayable",
      "type": "constructor"
    },
    {
      "anonymous": false,
      "inputs": [
        {
          "indexed": false,
          "internalType": "uint256",
          "name": "orderId",
          "type": "uint256"
        },
        {
          "indexed": true,
          "internalType": "address",
          "name": "student",
          "type": "address"
        }
      ],
      "name": "OrderCancelled",
      "type": "event"
    },
    {
      "anonymous": false,
      "inputs": [
        {
          "indexed": false,
          "internalType": "uint256",
          "name": "orderId",
          "type": "uint256"
        },
        {
          "indexed": true,
          "internalType": "address",
          "name": "student",
          "type": "address"
        },
        {
          "indexed": false,
          "internalType": "uint256",
          "name": "offeredTokenId",
          "type": "uint256"
        },
        {
          "indexed": false,
          "internalType": "string",
          "name": "requestedCourseID",
          "type": "string"
        }
      ],
      "name": "OrderSubmitted",
      "type": "event"
    },
    {
      "anonymous": false,
      "inputs": [
        {
          "indexed": true,
          "internalType": "address",
          "name": "previousOwner",
          "type": "address"
        },
        {
          "indexed": true,
          "internalType": "address",
          "name": "newOwner",
          "type": "address"
        }
      ],
      "name": "OwnershipTransferred",
      "type": "event"
    },
    {
      "anonymous": false,
      "inputs": [
        {
          "indexed": false,
          "internalType": "uint256",
          "name": "orderId1",
          "type": "uint256"
        },
        {
          "indexed": false,
          "internalType": "uint256",
          "name": "orderId2",
          "type": "uint256"
        },
        {
          "indexed": false,
          "internalType": "uint256",
          "name": "tokenId1",
          "type": "uint256"
        },
        {
          "indexed": false,
          "internalType": "uint256",
          "name": "tokenId2",
          "type": "uint256"
        }
      ],
      "name": "SwapExecuted",
      "type": "event"
    },
    {
      "anonymous": false,
      "inputs": [
        {
          "indexed": false,
          "internalType": "uint256",
          "name": "orderId1",
          "type": "uint256"
        },
        {
          "indexed": false,
          "internalType": "address",
          "name": "student1",
          "type": "address"
        },
        {
          "indexed": false,
          "internalType": "string",
          "name": "courseID1",
          "type": "string"
        },
        {
          "indexed": false,
          "internalType": "string",
          "name": "preceptID1",
          "type": "string"
        },
        {
          "indexed": false,
          "internalType": "uint256",
          "name": "orderId2",
          "type": "uint256"
        },
        {
          "indexed": false,
          "internalType": "address",
          "name": "student2",
          "type": "address"
        },
        {
          "indexed": false,
          "internalType": "string",
          "name": "courseID2",
          "type": "string"
        },
        {
          "indexed": false,
          "internalType": "string",
          "name": "preceptID2",
          "type": "string"
        }
      ],
      "name": "SwapExecutedVerbose",
      "type": "event"
    },
    {
      "inputs": [],
      "name": "courseToken",
      "outputs": [
        {
          "internalType": "contract ICourseToken",
          "name": "",
          "type": "address"
        }
      ],
      "stateMutability": "view",
      "type": "function"
    },
    {
      "inputs": [],
      "name": "orderCounter",
      "outputs": [
        {
          "internalType": "uint256",
          "name": "",
          "type": "uint256"
        }
      ],
      "stateMutability": "view",
      "type": "function"
    },
    {
      "inputs": [
        {
          "internalType": "uint256",
          "name": "",
          "type": "uint256"
        }
      ],
      "name": "orderIds",
      "outputs": [
        {
          "internalType": "uint256",
          "name": "",
          "type": "uint256"
        }
      ],
      "stateMutability": "view",
      "type": "function"
    },
    {
      "inputs": [
        {
          "internalType": "uint256",
          "name": "",
          "type": "uint256"
        }
      ],
      "name": "orders",
      "outputs": [
        {
          "internalType": "uint256",
          "name": "orderId",
          "type": "uint256"
        },
        {
          "internalType": "address",
          "name": "student",
          "type": "address"
        },
        {
          "internalType": "uint256",
          "name": "offeredTokenId",
          "type": "uint256"
        },
        {
          "internalType": "string",
          "name": "requestedCourseID",
          "type": "string"
        },
        {
          "internalType": "bool",
          "name": "active",
          "type": "bool"
        }
      ],
      "stateMutability": "view",
      "type": "function"
    },
    {
      "inputs": [],
      "name": "owner",
      "outputs": [
        {
          "internalType": "address",
          "name": "",
          "type": "address"
        }
      ],
      "stateMutability": "view",
      "type": "function"
    },
    {
      "inputs": [],
      "name": "renounceOwnership",
      "outputs": [],
      "stateMutability": "nonpayable",
      "type": "function"
    },
    {
      "inputs": [
        {
          "internalType": "address",
          "name": "newOwner",
          "type": "address"
        }
      ],
      "name": "transferOwnership",
      "outputs": [],
      "stateMutability": "nonpayable",
      "type": "function"
    },
    {
      "inputs": [
        {
          "internalType": "uint256",
          "name": "offeredTokenId",
          "type": "uint256"
        },
        {
          "internalType": "string",
          "name": "requestedCourseID",
          "type": "string"
        }
      ],
      "name": "submitOrder",
      "outputs": [],
      "stateMutability": "nonpayable",
      "type": "function"
    },
    {
      "inputs": [
        {
          "internalType": "uint256",
          "name": "orderId",
          "type": "uint256"
        }
      ],
      "name": "cancelOrder",
      "outputs": [],
      "stateMutability": "nonpayable",
      "type": "function"
    },
    {
      "inputs": [],
      "name": "cancelAllOrders",
      "outputs": [],
      "stateMutability": "nonpayable",
      "type": "function"
    },
    {
      "inputs": [],
      "name": "getActiveOrdersWithMetadata",
      "outputs": [
        {
          "components": [
            {
              "internalType": "uint256",
              "name": "orderId",
              "type": "uint256"
            },
            {
              "internalType": "address",
              "name": "student",
              "type": "address"
            },
            {
              "internalType": "uint256",
              "name": "offeredTokenId",
              "type": "uint256"
            },
            {
              "internalType": "string",
              "name": "requestedCourseID",
              "type": "string"
            },
            {
              "internalType": "string",
              "name": "courseID",
              "type": "string"
            },
            {
              "internalType": "string",
              "name": "preceptID",
              "type": "string"
            },
            {
              "internalType": "string",
              "name": "timing",
              "type": "string"
            },
            {
              "internalType": "string",
              "name": "coursePageURL",
              "type": "string"
            }
          ],
          "internalType": "struct Swap.OrderWithMetadata[]",
          "name": "",
          "type": "tuple[]"
        }
      ],
      "stateMutability": "view",
      "type": "function"
    },
    {
      "inputs": [],
      "name": "executeSwaps",
      "outputs": [],
      "stateMutability": "nonpayable",
      "type": "function"
    }
  ],
  "bytecode": "0x608060405234801561000f575f80fd5b5060405162001cbd38038062001cbd833981016040819052610030916100ad565b6100393361005e565b600180546001600160a01b0319166001600160a01b03929092169190911790556100da565b5f80546001600160a01b038381166001600160a01b0319831681178455604051919092169283917f8be0079c531659141344cd1fd0a4f28419497f9722a3daafe3b4186f6b6457e09190a35050565b5f602082840312156100bd575f80fd5b81516001600160a01b03811681146100d3575f80fd5b9392505050565b611bd580620000e85f395ff3fe608060405234801561000f575f80fd5b50600436106100b1575f3560e01c80638d22d4461161006e5780638d22d446146101405780638da5cb5b14610153578063a85c38ef14610163578063b789bf5214610187578063f2fde38b14610190578063ffe7dc4e146101a3575f80fd5b8063028afabf146100b557806305462c6d146100bf57806323722084146100ef57806332603f2d14610110578063514fcac714610125578063715018a614610138575b5f80fd5b6100bd6101ab565b005b6001546100d2906001600160a01b031681565b6040516001600160a01b0390911681526020015b60405180910390f35b6101026100fd36600461147a565b610270565b6040519081526020016100e6565b61011861028f565b6040516100e691906114de565b6100bd61013336600461147a565b6105a6565b6100bd610695565b6100bd61014e36600461164d565b6106a8565b5f546001600160a01b03166100d2565b61017661017136600461147a565b610886565b6040516100e69594939291906116d1565b61010260025481565b6100bd61019e366004611725565b61094a565b6100bd6109c0565b6101b361105d565b5f5b60045481101561026d575f600482815481106101d3576101d3611740565b5f918252602080832090910154808352600390915260409091206004015490915060ff161561025a575f8181526003602090815260409182902060048101805460ff191690556001015491518381526001600160a01b03909216917fc0362da6f2ff36b382b34aec0814f6b3cdf89f5ef282a1d1f114d0c0b036d596910160405180910390a25b508061026581611768565b9150506101b5565b50565b6004818154811061027f575f80fd5b5f91825260209091200154905081565b606061029961105d565b5f805b6004548110156103025760035f600483815481106102bc576102bc611740565b5f918252602080832090910154835282019290925260400190206004015460ff16156102f057816102ec81611768565b9250505b806102fa81611768565b91505061029c565b505f8167ffffffffffffffff81111561031d5761031d6115e1565b60405190808252806020026020018201604052801561039c57816020015b6103896040518061010001604052805f81526020015f6001600160a01b031681526020015f815260200160608152602001606081526020016060815260200160608152602001606081525090565b81526020019060019003908161033b5790505b5090505f805b60045481101561059d575f600482815481106103c0576103c0611740565b5f918252602080832090910154808352600390915260409091206004015490915060ff166103ee575061058b565b5f818152600360205260408082206001546002820154925163d1be530960e01b815260048101939093529092918291829182916001600160a01b03169063d1be5309906024015f60405180830381865afa15801561044e573d5f803e3d5ffd5b505050506040513d5f823e601f3d908101601f1916820160405261047591908101906117ca565b60408051610100810182528a54815260018b01546001600160a01b0316602082015260028b01549181019190915260038a0180549599509397509195509350916060830191906104c490611870565b80601f01602080910402602001604051908101604052809291908181526020018280546104f090611870565b801561053b5780601f106105125761010080835404028352916020019161053b565b820191905f5260205f20905b81548152906001019060200180831161051e57829003601f168201915b505050505081526020018581526020018481526020018381526020018281525089898061056790611768565b9a508151811061057957610579611740565b60200260200101819052505050505050505b8061059581611768565b9150506103a2565b50909250505090565b5f818152600360205260409020600481015460ff166106025760405162461bcd60e51b81526020600482015260136024820152724f72646572206973206e6f742061637469766560681b60448201526064015b60405180910390fd5b60018101546001600160a01b0316331461064f5760405162461bcd60e51b815260206004820152600e60248201526d2737ba103cb7bab91037b93232b960911b60448201526064016105f9565b60048101805460ff1916905560405182815233907fc0362da6f2ff36b382b34aec0814f6b3cdf89f5ef282a1d1f114d0c0b036d596906020015b60405180910390a25050565b61069d61105d565b6106a65f6110b6565b565b6001546040516331a9108f60e11b81526004810184905233916001600160a01b031690636352211e90602401602060405180830381865afa1580156106ef573d5f803e3d5ffd5b505050506040513d601f19601f8201168201806040525081019061071391906118a8565b6001600160a01b0316146107695760405162461bcd60e51b815260206004820181905260248201527f596f7520646f206e6f74206f776e20746865206f66666572656420746f6b656e60448201526064016105f9565b60028054905f61077883611768565b90915550506040805160a08101825260028054808352336020808501918252848601888152606086018881526001608088018190525f9586526003938490529790942086518155925196830180546001600160a01b0319166001600160a01b03909816979097179096559451928101929092555191929091908201906107fe9082611911565b50608091909101516004918201805460ff191691151591909117905560025481546001810183555f929092527f8a35acfbc15ff81a39ae7d344fd709f28e8600b4aa8c65c6b64bfe7fe36bd19b90910181905560405133917fce5223d849377a0f55f7f8906570ae74f4031b0fe42160b9c14828a428447333916106899190869086906119cd565b600360208190525f9182526040909120805460018201546002830154938301805492946001600160a01b039092169391926108c090611870565b80601f01602080910402602001604051908101604052809291908181526020018280546108ec90611870565b80156109375780601f1061090e57610100808354040283529160200191610937565b820191905f5260205f20905b81548152906001019060200180831161091a57829003601f168201915b5050506004909301549192505060ff1685565b61095261105d565b6001600160a01b0381166109b75760405162461bcd60e51b815260206004820152602660248201527f4f776e61626c653a206e6577206f776e657220697320746865207a65726f206160448201526564647265737360d01b60648201526084016105f9565b61026d816110b6565b6109c861105d565b6004545f5b81811015611059575f600482815481106109e9576109e9611740565b5f918252602080832090910154808352600390915260409091206004015490915060ff16610a175750611047565b5f818152600360205260408082206001546002820154925163d1be530960e01b81529193926001600160a01b039091169163d1be530991610a5e9160040190815260200190565b5f60405180830381865afa158015610a78573d5f803e3d5ffd5b505050506040513d5f823e601f3d908101601f19168201604052610a9f91908101906117ca565b50505090505f846001610ab291906119f4565b90505b85811015611042575f60048281548110610ad157610ad1611740565b5f918252602080832090910154808352600390915260409091206004015490915060ff16610aff5750611030565b5f818152600360205260408082206001546002820154925163d1be530960e01b81529193926001600160a01b039091169163d1be530991610b469160040190815260200190565b5f60405180830381865afa158015610b60573d5f803e3d5ffd5b505050506040513d5f823e601f3d908101601f19168201604052610b8791908101906117ca565b5050509050808051906020012086600301604051610ba59190611a07565b6040518091039020148015610bd7575084516020860120604051610bcd906003850190611a07565b6040518091039020145b1561102c57600186810154838201546002808a01549086015493546040516331a9108f60e11b8152600481018390526001600160a01b03948516959385169492939286921690636352211e90602401602060405180830381865afa158015610c41573d5f803e3d5ffd5b505050506040513d601f19601f82011682018060405250810190610c6591906118a8565b6001600160a01b031614610caf5760405162461bcd60e51b81526020600482015260116024820152704f776e6572206d69736d6174636820743160781b60448201526064016105f9565b6001546040516331a9108f60e11b8152600481018390526001600160a01b03858116921690636352211e90602401602060405180830381865afa158015610cf8573d5f803e3d5ffd5b505050506040513d601f19601f82011682018060405250810190610d1c91906118a8565b6001600160a01b031614610d665760405162461bcd60e51b815260206004820152601160248201527027bbb732b91036b4b9b6b0ba31b4103a1960791b60448201526064016105f9565b610d71848383611105565b80610d825750610d82838284611105565b80610d935750610d9384838361128c565b80610da45750610da483828461128c565b15610db55750505050505050611030565b600154604051632142170760e11b81526001600160a01b038681166004830152858116602483015260448201859052909116906342842e0e906064015f604051808303815f87803b158015610e08575f80fd5b505af1158015610e1a573d5f803e3d5ffd5b5050600154604051632142170760e11b81526001600160a01b03878116600483015288811660248301526044820186905290911692506342842e0e91506064015f604051808303815f87803b158015610e71575f80fd5b505af1158015610e83573d5f803e3d5ffd5b5050505060048a8101805460ff1990811690915590870180549091169055604080518c815260208101899052908101839052606081018290527fabed9c2bf91a3043c0b147978b27b3272de63d4ccdcbcb8ba15ff32b078c5be39060800160405180910390a160015460405163d1be530960e01b8152600481018490525f9182916001600160a01b039091169063d1be5309906024015f60405180830381865afa158015610f33573d5f803e3d5ffd5b505050506040513d5f823e601f3d908101601f19168201604052610f5a91908101906117ca565b505060015460405163d1be530960e01b8152600481018790529294509092505f9182916001600160a01b03169063d1be5309906024015f60405180830381865afa158015610faa573d5f803e3d5ffd5b505050506040513d5f823e601f3d908101601f19168201604052610fd191908101906117ca565b5050915091507f9fe4a655c0746bee9930f95157c5b5dd064d1694237b1a3a016a4125a579bf0b8f8986868f8c8888604051611014989796959493929190611a79565b60405180910390a15050505050505050505050611042565b5050505b8061103a81611768565b915050610ab5565b505050505b8061105181611768565b9150506109cd565b5050565b5f546001600160a01b031633146106a65760405162461bcd60e51b815260206004820181905260248201527f4f776e61626c653a2063616c6c6572206973206e6f7420746865206f776e657260448201526064016105f9565b5f80546001600160a01b038381166001600160a01b0319831681178455604051919092169283917f8be0079c531659141344cd1fd0a4f28419497f9722a3daafe3b4186f6b6457e09190a35050565b5f8061111085611405565b60015460405163d1be530960e01b8152600481018690529192505f916001600160a01b039091169063d1be5309906024015f60405180830381865afa15801561115b573d5f803e3d5ffd5b505050506040513d5f823e601f3d908101601f1916820160405261118291908101906117ca565b50925050505f5b825181101561127e57858382815181106111a5576111a5611740565b6020026020010151031561126c5760015483515f916001600160a01b03169063d1be5309908690859081106111dc576111dc611740565b60200260200101516040518263ffffffff1660e01b815260040161120291815260200190565b5f60405180830381865afa15801561121c573d5f803e3d5ffd5b505050506040513d5f823e601f3d908101601f1916820160405261124391908101906117ca565b5092505050828051906020012081805190602001200361126a576001945050505050611285565b505b8061127681611768565b915050611189565b505f925050505b9392505050565b5f8061129785611405565b60015460405163d1be530960e01b8152600481018690529192505f916001600160a01b039091169063d1be5309906024015f60405180830381865afa1580156112e2573d5f803e3d5ffd5b505050506040513d5f823e601f3d908101601f1916820160405261130991908101906117ca565b50505090505f5b825181101561127e578583828151811061132c5761132c611740565b602002602001015103156113f35760015483515f916001600160a01b03169063d1be53099086908590811061136357611363611740565b60200260200101516040518263ffffffff1660e01b815260040161138991815260200190565b5f60405180830381865afa1580156113a3573d5f803e3d5ffd5b505050506040513d5f823e601f3d908101601f191682016040526113ca91908101906117ca565b505050905082805190602001208180519060200120036113f1576001945050505050611285565b505b806113fd81611768565b915050611310565b600154604051632118854760e21b81526001600160a01b0383811660048301526060921690638462151c906024015f60405180830381865afa15801561144d573d5f803e3d5ffd5b505050506040513d5f823e601f3d908101601f191682016040526114749190810190611afe565b92915050565b5f6020828403121561148a575f80fd5b5035919050565b5f5b838110156114ab578181015183820152602001611493565b50505f910152565b5f81518084526114ca816020860160208601611491565b601f01601f19169290920160200192915050565b5f6020808301818452808551808352604092508286019150828160051b8701018488015f5b838110156115d357888303603f19018552815180518452878101516001600160a01b03811689860152610100905087820151888601526060808301518282880152611550838801826114b3565b925050506080808301518683038288015261156b83826114b3565b9250505060a0808301518683038288015261158683826114b3565b9250505060c080830151868303828801526115a183826114b3565b9250505060e080830151925085820381870152506115bf81836114b3565b968901969450505090860190600101611503565b509098975050505050505050565b634e487b7160e01b5f52604160045260245ffd5b604051601f8201601f1916810167ffffffffffffffff8111828210171561161e5761161e6115e1565b604052919050565b5f67ffffffffffffffff82111561163f5761163f6115e1565b50601f01601f191660200190565b5f806040838503121561165e575f80fd5b82359150602083013567ffffffffffffffff81111561167b575f80fd5b8301601f8101851361168b575f80fd5b803561169e61169982611626565b6115f5565b8181528660208385010111156116b2575f80fd5b816020840160208301375f602083830101528093505050509250929050565b85815260018060a01b038516602082015283604082015260a060608201525f6116fd60a08301856114b3565b905082151560808301529695505050505050565b6001600160a01b038116811461026d575f80fd5b5f60208284031215611735575f80fd5b813561128581611711565b634e487b7160e01b5f52603260045260245ffd5b634e487b7160e01b5f52601160045260245ffd5b5f6001820161177957611779611754565b5060010190565b5f82601f83011261178f575f80fd5b815161179d61169982611626565b8181528460208386010111156117b1575f80fd5b6117c2826020830160208701611491565b949350505050565b5f805f80608085870312156117dd575f80fd5b845167ffffffffffffffff808211156117f4575f80fd5b61180088838901611780565b95506020870151915080821115611815575f80fd5b61182188838901611780565b94506040870151915080821115611836575f80fd5b61184288838901611780565b93506060870151915080821115611857575f80fd5b5061186487828801611780565b91505092959194509250565b600181811c9082168061188457607f821691505b6020821081036118a257634e487b7160e01b5f52602260045260245ffd5b50919050565b5f602082840312156118b8575f80fd5b815161128581611711565b601f82111561190c575f81815260208120601f850160051c810160208610156118e95750805b601f850160051c820191505b81811015611908578281556001016118f5565b5050505b505050565b815167ffffffffffffffff81111561192b5761192b6115e1565b61193f816119398454611870565b846118c3565b602080601f831160018114611972575f841561195b5750858301515b5f19600386901b1c1916600185901b178555611908565b5f85815260208120601f198616915b828110156119a057888601518255948401946001909101908401611981565b50858210156119bd57878501515f19600388901b60f8161c191681555b5050505050600190811b01905550565b838152826020820152606060408201525f6119eb60608301846114b3565b95945050505050565b8082018082111561147457611474611754565b5f808354611a1481611870565b60018281168015611a2c5760018114611a4157611a6d565b60ff1984168752821515830287019450611a6d565b875f526020805f205f5b85811015611a645781548a820152908401908201611a4b565b50505082870194505b50929695505050505050565b8881526001600160a01b038881166020830152610100604083018190525f91611aa48483018b6114b3565b91508382036060850152611ab8828a6114b3565b915087608085015280871660a08501525082810360c0840152611adb81866114b3565b905082810360e0840152611aef81856114b3565b9b9a5050505050505050505050565b5f6020808385031215611b0f575f80fd5b825167ffffffffffffffff80821115611b26575f80fd5b818501915085601f830112611b39575f80fd5b815181811115611b4b57611b4b6115e1565b8060051b9150611b5c8483016115f5565b8181529183018401918481019088841115611b75575f80fd5b938501935b83851015611b9357845182529385019390850190611b7a565b9897505050505050505056fea264697066735822122072a7b468ae3f00a2995af24389b65560280a1c8b4ca884d9fc8c86300fcba3cf64736f6c63430008140033",
  "immutableReferences": {},
  "source": "// SPDX-License-Identifier: MIT\r\npragma solidity ^0.8.0;\r\n\r\nimport \"@openzeppelin/contracts/access/Ownable.sol\";\r\n\r\n/**\r\n * @dev Interface for CourseToken.\r\n */\r\ninterface ICourseToken {\r\n    function ownerOf(uint256 tokenId) external view returns (address);\r\n    function safeTransferFrom(address from, address to, uint256 tokenId) external;\r\n    function courseDetails(uint256 tokenId)\r\n        external\r\n        view\r\n        returns (string memory, string memory, string memory, string memory);\r\n    function tokensOfOwner(address owner) external view returns (uint256[] memory);\r\n}\r\n\r\ncontract Swap is Ownable {\r\n    struct Order {\r\n        uint256 orderId;\r\n        address student;\r\n        uint256 offeredTokenId;\r\n        string requestedCourseID;\r\n        bool active;\r\n    }\r\n\r\n    ICourseToken public courseToken;\r\n    uint256 public orderCounter;\r\n    mapping(uint256 => Order) public orders;\r\n    uint256[] public orderIds;\r\n\r\n    event OrderSubmitted(uint256 orderId, address indexed student, uint256 offeredTokenId, string requestedCourseID);\r\n    event OrderCancelled(uint256 orderId, address indexed student);\r\n    event SwapExecuted(uint256 orderId1, uint256 orderId2, uint256 tokenId1, uint256 tokenId2);\r\n\r\n    event SwapExecutedVerbose(\r\n        uint256 orderId1,\r\n        address student1,\r\n        string courseID1,\r\n        string preceptID1,\r\n        uint256 orderId2,\r\n        address student2,\r\n        string courseID2,\r\n        string preceptID2\r\n    );\r\n\r\n    constructor(address _courseTokenAddress) Ownable() {\r\n        courseToken = ICourseToken(_courseTokenAddress);\r\n    }\r\n\r\n    function submitOrder(uint256 offeredTokenId, string memory requestedCourseID) public {\r\n        require(courseToken.ownerOf(offeredTokenId) == msg.sender, \"You do not own the offered token\");\r\n        orderCounter++;\r\n        orders[orderCounter] = Order(orderCounter, msg.sender, offeredTokenId, requestedCourseID, true);\r\n        orderIds.push(orderCounter);\r\n        emit OrderSubmitted(orderCounter, msg.sender, offeredTokenId, requestedCourseID);\r\n    }\r\n\r\n    function cancelOrder(uint256 orderId) public {\r\n        Order storage order = orders[orderId];\r\n        require(order.active, \"Order is not active\");\r\n        require(order.student == msg.sender, \"Not your order\");\r\n        order.active = false;\r\n        emit OrderCancelled(orderId, msg.sender);\r\n    }\r\n\r\n    function cancelAllOrders() public onlyOwner {\r\n        for (uint256 i = 0; i < orderIds.length; i++) {\r\n            uint256 oid = orderIds[i];\r\n            if (orders[oid].active) {\r\n                orders[oid].active = false;\r\n                emit OrderCancelled(oid, orders[oid].student);\r\n            }\r\n        }\r\n    }\r\n\r\n    struct OrderWithMetadata {\r\n        uint256 orderId;\r\n        address student;\r\n        uint256 offeredTokenId;\r\n        string requestedCourseID;\r\n        string courseID;\r\n        string preceptID;\r\n        string timing;\r\n        string coursePageURL;\r\n    }\r\n\r\n    function getActiveOrdersWithMetadata() public view onlyOwner returns (OrderWithMetadata[] memory) {\r\n        uint256 cnt;\r\n        for (uint256 i = 0; i < orderIds.length; i++) {\r\n            if (orders[orderIds[i]].active) cnt++;\r\n        }\r\n\r\n        OrderWithMetadata[] memory results = new OrderWithMetadata[](cnt);\r\n        uint256 idx;\r\n\r\n        for (uint256 i = 0; i < orderIds.length; i++) {\r\n            uint256 oid = orderIds[i];\r\n            if (!orders[oid].active) continue;\r\n            Order storage o = orders[oid];\r\n            (string memory cID, string memory pID, string memory tm, string memory url) =\r\n                courseToken.courseDetails(o.offeredTokenId);\r\n\r\n            results[idx++] = OrderWithMetadata(\r\n                o.orderId, o.student, o.offeredTokenId, o.requestedCourseID,\r\n                cID, pID, tm, url\r\n            );\r\n        }\r\n        return results;\r\n    }\r\n\r\n    function executeSwaps() public onlyOwner {\r\n        uint256 n = orderIds.length;\r\n        for (uint256 i = 0; i < n; i++) {\r\n            uint256 id1 = orderIds[i];\r\n            if (!orders[id1].active) continue;\r\n\r\n            Order storage o1 = orders[id1];\r\n            (string memory c1, , , ) = courseToken.courseDetails(o1.offeredTokenId);\r\n\r\n            for (uint256 j = i + 1; j < n; j++) {\r\n                uint256 id2 = orderIds[j];\r\n                if (!orders[id2].active) continue;\r\n\r\n                Order storage o2 = orders[id2];\r\n                (string memory c2, , , ) = courseToken.courseDetails(o2.offeredTokenId);\r\n\r\n                if (\r\n                    keccak256(bytes(o1.requestedCourseID)) == keccak256(bytes(c2)) &&\r\n                    keccak256(bytes(o2.requestedCourseID)) == keccak256(bytes(c1))\r\n                ) {\r\n                    address s1 = o1.student;\r\n                    address s2 = o2.student;\r\n                    uint256 t1 = o1.offeredTokenId;\r\n                    uint256 t2 = o2.offeredTokenId;\r\n\r\n                    require(courseToken.ownerOf(t1) == s1, \"Owner mismatch t1\");\r\n                    require(courseToken.ownerOf(t2) == s2, \"Owner mismatch t2\");\r\n\r\n                    // timing & dup checks\r\n                    if (_hasTimingConflict(s1, t1, t2) ||\r\n                        _hasTimingConflict(s2, t2, t1) ||\r\n                        _hasCourseConflict(s1, t1, t2) ||\r\n                        _hasCourseConflict(s2, t2, t1)\r\n                    ) continue;\r\n\r\n                    // atomic swap\r\n                    courseToken.safeTransferFrom(s1, s2, t1);\r\n                    courseToken.safeTransferFrom(s2, s1, t2);\r\n\r\n                    o1.active = false;\r\n                    o2.active = false;\r\n\r\n                    emit SwapExecuted(id1, id2, t1, t2);\r\n\r\n                    {\r\n                        (string memory cc1, string memory pp1, , ) =\r\n                            courseToken.courseDetails(t1);\r\n                        (string memory cc2, string memory pp2, , ) =\r\n                            courseToken.courseDetails(t2);\r\n\r\n                        emit SwapExecutedVerbose(\r\n                            id1, s1, cc1, pp1,\r\n                            id2, s2, cc2, pp2\r\n                        );\r\n                    }\r\n                    break;\r\n                }\r\n            }\r\n        }\r\n    }\r\n\r\n    // instead of tokenOfOwnerByIndex, use the helper:\r\n    function _getTokens(address who) internal view returns (uint256[] memory) {\r\n        return courseToken.tokensOfOwner(who);\r\n    }\r\n\r\n    function _hasTimingConflict(address student, uint256 drop, uint256 incoming) internal view returns (bool) {\r\n        uint256[] memory regs = _getTokens(student);\r\n        (, , string memory inT, ) = courseToken.courseDetails(incoming);\r\n        for (uint i = 0; i < regs.length; i++) {\r\n            if (regs[i] == drop) continue;\r\n            (, , string memory rT, ) = courseToken.courseDetails(regs[i]);\r\n            if (keccak256(bytes(rT)) == keccak256(bytes(inT))) {\r\n                return true;\r\n            }\r\n        }\r\n        return false;\r\n    }\r\n\r\n    function _hasCourseConflict(address student, uint256 drop, uint256 incoming) internal view returns (bool) {\r\n        uint256[] memory regs = _getTokens(student);\r\n        (string memory inCID, , , ) = courseToken.courseDetails(incoming);\r\n        for (uint i = 0; i < regs.length; i++) {\r\n            if (regs[i] == drop) continue;\r\n            (string memory rCID, , , ) = courseToken.courseDetails(regs[i]);\r\n            if (keccak256(bytes(rCID)) == keccak256(bytes(inCID))) {\r\n                return true;\r\n            }\r\n        }\r\n        return false;\r\n    }\r\n}\r\n",
  "sourcePath": "C:\\Users\\User\\Downloads\\TigerSwap\\contracts\\Swap.sol",
  "compiler": {
    "name": "solc",
    "version": "0.8.20+commit.a1b79de6.Emscripten.clang"
  },
  "schemaVersion": "3.4.16",
  "updatedAt": "2025-04-17T02:32:24.457Z",
  "devdoc": {
    "kind": "dev",
    "methods": {
      "owner()": {
        "details": "Returns the address of the current owner."
      },
      "renounceOwnership()": {
        "details": "Leaves the contract without owner. It will not be possible to call `onlyOwner` functions anymore. Can only be called by the current owner. NOTE: Renouncing ownership will leave the contract without an owner, thereby removing any functionality that is only available to the owner."
      },
      "transferOwnership(address)": {
        "details": "Transfers ownership of the contract to a new account (`newOwner`). Can only be called by the current owner."
      }
    },
    "version": 1
  },
  "userdoc": {
    "kind": "user",
    "methods": {},
    "version": 1
  }
}